{
  "contractName": "ConsentContractFactory",
  "abi": [
    {
      "inputs": [
        {
          "internalType": "string",
          "name": "_contractID",
          "type": "string"
        }
      ],
      "name": "createConsentContract",
      "outputs": [],
      "stateMutability": "nonpayable",
      "type": "function"
    },
    {
      "inputs": [
        {
          "internalType": "string",
          "name": "_contractID",
          "type": "string"
        }
      ],
      "name": "getContractAddress",
      "outputs": [
        {
          "internalType": "address",
          "name": "",
          "type": "address"
        }
      ],
      "stateMutability": "view",
      "type": "function"
    },
    {
      "inputs": [
        {
          "internalType": "address",
          "name": "_address",
          "type": "address"
        }
      ],
      "name": "getContracts",
      "outputs": [
        {
          "internalType": "contract ConsentContract[]",
          "name": "",
          "type": "address[]"
        }
      ],
      "stateMutability": "view",
      "type": "function"
    },
    {
      "inputs": [],
      "name": "testArray",
      "outputs": [
        {
          "internalType": "contract ConsentContract[]",
          "name": "",
          "type": "address[]"
        }
      ],
      "stateMutability": "view",
      "type": "function"
    }
  ],
  "bytecode": "0x608060405234801561001057600080fd5b506122d0806100206000396000f3fe60806040523480156200001157600080fd5b5060043610620000525760003560e01c806304433bbc1462000057578063213fe2b7146200008d5780632283bffd14620000c35780635b6015f414620000e5575b600080fd5b6200007560048036038101906200006f91906200083e565b62000105565b604051620000849190620008d4565b60405180910390f35b620000ab6004803603810190620000a5919062000922565b6200029b565b604051620000ba919062000a7c565b60405180910390f35b620000cd62000586565b604051620000dc919062000a7c565b60405180910390f35b620001036004803603810190620000fd91906200083e565b62000616565b005b600080600090505b6000805490508110156200029157600080828154811062000133576200013262000aa0565b5b9060005260206000200160009054906101000a900473ffffffffffffffffffffffffffffffffffffffff1673ffffffffffffffffffffffffffffffffffffffff166391f30bd46040518163ffffffff1660e01b8152600401600060405180830381865afa158015620001a9573d6000803e3d6000fd5b505050506040513d6000823e3d601f19601f82011682018060405250810190620001d4919062000b79565b905083604051602001620001e9919062000c17565b604051602081830303815290604052805190602001208160405160200162000212919062000c17565b60405160208183030381529060405280519060200120036200027a576000828154811062000245576200024462000aa0565b5b9060005260206000200160009054906101000a900473ffffffffffffffffffffffffffffffffffffffff169250505062000296565b508080620002889062000c69565b9150506200010d565b503090505b919050565b60606000808054905067ffffffffffffffff811115620002c057620002bf620006f7565b5b604051908082528060200260200182016040528015620002ef5781602001602082028036833780820191505090505b50905060005b6000805490508110156200057c578373ffffffffffffffffffffffffffffffffffffffff166000828154811062000331576200033062000aa0565b5b9060005260206000200160009054906101000a900473ffffffffffffffffffffffffffffffffffffffff1673ffffffffffffffffffffffffffffffffffffffff1663a8e4fb906040518163ffffffff1660e01b8152600401602060405180830381865afa158015620003a7573d6000803e3d6000fd5b505050506040513d601f19601f82011682018060405250810190620003cd919062000ccd565b73ffffffffffffffffffffffffffffffffffffffff161480620004cd57508373ffffffffffffffffffffffffffffffffffffffff166000828154811062000419576200041862000aa0565b5b9060005260206000200160009054906101000a900473ffffffffffffffffffffffffffffffffffffffff1673ffffffffffffffffffffffffffffffffffffffff1663e74071b46040518163ffffffff1660e01b8152600401602060405180830381865afa1580156200048f573d6000803e3d6000fd5b505050506040513d601f19601f82011682018060405250810190620004b5919062000ccd565b73ffffffffffffffffffffffffffffffffffffffff16145b15620005665760008181548110620004ea57620004e962000aa0565b5b9060005260206000200160009054906101000a900473ffffffffffffffffffffffffffffffffffffffff168282815181106200052b576200052a62000aa0565b5b602002602001019073ffffffffffffffffffffffffffffffffffffffff16908173ffffffffffffffffffffffffffffffffffffffff16815250505b8080620005739062000c69565b915050620002f5565b5080915050919050565b606060008054806020026020016040519081016040528092919081815260200182805480156200060c57602002820191906000526020600020905b8160009054906101000a900473ffffffffffffffffffffffffffffffffffffffff1673ffffffffffffffffffffffffffffffffffffffff1681526020019060010190808311620005c1575b5050505050905090565b6000816040516200062790620006ba565b62000633919062000d51565b604051809103906000f08015801562000650573d6000803e3d6000fd5b5090506000819080600181540180825580915050600190039060005260206000200160009091909190916101000a81548173ffffffffffffffffffffffffffffffffffffffff021916908373ffffffffffffffffffffffffffffffffffffffff1602179055505050565b6115258062000d7683390190565b6000604051905090565b600080fd5b600080fd5b600080fd5b600080fd5b6000601f19601f8301169050919050565b7f4e487b7100000000000000000000000000000000000000000000000000000000600052604160045260246000fd5b6200073182620006e6565b810181811067ffffffffffffffff82111715620007535762000752620006f7565b5b80604052505050565b600062000768620006c8565b905062000776828262000726565b919050565b600067ffffffffffffffff821115620007995762000798620006f7565b5b620007a482620006e6565b9050602081019050919050565b82818337600083830152505050565b6000620007d7620007d1846200077b565b6200075c565b905082815260208101848484011115620007f657620007f5620006e1565b5b62000803848285620007b1565b509392505050565b600082601f830112620008235762000822620006dc565b5b813562000835848260208601620007c0565b91505092915050565b600060208284031215620008575762000856620006d2565b5b600082013567ffffffffffffffff811115620008785762000877620006d7565b5b62000886848285016200080b565b91505092915050565b600073ffffffffffffffffffffffffffffffffffffffff82169050919050565b6000620008bc826200088f565b9050919050565b620008ce81620008af565b82525050565b6000602082019050620008eb6000830184620008c3565b92915050565b620008fc81620008af565b81146200090857600080fd5b50565b6000813590506200091c81620008f1565b92915050565b6000602082840312156200093b576200093a620006d2565b5b60006200094b848285016200090b565b91505092915050565b600081519050919050565b600082825260208201905092915050565b6000819050602082019050919050565b6000819050919050565b6000620009ab620009a56200099f846200088f565b62000980565b6200088f565b9050919050565b6000620009bf826200098a565b9050919050565b6000620009d382620009b2565b9050919050565b620009e581620009c6565b82525050565b6000620009f98383620009da565b60208301905092915050565b6000602082019050919050565b600062000a1f8262000954565b62000a2b81856200095f565b935062000a388362000970565b8060005b8381101562000a6f57815162000a538882620009eb565b975062000a608362000a05565b92505060018101905062000a3c565b5085935050505092915050565b6000602082019050818103600083015262000a98818462000a12565b905092915050565b7f4e487b7100000000000000000000000000000000000000000000000000000000600052603260045260246000fd5b60005b8381101562000aef57808201518184015260208101905062000ad2565b60008484015250505050565b600062000b1262000b0c846200077b565b6200075c565b90508281526020810184848401111562000b315762000b30620006e1565b5b62000b3e84828562000acf565b509392505050565b600082601f83011262000b5e5762000b5d620006dc565b5b815162000b7084826020860162000afb565b91505092915050565b60006020828403121562000b925762000b91620006d2565b5b600082015167ffffffffffffffff81111562000bb35762000bb2620006d7565b5b62000bc18482850162000b46565b91505092915050565b600081519050919050565b600081905092915050565b600062000bed8262000bca565b62000bf9818562000bd5565b935062000c0b81856020860162000acf565b80840191505092915050565b600062000c25828462000be0565b915081905092915050565b7f4e487b7100000000000000000000000000000000000000000000000000000000600052601160045260246000fd5b6000819050919050565b600062000c768262000c5f565b91507fffffffffffffffffffffffffffffffffffffffffffffffffffffffffffffffff820362000cab5762000caa62000c30565b5b600182019050919050565b60008151905062000cc781620008f1565b92915050565b60006020828403121562000ce65762000ce5620006d2565b5b600062000cf68482850162000cb6565b91505092915050565b600082825260208201905092915050565b600062000d1d8262000bca565b62000d29818562000cff565b935062000d3b81856020860162000acf565b62000d4681620006e6565b840191505092915050565b6000602082019050818103600083015262000d6d818462000d10565b90509291505056fe60806040523480156200001157600080fd5b506040516200152538038062001525833981810160405281019062000037919062000211565b8060009081620000489190620004ad565b506000600b60006101000a81548160ff0219169083600781111562000072576200007162000594565b5b021790555050620005c3565b6000604051905090565b600080fd5b600080fd5b600080fd5b600080fd5b6000601f19601f8301169050919050565b7f4e487b7100000000000000000000000000000000000000000000000000000000600052604160045260246000fd5b620000e7826200009c565b810181811067ffffffffffffffff82111715620001095762000108620000ad565b5b80604052505050565b60006200011e6200007e565b90506200012c8282620000dc565b919050565b600067ffffffffffffffff8211156200014f576200014e620000ad565b5b6200015a826200009c565b9050602081019050919050565b60005b83811015620001875780820151818401526020810190506200016a565b60008484015250505050565b6000620001aa620001a48462000131565b62000112565b905082815260208101848484011115620001c957620001c862000097565b5b620001d684828562000167565b509392505050565b600082601f830112620001f657620001f562000092565b5b81516200020884826020860162000193565b91505092915050565b6000602082840312156200022a576200022962000088565b5b600082015167ffffffffffffffff8111156200024b576200024a6200008d565b5b6200025984828501620001de565b91505092915050565b600081519050919050565b7f4e487b7100000000000000000000000000000000000000000000000000000000600052602260045260246000fd5b60006002820490506001821680620002b557607f821691505b602082108103620002cb57620002ca6200026d565b5b50919050565b60008190508160005260206000209050919050565b60006020601f8301049050919050565b600082821b905092915050565b600060088302620003357fffffffffffffffffffffffffffffffffffffffffffffffffffffffffffffffff82620002f6565b620003418683620002f6565b95508019841693508086168417925050509392505050565b6000819050919050565b6000819050919050565b60006200038e62000388620003828462000359565b62000363565b62000359565b9050919050565b6000819050919050565b620003aa836200036d565b620003c2620003b98262000395565b84845462000303565b825550505050565b600090565b620003d9620003ca565b620003e68184846200039f565b505050565b5b818110156200040e5762000402600082620003cf565b600181019050620003ec565b5050565b601f8211156200045d576200042781620002d1565b6200043284620002e6565b8101602085101562000442578190505b6200045a6200045185620002e6565b830182620003eb565b50505b505050565b600082821c905092915050565b6000620004826000198460080262000462565b1980831691505092915050565b60006200049d83836200046f565b9150826002028217905092915050565b620004b88262000262565b67ffffffffffffffff811115620004d457620004d3620000ad565b5b620004e082546200029c565b620004ed82828562000412565b600060209050601f83116001811462000525576000841562000510578287015190505b6200051c85826200048f565b8655506200058c565b601f1984166200053586620002d1565b60005b828110156200055f5784890151825560018201915060208501945060208101905062000538565b868310156200057f57848901516200057b601f8916826200046f565b8355505b6001600288020188555050505b505050505050565b7f4e487b7100000000000000000000000000000000000000000000000000000000600052602160045260246000fd5b610f5280620005d36000396000f3fe60806040526004361061009c5760003560e01c806391f30bd41161006457806391f30bd41461014c5780639dfc911714610177578063a8e4fb90146101ac578063d0e30db0146101d7578063e74071b4146101e1578063ff4c4d541461020c5761009c565b80631865c57d146100a15780633ccfd60b146100cc578063509c2222146100e357806379e93bf81461010c5780637c8dc57514610135575b600080fd5b3480156100ad57600080fd5b506100b6610223565b6040516100c391906109be565b60405180910390f35b3480156100d857600080fd5b506100e16102ac565b005b3480156100ef57600080fd5b5061010a60048036038101906101059190610a72565b6103ba565b005b34801561011857600080fd5b50610133600480360381019061012e9190610b3c565b610478565b005b34801561014157600080fd5b5061014a6105ed565b005b34801561015857600080fd5b5061016161061a565b60405161016e9190610bf9565b60405180910390f35b34801561018357600080fd5b5061018c6106a8565b6040516101a39b9a99989796959493929190610c39565b60405180910390f35b3480156101b857600080fd5b506101c16107e7565b6040516101ce9190610ceb565b60405180910390f35b6101df61080d565b005b3480156101ed57600080fd5b506101f66108f4565b6040516102039190610ceb565b60405180910390f35b34801561021857600080fd5b5061022161091a565b005b60006002600781111561023957610238610947565b5b600b60009054906101000a900460ff16600781111561025b5761025a610947565b5b0361029757600554421115610296576007600b60006101000a81548160ff021916908360078111156102905761028f610947565b5b02179055505b5b600b60009054906101000a900460ff16905090565b600360078111156102c0576102bf610947565b5b600b60009054906101000a900460ff1660078111156102e2576102e1610947565b5b14610322576040517f08c379a000000000000000000000000000000000000000000000000000000000815260040161031990610d78565b60405180910390fd5b600260009054906101000a900473ffffffffffffffffffffffffffffffffffffffff1673ffffffffffffffffffffffffffffffffffffffff166108fc6007549081150290604051600060405180830381858888f1935050505015801561038c573d6000803e3d6000fd5b506002600b60006101000a81548160ff021916908360078111156103b3576103b2610947565b5b0217905550565b88600160006101000a81548173ffffffffffffffffffffffffffffffffffffffff021916908373ffffffffffffffffffffffffffffffffffffffff16021790555087600260006101000a81548173ffffffffffffffffffffffffffffffffffffffff021916908373ffffffffffffffffffffffffffffffffffffffff16021790555086600381905550856004819055508460058190555083600681905550826007819055508160088190555080600981905550505050505050505050565b600160009054906101000a900473ffffffffffffffffffffffffffffffffffffffff1673ffffffffffffffffffffffffffffffffffffffff168173ffffffffffffffffffffffffffffffffffffffff1603610517576001600a60000160006101000a81548160ff0219169083151502179055506001600b60006101000a81548160ff0219169083600781111561051157610510610947565b5b02179055505b600260009054906101000a900473ffffffffffffffffffffffffffffffffffffffff1673ffffffffffffffffffffffffffffffffffffffff168173ffffffffffffffffffffffffffffffffffffffff160361058b576001600a60000160016101000a81548160ff0219169083151502179055505b600a60000160009054906101000a900460ff1680156105b95750600a60000160019054906101000a900460ff165b156105ea576004600b60006101000a81548160ff021916908360078111156105e4576105e3610947565b5b02179055505b50565b6005600b60006101000a81548160ff0219169083600781111561061357610612610947565b5b0217905550565b6000805461062790610dc7565b80601f016020809104026020016040519081016040528092919081815260200182805461065390610dc7565b80156106a05780601f10610675576101008083540402835291602001916106a0565b820191906000526020600020905b81548152906001019060200180831161068357829003601f168201915b505050505081565b6000806060600080600080600080600080600160009054906101000a900473ffffffffffffffffffffffffffffffffffffffff16600260009054906101000a900473ffffffffffffffffffffffffffffffffffffffff166000600354600454600554600654600754600b60009054906101000a900460ff16600781111561073257610731610947565b5b60085460095488805461074490610dc7565b80601f016020809104026020016040519081016040528092919081815260200182805461077090610dc7565b80156107bd5780601f10610792576101008083540402835291602001916107bd565b820191906000526020600020905b8154815290600101906020018083116107a057829003601f168201915b505050505098509a509a509a509a509a509a509a509a509a509a509a50909192939495969798999a565b600160009054906101000a900473ffffffffffffffffffffffffffffffffffffffff1681565b6004600781111561082157610820610947565b5b600b60009054906101000a900460ff16600781111561084357610842610947565b5b14610883576040517f08c379a000000000000000000000000000000000000000000000000000000000815260040161087a90610e6a565b60405180910390fd5b60075434146108c7576040517f08c379a00000000000000000000000000000000000000000000000000000000081526004016108be90610efc565b60405180910390fd5b6003600b60006101000a81548160ff021916908360078111156108ed576108ec610947565b5b0217905550565b600260009054906101000a900473ffffffffffffffffffffffffffffffffffffffff1681565b6006600b60006101000a81548160ff021916908360078111156109405761093f610947565b5b0217905550565b7f4e487b7100000000000000000000000000000000000000000000000000000000600052602160045260246000fd5b6008811061098757610986610947565b5b50565b600081905061099882610976565b919050565b60006109a88261098a565b9050919050565b6109b88161099d565b82525050565b60006020820190506109d360008301846109af565b92915050565b600080fd5b600073ffffffffffffffffffffffffffffffffffffffff82169050919050565b6000610a09826109de565b9050919050565b610a19816109fe565b8114610a2457600080fd5b50565b600081359050610a3681610a10565b92915050565b6000819050919050565b610a4f81610a3c565b8114610a5a57600080fd5b50565b600081359050610a6c81610a46565b92915050565b60008060008060008060008060006101208a8c031215610a9557610a946109d9565b5b6000610aa38c828d01610a27565b9950506020610ab48c828d01610a27565b9850506040610ac58c828d01610a5d565b9750506060610ad68c828d01610a5d565b9650506080610ae78c828d01610a5d565b95505060a0610af88c828d01610a5d565b94505060c0610b098c828d01610a5d565b93505060e0610b1a8c828d01610a5d565b925050610100610b2c8c828d01610a5d565b9150509295985092959850929598565b600060208284031215610b5257610b516109d9565b5b6000610b6084828501610a27565b91505092915050565b600081519050919050565b600082825260208201905092915050565b60005b83811015610ba3578082015181840152602081019050610b88565b60008484015250505050565b6000601f19601f8301169050919050565b6000610bcb82610b69565b610bd58185610b74565b9350610be5818560208601610b85565b610bee81610baf565b840191505092915050565b60006020820190508181036000830152610c138184610bc0565b905092915050565b610c24816109fe565b82525050565b610c3381610a3c565b82525050565b600061016082019050610c4f600083018e610c1b565b610c5c602083018d610c1b565b8181036040830152610c6e818c610bc0565b9050610c7d606083018b610c2a565b610c8a608083018a610c2a565b610c9760a0830189610c2a565b610ca460c0830188610c2a565b610cb160e0830187610c2a565b610cbf610100830186610c2a565b610ccd610120830185610c2a565b610cdb610140830184610c2a565b9c9b505050505050505050505050565b6000602082019050610d006000830184610c1b565b92915050565b7f4e6f7468696e672077697468647261772c20636f6e73656e746572206e65656460008201527f7320746f2073656e642045544820666972737400000000000000000000000000602082015250565b6000610d62603383610b74565b9150610d6d82610d06565b604082019050919050565b60006020820190508181036000830152610d9181610d55565b9050919050565b7f4e487b7100000000000000000000000000000000000000000000000000000000600052602260045260246000fd5b60006002820490506001821680610ddf57607f821691505b602082108103610df257610df1610d98565b5b50919050565b7f436f6e7472616374206e65656420746f206265207369676e65642066726f6d2060008201527f626f746820706172746965730000000000000000000000000000000000000000602082015250565b6000610e54602c83610b74565b9150610e5f82610df8565b604082019050919050565b60006020820190508181036000830152610e8381610e47565b9050919050565b7f596f75206e65656420746f206465706f7369742074686520616772656564207060008201527f7269636521000000000000000000000000000000000000000000000000000000602082015250565b6000610ee6602583610b74565b9150610ef182610e8a565b604082019050919050565b60006020820190508181036000830152610f1581610ed9565b905091905056fea264697066735822122078afb7530316a55b5b042c43f44366dbd1e6ada6e780e43806cda06671234fa364736f6c63430008110033a2646970667358221220d162a32beae97c27758574a723f207ad87dd6218bf0076f8d9b6df0678b3e75464736f6c63430008110033",
  "immutableReferences": {},
  "source": "// SPDX-License-Identifier: GPL-3.0\n\npragma solidity >=0.7.0 <0.9.0;\n\n// import base Consent Contract\nimport \"./ConsentContract.sol\";\n\n/** \n * used because factory only need to be deployed once\n * @title Factory for Consent Contracts \n*/\ncontract ConsentContractFactory {\n\n    // stores all deployed consent contracts\n    ConsentContract[] private contracts;\n\n    // defines the wanted type of the contract\n    enum AddressType {\n        PROPOSER,\n        CONSENTER\n    }\n\n    /**\n     * creates a new consent contract with a unique contractID\n     * @param _contractID unique ID of a Contract\n     */\n    function createConsentContract(string memory _contractID) public {\n        ConsentContract consentContract = new ConsentContract(_contractID);\n\n        contracts.push(consentContract);\n    }\n\n    /**\n     * return the contract with the given contractID \n     * if not found return the contract address\n     * @param _contractID unique ID of a contract\n     * @return address of the found contract\n     */\n    function getContractAddress(string memory _contractID) public view returns(address) {\n        for (uint i = 0; i < contracts.length; i++) {\n            string memory contractID = contracts[i].contractID();\n\n            // compare hash value of both contractIDs\n            if (keccak256(abi.encodePacked(contractID)) == keccak256(abi.encodePacked(_contractID))) {\n                return address(contracts[i]);\n            }\n        }\n\n        return address(this);\n    }\n\n    /**\n     * get related contracts for this address either Proposer or Consenter\n     * @param _address address of a member\n     * @return array of related contracts\n     */\n    function getContracts(address _address) public view returns(ConsentContract[] memory) {\n        ConsentContract[] memory contractsForAddress = new ConsentContract[](contracts.length);\n\n        for (uint i = 0; i < contracts.length; i++) {\n\n            // add to array if addresses match\n            if (contracts[i].proposer() == _address || contracts[i].consenter() == _address) {\n                contractsForAddress[i] = contracts[i];\n            }\n        }\n\n        return contractsForAddress;\n    }\n\n    function testArray() public view returns(ConsentContract[] memory) {\n        return contracts;\n    }\n}\n\n",
  "sourcePath": "/Users/michael/Documents/dev/e-community-platform/in-progress/consent-management/src/blockchain/smart_contracts/contracts/ConsentContractFactory.sol",
  "compiler": {
    "name": "solc",
    "version": "0.8.17+commit.8df45f5f.Emscripten.clang"
  },
  "schemaVersion": "3.4.11",
  "updatedAt": "2023-02-28T09:24:45.045Z",
  "devdoc": {
    "kind": "dev",
    "methods": {
      "createConsentContract(string)": {
        "params": {
          "_contractID": "unique ID of a Contract"
        }
      },
      "getContractAddress(string)": {
        "params": {
          "_contractID": "unique ID of a contract"
        },
        "returns": {
          "_0": "address of the found contract"
        }
      },
      "getContracts(address)": {
        "params": {
          "_address": "address of a member"
        },
        "returns": {
          "_0": "array of related contracts"
        }
      }
    },
    "title": "Factory for Consent Contracts ",
    "version": 1
  },
  "userdoc": {
    "kind": "user",
    "methods": {
      "createConsentContract(string)": {
        "notice": "creates a new consent contract with a unique contractID"
      },
      "getContractAddress(string)": {
        "notice": "return the contract with the given contractID  if not found return the contract address"
      },
      "getContracts(address)": {
        "notice": "get related contracts for this address either Proposer or Consenter"
      }
    },
    "notice": "used because factory only need to be deployed once",
    "version": 1
  }
}