{
  "contractName": "ConsentContract",
  "abi": [
    {
      "inputs": [
        {
          "internalType": "string",
          "name": "_contractID",
          "type": "string"
        }
      ],
      "stateMutability": "nonpayable",
      "type": "constructor"
    },
    {
      "inputs": [],
      "name": "consenter",
      "outputs": [
        {
          "internalType": "address",
          "name": "",
          "type": "address"
        }
      ],
      "stateMutability": "view",
      "type": "function"
    },
    {
      "inputs": [],
      "name": "contractID",
      "outputs": [
        {
          "internalType": "string",
          "name": "",
          "type": "string"
        }
      ],
      "stateMutability": "view",
      "type": "function"
    },
    {
      "inputs": [],
      "name": "proposer",
      "outputs": [
        {
          "internalType": "address",
          "name": "",
          "type": "address"
        }
      ],
      "stateMutability": "view",
      "type": "function"
    },
    {
      "inputs": [],
      "name": "getContractDetails",
      "outputs": [
        {
          "internalType": "address",
          "name": "",
          "type": "address"
        },
        {
          "internalType": "address",
          "name": "",
          "type": "address"
        },
        {
          "internalType": "string",
          "name": "",
          "type": "string"
        },
        {
          "internalType": "uint256",
          "name": "",
          "type": "uint256"
        },
        {
          "internalType": "uint256",
          "name": "",
          "type": "uint256"
        },
        {
          "internalType": "uint256",
          "name": "",
          "type": "uint256"
        },
        {
          "internalType": "uint256",
          "name": "",
          "type": "uint256"
        },
        {
          "internalType": "uint256",
          "name": "",
          "type": "uint256"
        },
        {
          "internalType": "uint256",
          "name": "",
          "type": "uint256"
        },
        {
          "internalType": "uint256",
          "name": "",
          "type": "uint256"
        },
        {
          "internalType": "uint256",
          "name": "",
          "type": "uint256"
        }
      ],
      "stateMutability": "view",
      "type": "function"
    },
    {
      "inputs": [
        {
          "internalType": "address",
          "name": "_proposer",
          "type": "address"
        },
        {
          "internalType": "address",
          "name": "_consenter",
          "type": "address"
        },
        {
          "internalType": "uint256",
          "name": "_startEnergyData",
          "type": "uint256"
        },
        {
          "internalType": "uint256",
          "name": "_endEnergyData",
          "type": "uint256"
        },
        {
          "internalType": "uint256",
          "name": "_validityOfContract",
          "type": "uint256"
        },
        {
          "internalType": "uint256",
          "name": "_pricePerHour",
          "type": "uint256"
        },
        {
          "internalType": "uint256",
          "name": "_totalPrice",
          "type": "uint256"
        },
        {
          "internalType": "uint256",
          "name": "_dataUsage",
          "type": "uint256"
        },
        {
          "internalType": "uint256",
          "name": "_timeResolution",
          "type": "uint256"
        }
      ],
      "name": "setContractDetails",
      "outputs": [],
      "stateMutability": "nonpayable",
      "type": "function"
    },
    {
      "inputs": [
        {
          "internalType": "address",
          "name": "_sender",
          "type": "address"
        }
      ],
      "name": "signContract",
      "outputs": [],
      "stateMutability": "nonpayable",
      "type": "function"
    },
    {
      "inputs": [],
      "name": "revokeConsent",
      "outputs": [],
      "stateMutability": "nonpayable",
      "type": "function"
    },
    {
      "inputs": [],
      "name": "rejectConsent",
      "outputs": [],
      "stateMutability": "nonpayable",
      "type": "function"
    },
    {
      "inputs": [],
      "name": "deposit",
      "outputs": [],
      "stateMutability": "payable",
      "type": "function"
    },
    {
      "inputs": [],
      "name": "withdraw",
      "outputs": [],
      "stateMutability": "nonpayable",
      "type": "function"
    },
    {
      "inputs": [],
      "name": "getState",
      "outputs": [
        {
          "internalType": "enum ConsentContract.STATE",
          "name": "",
          "type": "uint8"
        }
      ],
      "stateMutability": "nonpayable",
      "type": "function"
    }
  ],
  "bytecode": "0x60806040523480156200001157600080fd5b506040516200152538038062001525833981810160405281019062000037919062000211565b8060009081620000489190620004ad565b506000600b60006101000a81548160ff0219169083600781111562000072576200007162000594565b5b021790555050620005c3565b6000604051905090565b600080fd5b600080fd5b600080fd5b600080fd5b6000601f19601f8301169050919050565b7f4e487b7100000000000000000000000000000000000000000000000000000000600052604160045260246000fd5b620000e7826200009c565b810181811067ffffffffffffffff82111715620001095762000108620000ad565b5b80604052505050565b60006200011e6200007e565b90506200012c8282620000dc565b919050565b600067ffffffffffffffff8211156200014f576200014e620000ad565b5b6200015a826200009c565b9050602081019050919050565b60005b83811015620001875780820151818401526020810190506200016a565b60008484015250505050565b6000620001aa620001a48462000131565b62000112565b905082815260208101848484011115620001c957620001c862000097565b5b620001d684828562000167565b509392505050565b600082601f830112620001f657620001f562000092565b5b81516200020884826020860162000193565b91505092915050565b6000602082840312156200022a576200022962000088565b5b600082015167ffffffffffffffff8111156200024b576200024a6200008d565b5b6200025984828501620001de565b91505092915050565b600081519050919050565b7f4e487b7100000000000000000000000000000000000000000000000000000000600052602260045260246000fd5b60006002820490506001821680620002b557607f821691505b602082108103620002cb57620002ca6200026d565b5b50919050565b60008190508160005260206000209050919050565b60006020601f8301049050919050565b600082821b905092915050565b600060088302620003357fffffffffffffffffffffffffffffffffffffffffffffffffffffffffffffffff82620002f6565b620003418683620002f6565b95508019841693508086168417925050509392505050565b6000819050919050565b6000819050919050565b60006200038e62000388620003828462000359565b62000363565b62000359565b9050919050565b6000819050919050565b620003aa836200036d565b620003c2620003b98262000395565b84845462000303565b825550505050565b600090565b620003d9620003ca565b620003e68184846200039f565b505050565b5b818110156200040e5762000402600082620003cf565b600181019050620003ec565b5050565b601f8211156200045d576200042781620002d1565b6200043284620002e6565b8101602085101562000442578190505b6200045a6200045185620002e6565b830182620003eb565b50505b505050565b600082821c905092915050565b6000620004826000198460080262000462565b1980831691505092915050565b60006200049d83836200046f565b9150826002028217905092915050565b620004b88262000262565b67ffffffffffffffff811115620004d457620004d3620000ad565b5b620004e082546200029c565b620004ed82828562000412565b600060209050601f83116001811462000525576000841562000510578287015190505b6200051c85826200048f565b8655506200058c565b601f1984166200053586620002d1565b60005b828110156200055f5784890151825560018201915060208501945060208101905062000538565b868310156200057f57848901516200057b601f8916826200046f565b8355505b6001600288020188555050505b505050505050565b7f4e487b7100000000000000000000000000000000000000000000000000000000600052602160045260246000fd5b610f5280620005d36000396000f3fe60806040526004361061009c5760003560e01c806391f30bd41161006457806391f30bd41461014c5780639dfc911714610177578063a8e4fb90146101ac578063d0e30db0146101d7578063e74071b4146101e1578063ff4c4d541461020c5761009c565b80631865c57d146100a15780633ccfd60b146100cc578063509c2222146100e357806379e93bf81461010c5780637c8dc57514610135575b600080fd5b3480156100ad57600080fd5b506100b6610223565b6040516100c391906109be565b60405180910390f35b3480156100d857600080fd5b506100e16102ac565b005b3480156100ef57600080fd5b5061010a60048036038101906101059190610a72565b6103ba565b005b34801561011857600080fd5b50610133600480360381019061012e9190610b3c565b610478565b005b34801561014157600080fd5b5061014a6105ed565b005b34801561015857600080fd5b5061016161061a565b60405161016e9190610bf9565b60405180910390f35b34801561018357600080fd5b5061018c6106a8565b6040516101a39b9a99989796959493929190610c39565b60405180910390f35b3480156101b857600080fd5b506101c16107e7565b6040516101ce9190610ceb565b60405180910390f35b6101df61080d565b005b3480156101ed57600080fd5b506101f66108f4565b6040516102039190610ceb565b60405180910390f35b34801561021857600080fd5b5061022161091a565b005b60006002600781111561023957610238610947565b5b600b60009054906101000a900460ff16600781111561025b5761025a610947565b5b0361029757600554421115610296576007600b60006101000a81548160ff021916908360078111156102905761028f610947565b5b02179055505b5b600b60009054906101000a900460ff16905090565b600360078111156102c0576102bf610947565b5b600b60009054906101000a900460ff1660078111156102e2576102e1610947565b5b14610322576040517f08c379a000000000000000000000000000000000000000000000000000000000815260040161031990610d78565b60405180910390fd5b600260009054906101000a900473ffffffffffffffffffffffffffffffffffffffff1673ffffffffffffffffffffffffffffffffffffffff166108fc6007549081150290604051600060405180830381858888f1935050505015801561038c573d6000803e3d6000fd5b506002600b60006101000a81548160ff021916908360078111156103b3576103b2610947565b5b0217905550565b88600160006101000a81548173ffffffffffffffffffffffffffffffffffffffff021916908373ffffffffffffffffffffffffffffffffffffffff16021790555087600260006101000a81548173ffffffffffffffffffffffffffffffffffffffff021916908373ffffffffffffffffffffffffffffffffffffffff16021790555086600381905550856004819055508460058190555083600681905550826007819055508160088190555080600981905550505050505050505050565b600160009054906101000a900473ffffffffffffffffffffffffffffffffffffffff1673ffffffffffffffffffffffffffffffffffffffff168173ffffffffffffffffffffffffffffffffffffffff1603610517576001600a60000160006101000a81548160ff0219169083151502179055506001600b60006101000a81548160ff0219169083600781111561051157610510610947565b5b02179055505b600260009054906101000a900473ffffffffffffffffffffffffffffffffffffffff1673ffffffffffffffffffffffffffffffffffffffff168173ffffffffffffffffffffffffffffffffffffffff160361058b576001600a60000160016101000a81548160ff0219169083151502179055505b600a60000160009054906101000a900460ff1680156105b95750600a60000160019054906101000a900460ff165b156105ea576004600b60006101000a81548160ff021916908360078111156105e4576105e3610947565b5b02179055505b50565b6005600b60006101000a81548160ff0219169083600781111561061357610612610947565b5b0217905550565b6000805461062790610dc7565b80601f016020809104026020016040519081016040528092919081815260200182805461065390610dc7565b80156106a05780601f10610675576101008083540402835291602001916106a0565b820191906000526020600020905b81548152906001019060200180831161068357829003601f168201915b505050505081565b6000806060600080600080600080600080600160009054906101000a900473ffffffffffffffffffffffffffffffffffffffff16600260009054906101000a900473ffffffffffffffffffffffffffffffffffffffff166000600354600454600554600654600754600b60009054906101000a900460ff16600781111561073257610731610947565b5b60085460095488805461074490610dc7565b80601f016020809104026020016040519081016040528092919081815260200182805461077090610dc7565b80156107bd5780601f10610792576101008083540402835291602001916107bd565b820191906000526020600020905b8154815290600101906020018083116107a057829003601f168201915b505050505098509a509a509a509a509a509a509a509a509a509a509a50909192939495969798999a565b600160009054906101000a900473ffffffffffffffffffffffffffffffffffffffff1681565b6004600781111561082157610820610947565b5b600b60009054906101000a900460ff16600781111561084357610842610947565b5b14610883576040517f08c379a000000000000000000000000000000000000000000000000000000000815260040161087a90610e6a565b60405180910390fd5b60075434146108c7576040517f08c379a00000000000000000000000000000000000000000000000000000000081526004016108be90610efc565b60405180910390fd5b6003600b60006101000a81548160ff021916908360078111156108ed576108ec610947565b5b0217905550565b600260009054906101000a900473ffffffffffffffffffffffffffffffffffffffff1681565b6006600b60006101000a81548160ff021916908360078111156109405761093f610947565b5b0217905550565b7f4e487b7100000000000000000000000000000000000000000000000000000000600052602160045260246000fd5b6008811061098757610986610947565b5b50565b600081905061099882610976565b919050565b60006109a88261098a565b9050919050565b6109b88161099d565b82525050565b60006020820190506109d360008301846109af565b92915050565b600080fd5b600073ffffffffffffffffffffffffffffffffffffffff82169050919050565b6000610a09826109de565b9050919050565b610a19816109fe565b8114610a2457600080fd5b50565b600081359050610a3681610a10565b92915050565b6000819050919050565b610a4f81610a3c565b8114610a5a57600080fd5b50565b600081359050610a6c81610a46565b92915050565b60008060008060008060008060006101208a8c031215610a9557610a946109d9565b5b6000610aa38c828d01610a27565b9950506020610ab48c828d01610a27565b9850506040610ac58c828d01610a5d565b9750506060610ad68c828d01610a5d565b9650506080610ae78c828d01610a5d565b95505060a0610af88c828d01610a5d565b94505060c0610b098c828d01610a5d565b93505060e0610b1a8c828d01610a5d565b925050610100610b2c8c828d01610a5d565b9150509295985092959850929598565b600060208284031215610b5257610b516109d9565b5b6000610b6084828501610a27565b91505092915050565b600081519050919050565b600082825260208201905092915050565b60005b83811015610ba3578082015181840152602081019050610b88565b60008484015250505050565b6000601f19601f8301169050919050565b6000610bcb82610b69565b610bd58185610b74565b9350610be5818560208601610b85565b610bee81610baf565b840191505092915050565b60006020820190508181036000830152610c138184610bc0565b905092915050565b610c24816109fe565b82525050565b610c3381610a3c565b82525050565b600061016082019050610c4f600083018e610c1b565b610c5c602083018d610c1b565b8181036040830152610c6e818c610bc0565b9050610c7d606083018b610c2a565b610c8a608083018a610c2a565b610c9760a0830189610c2a565b610ca460c0830188610c2a565b610cb160e0830187610c2a565b610cbf610100830186610c2a565b610ccd610120830185610c2a565b610cdb610140830184610c2a565b9c9b505050505050505050505050565b6000602082019050610d006000830184610c1b565b92915050565b7f4e6f7468696e672077697468647261772c20636f6e73656e746572206e65656460008201527f7320746f2073656e642045544820666972737400000000000000000000000000602082015250565b6000610d62603383610b74565b9150610d6d82610d06565b604082019050919050565b60006020820190508181036000830152610d9181610d55565b9050919050565b7f4e487b7100000000000000000000000000000000000000000000000000000000600052602260045260246000fd5b60006002820490506001821680610ddf57607f821691505b602082108103610df257610df1610d98565b5b50919050565b7f436f6e7472616374206e65656420746f206265207369676e65642066726f6d2060008201527f626f746820706172746965730000000000000000000000000000000000000000602082015250565b6000610e54602c83610b74565b9150610e5f82610df8565b604082019050919050565b60006020820190508181036000830152610e8381610e47565b9050919050565b7f596f75206e65656420746f206465706f7369742074686520616772656564207060008201527f7269636521000000000000000000000000000000000000000000000000000000602082015250565b6000610ee6602583610b74565b9150610ef182610e8a565b604082019050919050565b60006020820190508181036000830152610f1581610ed9565b905091905056fea264697066735822122078afb7530316a55b5b042c43f44366dbd1e6ada6e780e43806cda06671234fa364736f6c63430008110033",
  "immutableReferences": {},
  "source": "// SPDX-License-Identifier: GPL-3.0\n\npragma solidity >=0.7.0 <0.9.0;\n\n/** \n * base contract for consent contracts\n * @title Consent Contract\n*/\ncontract ConsentContract {\n\n    // state of contract\n    enum STATE {\n        CONTRACT_CREATED,\n        CONTRACT_PENDING,\n        CONTRACT_ACTIVE,\n        CONTRACT_ACTIVE_WITHDRAW_READY,\n        CONTRACT_PAYMENT_PENDING,\n        CONTRACT_REJECTED,\n        CONTRACT_REVOKED,\n        CONTRACT_CLOSED\n    }\n\n    /* usage of the energy data\n    enum DATA_USAGE {\n        FORECASTS,\n        STATISTICAL,\n        PERFORMANCE,\n        CANDIDATE_E_COMMUNITY\n    } */\n\n    /* time resolution of the energy data\n    enum TIME_RESOLUTION {\n        TIME_15MIN,\n        TIME_30MIN,\n        TIME_1H,\n        TIME_12H,\n        TIME_1D\n    }*/\n\n    // both parties need to sign the contract\n    struct ContractSign {\n        bool signedByProposer;\n        bool signedByConsenter;\n    }\n\n    // Contract Details\n    string public contractID;\n    address public proposer; // address of the owner of the contract (proposer)    \n    address public consenter; // address of the consenter\n    uint private startEnergyData; \n    uint private endEnergyData;\n    uint private validityOfContract;\n    uint private pricePerHour;\n    uint private totalPrice;\n    uint private dataUsage;\n    uint private timeResolution;\n    \n    // signature of both parties\n    ContractSign private signature;\n\n    // State of the contract\n    STATE private contractState;\n\n    /**\n     * create a new consent contract\n     * @param _contractID each contract has a unique contractID\n     */\n    constructor(string memory _contractID) {\n        contractID = _contractID;\n        contractState = STATE.CONTRACT_CREATED;\n    }\n\n    /**\n     * get the contract represented in \"json\" string\n     * @return object as string\n     */\n    function getContractDetails() public view returns(address, address, \n                                                      string memory, uint, \n                                                      uint, uint, uint, uint, uint, uint, uint) {\n        return (proposer, \n                consenter, \n                contractID, \n                startEnergyData, \n                endEnergyData, \n                validityOfContract, \n                pricePerHour, \n                totalPrice,\n                uint(contractState),\n                dataUsage,\n                timeResolution);\n    }\n\n    /**\n     * set details about the contract\n     * @param _proposer creator of the contract (wants energy data from the consenter)\n     * @param _consenter give consent about the energy data to the proposer\n     * @param _startEnergyData start date of the energy date (epoche)\n     * @param _endEnergyData end date of the energy date (epoche)\n     * @param _validityOfContract validity date for the contract (epoche)\n     * @param _pricePerHour price for 1h of energy data (in Wei)\n     * @param _totalPrice total price for all energy data (in Wei)\n     * @param _dataUsage usage of the energy data\n     * @param _timeResolution time resolution of the energy data\n     */\n    function setContractDetails(\n        address _proposer,\n        address _consenter, \n        uint _startEnergyData, \n        uint _endEnergyData,\n        uint _validityOfContract,\n        uint _pricePerHour,\n        uint _totalPrice,\n        uint _dataUsage,\n        uint _timeResolution\n    ) public onlyOwner {\n        proposer = _proposer;\n        consenter = _consenter;\n        startEnergyData = _startEnergyData;\n        endEnergyData = _endEnergyData;\n        validityOfContract = _validityOfContract;\n        pricePerHour = _pricePerHour;\n        totalPrice = _totalPrice;\n        dataUsage = _dataUsage;\n        timeResolution = _timeResolution;\n    }\n\n    /** \n     * both parties need to sign the contract inorder to start the energy sharing\n     * proposer also needs to sign the contract because the consenter\n     * can modify the regulations before the contract is active\n     */\n    function signContract(address _sender) public bothParties {\n        if (_sender == proposer) { \n            signature.signedByProposer = true; \n            contractState = STATE.CONTRACT_PENDING;\n        }\n        if (_sender == consenter) {\n            signature.signedByConsenter = true;\n        }\n\n        if (signature.signedByProposer && signature.signedByConsenter) {\n            contractState = STATE.CONTRACT_PAYMENT_PENDING;\n        }\n    }\n\n    // contract can be revoked from both parties\n    function revokeConsent() public bothParties {\n        contractState = STATE.CONTRACT_REVOKED;\n    }\n\n    // reject the offered consent contract\n    function rejectConsent() public onlyConsenter {\n        contractState = STATE.CONTRACT_REJECTED;\n    }\n\n    // proposer needs to deposit the agreed ethers to the contract\n    /**\n     * proposer need to deposit the agreed price to the contract wallet\n     * {require} both parties need to sign the contract before\n     * {require} the msg.value needs to be the agreed price\n     */\n    function deposit() public payable onlyOwner {\n        require(contractState == STATE.CONTRACT_PAYMENT_PENDING, \"Contract need to be signed from both parties\");\n        require(msg.value == totalPrice, \"You need to deposit the agreed price!\");\n        \n        contractState = STATE.CONTRACT_ACTIVE_WITHDRAW_READY;\n    }\n\n    /**\n     * withdraw the ethers balance from the contract to address of the consenter\n     * after withdraw the contract is active and running\n     * {require} ethers were deposited to the contract\n     */\n    function withdraw() public onlyConsenter {\n        require(contractState == STATE.CONTRACT_ACTIVE_WITHDRAW_READY, \"Nothing withdraw, consenter needs to send ETH first\");\n\n        // transfer the ether to the consenter from the contract wallet\n        payable(consenter).transfer(totalPrice);\n\n        contractState = STATE.CONTRACT_ACTIVE;\n    }\n\n    // returns the contract state, will be always called when the user interact with energy data\n    /**\n     * returns the current state of the contract\n     * used for displaying status in the UI\n     * @return STATE\n     */\n    function getState() public returns(STATE) {\n\n        // check if contract is still valid if not emit Closed() event\n        if (contractState == STATE.CONTRACT_ACTIVE) {\n            if (block.timestamp > validityOfContract) {\n                contractState = STATE.CONTRACT_CLOSED;\n            }\n        }\n        \n        return contractState;\n    }\n\n    // modifier for functions only the owner can execute\n    modifier onlyOwner() {\n        //require(msg.sender == proposer);\n        _;\n    }\n\n    // modifier for functions only the consenter can execute\n    modifier onlyConsenter() {\n        //require(msg.sender == consenter);\n        _;\n    }\n\n    // modifier for functions, both parties (proposer and consenter) can execute\n    modifier bothParties() {\n        //require(msg.sender == proposer || msg.sender == consenter);\n        _;\n    }\n}\n",
  "sourcePath": "/Users/michael/Documents/dev/e-community-platform/in-progress/consent-management/src/blockchain/smart_contracts/contracts/ConsentContract.sol",
  "compiler": {
    "name": "solc",
    "version": "0.8.17+commit.8df45f5f.Emscripten.clang"
  },
  "schemaVersion": "3.4.11",
  "updatedAt": "2023-02-28T09:24:45.036Z",
  "devdoc": {
    "kind": "dev",
    "methods": {
      "constructor": {
        "params": {
          "_contractID": "each contract has a unique contractID"
        }
      },
      "getContractDetails()": {
        "returns": {
          "_0": "object as string"
        }
      },
      "getState()": {
        "returns": {
          "_0": "STATE"
        }
      },
      "setContractDetails(address,address,uint256,uint256,uint256,uint256,uint256,uint256,uint256)": {
        "params": {
          "_consenter": "give consent about the energy data to the proposer",
          "_dataUsage": "usage of the energy data",
          "_endEnergyData": "end date of the energy date (epoche)",
          "_pricePerHour": "price for 1h of energy data (in Wei)",
          "_proposer": "creator of the contract (wants energy data from the consenter)",
          "_startEnergyData": "start date of the energy date (epoche)",
          "_timeResolution": "time resolution of the energy data",
          "_totalPrice": "total price for all energy data (in Wei)",
          "_validityOfContract": "validity date for the contract (epoche)"
        }
      }
    },
    "title": "Consent Contract",
    "version": 1
  },
  "userdoc": {
    "kind": "user",
    "methods": {
      "constructor": {
        "notice": "create a new consent contract"
      },
      "deposit()": {
        "notice": "proposer need to deposit the agreed price to the contract wallet {require} both parties need to sign the contract before {require} the msg.value needs to be the agreed price"
      },
      "getContractDetails()": {
        "notice": "get the contract represented in \"json\" string"
      },
      "getState()": {
        "notice": "returns the current state of the contract used for displaying status in the UI"
      },
      "setContractDetails(address,address,uint256,uint256,uint256,uint256,uint256,uint256,uint256)": {
        "notice": "set details about the contract"
      },
      "signContract(address)": {
        "notice": "both parties need to sign the contract inorder to start the energy sharing proposer also needs to sign the contract because the consenter can modify the regulations before the contract is active"
      },
      "withdraw()": {
        "notice": "withdraw the ethers balance from the contract to address of the consenter after withdraw the contract is active and running {require} ethers were deposited to the contract"
      }
    },
    "notice": "base contract for consent contracts",
    "version": 1
  }
}