{
  "contractName": "ConsentContractFactory",
  "abi": [
    {
      "inputs": [
        {
          "internalType": "string",
          "name": "_contractID",
          "type": "string"
        }
      ],
      "name": "createConsentContract",
      "outputs": [],
      "stateMutability": "nonpayable",
      "type": "function"
    },
    {
      "inputs": [
        {
          "internalType": "string",
          "name": "_contractID",
          "type": "string"
        }
      ],
      "name": "getContractAddress",
      "outputs": [
        {
          "internalType": "address",
          "name": "",
          "type": "address"
        }
      ],
      "stateMutability": "view",
      "type": "function"
    }
  ],
  "bytecode": "0x608060405234801561001057600080fd5b50611870806100206000396000f3fe60806040523480156200001157600080fd5b50600436106200003a5760003560e01c806304433bbc146200003f5780635b6015f41462000075575b600080fd5b6200005d600480360381019062000057919062000494565b62000095565b6040516200006c91906200052a565b60405180910390f35b6200009360048036038101906200008d919062000494565b6200026c565b005b600080600090505b60008054905081101562000221576000808281548110620000c357620000c262000547565b5b9060005260206000200160009054906101000a900473ffffffffffffffffffffffffffffffffffffffff1673ffffffffffffffffffffffffffffffffffffffff166391f30bd46040518163ffffffff1660e01b8152600401600060405180830381865afa15801562000139573d6000803e3d6000fd5b505050506040513d6000823e3d601f19601f8201168201806040525081019062000164919062000620565b905083604051602001620001799190620006be565b6040516020818303038152906040528051906020012081604051602001620001a29190620006be565b60405160208183030381529060405280519060200120036200020a5760008281548110620001d557620001d462000547565b5b9060005260206000200160009054906101000a900473ffffffffffffffffffffffffffffffffffffffff169250505062000267565b508080620002189062000710565b9150506200009d565b506000808154811062000239576200023862000547565b5b9060005260206000200160009054906101000a900473ffffffffffffffffffffffffffffffffffffffff1690505b919050565b6000816040516200027d9062000310565b620002899190620007af565b604051809103906000f080158015620002a6573d6000803e3d6000fd5b5090506000819080600181540180825580915050600190039060005260206000200160009091909190916101000a81548173ffffffffffffffffffffffffffffffffffffffff021916908373ffffffffffffffffffffffffffffffffffffffff1602179055505050565b61106780620007d483390190565b6000604051905090565b600080fd5b600080fd5b600080fd5b600080fd5b6000601f19601f8301169050919050565b7f4e487b7100000000000000000000000000000000000000000000000000000000600052604160045260246000fd5b62000387826200033c565b810181811067ffffffffffffffff82111715620003a957620003a86200034d565b5b80604052505050565b6000620003be6200031e565b9050620003cc82826200037c565b919050565b600067ffffffffffffffff821115620003ef57620003ee6200034d565b5b620003fa826200033c565b9050602081019050919050565b82818337600083830152505050565b60006200042d6200042784620003d1565b620003b2565b9050828152602081018484840111156200044c576200044b62000337565b5b6200045984828562000407565b509392505050565b600082601f83011262000479576200047862000332565b5b81356200048b84826020860162000416565b91505092915050565b600060208284031215620004ad57620004ac62000328565b5b600082013567ffffffffffffffff811115620004ce57620004cd6200032d565b5b620004dc8482850162000461565b91505092915050565b600073ffffffffffffffffffffffffffffffffffffffff82169050919050565b60006200051282620004e5565b9050919050565b620005248162000505565b82525050565b600060208201905062000541600083018462000519565b92915050565b7f4e487b7100000000000000000000000000000000000000000000000000000000600052603260045260246000fd5b60005b838110156200059657808201518184015260208101905062000579565b60008484015250505050565b6000620005b9620005b384620003d1565b620003b2565b905082815260208101848484011115620005d857620005d762000337565b5b620005e584828562000576565b509392505050565b600082601f83011262000605576200060462000332565b5b815162000617848260208601620005a2565b91505092915050565b60006020828403121562000639576200063862000328565b5b600082015167ffffffffffffffff8111156200065a57620006596200032d565b5b6200066884828501620005ed565b91505092915050565b600081519050919050565b600081905092915050565b6000620006948262000671565b620006a081856200067c565b9350620006b281856020860162000576565b80840191505092915050565b6000620006cc828462000687565b915081905092915050565b7f4e487b7100000000000000000000000000000000000000000000000000000000600052601160045260246000fd5b6000819050919050565b60006200071d8262000706565b91507fffffffffffffffffffffffffffffffffffffffffffffffffffffffffffffffff8203620007525762000751620006d7565b5b600182019050919050565b600082825260208201905092915050565b60006200077b8262000671565b6200078781856200075d565b93506200079981856020860162000576565b620007a4816200033c565b840191505092915050565b60006020820190508181036000830152620007cb81846200076e565b90509291505056fe60806040523480156200001157600080fd5b506040516200106738038062001067833981810160405281019062000037919062000224565b33600160006101000a81548173ffffffffffffffffffffffffffffffffffffffff021916908373ffffffffffffffffffffffffffffffffffffffff1602179055508060009081620000899190620004c0565b5050620005a7565b6000604051905090565b600080fd5b600080fd5b600080fd5b600080fd5b6000601f19601f8301169050919050565b7f4e487b7100000000000000000000000000000000000000000000000000000000600052604160045260246000fd5b620000fa82620000af565b810181811067ffffffffffffffff821117156200011c576200011b620000c0565b5b80604052505050565b60006200013162000091565b90506200013f8282620000ef565b919050565b600067ffffffffffffffff821115620001625762000161620000c0565b5b6200016d82620000af565b9050602081019050919050565b60005b838110156200019a5780820151818401526020810190506200017d565b60008484015250505050565b6000620001bd620001b78462000144565b62000125565b905082815260208101848484011115620001dc57620001db620000aa565b5b620001e98482856200017a565b509392505050565b600082601f830112620002095762000208620000a5565b5b81516200021b848260208601620001a6565b91505092915050565b6000602082840312156200023d576200023c6200009b565b5b600082015167ffffffffffffffff8111156200025e576200025d620000a0565b5b6200026c84828501620001f1565b91505092915050565b600081519050919050565b7f4e487b7100000000000000000000000000000000000000000000000000000000600052602260045260246000fd5b60006002820490506001821680620002c857607f821691505b602082108103620002de57620002dd62000280565b5b50919050565b60008190508160005260206000209050919050565b60006020601f8301049050919050565b600082821b905092915050565b600060088302620003487fffffffffffffffffffffffffffffffffffffffffffffffffffffffffffffffff8262000309565b62000354868362000309565b95508019841693508086168417925050509392505050565b6000819050919050565b6000819050919050565b6000620003a16200039b62000395846200036c565b62000376565b6200036c565b9050919050565b6000819050919050565b620003bd8362000380565b620003d5620003cc82620003a8565b84845462000316565b825550505050565b600090565b620003ec620003dd565b620003f9818484620003b2565b505050565b5b81811015620004215762000415600082620003e2565b600181019050620003ff565b5050565b601f82111562000470576200043a81620002e4565b6200044584620002f9565b8101602085101562000455578190505b6200046d6200046485620002f9565b830182620003fe565b50505b505050565b600082821c905092915050565b6000620004956000198460080262000475565b1980831691505092915050565b6000620004b0838362000482565b9150826002028217905092915050565b620004cb8262000275565b67ffffffffffffffff811115620004e757620004e6620000c0565b5b620004f38254620002af565b6200050082828562000425565b600060209050601f83116001811462000538576000841562000523578287015190505b6200052f8582620004a2565b8655506200059f565b601f1984166200054886620002e4565b60005b8281101562000572578489015182556001820191506020850194506020810190506200054b565b868310156200059257848901516200058e601f89168262000482565b8355505b6001600288020188555050505b505050505050565b610ab080620005b76000396000f3fe60806040526004361061007b5760003560e01c8063b8b4f1a01161004e578063b8b4f1a014610118578063d0e30db01461012f578063f280570f14610139578063ff4c4d54146101625761007b565b80631865c57d146100805780633ccfd60b146100ab57806391f30bd4146100c2578063b69ef8a8146100ed575b600080fd5b34801561008c57600080fd5b50610095610179565b6040516100a29190610685565b60405180910390f35b3480156100b757600080fd5b506100c06101ba565b005b3480156100ce57600080fd5b506100d76102d0565b6040516100e49190610730565b60405180910390f35b3480156100f957600080fd5b5061010261035e565b60405161010f919061076b565b60405180910390f35b34801561012457600080fd5b5061012d610366565b005b61013761055a565b005b34801561014557600080fd5b50610160600480360381019061015b9190610815565b6105a0565b005b34801561016e57600080fd5b5061017761060c565b005b60006003600581111561018f5761018e61060e565b5b600960009054906101000a900460ff1660058111156101b1576101b061060e565b5b50506005905090565b600260009054906101000a900473ffffffffffffffffffffffffffffffffffffffff1673ffffffffffffffffffffffffffffffffffffffff166108fc479081150290604051600060405180830381858888f19350505050158015610222573d6000803e3d6000fd5b507fd3e74016583aff79754a7ce6f1e0fec1da60abe14bf2a8691d924f3614ef29d9600260009054906101000a900473ffffffffffffffffffffffffffffffffffffffff16600160009054906101000a900473ffffffffffffffffffffffffffffffffffffffff16600060405161029b939291906109aa565b60405180910390a16003600960006101000a81548160ff021916908360058111156102c9576102c861060e565b5b0217905550565b600080546102dd906108e0565b80601f0160208091040260200160405190810160405280929190818152602001828054610309906108e0565b80156103565780601f1061032b57610100808354040283529160200191610356565b820191906000526020600020905b81548152906001019060200180831161033957829003601f168201915b505050505081565b600047905090565b600160009054906101000a900473ffffffffffffffffffffffffffffffffffffffff1673ffffffffffffffffffffffffffffffffffffffff163373ffffffffffffffffffffffffffffffffffffffff1603610405576001600860000160006101000a81548160ff0219169083151502179055506000600960006101000a81548160ff021916908360058111156103ff576103fe61060e565b5b02179055505b600260009054906101000a900473ffffffffffffffffffffffffffffffffffffffff1673ffffffffffffffffffffffffffffffffffffffff163373ffffffffffffffffffffffffffffffffffffffff1603610479576001600860000160016101000a81548160ff0219169083151502179055505b600860000160009054906101000a900460ff1680156104a75750600860000160019054906101000a900460ff165b15610558577f32f67f50e910168ca990077eeea1f27f4ff0c20c08adddf57c2258d39f7089d1600160009054906101000a900473ffffffffffffffffffffffffffffffffffffffff16600260009054906101000a900473ffffffffffffffffffffffffffffffffffffffff166000604051610524939291906109aa565b60405180910390a16001600960006101000a81548160ff021916908360058111156105525761055161060e565b5b02179055505b565b600754341461059e576040517f08c379a000000000000000000000000000000000000000000000000000000000815260040161059590610a5a565b60405180910390fd5b565b85600260006101000a81548173ffffffffffffffffffffffffffffffffffffffff021916908373ffffffffffffffffffffffffffffffffffffffff1602179055508460038190555083600481905550826005819055508160068190555080600781905550505050505050565b565b7f4e487b7100000000000000000000000000000000000000000000000000000000600052602160045260246000fd5b6006811061064e5761064d61060e565b5b50565b600081905061065f8261063d565b919050565b600061066f82610651565b9050919050565b61067f81610664565b82525050565b600060208201905061069a6000830184610676565b92915050565b600081519050919050565b600082825260208201905092915050565b60005b838110156106da5780820151818401526020810190506106bf565b60008484015250505050565b6000601f19601f8301169050919050565b6000610702826106a0565b61070c81856106ab565b935061071c8185602086016106bc565b610725816106e6565b840191505092915050565b6000602082019050818103600083015261074a81846106f7565b905092915050565b6000819050919050565b61076581610752565b82525050565b6000602082019050610780600083018461075c565b92915050565b600080fd5b600073ffffffffffffffffffffffffffffffffffffffff82169050919050565b60006107b68261078b565b9050919050565b6107c6816107ab565b81146107d157600080fd5b50565b6000813590506107e3816107bd565b92915050565b6107f281610752565b81146107fd57600080fd5b50565b60008135905061080f816107e9565b92915050565b60008060008060008060c0878903121561083257610831610786565b5b600061084089828a016107d4565b965050602061085189828a01610800565b955050604061086289828a01610800565b945050606061087389828a01610800565b935050608061088489828a01610800565b92505060a061089589828a01610800565b9150509295509295509295565b6108ab816107ab565b82525050565b7f4e487b7100000000000000000000000000000000000000000000000000000000600052602260045260246000fd5b600060028204905060018216806108f857607f821691505b60208210810361090b5761090a6108b1565b5b50919050565b60008190508160005260206000209050919050565b60008154610933816108e0565b61093d81866106ab565b94506001821660008114610958576001811461096e576109a1565b60ff1983168652811515602002860193506109a1565b61097785610911565b60005b838110156109995781548189015260018201915060208101905061097a565b808801955050505b50505092915050565b60006060820190506109bf60008301866108a2565b6109cc60208301856108a2565b81810360408301526109de8184610926565b9050949350505050565b7f596f75206e65656420746f206465706f7369742074686520616772656564207060008201527f7269636521000000000000000000000000000000000000000000000000000000602082015250565b6000610a446025836106ab565b9150610a4f826109e8565b604082019050919050565b60006020820190508181036000830152610a7381610a37565b905091905056fea2646970667358221220dfb9f0dd51845925205baa21d41684247f0eb47f055af0ca2d39d0a390e7516e64736f6c63430008110033a264697066735822122005631cc36ff59760e008e7c26f72cf11bb60776546490439b10fa749933c0c4064736f6c63430008110033",
  "immutableReferences": {},
  "source": "// SPDX-License-Identifier: GPL-3.0\n\npragma solidity >=0.7.0 <0.9.0;\n\n// factory for new consent contracts\n// used because factory only need to be deployed once\ncontract ConsentContractFactory {\n\n    ConsentContract[] private contracts;\n\n    // creates a new consent contract and returns its address\n    function createConsentContract(string memory _contractID) public {\n        ConsentContract consentContract = new ConsentContract(_contractID);\n\n        contracts.push(consentContract);\n    }\n\n    // returns address for given contractID\n    function getContractAddress(string memory _contractID) public view returns(address) {\n        for (uint i = 0; i < contracts.length; i++) {\n            string memory contractID = contracts[i].contractID();\n            if (keccak256(abi.encodePacked(contractID)) == keccak256(abi.encodePacked(_contractID))) {\n                return address(contracts[i]);\n            }\n        }\n\n        return address(contracts[0]);\n    }\n}\n\ncontract ConsentContract {\n\n    enum STATE {\n        CONTRACT_PENDING,\n        CONTRACT_SIGNED_BOTH,\n        CONTRACT_PAYMENT_RECEIVED,\n        CONTRACT_VALID,\n        CONTRACT_REJECTED,\n        CONTRACT_INVALID\n    }\n\n    // both parties need to sign the contract\n    struct ContractSign {\n        bool signedByProposer;\n        bool signedByConsenter;\n    }\n\n    // notify consenter that he received a payment => contract is now valid\n    event PaymentReceived(address proposer, address consenter, string contractID);\n\n    // notify proposer that the contract got signed by the consenter\n    event ApprovedContract(address proposer, address consenter, string contractID);\n\n    // ### Contract Details ###\n    string public contractID;\n    address private proposer; // address of the owner of the contract (proposer)    \n    address private consenter; // address of the consenter\n    uint private startEnergyData; \n    uint private endEnergyData;\n    uint private validityOfContract;\n    uint private pricePerHour;\n    uint private totalPrice;\n    \n    // signature of both parties\n    ContractSign private signature;\n\n    // State of the contract\n    STATE private contractState;\n\n    // set owner of the contract\n    constructor(string memory _contractID) {\n        proposer = msg.sender;\n        contractID = _contractID;\n    }\n\n    // set details about the contract\n    function setContractDetails(\n        address _consenter, \n        uint _startEnergyData, \n        uint _endEnergyData,\n        uint _validityOfContract,\n        uint _pricePerHour,\n        uint _totalPrice\n    ) public onlyOwner {\n        consenter = _consenter;\n        startEnergyData = _startEnergyData;\n        endEnergyData = _endEnergyData;\n        validityOfContract = _validityOfContract;\n        pricePerHour = _pricePerHour;\n        totalPrice = _totalPrice;\n    }\n\n    /* both parties need to sign the contract inorder to start the energy sharing\n       proposer also needs to sign the contract because the consenter\n       can modify the regulations before the contract is active\n    */\n    function signContract() public bothParties {\n        if (msg.sender == proposer) { \n            signature.signedByProposer = true; \n            contractState = STATE.CONTRACT_PENDING;\n        }\n        if (msg.sender == consenter) {\n            signature.signedByConsenter = true;\n        }\n\n        if (signature.signedByProposer && signature.signedByConsenter) {\n            emit ApprovedContract(proposer, consenter, contractID);\n            contractState = STATE.CONTRACT_SIGNED_BOTH;\n        }\n    }\n\n    // contract can be revoked from both parties\n    function revokeConsent() public bothParties {\n    }\n\n    // proposer needs to deposit the agreed ethers to the contract\n    function deposit() public payable onlyOwner {\n        require(msg.value == totalPrice, \"You need to deposit the agreed price!\");\n    }\n\n    // get the balance of the contract\n    function balance() public view bothParties returns(uint) {\n        return address(this).balance;\n    }\n\n    // withdraw the ethers balance from the proposer\n    function withdraw() public onlyConsenter {\n        payable(consenter).transfer(address(this).balance);\n\n        emit PaymentReceived(consenter, proposer, contractID);\n\n        contractState = STATE.CONTRACT_VALID;\n    }\n\n    // returns the contract state\n    function getState() view public returns(STATE) {\n        if (contractState == STATE.CONTRACT_VALID) {\n            // check if contract is still valid\n        }\n        \n        return STATE.CONTRACT_INVALID;\n    }\n\n    // modifier for functions only the owner can execute\n    modifier onlyOwner() {\n        //require(msg.sender == proposer);\n        _;\n    }\n\n    // modifier for functions only the consenter can execute\n    modifier onlyConsenter() {\n        //require(msg.sender == consenter);\n        _;\n    }\n\n    // modifier for functions, both parties (proposer and consenter) can execute\n    modifier bothParties() {\n        //require(msg.sender == proposer || msg.sender == consenter);\n        _;\n    }\n}\n",
  "sourcePath": "/home/michael/Documents/dev/e-community-platform/in-progress/consent-management/src/blockchain/smart_contracts/contracts/ConsentContract.sol",
  "compiler": {
    "name": "solc",
    "version": "0.8.17+commit.8df45f5f.Emscripten.clang"
  },
  "schemaVersion": "3.4.11",
  "updatedAt": "2023-01-04T15:50:30.852Z",
  "devdoc": {
    "kind": "dev",
    "methods": {},
    "version": 1
  },
  "userdoc": {
    "kind": "user",
    "methods": {},
    "version": 1
  }
}