{
  "contractName": "ConsentContract",
  "abi": [
    {
      "inputs": [
        {
          "internalType": "address",
          "name": "_consenter",
          "type": "address"
        }
      ],
      "stateMutability": "nonpayable",
      "type": "constructor"
    },
    {
      "anonymous": false,
      "inputs": [],
      "name": "ApprovedContract",
      "type": "event"
    },
    {
      "anonymous": false,
      "inputs": [],
      "name": "ProposedContract",
      "type": "event"
    },
    {
      "inputs": [],
      "name": "signContract",
      "outputs": [],
      "stateMutability": "nonpayable",
      "type": "function"
    },
    {
      "inputs": [],
      "name": "revokeConsent",
      "outputs": [],
      "stateMutability": "nonpayable",
      "type": "function"
    }
  ],
  "bytecode": "0x608060405234801561001057600080fd5b5060405161056538038061056583398181016040528101906100329190610147565b336000806101000a81548173ffffffffffffffffffffffffffffffffffffffff021916908373ffffffffffffffffffffffffffffffffffffffff1602179055506000600160146101000a81548160ff0219169083600381111561009857610097610174565b5b021790555080600160006101000a81548173ffffffffffffffffffffffffffffffffffffffff021916908373ffffffffffffffffffffffffffffffffffffffff160217905550506101a3565b600080fd5b600073ffffffffffffffffffffffffffffffffffffffff82169050919050565b6000610114826100e9565b9050919050565b61012481610109565b811461012f57600080fd5b50565b6000815190506101418161011b565b92915050565b60006020828403121561015d5761015c6100e4565b5b600061016b84828501610132565b91505092915050565b7f4e487b7100000000000000000000000000000000000000000000000000000000600052602160045260246000fd5b6103b3806101b26000396000f3fe608060405234801561001057600080fd5b50600436106100365760003560e01c8063b8b4f1a01461003b578063ff4c4d5414610045575b600080fd5b61004361004f565b005b61004d610271565b005b60008054906101000a900473ffffffffffffffffffffffffffffffffffffffff1673ffffffffffffffffffffffffffffffffffffffff163373ffffffffffffffffffffffffffffffffffffffff1614806100f65750600160009054906101000a900473ffffffffffffffffffffffffffffffffffffffff1673ffffffffffffffffffffffffffffffffffffffff163373ffffffffffffffffffffffffffffffffffffffff16145b6100ff57600080fd5b60008054906101000a900473ffffffffffffffffffffffffffffffffffffffff1673ffffffffffffffffffffffffffffffffffffffff163373ffffffffffffffffffffffffffffffffffffffff1603610171576001600260000160006101000a81548160ff0219169083151502179055505b600160009054906101000a900473ffffffffffffffffffffffffffffffffffffffff1673ffffffffffffffffffffffffffffffffffffffff163373ffffffffffffffffffffffffffffffffffffffff16036101e5576001600260000160016101000a81548160ff0219169083151502179055505b600260000160009054906101000a900460ff1680156102135750600260000160019054906101000a900460ff165b1561026f5760018060146101000a81548160ff0219169083600381111561023d5761023c61034e565b5b02179055507f1d0bcfc8e4ee578e5d42c0764c688a71df19942bebc0c262b0535deb145cc30260405160405180910390a15b565b60008054906101000a900473ffffffffffffffffffffffffffffffffffffffff1673ffffffffffffffffffffffffffffffffffffffff163373ffffffffffffffffffffffffffffffffffffffff1614806103185750600160009054906101000a900473ffffffffffffffffffffffffffffffffffffffff1673ffffffffffffffffffffffffffffffffffffffff163373ffffffffffffffffffffffffffffffffffffffff16145b61032157600080fd5b6002600160146101000a81548160ff021916908360038111156103475761034661034e565b5b0217905550565b7f4e487b7100000000000000000000000000000000000000000000000000000000600052602160045260246000fdfea26469706673582212208054fd244885e09bdab7cf81cc4674529a11d799deddb3d953d74c773cb377ab64736f6c63430008110033",
  "immutableReferences": {},
  "source": "// SPDX-License-Identifier: GPL-3.0\n\npragma solidity >=0.7.0 <0.9.0;\n\n\ncontract ConsentContract {\n\n    // contract must have a state\n    enum STATE {\n        INACTIVE,\n        ACTIVE, \n        REVOKED, \n        CLOSED \n    }\n\n    // both parties need to sign the contract\n    struct ContractSign {\n        bool signedByProposer;\n        bool signedByConsenter;\n    }\n\n    // notify consenter that a contract got created\n    event ProposedContract();\n\n    // notify proposer that the contract got signed by the consenter\n    event ApprovedContract();\n\n    // address of the owner of the contract (proposer)\n    address private proposer;\n\n    // address of the consenter\n    address private consenter;\n\n    // state of the contract\n    STATE state;\n\n    // signature of both parties\n    ContractSign private signature;\n\n    // set owner of the contract\n    constructor(address _consenter) {\n    //constructor() {\n        proposer = msg.sender;\n        state = STATE.INACTIVE;\n        consenter = _consenter;\n    }\n\n    /* both parties need to sign the contract inorder to start the energy sharing\n       proposer also needs to sign the contract because the consenter\n       can modify the regulations before the contract is active\n    */\n    function signContract() public bothParties {\n        if (msg.sender == proposer) { signature.signedByProposer = true; }\n        if (msg.sender == consenter) { signature.signedByConsenter = true; }\n\n        if (signature.signedByProposer && signature.signedByConsenter) {\n            state = STATE.ACTIVE;\n            emit ApprovedContract();\n        }\n    }\n\n    // contract can be revoked from both parties\n    function revokeConsent() public bothParties {\n        state = STATE.REVOKED;\n    }\n\n\n    // modifier for functions only the owner can execute\n    modifier onlyOwner() {\n        require(msg.sender == proposer);\n        _;\n    }\n\n    // modifier for functions, both parties (proposer and consenter) can execute\n    modifier bothParties() {\n        require(msg.sender == proposer || msg.sender == consenter);\n        _;\n    }\n}\n",
  "sourcePath": "/home/michael/Documents/dev/e-community-platform/in-progress/consent-management/src/blockchain/smart_contracts/contracts/ConsentContract.sol",
  "compiler": {
    "name": "solc",
    "version": "0.8.17+commit.8df45f5f.Emscripten.clang"
  },
  "schemaVersion": "3.4.11",
  "updatedAt": "2022-12-16T17:09:40.635Z",
  "devdoc": {
    "kind": "dev",
    "methods": {},
    "version": 1
  },
  "userdoc": {
    "kind": "user",
    "methods": {},
    "version": 1
  }
}