{
  "contractName": "ConsentContract",
  "abi": [
    {
      "inputs": [
        {
          "internalType": "string",
          "name": "_contractID",
          "type": "string"
        }
      ],
      "stateMutability": "nonpayable",
      "type": "constructor"
    },
    {
      "anonymous": false,
      "inputs": [
        {
          "indexed": false,
          "internalType": "address",
          "name": "proposer",
          "type": "address"
        },
        {
          "indexed": false,
          "internalType": "address",
          "name": "consenter",
          "type": "address"
        },
        {
          "indexed": false,
          "internalType": "string",
          "name": "contractID",
          "type": "string"
        }
      ],
      "name": "ApprovedContract",
      "type": "event"
    },
    {
      "anonymous": false,
      "inputs": [
        {
          "indexed": false,
          "internalType": "address",
          "name": "proposer",
          "type": "address"
        },
        {
          "indexed": false,
          "internalType": "address",
          "name": "consenter",
          "type": "address"
        },
        {
          "indexed": false,
          "internalType": "string",
          "name": "contractID",
          "type": "string"
        }
      ],
      "name": "ClosedContract",
      "type": "event"
    },
    {
      "anonymous": false,
      "inputs": [
        {
          "indexed": false,
          "internalType": "address",
          "name": "proposer",
          "type": "address"
        },
        {
          "indexed": false,
          "internalType": "address",
          "name": "consenter",
          "type": "address"
        },
        {
          "indexed": false,
          "internalType": "string",
          "name": "contractID",
          "type": "string"
        }
      ],
      "name": "PaymentReceived",
      "type": "event"
    },
    {
      "anonymous": false,
      "inputs": [
        {
          "indexed": false,
          "internalType": "address",
          "name": "proposer",
          "type": "address"
        },
        {
          "indexed": false,
          "internalType": "address",
          "name": "consenter",
          "type": "address"
        },
        {
          "indexed": false,
          "internalType": "string",
          "name": "contractID",
          "type": "string"
        }
      ],
      "name": "RevokedContract",
      "type": "event"
    },
    {
      "inputs": [],
      "name": "contractID",
      "outputs": [
        {
          "internalType": "string",
          "name": "",
          "type": "string"
        }
      ],
      "stateMutability": "view",
      "type": "function"
    },
    {
      "inputs": [],
      "name": "getContractDetails",
      "outputs": [
        {
          "internalType": "address",
          "name": "",
          "type": "address"
        },
        {
          "internalType": "address",
          "name": "",
          "type": "address"
        },
        {
          "internalType": "string",
          "name": "",
          "type": "string"
        },
        {
          "internalType": "uint256",
          "name": "",
          "type": "uint256"
        },
        {
          "internalType": "uint256",
          "name": "",
          "type": "uint256"
        },
        {
          "internalType": "uint256",
          "name": "",
          "type": "uint256"
        },
        {
          "internalType": "uint256",
          "name": "",
          "type": "uint256"
        },
        {
          "internalType": "uint256",
          "name": "",
          "type": "uint256"
        }
      ],
      "stateMutability": "view",
      "type": "function"
    },
    {
      "inputs": [
        {
          "internalType": "address",
          "name": "_consenter",
          "type": "address"
        },
        {
          "internalType": "uint256",
          "name": "_startEnergyData",
          "type": "uint256"
        },
        {
          "internalType": "uint256",
          "name": "_endEnergyData",
          "type": "uint256"
        },
        {
          "internalType": "uint256",
          "name": "_validityOfContract",
          "type": "uint256"
        },
        {
          "internalType": "uint256",
          "name": "_pricePerHour",
          "type": "uint256"
        },
        {
          "internalType": "uint256",
          "name": "_totalPrice",
          "type": "uint256"
        }
      ],
      "name": "setContractDetails",
      "outputs": [],
      "stateMutability": "nonpayable",
      "type": "function"
    },
    {
      "inputs": [],
      "name": "signContract",
      "outputs": [],
      "stateMutability": "nonpayable",
      "type": "function"
    },
    {
      "inputs": [],
      "name": "revokeConsent",
      "outputs": [],
      "stateMutability": "nonpayable",
      "type": "function"
    },
    {
      "inputs": [],
      "name": "deposit",
      "outputs": [],
      "stateMutability": "payable",
      "type": "function"
    },
    {
      "inputs": [],
      "name": "withdraw",
      "outputs": [],
      "stateMutability": "nonpayable",
      "type": "function"
    },
    {
      "inputs": [],
      "name": "getState",
      "outputs": [
        {
          "internalType": "enum ConsentContract.STATE",
          "name": "",
          "type": "uint8"
        }
      ],
      "stateMutability": "nonpayable",
      "type": "function"
    }
  ],
  "bytecode": "0x60806040523480156200001157600080fd5b506040516200148238038062001482833981810160405281019062000037919062000224565b33600160006101000a81548173ffffffffffffffffffffffffffffffffffffffff021916908373ffffffffffffffffffffffffffffffffffffffff1602179055508060009081620000899190620004c0565b5050620005a7565b6000604051905090565b600080fd5b600080fd5b600080fd5b600080fd5b6000601f19601f8301169050919050565b7f4e487b7100000000000000000000000000000000000000000000000000000000600052604160045260246000fd5b620000fa82620000af565b810181811067ffffffffffffffff821117156200011c576200011b620000c0565b5b80604052505050565b60006200013162000091565b90506200013f8282620000ef565b919050565b600067ffffffffffffffff821115620001625762000161620000c0565b5b6200016d82620000af565b9050602081019050919050565b60005b838110156200019a5780820151818401526020810190506200017d565b60008484015250505050565b6000620001bd620001b78462000144565b62000125565b905082815260208101848484011115620001dc57620001db620000aa565b5b620001e98482856200017a565b509392505050565b600082601f830112620002095762000208620000a5565b5b81516200021b848260208601620001a6565b91505092915050565b6000602082840312156200023d576200023c6200009b565b5b600082015167ffffffffffffffff8111156200025e576200025d620000a0565b5b6200026c84828501620001f1565b91505092915050565b600081519050919050565b7f4e487b7100000000000000000000000000000000000000000000000000000000600052602260045260246000fd5b60006002820490506001821680620002c857607f821691505b602082108103620002de57620002dd62000280565b5b50919050565b60008190508160005260206000209050919050565b60006020601f8301049050919050565b600082821b905092915050565b600060088302620003487fffffffffffffffffffffffffffffffffffffffffffffffffffffffffffffffff8262000309565b62000354868362000309565b95508019841693508086168417925050509392505050565b6000819050919050565b6000819050919050565b6000620003a16200039b62000395846200036c565b62000376565b6200036c565b9050919050565b6000819050919050565b620003bd8362000380565b620003d5620003cc82620003a8565b84845462000316565b825550505050565b600090565b620003ec620003dd565b620003f9818484620003b2565b505050565b5b81811015620004215762000415600082620003e2565b600181019050620003ff565b5050565b601f82111562000470576200043a81620002e4565b6200044584620002f9565b8101602085101562000455578190505b6200046d6200046485620002f9565b830182620003fe565b50505b505050565b600082821c905092915050565b6000620004956000198460080262000475565b1980831691505092915050565b6000620004b0838362000482565b9150826002028217905092915050565b620004cb8262000275565b67ffffffffffffffff811115620004e757620004e6620000c0565b5b620004f38254620002af565b6200050082828562000425565b600060209050601f83116001811462000538576000841562000523578287015190505b6200052f8582620004a2565b8655506200059f565b601f1984166200054886620002e4565b60005b8281101562000572578489015182556001820191506020850194506020810190506200054b565b868310156200059257848901516200058e601f89168262000482565b8355505b6001600288020188555050505b505050505050565b610ecb80620005b76000396000f3fe60806040526004361061007b5760003560e01c8063b8b4f1a01161004e578063b8b4f1a01461011f578063d0e30db014610136578063f280570f14610140578063ff4c4d54146101695761007b565b80631865c57d146100805780633ccfd60b146100ab57806391f30bd4146100c25780639dfc9117146100ed575b600080fd5b34801561008c57600080fd5b50610095610180565b6040516100a291906109a4565b60405180910390f35b3480156100b757600080fd5b506100c0610289565b005b3480156100ce57600080fd5b506100d7610417565b6040516100e49190610a4f565b60405180910390f35b3480156100f957600080fd5b506101026104a5565b604051610116989796959493929190610acb565b60405180910390f35b34801561012b57600080fd5b506101346105af565b005b61013e6107a3565b005b34801561014c57600080fd5b5061016760048036038101906101629190610bad565b610814565b005b34801561017557600080fd5b5061017e610880565b005b6000600160068111156101965761019561092d565b5b600960009054906101000a900460ff1660068111156101b8576101b761092d565b5b0361027457600554421115610273577f039f84db2b73a2e16f49ce65a0682283effe20f445e9478169ab3aa0fb730b39600160009054906101000a900473ffffffffffffffffffffffffffffffffffffffff16600260009054906101000a900473ffffffffffffffffffffffffffffffffffffffff16600060405161023f93929190610d33565b60405180910390a16006600960006101000a81548160ff0219169083600681111561026d5761026c61092d565b5b02179055505b5b600960009054906101000a900460ff16905090565b6002600681111561029d5761029c61092d565b5b600960009054906101000a900460ff1660068111156102bf576102be61092d565b5b146102ff576040517f08c379a00000000000000000000000000000000000000000000000000000000081526004016102f690610de3565b60405180910390fd5b600260009054906101000a900473ffffffffffffffffffffffffffffffffffffffff1673ffffffffffffffffffffffffffffffffffffffff166108fc6007549081150290604051600060405180830381858888f19350505050158015610369573d6000803e3d6000fd5b507fd3e74016583aff79754a7ce6f1e0fec1da60abe14bf2a8691d924f3614ef29d9600260009054906101000a900473ffffffffffffffffffffffffffffffffffffffff16600160009054906101000a900473ffffffffffffffffffffffffffffffffffffffff1660006040516103e293929190610d33565b60405180910390a16001600960006101000a81548160ff021916908360068111156104105761040f61092d565b5b0217905550565b6000805461042490610c69565b80601f016020809104026020016040519081016040528092919081815260200182805461045090610c69565b801561049d5780601f106104725761010080835404028352916020019161049d565b820191906000526020600020905b81548152906001019060200180831161048057829003601f168201915b505050505081565b60008060606000806000806000600160009054906101000a900473ffffffffffffffffffffffffffffffffffffffff16600260009054906101000a900473ffffffffffffffffffffffffffffffffffffffff16600060035460045460055460065460075485805461051590610c69565b80601f016020809104026020016040519081016040528092919081815260200182805461054190610c69565b801561058e5780601f106105635761010080835404028352916020019161058e565b820191906000526020600020905b81548152906001019060200180831161057157829003601f168201915b50505050509550975097509750975097509750975097509091929394959697565b600160009054906101000a900473ffffffffffffffffffffffffffffffffffffffff1673ffffffffffffffffffffffffffffffffffffffff163373ffffffffffffffffffffffffffffffffffffffff160361064e576001600860000160006101000a81548160ff0219169083151502179055506000600960006101000a81548160ff021916908360068111156106485761064761092d565b5b02179055505b600260009054906101000a900473ffffffffffffffffffffffffffffffffffffffff1673ffffffffffffffffffffffffffffffffffffffff163373ffffffffffffffffffffffffffffffffffffffff16036106c2576001600860000160016101000a81548160ff0219169083151502179055505b600860000160009054906101000a900460ff1680156106f05750600860000160019054906101000a900460ff165b156107a1577f32f67f50e910168ca990077eeea1f27f4ff0c20c08adddf57c2258d39f7089d1600160009054906101000a900473ffffffffffffffffffffffffffffffffffffffff16600260009054906101000a900473ffffffffffffffffffffffffffffffffffffffff16600060405161076d93929190610d33565b60405180910390a16003600960006101000a81548160ff0219169083600681111561079b5761079a61092d565b5b02179055505b565b60075434146107e7576040517f08c379a00000000000000000000000000000000000000000000000000000000081526004016107de90610e75565b60405180910390fd5b6002600960006101000a81548160ff0219169083600681111561080d5761080c61092d565b5b0217905550565b85600260006101000a81548173ffffffffffffffffffffffffffffffffffffffff021916908373ffffffffffffffffffffffffffffffffffffffff1602179055508460038190555083600481905550826005819055508160068190555080600781905550505050505050565b6005600960006101000a81548160ff021916908360068111156108a6576108a561092d565b5b02179055507fb6665ce9328d680496da413a6263c2312bc384568ceffa52b0f27e04a64f3a04600160009054906101000a900473ffffffffffffffffffffffffffffffffffffffff16600260009054906101000a900473ffffffffffffffffffffffffffffffffffffffff16600060405161092393929190610d33565b60405180910390a1565b7f4e487b7100000000000000000000000000000000000000000000000000000000600052602160045260246000fd5b6007811061096d5761096c61092d565b5b50565b600081905061097e8261095c565b919050565b600061098e82610970565b9050919050565b61099e81610983565b82525050565b60006020820190506109b96000830184610995565b92915050565b600081519050919050565b600082825260208201905092915050565b60005b838110156109f95780820151818401526020810190506109de565b60008484015250505050565b6000601f19601f8301169050919050565b6000610a21826109bf565b610a2b81856109ca565b9350610a3b8185602086016109db565b610a4481610a05565b840191505092915050565b60006020820190508181036000830152610a698184610a16565b905092915050565b600073ffffffffffffffffffffffffffffffffffffffff82169050919050565b6000610a9c82610a71565b9050919050565b610aac81610a91565b82525050565b6000819050919050565b610ac581610ab2565b82525050565b600061010082019050610ae1600083018b610aa3565b610aee602083018a610aa3565b8181036040830152610b008189610a16565b9050610b0f6060830188610abc565b610b1c6080830187610abc565b610b2960a0830186610abc565b610b3660c0830185610abc565b610b4360e0830184610abc565b9998505050505050505050565b600080fd5b610b5e81610a91565b8114610b6957600080fd5b50565b600081359050610b7b81610b55565b92915050565b610b8a81610ab2565b8114610b9557600080fd5b50565b600081359050610ba781610b81565b92915050565b60008060008060008060c08789031215610bca57610bc9610b50565b5b6000610bd889828a01610b6c565b9650506020610be989828a01610b98565b9550506040610bfa89828a01610b98565b9450506060610c0b89828a01610b98565b9350506080610c1c89828a01610b98565b92505060a0610c2d89828a01610b98565b9150509295509295509295565b7f4e487b7100000000000000000000000000000000000000000000000000000000600052602260045260246000fd5b60006002820490506001821680610c8157607f821691505b602082108103610c9457610c93610c3a565b5b50919050565b60008190508160005260206000209050919050565b60008154610cbc81610c69565b610cc681866109ca565b94506001821660008114610ce15760018114610cf757610d2a565b60ff198316865281151560200286019350610d2a565b610d0085610c9a565b60005b83811015610d2257815481890152600182019150602081019050610d03565b808801955050505b50505092915050565b6000606082019050610d486000830186610aa3565b610d556020830185610aa3565b8181036040830152610d678184610caf565b9050949350505050565b7f4e6f7468696e672077697468647261772c20636f6e73656e746572206e65656460008201527f7320746f2073656e642045544820666972737400000000000000000000000000602082015250565b6000610dcd6033836109ca565b9150610dd882610d71565b604082019050919050565b60006020820190508181036000830152610dfc81610dc0565b9050919050565b7f596f75206e65656420746f206465706f7369742074686520616772656564207060008201527f7269636521000000000000000000000000000000000000000000000000000000602082015250565b6000610e5f6025836109ca565b9150610e6a82610e03565b604082019050919050565b60006020820190508181036000830152610e8e81610e52565b905091905056fea2646970667358221220c8aad3359aee55806bcf3b992c7a527f8c7e23a9b34242e57b205b746184602864736f6c63430008110033",
  "immutableReferences": {},
  "source": "// SPDX-License-Identifier: GPL-3.0\n\npragma solidity >=0.7.0 <0.9.0;\n\n// factory for new consent contracts\n// used because factory only need to be deployed once\ncontract ConsentContractFactory {\n\n    ConsentContract[] private contracts;\n\n    // creates a new consent contract and returns its address\n    function createConsentContract(string memory _contractID) public {\n        ConsentContract consentContract = new ConsentContract(_contractID);\n\n        contracts.push(consentContract);\n    }\n\n    // returns address for given contractID\n    function getContractAddress(string memory _contractID) public view returns(address) {\n        for (uint i = 0; i < contracts.length; i++) {\n            string memory contractID = contracts[i].contractID();\n            if (keccak256(abi.encodePacked(contractID)) == keccak256(abi.encodePacked(_contractID))) {\n                return address(contracts[i]);\n            }\n        }\n\n        return address(contracts[0]);\n    }\n}\n\ncontract ConsentContract {\n\n    enum STATE {\n        CONTRACT_PENDING,\n        CONTRACT_ACTIVE,\n        CONTRACT_PAYMENT_DEPOSIT,\n        CONTRACT_PAYMENT_PENDING,\n        CONTRACT_REJECTED,\n        CONTRACT_REVOKED,\n        CONTRACT_CLOSED\n    }\n\n    // both parties need to sign the contract\n    struct ContractSign {\n        bool signedByProposer;\n        bool signedByConsenter;\n    }\n\n\n    // notify consenter that he received a payment => contract is now valid\n    event PaymentReceived(address proposer, address consenter, string contractID);\n\n    // notify proposer that the contract got signed by the consenter\n    event ApprovedContract(address proposer, address consenter, string contractID);\n\n    // notify both when contract gets closed\n    event ClosedContract(address proposer, address consenter, string contractID);\n\n    // notify proposer that the contract got revoked\n    event RevokedContract(address proposer, address consenter, string contractID);\n\n    // ### Contract Details ###\n    string public contractID;\n    address private proposer; // address of the owner of the contract (proposer)    \n    address private consenter; // address of the consenter\n    uint private startEnergyData; \n    uint private endEnergyData;\n    uint private validityOfContract;\n    uint private pricePerHour;\n    uint private totalPrice;\n    \n    // signature of both parties\n    ContractSign private signature;\n\n    // State of the contract\n    STATE private contractState;\n\n    // set owner of the contract\n    constructor(string memory _contractID) {\n        proposer = msg.sender;\n        contractID = _contractID;\n    }\n\n    function getContractDetails() public view returns(address, address, string memory, uint, uint, uint, uint, uint) {\n        return (proposer, consenter, contractID, startEnergyData, endEnergyData, validityOfContract, pricePerHour, totalPrice);\n    }\n\n    // set details about the contract\n    function setContractDetails(\n        address _consenter, \n        uint _startEnergyData, \n        uint _endEnergyData,\n        uint _validityOfContract,\n        uint _pricePerHour,\n        uint _totalPrice\n    ) public onlyOwner {\n        consenter = _consenter;\n        startEnergyData = _startEnergyData;\n        endEnergyData = _endEnergyData;\n        validityOfContract = _validityOfContract;\n        pricePerHour = _pricePerHour;\n        totalPrice = _totalPrice;\n    }\n\n    /* both parties need to sign the contract inorder to start the energy sharing\n       proposer also needs to sign the contract because the consenter\n       can modify the regulations before the contract is active\n    */\n    function signContract() public bothParties {\n        if (msg.sender == proposer) { \n            signature.signedByProposer = true; \n            contractState = STATE.CONTRACT_PENDING;\n        }\n        if (msg.sender == consenter) {\n            signature.signedByConsenter = true;\n        }\n\n        if (signature.signedByProposer && signature.signedByConsenter) {\n            emit ApprovedContract(proposer, consenter, contractID);\n            contractState = STATE.CONTRACT_PAYMENT_PENDING;\n        }\n    }\n\n    // contract can be revoked from both parties\n    function revokeConsent() public bothParties {\n        contractState = STATE.CONTRACT_REVOKED;\n        emit RevokedContract(proposer, consenter, contractID);\n    }\n\n    // proposer needs to deposit the agreed ethers to the contract\n    function deposit() public payable onlyOwner {\n        require(msg.value == totalPrice, \"You need to deposit the agreed price!\");\n        contractState = STATE.CONTRACT_PAYMENT_DEPOSIT;\n    }\n\n    // withdraw the ethers balance from the contract to address of the consenter\n    // after withdraw the contract is active and running\n    function withdraw() public onlyConsenter {\n        require(contractState == STATE.CONTRACT_PAYMENT_DEPOSIT, \"Nothing withdraw, consenter needs to send ETH first\");\n\n        payable(consenter).transfer(totalPrice);\n\n        emit PaymentReceived(consenter, proposer, contractID);\n\n        contractState = STATE.CONTRACT_ACTIVE;\n    }\n\n    // returns the contract state, will be always called when the user interact with energy data\n    function getState() public returns(STATE) {\n\n        // check if contract is still valid if not emit Closed() event\n        if (contractState == STATE.CONTRACT_ACTIVE) {\n            if (block.timestamp > validityOfContract) {\n                emit ClosedContract(proposer, consenter, contractID);\n                contractState = STATE.CONTRACT_CLOSED;\n            }\n        }\n        \n        return contractState;\n    }\n\n    // modifier for functions only the owner can execute\n    modifier onlyOwner() {\n        //require(msg.sender == proposer);\n        _;\n    }\n\n    // modifier for functions only the consenter can execute\n    modifier onlyConsenter() {\n        //require(msg.sender == consenter);\n        _;\n    }\n\n    // modifier for functions, both parties (proposer and consenter) can execute\n    modifier bothParties() {\n        //require(msg.sender == proposer || msg.sender == consenter);\n        _;\n    }\n}\n",
  "sourcePath": "/home/michael/Documents/dev/e-community-platform/in-progress/consent-management/src/blockchain/smart_contracts/contracts/ConsentContract.sol",
  "compiler": {
    "name": "solc",
    "version": "0.8.17+commit.8df45f5f.Emscripten.clang"
  },
  "schemaVersion": "3.4.11",
  "updatedAt": "2023-01-10T20:56:43.943Z",
  "devdoc": {
    "kind": "dev",
    "methods": {},
    "version": 1
  },
  "userdoc": {
    "kind": "user",
    "methods": {},
    "version": 1
  }
}