{
  "contractName": "helloworld",
  "abi": [
    {
      "inputs": [],
      "name": "message",
      "outputs": [
        {
          "internalType": "string",
          "name": "",
          "type": "string"
        }
      ],
      "stateMutability": "view",
      "type": "function"
    },
    {
      "inputs": [],
      "name": "Hello",
      "outputs": [],
      "stateMutability": "nonpayable",
      "type": "function"
    }
  ],
  "bytecode": "0x608060405234801561001057600080fd5b50610537806100206000396000f3fe608060405234801561001057600080fd5b50600436106100365760003560e01c8063bcdfe0d51461003b578063e21f37ce14610045575b600080fd5b610043610063565b005b61004d6100aa565b60405161005a91906101c8565b60405180910390f35b6040518060400160405280600b81526020017f48656c6c6f20576f726c64000000000000000000000000000000000000000000815250600090816100a7919061042f565b50565b600080546100b790610248565b80601f01602080910402602001604051908101604052809291908181526020018280546100e390610248565b80156101305780601f1061010557610100808354040283529160200191610130565b820191906000526020600020905b81548152906001019060200180831161011357829003601f168201915b505050505081565b600081519050919050565b600082825260208201905092915050565b60005b83811015610172578082015181840152602081019050610157565b60008484015250505050565b6000601f19601f8301169050919050565b600061019a82610138565b6101a48185610143565b93506101b4818560208601610154565b6101bd8161017e565b840191505092915050565b600060208201905081810360008301526101e2818461018f565b905092915050565b7f4e487b7100000000000000000000000000000000000000000000000000000000600052604160045260246000fd5b7f4e487b7100000000000000000000000000000000000000000000000000000000600052602260045260246000fd5b6000600282049050600182168061026057607f821691505b60208210810361027357610272610219565b5b50919050565b60008190508160005260206000209050919050565b60006020601f8301049050919050565b600082821b905092915050565b6000600883026102db7fffffffffffffffffffffffffffffffffffffffffffffffffffffffffffffffff8261029e565b6102e5868361029e565b95508019841693508086168417925050509392505050565b6000819050919050565b6000819050919050565b600061032c610327610322846102fd565b610307565b6102fd565b9050919050565b6000819050919050565b61034683610311565b61035a61035282610333565b8484546102ab565b825550505050565b600090565b61036f610362565b61037a81848461033d565b505050565b5b8181101561039e57610393600082610367565b600181019050610380565b5050565b601f8211156103e3576103b481610279565b6103bd8461028e565b810160208510156103cc578190505b6103e06103d88561028e565b83018261037f565b50505b505050565b600082821c905092915050565b6000610406600019846008026103e8565b1980831691505092915050565b600061041f83836103f5565b9150826002028217905092915050565b61043882610138565b67ffffffffffffffff811115610451576104506101ea565b5b61045b8254610248565b6104668282856103a2565b600060209050601f8311600181146104995760008415610487578287015190505b6104918582610413565b8655506104f9565b601f1984166104a786610279565b60005b828110156104cf578489015182556001820191506020850194506020810190506104aa565b868310156104ec57848901516104e8601f8916826103f5565b8355505b6001600288020188555050505b50505050505056fea264697066735822122058ab10802193a483a13adb25cec55007d722e8aa45e2752c0428b8ef021d15a564736f6c63430008110033",
  "immutableReferences": {},
  "source": "pragma solidity ^0.8.17;\n\ncontract helloworld {\n    string public message;\n\n    function Hello() public {\n        message = \"Hello World\";\n    }\n}",
  "sourcePath": "/home/michael/Documents/dev/network/smart-contracts/contracts/helloworld.sol",
  "compiler": {
    "name": "solc",
    "version": "0.8.17+commit.8df45f5f.Emscripten.clang"
  },
  "schemaVersion": "3.4.11",
  "updatedAt": "2022-12-12T21:42:52.132Z",
  "devdoc": {
    "kind": "dev",
    "methods": {},
    "version": 1
  },
  "userdoc": {
    "kind": "user",
    "methods": {},
    "version": 1
  }
}