{
  "contractName": "SimpleStorage",
  "abi": [
    {
      "anonymous": false,
      "inputs": [
        {
          "indexed": false,
          "internalType": "int256",
          "name": "value",
          "type": "int256"
        }
      ],
      "name": "NumberChanged",
      "type": "event"
    },
    {
      "inputs": [
        {
          "internalType": "int256",
          "name": "_value",
          "type": "int256"
        }
      ],
      "name": "newNumber",
      "outputs": [],
      "stateMutability": "nonpayable",
      "type": "function"
    }
  ],
  "bytecode": "0x60806040526000805534801561001457600080fd5b50610157806100246000396000f3fe608060405234801561001057600080fd5b506004361061002b5760003560e01c80632ca8326414610030575b600080fd5b61004a600480360381019061004591906100ca565b61004c565b005b806000819055507f42e31d4b020595d608b8ccda14f41450c8dbc6f2d779409750b2920f894a2fb56000546040516100849190610106565b60405180910390a150565b600080fd5b6000819050919050565b6100a781610094565b81146100b257600080fd5b50565b6000813590506100c48161009e565b92915050565b6000602082840312156100e0576100df61008f565b5b60006100ee848285016100b5565b91505092915050565b61010081610094565b82525050565b600060208201905061011b60008301846100f7565b9291505056fea2646970667358221220e2c4c4b1822071d7d75e6090206db9372f4539a9e9e7898ac3cc0e4e248d1fe264736f6c63430008110033",
  "immutableReferences": {},
  "source": "// SPDX-License-Identifier: GPL-3.0\n\npragma solidity >=0.7.0 <0.9.0;\n\ncontract SimpleStorage {\n    int value = 0;\n\n    event NumberChanged(int value);\n\n    function newNumber(int _value) public {\n        value = _value;\n        emit NumberChanged(value);\n    }\n}",
  "sourcePath": "/home/michael/Documents/dev/e-community-platform/in-progress/consent-management/src/blockchain/smart_contracts/contracts/SimpleStorage.sol",
  "compiler": {
    "name": "solc",
    "version": "0.8.17+commit.8df45f5f.Emscripten.clang"
  },
  "schemaVersion": "3.4.11",
  "updatedAt": "2022-12-19T16:19:18.903Z",
  "networkType": "ethereum",
  "devdoc": {
    "kind": "dev",
    "methods": {},
    "version": 1
  },
  "userdoc": {
    "kind": "user",
    "methods": {},
    "version": 1
  }
}