{
  "contractName": "Storage",
  "abi": [
    {
      "inputs": [],
      "name": "getValue",
      "outputs": [
        {
          "internalType": "int256",
          "name": "",
          "type": "int256"
        }
      ],
      "stateMutability": "pure",
      "type": "function"
    }
  ],
  "bytecode": "0x608060405234801561001057600080fd5b5060b68061001f6000396000f3fe6080604052348015600f57600080fd5b506004361060285760003560e01c80632096525514602d575b600080fd5b60336047565b604051603e91906067565b60405180910390f35b60006005905090565b6000819050919050565b6061816050565b82525050565b6000602082019050607a6000830184605a565b9291505056fea26469706673582212203b1b829a2db02b7378f01e25850882967025c92bf5c7a7a297ed4c7d5dce20ff64736f6c63430008110033",
  "immutableReferences": {},
  "source": "// SPDX-License-Identifier: GPL-3.0\n\npragma solidity >=0.7.0 <0.9.0;\n\n\ncontract Storage {\n\n    int private value;\n\n    function getValue() public pure returns(int) {\n        return 5;\n    }\n}",
  "sourcePath": "/home/michael/Documents/dev/e-community-platform/in-progress/consent-management/src/blockchain/smart_contracts/contracts/Storage.sol",
  "compiler": {
    "name": "solc",
    "version": "0.8.17+commit.8df45f5f.Emscripten.clang"
  },
  "schemaVersion": "3.4.11",
  "updatedAt": "2022-12-22T13:59:31.220Z",
  "devdoc": {
    "kind": "dev",
    "methods": {},
    "version": 1
  },
  "userdoc": {
    "kind": "user",
    "methods": {},
    "version": 1
  }
}