{
	"Users/michael/Documents/dev/e-community-platform/in-progress/consent-management/src/blockchain/smart_contracts/contracts/ConsentContractFactory.sol": {
		"ConsentContractFactory": {
			"abi": [
				{
					"inputs": [
						{
							"internalType": "string",
							"name": "_contractID",
							"type": "string"
						}
					],
					"name": "createConsentContract",
					"outputs": [],
					"stateMutability": "nonpayable",
					"type": "function"
				},
				{
					"inputs": [
						{
							"internalType": "string",
							"name": "_contractID",
							"type": "string"
						}
					],
					"name": "getContractAddress",
					"outputs": [
						{
							"internalType": "address",
							"name": "",
							"type": "address"
						}
					],
					"stateMutability": "view",
					"type": "function"
				},
				{
					"inputs": [
						{
							"internalType": "address",
							"name": "_address",
							"type": "address"
						}
					],
					"name": "getContracts",
					"outputs": [
						{
							"internalType": "contract ConsentContract[]",
							"name": "",
							"type": "address[]"
						}
					],
					"stateMutability": "view",
					"type": "function"
				},
				{
					"inputs": [],
					"name": "testArray",
					"outputs": [
						{
							"internalType": "contract ConsentContract[]",
							"name": "",
							"type": "address[]"
						}
					],
					"stateMutability": "view",
					"type": "function"
				}
			],
			"devdoc": {
				"kind": "dev",
				"methods": {
					"createConsentContract(string)": {
						"params": {
							"_contractID": "unique ID of a Contract"
						}
					},
					"getContractAddress(string)": {
						"params": {
							"_contractID": "unique ID of a contract"
						},
						"returns": {
							"_0": "address of the found contract"
						}
					},
					"getContracts(address)": {
						"params": {
							"_address": "address of a member"
						},
						"returns": {
							"_0": "array of related contracts"
						}
					}
				},
				"title": "Factory for Consent Contracts ",
				"version": 1
			},
			"evm": {
				"assembly": "    /* \"Users/michael/Documents/dev/e-community-platform/in-progress/consent-management/src/blockchain/smart_contracts/contracts/ConsentContractFactory.sol\":238:2278  contract ConsentContractFactory {... */\n  mstore(0x40, 0x80)\n  callvalue\n  dup1\n  iszero\n  tag_1\n  jumpi\n  0x00\n  dup1\n  revert\ntag_1:\n  pop\n  dataSize(sub_0)\n  dup1\n  dataOffset(sub_0)\n  0x00\n  codecopy\n  0x00\n  return\nstop\n\nsub_0: assembly {\n        /* \"Users/michael/Documents/dev/e-community-platform/in-progress/consent-management/src/blockchain/smart_contracts/contracts/ConsentContractFactory.sol\":238:2278  contract ConsentContractFactory {... */\n      mstore(0x40, 0x80)\n      callvalue\n      dup1\n      iszero\n      tag_1\n      jumpi\n      0x00\n      dup1\n      revert\n    tag_1:\n      pop\n      jumpi(tag_2, lt(calldatasize, 0x04))\n      shr(0xe0, calldataload(0x00))\n      dup1\n      0x04433bbc\n      eq\n      tag_3\n      jumpi\n      dup1\n      0x213fe2b7\n      eq\n      tag_4\n      jumpi\n      dup1\n      0x2283bffd\n      eq\n      tag_5\n      jumpi\n      dup1\n      0x5b6015f4\n      eq\n      tag_6\n      jumpi\n    tag_2:\n      0x00\n      dup1\n      revert\n        /* \"Users/michael/Documents/dev/e-community-platform/in-progress/consent-management/src/blockchain/smart_contracts/contracts/ConsentContractFactory.sol\":1015:1485  function getContractAddress(string memory _contractID) public view returns(address) {... */\n    tag_3:\n      tag_7\n      0x04\n      dup1\n      calldatasize\n      sub\n      dup2\n      add\n      swap1\n      tag_8\n      swap2\n      swap1\n      tag_9\n      jump\t// in\n    tag_8:\n      tag_10\n      jump\t// in\n    tag_7:\n      mload(0x40)\n      tag_11\n      swap2\n      swap1\n      tag_12\n      jump\t// in\n    tag_11:\n      mload(0x40)\n      dup1\n      swap2\n      sub\n      swap1\n      return\n        /* \"Users/michael/Documents/dev/e-community-platform/in-progress/consent-management/src/blockchain/smart_contracts/contracts/ConsentContractFactory.sol\":1667:2170  function getContracts(address _address) public view returns(ConsentContract[] memory) {... */\n    tag_4:\n      tag_13\n      0x04\n      dup1\n      calldatasize\n      sub\n      dup2\n      add\n      swap1\n      tag_14\n      swap2\n      swap1\n      tag_15\n      jump\t// in\n    tag_14:\n      tag_16\n      jump\t// in\n    tag_13:\n      mload(0x40)\n      tag_17\n      swap2\n      swap1\n      tag_18\n      jump\t// in\n    tag_17:\n      mload(0x40)\n      dup1\n      swap2\n      sub\n      swap1\n      return\n        /* \"Users/michael/Documents/dev/e-community-platform/in-progress/consent-management/src/blockchain/smart_contracts/contracts/ConsentContractFactory.sol\":2176:2276  function testArray() public view returns(ConsentContract[] memory) {... */\n    tag_5:\n      tag_19\n      tag_20\n      jump\t// in\n    tag_19:\n      mload(0x40)\n      tag_21\n      swap2\n      swap1\n      tag_18\n      jump\t// in\n    tag_21:\n      mload(0x40)\n      dup1\n      swap2\n      sub\n      swap1\n      return\n        /* \"Users/michael/Documents/dev/e-community-platform/in-progress/consent-management/src/blockchain/smart_contracts/contracts/ConsentContractFactory.sol\":606:796  function createConsentContract(string memory _contractID) public {... */\n    tag_6:\n      tag_22\n      0x04\n      dup1\n      calldatasize\n      sub\n      dup2\n      add\n      swap1\n      tag_23\n      swap2\n      swap1\n      tag_9\n      jump\t// in\n    tag_23:\n      tag_24\n      jump\t// in\n    tag_22:\n      stop\n        /* \"Users/michael/Documents/dev/e-community-platform/in-progress/consent-management/src/blockchain/smart_contracts/contracts/ConsentContractFactory.sol\":1015:1485  function getContractAddress(string memory _contractID) public view returns(address) {... */\n    tag_10:\n        /* \"Users/michael/Documents/dev/e-community-platform/in-progress/consent-management/src/blockchain/smart_contracts/contracts/ConsentContractFactory.sol\":1090:1097  address */\n      0x00\n        /* \"Users/michael/Documents/dev/e-community-platform/in-progress/consent-management/src/blockchain/smart_contracts/contracts/ConsentContractFactory.sol\":1114:1120  uint i */\n      dup1\n        /* \"Users/michael/Documents/dev/e-community-platform/in-progress/consent-management/src/blockchain/smart_contracts/contracts/ConsentContractFactory.sol\":1123:1124  0 */\n      0x00\n        /* \"Users/michael/Documents/dev/e-community-platform/in-progress/consent-management/src/blockchain/smart_contracts/contracts/ConsentContractFactory.sol\":1114:1124  uint i = 0 */\n      swap1\n      pop\n        /* \"Users/michael/Documents/dev/e-community-platform/in-progress/consent-management/src/blockchain/smart_contracts/contracts/ConsentContractFactory.sol\":1109:1448  for (uint i = 0; i < contracts.length; i++) {... */\n    tag_26:\n        /* \"Users/michael/Documents/dev/e-community-platform/in-progress/consent-management/src/blockchain/smart_contracts/contracts/ConsentContractFactory.sol\":1130:1139  contracts */\n      0x00\n        /* \"Users/michael/Documents/dev/e-community-platform/in-progress/consent-management/src/blockchain/smart_contracts/contracts/ConsentContractFactory.sol\":1130:1146  contracts.length */\n      dup1\n      sload\n      swap1\n      pop\n        /* \"Users/michael/Documents/dev/e-community-platform/in-progress/consent-management/src/blockchain/smart_contracts/contracts/ConsentContractFactory.sol\":1126:1127  i */\n      dup2\n        /* \"Users/michael/Documents/dev/e-community-platform/in-progress/consent-management/src/blockchain/smart_contracts/contracts/ConsentContractFactory.sol\":1126:1146  i < contracts.length */\n      lt\n        /* \"Users/michael/Documents/dev/e-community-platform/in-progress/consent-management/src/blockchain/smart_contracts/contracts/ConsentContractFactory.sol\":1109:1448  for (uint i = 0; i < contracts.length; i++) {... */\n      iszero\n      tag_27\n      jumpi\n        /* \"Users/michael/Documents/dev/e-community-platform/in-progress/consent-management/src/blockchain/smart_contracts/contracts/ConsentContractFactory.sol\":1167:1191  string memory contractID */\n      0x00\n        /* \"Users/michael/Documents/dev/e-community-platform/in-progress/consent-management/src/blockchain/smart_contracts/contracts/ConsentContractFactory.sol\":1194:1203  contracts */\n      dup1\n        /* \"Users/michael/Documents/dev/e-community-platform/in-progress/consent-management/src/blockchain/smart_contracts/contracts/ConsentContractFactory.sol\":1204:1205  i */\n      dup3\n        /* \"Users/michael/Documents/dev/e-community-platform/in-progress/consent-management/src/blockchain/smart_contracts/contracts/ConsentContractFactory.sol\":1194:1206  contracts[i] */\n      dup2\n      sload\n      dup2\n      lt\n      tag_29\n      jumpi\n      tag_30\n      tag_31\n      jump\t// in\n    tag_30:\n    tag_29:\n      swap1\n      0x00\n      mstore\n      keccak256(0x00, 0x20)\n      add\n      0x00\n      swap1\n      sload\n      swap1\n      0x0100\n      exp\n      swap1\n      div\n      0xffffffffffffffffffffffffffffffffffffffff\n      and\n        /* \"Users/michael/Documents/dev/e-community-platform/in-progress/consent-management/src/blockchain/smart_contracts/contracts/ConsentContractFactory.sol\":1194:1217  contracts[i].contractID */\n      0xffffffffffffffffffffffffffffffffffffffff\n      and\n      0x91f30bd4\n        /* \"Users/michael/Documents/dev/e-community-platform/in-progress/consent-management/src/blockchain/smart_contracts/contracts/ConsentContractFactory.sol\":1194:1219  contracts[i].contractID() */\n      mload(0x40)\n      dup2\n      0xffffffff\n      and\n      0xe0\n      shl\n      dup2\n      mstore\n      0x04\n      add\n      0x00\n      mload(0x40)\n      dup1\n      dup4\n      sub\n      dup2\n      dup7\n      gas\n      staticcall\n      iszero\n      dup1\n      iszero\n      tag_34\n      jumpi\n      returndatasize\n      0x00\n      dup1\n      returndatacopy\n      revert(0x00, returndatasize)\n    tag_34:\n      pop\n      pop\n      pop\n      pop\n      mload(0x40)\n      returndatasize\n      0x00\n      dup3\n      returndatacopy\n      returndatasize\n      not(0x1f)\n      0x1f\n      dup3\n      add\n      and\n      dup3\n      add\n      dup1\n      0x40\n      mstore\n      pop\n      dup2\n      add\n      swap1\n      tag_35\n      swap2\n      swap1\n      tag_36\n      jump\t// in\n    tag_35:\n        /* \"Users/michael/Documents/dev/e-community-platform/in-progress/consent-management/src/blockchain/smart_contracts/contracts/ConsentContractFactory.sol\":1167:1219  string memory contractID = contracts[i].contractID() */\n      swap1\n      pop\n        /* \"Users/michael/Documents/dev/e-community-platform/in-progress/consent-management/src/blockchain/smart_contracts/contracts/ConsentContractFactory.sol\":1362:1373  _contractID */\n      dup4\n        /* \"Users/michael/Documents/dev/e-community-platform/in-progress/consent-management/src/blockchain/smart_contracts/contracts/ConsentContractFactory.sol\":1345:1374  abi.encodePacked(_contractID) */\n      add(0x20, mload(0x40))\n      tag_37\n      swap2\n      swap1\n      tag_38\n      jump\t// in\n    tag_37:\n      mload(0x40)\n      0x20\n      dup2\n      dup4\n      sub\n      sub\n      dup2\n      mstore\n      swap1\n      0x40\n      mstore\n        /* \"Users/michael/Documents/dev/e-community-platform/in-progress/consent-management/src/blockchain/smart_contracts/contracts/ConsentContractFactory.sol\":1335:1375  keccak256(abi.encodePacked(_contractID)) */\n      dup1\n      mload\n      swap1\n      0x20\n      add\n      keccak256\n        /* \"Users/michael/Documents/dev/e-community-platform/in-progress/consent-management/src/blockchain/smart_contracts/contracts/ConsentContractFactory.sol\":1319:1329  contractID */\n      dup2\n        /* \"Users/michael/Documents/dev/e-community-platform/in-progress/consent-management/src/blockchain/smart_contracts/contracts/ConsentContractFactory.sol\":1302:1330  abi.encodePacked(contractID) */\n      add(0x20, mload(0x40))\n      tag_39\n      swap2\n      swap1\n      tag_38\n      jump\t// in\n    tag_39:\n      mload(0x40)\n      0x20\n      dup2\n      dup4\n      sub\n      sub\n      dup2\n      mstore\n      swap1\n      0x40\n      mstore\n        /* \"Users/michael/Documents/dev/e-community-platform/in-progress/consent-management/src/blockchain/smart_contracts/contracts/ConsentContractFactory.sol\":1292:1331  keccak256(abi.encodePacked(contractID)) */\n      dup1\n      mload\n      swap1\n      0x20\n      add\n      keccak256\n        /* \"Users/michael/Documents/dev/e-community-platform/in-progress/consent-management/src/blockchain/smart_contracts/contracts/ConsentContractFactory.sol\":1292:1375  keccak256(abi.encodePacked(contractID)) == keccak256(abi.encodePacked(_contractID)) */\n      sub\n        /* \"Users/michael/Documents/dev/e-community-platform/in-progress/consent-management/src/blockchain/smart_contracts/contracts/ConsentContractFactory.sol\":1288:1438  if (keccak256(abi.encodePacked(contractID)) == keccak256(abi.encodePacked(_contractID))) {... */\n      tag_40\n      jumpi\n        /* \"Users/michael/Documents/dev/e-community-platform/in-progress/consent-management/src/blockchain/smart_contracts/contracts/ConsentContractFactory.sol\":1410:1419  contracts */\n      0x00\n        /* \"Users/michael/Documents/dev/e-community-platform/in-progress/consent-management/src/blockchain/smart_contracts/contracts/ConsentContractFactory.sol\":1420:1421  i */\n      dup3\n        /* \"Users/michael/Documents/dev/e-community-platform/in-progress/consent-management/src/blockchain/smart_contracts/contracts/ConsentContractFactory.sol\":1410:1422  contracts[i] */\n      dup2\n      sload\n      dup2\n      lt\n      tag_41\n      jumpi\n      tag_42\n      tag_31\n      jump\t// in\n    tag_42:\n    tag_41:\n      swap1\n      0x00\n      mstore\n      keccak256(0x00, 0x20)\n      add\n      0x00\n      swap1\n      sload\n      swap1\n      0x0100\n      exp\n      swap1\n      div\n      0xffffffffffffffffffffffffffffffffffffffff\n      and\n        /* \"Users/michael/Documents/dev/e-community-platform/in-progress/consent-management/src/blockchain/smart_contracts/contracts/ConsentContractFactory.sol\":1395:1423  return address(contracts[i]) */\n      swap3\n      pop\n      pop\n      pop\n      jump(tag_25)\n        /* \"Users/michael/Documents/dev/e-community-platform/in-progress/consent-management/src/blockchain/smart_contracts/contracts/ConsentContractFactory.sol\":1288:1438  if (keccak256(abi.encodePacked(contractID)) == keccak256(abi.encodePacked(_contractID))) {... */\n    tag_40:\n        /* \"Users/michael/Documents/dev/e-community-platform/in-progress/consent-management/src/blockchain/smart_contracts/contracts/ConsentContractFactory.sol\":1153:1448  {... */\n      pop\n        /* \"Users/michael/Documents/dev/e-community-platform/in-progress/consent-management/src/blockchain/smart_contracts/contracts/ConsentContractFactory.sol\":1148:1151  i++ */\n      dup1\n      dup1\n      tag_44\n      swap1\n      tag_45\n      jump\t// in\n    tag_44:\n      swap2\n      pop\n      pop\n        /* \"Users/michael/Documents/dev/e-community-platform/in-progress/consent-management/src/blockchain/smart_contracts/contracts/ConsentContractFactory.sol\":1109:1448  for (uint i = 0; i < contracts.length; i++) {... */\n      jump(tag_26)\n    tag_27:\n      pop\n        /* \"Users/michael/Documents/dev/e-community-platform/in-progress/consent-management/src/blockchain/smart_contracts/contracts/ConsentContractFactory.sol\":1473:1477  this */\n      address\n        /* \"Users/michael/Documents/dev/e-community-platform/in-progress/consent-management/src/blockchain/smart_contracts/contracts/ConsentContractFactory.sol\":1458:1478  return address(this) */\n      swap1\n      pop\n        /* \"Users/michael/Documents/dev/e-community-platform/in-progress/consent-management/src/blockchain/smart_contracts/contracts/ConsentContractFactory.sol\":1015:1485  function getContractAddress(string memory _contractID) public view returns(address) {... */\n    tag_25:\n      swap2\n      swap1\n      pop\n      jump\t// out\n        /* \"Users/michael/Documents/dev/e-community-platform/in-progress/consent-management/src/blockchain/smart_contracts/contracts/ConsentContractFactory.sol\":1667:2170  function getContracts(address _address) public view returns(ConsentContract[] memory) {... */\n    tag_16:\n        /* \"Users/michael/Documents/dev/e-community-platform/in-progress/consent-management/src/blockchain/smart_contracts/contracts/ConsentContractFactory.sol\":1727:1751  ConsentContract[] memory */\n      0x60\n        /* \"Users/michael/Documents/dev/e-community-platform/in-progress/consent-management/src/blockchain/smart_contracts/contracts/ConsentContractFactory.sol\":1763:1807  ConsentContract[] memory contractsForAddress */\n      0x00\n        /* \"Users/michael/Documents/dev/e-community-platform/in-progress/consent-management/src/blockchain/smart_contracts/contracts/ConsentContractFactory.sol\":1832:1841  contracts */\n      dup1\n        /* \"Users/michael/Documents/dev/e-community-platform/in-progress/consent-management/src/blockchain/smart_contracts/contracts/ConsentContractFactory.sol\":1832:1848  contracts.length */\n      dup1\n      sload\n      swap1\n      pop\n        /* \"Users/michael/Documents/dev/e-community-platform/in-progress/consent-management/src/blockchain/smart_contracts/contracts/ConsentContractFactory.sol\":1810:1849  new ConsentContract[](contracts.length) */\n      0xffffffffffffffff\n      dup2\n      gt\n      iszero\n      tag_47\n      jumpi\n      tag_48\n      tag_49\n      jump\t// in\n    tag_48:\n    tag_47:\n      mload(0x40)\n      swap1\n      dup1\n      dup3\n      mstore\n      dup1\n      0x20\n      mul\n      0x20\n      add\n      dup3\n      add\n      0x40\n      mstore\n      dup1\n      iszero\n      tag_50\n      jumpi\n      dup2\n      0x20\n      add\n      0x20\n      dup3\n      mul\n      dup1\n      calldatasize\n      dup4\n      calldatacopy\n      dup1\n      dup3\n      add\n      swap2\n      pop\n      pop\n      swap1\n      pop\n    tag_50:\n      pop\n        /* \"Users/michael/Documents/dev/e-community-platform/in-progress/consent-management/src/blockchain/smart_contracts/contracts/ConsentContractFactory.sol\":1763:1849  ConsentContract[] memory contractsForAddress = new ConsentContract[](contracts.length) */\n      swap1\n      pop\n        /* \"Users/michael/Documents/dev/e-community-platform/in-progress/consent-management/src/blockchain/smart_contracts/contracts/ConsentContractFactory.sol\":1865:1871  uint i */\n      0x00\n        /* \"Users/michael/Documents/dev/e-community-platform/in-progress/consent-management/src/blockchain/smart_contracts/contracts/ConsentContractFactory.sol\":1860:2127  for (uint i = 0; i < contracts.length; i++) {... */\n    tag_51:\n        /* \"Users/michael/Documents/dev/e-community-platform/in-progress/consent-management/src/blockchain/smart_contracts/contracts/ConsentContractFactory.sol\":1881:1890  contracts */\n      0x00\n        /* \"Users/michael/Documents/dev/e-community-platform/in-progress/consent-management/src/blockchain/smart_contracts/contracts/ConsentContractFactory.sol\":1881:1897  contracts.length */\n      dup1\n      sload\n      swap1\n      pop\n        /* \"Users/michael/Documents/dev/e-community-platform/in-progress/consent-management/src/blockchain/smart_contracts/contracts/ConsentContractFactory.sol\":1877:1878  i */\n      dup2\n        /* \"Users/michael/Documents/dev/e-community-platform/in-progress/consent-management/src/blockchain/smart_contracts/contracts/ConsentContractFactory.sol\":1877:1897  i < contracts.length */\n      lt\n        /* \"Users/michael/Documents/dev/e-community-platform/in-progress/consent-management/src/blockchain/smart_contracts/contracts/ConsentContractFactory.sol\":1860:2127  for (uint i = 0; i < contracts.length; i++) {... */\n      iszero\n      tag_52\n      jumpi\n        /* \"Users/michael/Documents/dev/e-community-platform/in-progress/consent-management/src/blockchain/smart_contracts/contracts/ConsentContractFactory.sol\":1997:2005  _address */\n      dup4\n        /* \"Users/michael/Documents/dev/e-community-platform/in-progress/consent-management/src/blockchain/smart_contracts/contracts/ConsentContractFactory.sol\":1970:2005  contracts[i].proposer() == _address */\n      0xffffffffffffffffffffffffffffffffffffffff\n      and\n        /* \"Users/michael/Documents/dev/e-community-platform/in-progress/consent-management/src/blockchain/smart_contracts/contracts/ConsentContractFactory.sol\":1970:1979  contracts */\n      0x00\n        /* \"Users/michael/Documents/dev/e-community-platform/in-progress/consent-management/src/blockchain/smart_contracts/contracts/ConsentContractFactory.sol\":1980:1981  i */\n      dup3\n        /* \"Users/michael/Documents/dev/e-community-platform/in-progress/consent-management/src/blockchain/smart_contracts/contracts/ConsentContractFactory.sol\":1970:1982  contracts[i] */\n      dup2\n      sload\n      dup2\n      lt\n      tag_54\n      jumpi\n      tag_55\n      tag_31\n      jump\t// in\n    tag_55:\n    tag_54:\n      swap1\n      0x00\n      mstore\n      keccak256(0x00, 0x20)\n      add\n      0x00\n      swap1\n      sload\n      swap1\n      0x0100\n      exp\n      swap1\n      div\n      0xffffffffffffffffffffffffffffffffffffffff\n      and\n        /* \"Users/michael/Documents/dev/e-community-platform/in-progress/consent-management/src/blockchain/smart_contracts/contracts/ConsentContractFactory.sol\":1970:1991  contracts[i].proposer */\n      0xffffffffffffffffffffffffffffffffffffffff\n      and\n      0xa8e4fb90\n        /* \"Users/michael/Documents/dev/e-community-platform/in-progress/consent-management/src/blockchain/smart_contracts/contracts/ConsentContractFactory.sol\":1970:1993  contracts[i].proposer() */\n      mload(0x40)\n      dup2\n      0xffffffff\n      and\n      0xe0\n      shl\n      dup2\n      mstore\n      0x04\n      add\n      0x20\n      mload(0x40)\n      dup1\n      dup4\n      sub\n      dup2\n      dup7\n      gas\n      staticcall\n      iszero\n      dup1\n      iszero\n      tag_58\n      jumpi\n      returndatasize\n      0x00\n      dup1\n      returndatacopy\n      revert(0x00, returndatasize)\n    tag_58:\n      pop\n      pop\n      pop\n      pop\n      mload(0x40)\n      returndatasize\n      not(0x1f)\n      0x1f\n      dup3\n      add\n      and\n      dup3\n      add\n      dup1\n      0x40\n      mstore\n      pop\n      dup2\n      add\n      swap1\n      tag_59\n      swap2\n      swap1\n      tag_60\n      jump\t// in\n    tag_59:\n        /* \"Users/michael/Documents/dev/e-community-platform/in-progress/consent-management/src/blockchain/smart_contracts/contracts/ConsentContractFactory.sol\":1970:2005  contracts[i].proposer() == _address */\n      0xffffffffffffffffffffffffffffffffffffffff\n      and\n      eq\n        /* \"Users/michael/Documents/dev/e-community-platform/in-progress/consent-management/src/blockchain/smart_contracts/contracts/ConsentContractFactory.sol\":1970:2045  contracts[i].proposer() == _address || contracts[i].consenter() == _address */\n      dup1\n      tag_61\n      jumpi\n      pop\n        /* \"Users/michael/Documents/dev/e-community-platform/in-progress/consent-management/src/blockchain/smart_contracts/contracts/ConsentContractFactory.sol\":2037:2045  _address */\n      dup4\n        /* \"Users/michael/Documents/dev/e-community-platform/in-progress/consent-management/src/blockchain/smart_contracts/contracts/ConsentContractFactory.sol\":2009:2045  contracts[i].consenter() == _address */\n      0xffffffffffffffffffffffffffffffffffffffff\n      and\n        /* \"Users/michael/Documents/dev/e-community-platform/in-progress/consent-management/src/blockchain/smart_contracts/contracts/ConsentContractFactory.sol\":2009:2018  contracts */\n      0x00\n        /* \"Users/michael/Documents/dev/e-community-platform/in-progress/consent-management/src/blockchain/smart_contracts/contracts/ConsentContractFactory.sol\":2019:2020  i */\n      dup3\n        /* \"Users/michael/Documents/dev/e-community-platform/in-progress/consent-management/src/blockchain/smart_contracts/contracts/ConsentContractFactory.sol\":2009:2021  contracts[i] */\n      dup2\n      sload\n      dup2\n      lt\n      tag_62\n      jumpi\n      tag_63\n      tag_31\n      jump\t// in\n    tag_63:\n    tag_62:\n      swap1\n      0x00\n      mstore\n      keccak256(0x00, 0x20)\n      add\n      0x00\n      swap1\n      sload\n      swap1\n      0x0100\n      exp\n      swap1\n      div\n      0xffffffffffffffffffffffffffffffffffffffff\n      and\n        /* \"Users/michael/Documents/dev/e-community-platform/in-progress/consent-management/src/blockchain/smart_contracts/contracts/ConsentContractFactory.sol\":2009:2031  contracts[i].consenter */\n      0xffffffffffffffffffffffffffffffffffffffff\n      and\n      0xe74071b4\n        /* \"Users/michael/Documents/dev/e-community-platform/in-progress/consent-management/src/blockchain/smart_contracts/contracts/ConsentContractFactory.sol\":2009:2033  contracts[i].consenter() */\n      mload(0x40)\n      dup2\n      0xffffffff\n      and\n      0xe0\n      shl\n      dup2\n      mstore\n      0x04\n      add\n      0x20\n      mload(0x40)\n      dup1\n      dup4\n      sub\n      dup2\n      dup7\n      gas\n      staticcall\n      iszero\n      dup1\n      iszero\n      tag_66\n      jumpi\n      returndatasize\n      0x00\n      dup1\n      returndatacopy\n      revert(0x00, returndatasize)\n    tag_66:\n      pop\n      pop\n      pop\n      pop\n      mload(0x40)\n      returndatasize\n      not(0x1f)\n      0x1f\n      dup3\n      add\n      and\n      dup3\n      add\n      dup1\n      0x40\n      mstore\n      pop\n      dup2\n      add\n      swap1\n      tag_67\n      swap2\n      swap1\n      tag_60\n      jump\t// in\n    tag_67:\n        /* \"Users/michael/Documents/dev/e-community-platform/in-progress/consent-management/src/blockchain/smart_contracts/contracts/ConsentContractFactory.sol\":2009:2045  contracts[i].consenter() == _address */\n      0xffffffffffffffffffffffffffffffffffffffff\n      and\n      eq\n        /* \"Users/michael/Documents/dev/e-community-platform/in-progress/consent-management/src/blockchain/smart_contracts/contracts/ConsentContractFactory.sol\":1970:2045  contracts[i].proposer() == _address || contracts[i].consenter() == _address */\n    tag_61:\n        /* \"Users/michael/Documents/dev/e-community-platform/in-progress/consent-management/src/blockchain/smart_contracts/contracts/ConsentContractFactory.sol\":1966:2117  if (contracts[i].proposer() == _address || contracts[i].consenter() == _address) {... */\n      iszero\n      tag_68\n      jumpi\n        /* \"Users/michael/Documents/dev/e-community-platform/in-progress/consent-management/src/blockchain/smart_contracts/contracts/ConsentContractFactory.sol\":2090:2099  contracts */\n      0x00\n        /* \"Users/michael/Documents/dev/e-community-platform/in-progress/consent-management/src/blockchain/smart_contracts/contracts/ConsentContractFactory.sol\":2100:2101  i */\n      dup2\n        /* \"Users/michael/Documents/dev/e-community-platform/in-progress/consent-management/src/blockchain/smart_contracts/contracts/ConsentContractFactory.sol\":2090:2102  contracts[i] */\n      dup2\n      sload\n      dup2\n      lt\n      tag_69\n      jumpi\n      tag_70\n      tag_31\n      jump\t// in\n    tag_70:\n    tag_69:\n      swap1\n      0x00\n      mstore\n      keccak256(0x00, 0x20)\n      add\n      0x00\n      swap1\n      sload\n      swap1\n      0x0100\n      exp\n      swap1\n      div\n      0xffffffffffffffffffffffffffffffffffffffff\n      and\n        /* \"Users/michael/Documents/dev/e-community-platform/in-progress/consent-management/src/blockchain/smart_contracts/contracts/ConsentContractFactory.sol\":2065:2084  contractsForAddress */\n      dup3\n        /* \"Users/michael/Documents/dev/e-community-platform/in-progress/consent-management/src/blockchain/smart_contracts/contracts/ConsentContractFactory.sol\":2085:2086  i */\n      dup3\n        /* \"Users/michael/Documents/dev/e-community-platform/in-progress/consent-management/src/blockchain/smart_contracts/contracts/ConsentContractFactory.sol\":2065:2087  contractsForAddress[i] */\n      dup2\n      mload\n      dup2\n      lt\n      tag_72\n      jumpi\n      tag_73\n      tag_31\n      jump\t// in\n    tag_73:\n    tag_72:\n      0x20\n      mul\n      0x20\n      add\n      add\n        /* \"Users/michael/Documents/dev/e-community-platform/in-progress/consent-management/src/blockchain/smart_contracts/contracts/ConsentContractFactory.sol\":2065:2102  contractsForAddress[i] = contracts[i] */\n      swap1\n      0xffffffffffffffffffffffffffffffffffffffff\n      and\n      swap1\n      dup2\n      0xffffffffffffffffffffffffffffffffffffffff\n      and\n      dup2\n      mstore\n      pop\n      pop\n        /* \"Users/michael/Documents/dev/e-community-platform/in-progress/consent-management/src/blockchain/smart_contracts/contracts/ConsentContractFactory.sol\":1966:2117  if (contracts[i].proposer() == _address || contracts[i].consenter() == _address) {... */\n    tag_68:\n        /* \"Users/michael/Documents/dev/e-community-platform/in-progress/consent-management/src/blockchain/smart_contracts/contracts/ConsentContractFactory.sol\":1899:1902  i++ */\n      dup1\n      dup1\n      tag_74\n      swap1\n      tag_45\n      jump\t// in\n    tag_74:\n      swap2\n      pop\n      pop\n        /* \"Users/michael/Documents/dev/e-community-platform/in-progress/consent-management/src/blockchain/smart_contracts/contracts/ConsentContractFactory.sol\":1860:2127  for (uint i = 0; i < contracts.length; i++) {... */\n      jump(tag_51)\n    tag_52:\n      pop\n        /* \"Users/michael/Documents/dev/e-community-platform/in-progress/consent-management/src/blockchain/smart_contracts/contracts/ConsentContractFactory.sol\":2144:2163  contractsForAddress */\n      dup1\n        /* \"Users/michael/Documents/dev/e-community-platform/in-progress/consent-management/src/blockchain/smart_contracts/contracts/ConsentContractFactory.sol\":2137:2163  return contractsForAddress */\n      swap2\n      pop\n      pop\n        /* \"Users/michael/Documents/dev/e-community-platform/in-progress/consent-management/src/blockchain/smart_contracts/contracts/ConsentContractFactory.sol\":1667:2170  function getContracts(address _address) public view returns(ConsentContract[] memory) {... */\n      swap2\n      swap1\n      pop\n      jump\t// out\n        /* \"Users/michael/Documents/dev/e-community-platform/in-progress/consent-management/src/blockchain/smart_contracts/contracts/ConsentContractFactory.sol\":2176:2276  function testArray() public view returns(ConsentContract[] memory) {... */\n    tag_20:\n        /* \"Users/michael/Documents/dev/e-community-platform/in-progress/consent-management/src/blockchain/smart_contracts/contracts/ConsentContractFactory.sol\":2217:2241  ConsentContract[] memory */\n      0x60\n        /* \"Users/michael/Documents/dev/e-community-platform/in-progress/consent-management/src/blockchain/smart_contracts/contracts/ConsentContractFactory.sol\":2260:2269  contracts */\n      0x00\n        /* \"Users/michael/Documents/dev/e-community-platform/in-progress/consent-management/src/blockchain/smart_contracts/contracts/ConsentContractFactory.sol\":2253:2269  return contracts */\n      dup1\n      sload\n      dup1\n      0x20\n      mul\n      0x20\n      add\n      mload(0x40)\n      swap1\n      dup2\n      add\n      0x40\n      mstore\n      dup1\n      swap3\n      swap2\n      swap1\n      dup2\n      dup2\n      mstore\n      0x20\n      add\n      dup3\n      dup1\n      sload\n      dup1\n      iszero\n      tag_76\n      jumpi\n      0x20\n      mul\n      dup3\n      add\n      swap2\n      swap1\n      0x00\n      mstore\n      keccak256(0x00, 0x20)\n      swap1\n    tag_77:\n      dup2\n      0x00\n      swap1\n      sload\n      swap1\n      0x0100\n      exp\n      swap1\n      div\n      0xffffffffffffffffffffffffffffffffffffffff\n      and\n      0xffffffffffffffffffffffffffffffffffffffff\n      and\n      dup2\n      mstore\n      0x20\n      add\n      swap1\n      0x01\n      add\n      swap1\n      dup1\n      dup4\n      gt\n      tag_77\n      jumpi\n    tag_76:\n      pop\n      pop\n      pop\n      pop\n      pop\n      swap1\n      pop\n        /* \"Users/michael/Documents/dev/e-community-platform/in-progress/consent-management/src/blockchain/smart_contracts/contracts/ConsentContractFactory.sol\":2176:2276  function testArray() public view returns(ConsentContract[] memory) {... */\n      swap1\n      jump\t// out\n        /* \"Users/michael/Documents/dev/e-community-platform/in-progress/consent-management/src/blockchain/smart_contracts/contracts/ConsentContractFactory.sol\":606:796  function createConsentContract(string memory _contractID) public {... */\n    tag_24:\n        /* \"Users/michael/Documents/dev/e-community-platform/in-progress/consent-management/src/blockchain/smart_contracts/contracts/ConsentContractFactory.sol\":681:712  ConsentContract consentContract */\n      0x00\n        /* \"Users/michael/Documents/dev/e-community-platform/in-progress/consent-management/src/blockchain/smart_contracts/contracts/ConsentContractFactory.sol\":735:746  _contractID */\n      dup2\n        /* \"Users/michael/Documents/dev/e-community-platform/in-progress/consent-management/src/blockchain/smart_contracts/contracts/ConsentContractFactory.sol\":715:747  new ConsentContract(_contractID) */\n      mload(0x40)\n      tag_79\n      swap1\n      tag_80\n      jump\t// in\n    tag_79:\n      tag_81\n      swap2\n      swap1\n      tag_82\n      jump\t// in\n    tag_81:\n      mload(0x40)\n      dup1\n      swap2\n      sub\n      swap1\n      0x00\n      create\n      dup1\n      iszero\n      dup1\n      iszero\n      tag_83\n      jumpi\n      returndatasize\n      0x00\n      dup1\n      returndatacopy\n      revert(0x00, returndatasize)\n    tag_83:\n      pop\n        /* \"Users/michael/Documents/dev/e-community-platform/in-progress/consent-management/src/blockchain/smart_contracts/contracts/ConsentContractFactory.sol\":681:747  ConsentContract consentContract = new ConsentContract(_contractID) */\n      swap1\n      pop\n        /* \"Users/michael/Documents/dev/e-community-platform/in-progress/consent-management/src/blockchain/smart_contracts/contracts/ConsentContractFactory.sol\":758:767  contracts */\n      0x00\n        /* \"Users/michael/Documents/dev/e-community-platform/in-progress/consent-management/src/blockchain/smart_contracts/contracts/ConsentContractFactory.sol\":773:788  consentContract */\n      dup2\n        /* \"Users/michael/Documents/dev/e-community-platform/in-progress/consent-management/src/blockchain/smart_contracts/contracts/ConsentContractFactory.sol\":758:789  contracts.push(consentContract) */\n      swap1\n      dup1\n      0x01\n      dup2\n      sload\n      add\n      dup1\n      dup3\n      sstore\n      dup1\n      swap2\n      pop\n      pop\n      0x01\n      swap1\n      sub\n      swap1\n      0x00\n      mstore\n      keccak256(0x00, 0x20)\n      add\n      0x00\n      swap1\n      swap2\n      swap1\n      swap2\n      swap1\n      swap2\n      0x0100\n      exp\n      dup2\n      sload\n      dup2\n      0xffffffffffffffffffffffffffffffffffffffff\n      mul\n      not\n      and\n      swap1\n      dup4\n      0xffffffffffffffffffffffffffffffffffffffff\n      and\n      mul\n      or\n      swap1\n      sstore\n      pop\n        /* \"Users/michael/Documents/dev/e-community-platform/in-progress/consent-management/src/blockchain/smart_contracts/contracts/ConsentContractFactory.sol\":671:796  {... */\n      pop\n        /* \"Users/michael/Documents/dev/e-community-platform/in-progress/consent-management/src/blockchain/smart_contracts/contracts/ConsentContractFactory.sol\":606:796  function createConsentContract(string memory _contractID) public {... */\n      pop\n      jump\t// out\n    tag_80:\n      dataSize(sub_0)\n      dup1\n      dataOffset(sub_0)\n      dup4\n      codecopy\n      add\n      swap1\n      jump\t// out\n        /* \"#utility.yul\":7:82   */\n    tag_85:\n        /* \"#utility.yul\":40:46   */\n      0x00\n        /* \"#utility.yul\":73:75   */\n      0x40\n        /* \"#utility.yul\":67:76   */\n      mload\n        /* \"#utility.yul\":57:76   */\n      swap1\n      pop\n        /* \"#utility.yul\":7:82   */\n      swap1\n      jump\t// out\n        /* \"#utility.yul\":88:205   */\n    tag_86:\n        /* \"#utility.yul\":197:198   */\n      0x00\n        /* \"#utility.yul\":194:195   */\n      dup1\n        /* \"#utility.yul\":187:199   */\n      revert\n        /* \"#utility.yul\":211:328   */\n    tag_87:\n        /* \"#utility.yul\":320:321   */\n      0x00\n        /* \"#utility.yul\":317:318   */\n      dup1\n        /* \"#utility.yul\":310:322   */\n      revert\n        /* \"#utility.yul\":334:451   */\n    tag_88:\n        /* \"#utility.yul\":443:444   */\n      0x00\n        /* \"#utility.yul\":440:441   */\n      dup1\n        /* \"#utility.yul\":433:445   */\n      revert\n        /* \"#utility.yul\":457:574   */\n    tag_89:\n        /* \"#utility.yul\":566:567   */\n      0x00\n        /* \"#utility.yul\":563:564   */\n      dup1\n        /* \"#utility.yul\":556:568   */\n      revert\n        /* \"#utility.yul\":580:682   */\n    tag_90:\n        /* \"#utility.yul\":621:627   */\n      0x00\n        /* \"#utility.yul\":672:674   */\n      0x1f\n        /* \"#utility.yul\":668:675   */\n      not\n        /* \"#utility.yul\":663:665   */\n      0x1f\n        /* \"#utility.yul\":656:661   */\n      dup4\n        /* \"#utility.yul\":652:666   */\n      add\n        /* \"#utility.yul\":648:676   */\n      and\n        /* \"#utility.yul\":638:676   */\n      swap1\n      pop\n        /* \"#utility.yul\":580:682   */\n      swap2\n      swap1\n      pop\n      jump\t// out\n        /* \"#utility.yul\":688:868   */\n    tag_49:\n        /* \"#utility.yul\":736:813   */\n      0x4e487b7100000000000000000000000000000000000000000000000000000000\n        /* \"#utility.yul\":733:734   */\n      0x00\n        /* \"#utility.yul\":726:814   */\n      mstore\n        /* \"#utility.yul\":833:837   */\n      0x41\n        /* \"#utility.yul\":830:831   */\n      0x04\n        /* \"#utility.yul\":823:838   */\n      mstore\n        /* \"#utility.yul\":857:861   */\n      0x24\n        /* \"#utility.yul\":854:855   */\n      0x00\n        /* \"#utility.yul\":847:862   */\n      revert\n        /* \"#utility.yul\":874:1155   */\n    tag_91:\n        /* \"#utility.yul\":957:984   */\n      tag_133\n        /* \"#utility.yul\":979:983   */\n      dup3\n        /* \"#utility.yul\":957:984   */\n      tag_90\n      jump\t// in\n    tag_133:\n        /* \"#utility.yul\":949:955   */\n      dup2\n        /* \"#utility.yul\":945:985   */\n      add\n        /* \"#utility.yul\":1087:1093   */\n      dup2\n        /* \"#utility.yul\":1075:1085   */\n      dup2\n        /* \"#utility.yul\":1072:1094   */\n      lt\n        /* \"#utility.yul\":1051:1069   */\n      0xffffffffffffffff\n        /* \"#utility.yul\":1039:1049   */\n      dup3\n        /* \"#utility.yul\":1036:1070   */\n      gt\n        /* \"#utility.yul\":1033:1095   */\n      or\n        /* \"#utility.yul\":1030:1118   */\n      iszero\n      tag_134\n      jumpi\n        /* \"#utility.yul\":1098:1116   */\n      tag_135\n      tag_49\n      jump\t// in\n    tag_135:\n        /* \"#utility.yul\":1030:1118   */\n    tag_134:\n        /* \"#utility.yul\":1138:1148   */\n      dup1\n        /* \"#utility.yul\":1134:1136   */\n      0x40\n        /* \"#utility.yul\":1127:1149   */\n      mstore\n        /* \"#utility.yul\":917:1155   */\n      pop\n        /* \"#utility.yul\":874:1155   */\n      pop\n      pop\n      jump\t// out\n        /* \"#utility.yul\":1161:1290   */\n    tag_92:\n        /* \"#utility.yul\":1195:1201   */\n      0x00\n        /* \"#utility.yul\":1222:1242   */\n      tag_137\n      tag_85\n      jump\t// in\n    tag_137:\n        /* \"#utility.yul\":1212:1242   */\n      swap1\n      pop\n        /* \"#utility.yul\":1251:1284   */\n      tag_138\n        /* \"#utility.yul\":1279:1283   */\n      dup3\n        /* \"#utility.yul\":1271:1277   */\n      dup3\n        /* \"#utility.yul\":1251:1284   */\n      tag_91\n      jump\t// in\n    tag_138:\n        /* \"#utility.yul\":1161:1290   */\n      swap2\n      swap1\n      pop\n      jump\t// out\n        /* \"#utility.yul\":1296:1604   */\n    tag_93:\n        /* \"#utility.yul\":1358:1362   */\n      0x00\n        /* \"#utility.yul\":1448:1466   */\n      0xffffffffffffffff\n        /* \"#utility.yul\":1440:1446   */\n      dup3\n        /* \"#utility.yul\":1437:1467   */\n      gt\n        /* \"#utility.yul\":1434:1490   */\n      iszero\n      tag_140\n      jumpi\n        /* \"#utility.yul\":1470:1488   */\n      tag_141\n      tag_49\n      jump\t// in\n    tag_141:\n        /* \"#utility.yul\":1434:1490   */\n    tag_140:\n        /* \"#utility.yul\":1508:1537   */\n      tag_142\n        /* \"#utility.yul\":1530:1536   */\n      dup3\n        /* \"#utility.yul\":1508:1537   */\n      tag_90\n      jump\t// in\n    tag_142:\n        /* \"#utility.yul\":1500:1537   */\n      swap1\n      pop\n        /* \"#utility.yul\":1592:1596   */\n      0x20\n        /* \"#utility.yul\":1586:1590   */\n      dup2\n        /* \"#utility.yul\":1582:1597   */\n      add\n        /* \"#utility.yul\":1574:1597   */\n      swap1\n      pop\n        /* \"#utility.yul\":1296:1604   */\n      swap2\n      swap1\n      pop\n      jump\t// out\n        /* \"#utility.yul\":1610:1756   */\n    tag_94:\n        /* \"#utility.yul\":1707:1713   */\n      dup3\n        /* \"#utility.yul\":1702:1705   */\n      dup2\n        /* \"#utility.yul\":1697:1700   */\n      dup4\n        /* \"#utility.yul\":1684:1714   */\n      calldatacopy\n        /* \"#utility.yul\":1748:1749   */\n      0x00\n        /* \"#utility.yul\":1739:1745   */\n      dup4\n        /* \"#utility.yul\":1734:1737   */\n      dup4\n        /* \"#utility.yul\":1730:1746   */\n      add\n        /* \"#utility.yul\":1723:1750   */\n      mstore\n        /* \"#utility.yul\":1610:1756   */\n      pop\n      pop\n      pop\n      jump\t// out\n        /* \"#utility.yul\":1762:2187   */\n    tag_95:\n        /* \"#utility.yul\":1840:1845   */\n      0x00\n        /* \"#utility.yul\":1865:1931   */\n      tag_145\n        /* \"#utility.yul\":1881:1930   */\n      tag_146\n        /* \"#utility.yul\":1923:1929   */\n      dup5\n        /* \"#utility.yul\":1881:1930   */\n      tag_93\n      jump\t// in\n    tag_146:\n        /* \"#utility.yul\":1865:1931   */\n      tag_92\n      jump\t// in\n    tag_145:\n        /* \"#utility.yul\":1856:1931   */\n      swap1\n      pop\n        /* \"#utility.yul\":1954:1960   */\n      dup3\n        /* \"#utility.yul\":1947:1952   */\n      dup2\n        /* \"#utility.yul\":1940:1961   */\n      mstore\n        /* \"#utility.yul\":1992:1996   */\n      0x20\n        /* \"#utility.yul\":1985:1990   */\n      dup2\n        /* \"#utility.yul\":1981:1997   */\n      add\n        /* \"#utility.yul\":2030:2033   */\n      dup5\n        /* \"#utility.yul\":2021:2027   */\n      dup5\n        /* \"#utility.yul\":2016:2019   */\n      dup5\n        /* \"#utility.yul\":2012:2028   */\n      add\n        /* \"#utility.yul\":2009:2034   */\n      gt\n        /* \"#utility.yul\":2006:2118   */\n      iszero\n      tag_147\n      jumpi\n        /* \"#utility.yul\":2037:2116   */\n      tag_148\n      tag_89\n      jump\t// in\n    tag_148:\n        /* \"#utility.yul\":2006:2118   */\n    tag_147:\n        /* \"#utility.yul\":2127:2181   */\n      tag_149\n        /* \"#utility.yul\":2174:2180   */\n      dup5\n        /* \"#utility.yul\":2169:2172   */\n      dup3\n        /* \"#utility.yul\":2164:2167   */\n      dup6\n        /* \"#utility.yul\":2127:2181   */\n      tag_94\n      jump\t// in\n    tag_149:\n        /* \"#utility.yul\":1846:2187   */\n      pop\n        /* \"#utility.yul\":1762:2187   */\n      swap4\n      swap3\n      pop\n      pop\n      pop\n      jump\t// out\n        /* \"#utility.yul\":2207:2547   */\n    tag_96:\n        /* \"#utility.yul\":2263:2268   */\n      0x00\n        /* \"#utility.yul\":2312:2315   */\n      dup3\n        /* \"#utility.yul\":2305:2309   */\n      0x1f\n        /* \"#utility.yul\":2297:2303   */\n      dup4\n        /* \"#utility.yul\":2293:2310   */\n      add\n        /* \"#utility.yul\":2289:2316   */\n      slt\n        /* \"#utility.yul\":2279:2401   */\n      tag_151\n      jumpi\n        /* \"#utility.yul\":2320:2399   */\n      tag_152\n      tag_88\n      jump\t// in\n    tag_152:\n        /* \"#utility.yul\":2279:2401   */\n    tag_151:\n        /* \"#utility.yul\":2437:2443   */\n      dup2\n        /* \"#utility.yul\":2424:2444   */\n      calldataload\n        /* \"#utility.yul\":2462:2541   */\n      tag_153\n        /* \"#utility.yul\":2537:2540   */\n      dup5\n        /* \"#utility.yul\":2529:2535   */\n      dup3\n        /* \"#utility.yul\":2522:2526   */\n      0x20\n        /* \"#utility.yul\":2514:2520   */\n      dup7\n        /* \"#utility.yul\":2510:2527   */\n      add\n        /* \"#utility.yul\":2462:2541   */\n      tag_95\n      jump\t// in\n    tag_153:\n        /* \"#utility.yul\":2453:2541   */\n      swap2\n      pop\n        /* \"#utility.yul\":2269:2547   */\n      pop\n        /* \"#utility.yul\":2207:2547   */\n      swap3\n      swap2\n      pop\n      pop\n      jump\t// out\n        /* \"#utility.yul\":2553:3062   */\n    tag_9:\n        /* \"#utility.yul\":2622:2628   */\n      0x00\n        /* \"#utility.yul\":2671:2673   */\n      0x20\n        /* \"#utility.yul\":2659:2668   */\n      dup3\n        /* \"#utility.yul\":2650:2657   */\n      dup5\n        /* \"#utility.yul\":2646:2669   */\n      sub\n        /* \"#utility.yul\":2642:2674   */\n      slt\n        /* \"#utility.yul\":2639:2758   */\n      iszero\n      tag_155\n      jumpi\n        /* \"#utility.yul\":2677:2756   */\n      tag_156\n      tag_86\n      jump\t// in\n    tag_156:\n        /* \"#utility.yul\":2639:2758   */\n    tag_155:\n        /* \"#utility.yul\":2825:2826   */\n      0x00\n        /* \"#utility.yul\":2814:2823   */\n      dup3\n        /* \"#utility.yul\":2810:2827   */\n      add\n        /* \"#utility.yul\":2797:2828   */\n      calldataload\n        /* \"#utility.yul\":2855:2873   */\n      0xffffffffffffffff\n        /* \"#utility.yul\":2847:2853   */\n      dup2\n        /* \"#utility.yul\":2844:2874   */\n      gt\n        /* \"#utility.yul\":2841:2958   */\n      iszero\n      tag_157\n      jumpi\n        /* \"#utility.yul\":2877:2956   */\n      tag_158\n      tag_87\n      jump\t// in\n    tag_158:\n        /* \"#utility.yul\":2841:2958   */\n    tag_157:\n        /* \"#utility.yul\":2982:3045   */\n      tag_159\n        /* \"#utility.yul\":3037:3044   */\n      dup5\n        /* \"#utility.yul\":3028:3034   */\n      dup3\n        /* \"#utility.yul\":3017:3026   */\n      dup6\n        /* \"#utility.yul\":3013:3035   */\n      add\n        /* \"#utility.yul\":2982:3045   */\n      tag_96\n      jump\t// in\n    tag_159:\n        /* \"#utility.yul\":2972:3045   */\n      swap2\n      pop\n        /* \"#utility.yul\":2768:3055   */\n      pop\n        /* \"#utility.yul\":2553:3062   */\n      swap3\n      swap2\n      pop\n      pop\n      jump\t// out\n        /* \"#utility.yul\":3068:3194   */\n    tag_97:\n        /* \"#utility.yul\":3105:3112   */\n      0x00\n        /* \"#utility.yul\":3145:3187   */\n      0xffffffffffffffffffffffffffffffffffffffff\n        /* \"#utility.yul\":3138:3143   */\n      dup3\n        /* \"#utility.yul\":3134:3188   */\n      and\n        /* \"#utility.yul\":3123:3188   */\n      swap1\n      pop\n        /* \"#utility.yul\":3068:3194   */\n      swap2\n      swap1\n      pop\n      jump\t// out\n        /* \"#utility.yul\":3200:3296   */\n    tag_98:\n        /* \"#utility.yul\":3237:3244   */\n      0x00\n        /* \"#utility.yul\":3266:3290   */\n      tag_162\n        /* \"#utility.yul\":3284:3289   */\n      dup3\n        /* \"#utility.yul\":3266:3290   */\n      tag_97\n      jump\t// in\n    tag_162:\n        /* \"#utility.yul\":3255:3290   */\n      swap1\n      pop\n        /* \"#utility.yul\":3200:3296   */\n      swap2\n      swap1\n      pop\n      jump\t// out\n        /* \"#utility.yul\":3302:3420   */\n    tag_99:\n        /* \"#utility.yul\":3389:3413   */\n      tag_164\n        /* \"#utility.yul\":3407:3412   */\n      dup2\n        /* \"#utility.yul\":3389:3413   */\n      tag_98\n      jump\t// in\n    tag_164:\n        /* \"#utility.yul\":3384:3387   */\n      dup3\n        /* \"#utility.yul\":3377:3414   */\n      mstore\n        /* \"#utility.yul\":3302:3420   */\n      pop\n      pop\n      jump\t// out\n        /* \"#utility.yul\":3426:3648   */\n    tag_12:\n        /* \"#utility.yul\":3519:3523   */\n      0x00\n        /* \"#utility.yul\":3557:3559   */\n      0x20\n        /* \"#utility.yul\":3546:3555   */\n      dup3\n        /* \"#utility.yul\":3542:3560   */\n      add\n        /* \"#utility.yul\":3534:3560   */\n      swap1\n      pop\n        /* \"#utility.yul\":3570:3641   */\n      tag_166\n        /* \"#utility.yul\":3638:3639   */\n      0x00\n        /* \"#utility.yul\":3627:3636   */\n      dup4\n        /* \"#utility.yul\":3623:3640   */\n      add\n        /* \"#utility.yul\":3614:3620   */\n      dup5\n        /* \"#utility.yul\":3570:3641   */\n      tag_99\n      jump\t// in\n    tag_166:\n        /* \"#utility.yul\":3426:3648   */\n      swap3\n      swap2\n      pop\n      pop\n      jump\t// out\n        /* \"#utility.yul\":3654:3776   */\n    tag_100:\n        /* \"#utility.yul\":3727:3751   */\n      tag_168\n        /* \"#utility.yul\":3745:3750   */\n      dup2\n        /* \"#utility.yul\":3727:3751   */\n      tag_98\n      jump\t// in\n    tag_168:\n        /* \"#utility.yul\":3720:3725   */\n      dup2\n        /* \"#utility.yul\":3717:3752   */\n      eq\n        /* \"#utility.yul\":3707:3770   */\n      tag_169\n      jumpi\n        /* \"#utility.yul\":3766:3767   */\n      0x00\n        /* \"#utility.yul\":3763:3764   */\n      dup1\n        /* \"#utility.yul\":3756:3768   */\n      revert\n        /* \"#utility.yul\":3707:3770   */\n    tag_169:\n        /* \"#utility.yul\":3654:3776   */\n      pop\n      jump\t// out\n        /* \"#utility.yul\":3782:3921   */\n    tag_101:\n        /* \"#utility.yul\":3828:3833   */\n      0x00\n        /* \"#utility.yul\":3866:3872   */\n      dup2\n        /* \"#utility.yul\":3853:3873   */\n      calldataload\n        /* \"#utility.yul\":3844:3873   */\n      swap1\n      pop\n        /* \"#utility.yul\":3882:3915   */\n      tag_171\n        /* \"#utility.yul\":3909:3914   */\n      dup2\n        /* \"#utility.yul\":3882:3915   */\n      tag_100\n      jump\t// in\n    tag_171:\n        /* \"#utility.yul\":3782:3921   */\n      swap3\n      swap2\n      pop\n      pop\n      jump\t// out\n        /* \"#utility.yul\":3927:4256   */\n    tag_15:\n        /* \"#utility.yul\":3986:3992   */\n      0x00\n        /* \"#utility.yul\":4035:4037   */\n      0x20\n        /* \"#utility.yul\":4023:4032   */\n      dup3\n        /* \"#utility.yul\":4014:4021   */\n      dup5\n        /* \"#utility.yul\":4010:4033   */\n      sub\n        /* \"#utility.yul\":4006:4038   */\n      slt\n        /* \"#utility.yul\":4003:4122   */\n      iszero\n      tag_173\n      jumpi\n        /* \"#utility.yul\":4041:4120   */\n      tag_174\n      tag_86\n      jump\t// in\n    tag_174:\n        /* \"#utility.yul\":4003:4122   */\n    tag_173:\n        /* \"#utility.yul\":4161:4162   */\n      0x00\n        /* \"#utility.yul\":4186:4239   */\n      tag_175\n        /* \"#utility.yul\":4231:4238   */\n      dup5\n        /* \"#utility.yul\":4222:4228   */\n      dup3\n        /* \"#utility.yul\":4211:4220   */\n      dup6\n        /* \"#utility.yul\":4207:4229   */\n      add\n        /* \"#utility.yul\":4186:4239   */\n      tag_101\n      jump\t// in\n    tag_175:\n        /* \"#utility.yul\":4176:4239   */\n      swap2\n      pop\n        /* \"#utility.yul\":4132:4249   */\n      pop\n        /* \"#utility.yul\":3927:4256   */\n      swap3\n      swap2\n      pop\n      pop\n      jump\t// out\n        /* \"#utility.yul\":4262:4399   */\n    tag_102:\n        /* \"#utility.yul\":4352:4358   */\n      0x00\n        /* \"#utility.yul\":4386:4391   */\n      dup2\n        /* \"#utility.yul\":4380:4392   */\n      mload\n        /* \"#utility.yul\":4370:4392   */\n      swap1\n      pop\n        /* \"#utility.yul\":4262:4399   */\n      swap2\n      swap1\n      pop\n      jump\t// out\n        /* \"#utility.yul\":4405:4589   */\n    tag_103:\n        /* \"#utility.yul\":4504:4515   */\n      0x00\n        /* \"#utility.yul\":4538:4544   */\n      dup3\n        /* \"#utility.yul\":4533:4536   */\n      dup3\n        /* \"#utility.yul\":4526:4545   */\n      mstore\n        /* \"#utility.yul\":4578:4582   */\n      0x20\n        /* \"#utility.yul\":4573:4576   */\n      dup3\n        /* \"#utility.yul\":4569:4583   */\n      add\n        /* \"#utility.yul\":4554:4583   */\n      swap1\n      pop\n        /* \"#utility.yul\":4405:4589   */\n      swap3\n      swap2\n      pop\n      pop\n      jump\t// out\n        /* \"#utility.yul\":4595:4750   */\n    tag_104:\n        /* \"#utility.yul\":4685:4689   */\n      0x00\n        /* \"#utility.yul\":4708:4711   */\n      dup2\n        /* \"#utility.yul\":4700:4711   */\n      swap1\n      pop\n        /* \"#utility.yul\":4738:4742   */\n      0x20\n        /* \"#utility.yul\":4733:4736   */\n      dup3\n        /* \"#utility.yul\":4729:4743   */\n      add\n        /* \"#utility.yul\":4721:4743   */\n      swap1\n      pop\n        /* \"#utility.yul\":4595:4750   */\n      swap2\n      swap1\n      pop\n      jump\t// out\n        /* \"#utility.yul\":4756:4816   */\n    tag_105:\n        /* \"#utility.yul\":4784:4787   */\n      0x00\n        /* \"#utility.yul\":4805:4810   */\n      dup2\n        /* \"#utility.yul\":4798:4810   */\n      swap1\n      pop\n        /* \"#utility.yul\":4756:4816   */\n      swap2\n      swap1\n      pop\n      jump\t// out\n        /* \"#utility.yul\":4822:4964   */\n    tag_106:\n        /* \"#utility.yul\":4872:4881   */\n      0x00\n        /* \"#utility.yul\":4905:4958   */\n      tag_181\n        /* \"#utility.yul\":4923:4957   */\n      tag_182\n        /* \"#utility.yul\":4932:4956   */\n      tag_183\n        /* \"#utility.yul\":4950:4955   */\n      dup5\n        /* \"#utility.yul\":4932:4956   */\n      tag_97\n      jump\t// in\n    tag_183:\n        /* \"#utility.yul\":4923:4957   */\n      tag_105\n      jump\t// in\n    tag_182:\n        /* \"#utility.yul\":4905:4958   */\n      tag_97\n      jump\t// in\n    tag_181:\n        /* \"#utility.yul\":4892:4958   */\n      swap1\n      pop\n        /* \"#utility.yul\":4822:4964   */\n      swap2\n      swap1\n      pop\n      jump\t// out\n        /* \"#utility.yul\":4970:5096   */\n    tag_107:\n        /* \"#utility.yul\":5020:5029   */\n      0x00\n        /* \"#utility.yul\":5053:5090   */\n      tag_185\n        /* \"#utility.yul\":5084:5089   */\n      dup3\n        /* \"#utility.yul\":5053:5090   */\n      tag_106\n      jump\t// in\n    tag_185:\n        /* \"#utility.yul\":5040:5090   */\n      swap1\n      pop\n        /* \"#utility.yul\":4970:5096   */\n      swap2\n      swap1\n      pop\n      jump\t// out\n        /* \"#utility.yul\":5102:5251   */\n    tag_108:\n        /* \"#utility.yul\":5175:5184   */\n      0x00\n        /* \"#utility.yul\":5208:5245   */\n      tag_187\n        /* \"#utility.yul\":5239:5244   */\n      dup3\n        /* \"#utility.yul\":5208:5245   */\n      tag_107\n      jump\t// in\n    tag_187:\n        /* \"#utility.yul\":5195:5245   */\n      swap1\n      pop\n        /* \"#utility.yul\":5102:5251   */\n      swap2\n      swap1\n      pop\n      jump\t// out\n        /* \"#utility.yul\":5257:5424   */\n    tag_109:\n        /* \"#utility.yul\":5357:5417   */\n      tag_189\n        /* \"#utility.yul\":5411:5416   */\n      dup2\n        /* \"#utility.yul\":5357:5417   */\n      tag_108\n      jump\t// in\n    tag_189:\n        /* \"#utility.yul\":5352:5355   */\n      dup3\n        /* \"#utility.yul\":5345:5418   */\n      mstore\n        /* \"#utility.yul\":5257:5424   */\n      pop\n      pop\n      jump\t// out\n        /* \"#utility.yul\":5430:5655   */\n    tag_110:\n        /* \"#utility.yul\":5522:5532   */\n      0x00\n        /* \"#utility.yul\":5543:5612   */\n      tag_191\n        /* \"#utility.yul\":5608:5611   */\n      dup4\n        /* \"#utility.yul\":5600:5606   */\n      dup4\n        /* \"#utility.yul\":5543:5612   */\n      tag_109\n      jump\t// in\n    tag_191:\n        /* \"#utility.yul\":5644:5648   */\n      0x20\n        /* \"#utility.yul\":5639:5642   */\n      dup4\n        /* \"#utility.yul\":5635:5649   */\n      add\n        /* \"#utility.yul\":5621:5649   */\n      swap1\n      pop\n        /* \"#utility.yul\":5430:5655   */\n      swap3\n      swap2\n      pop\n      pop\n      jump\t// out\n        /* \"#utility.yul\":5661:5797   */\n    tag_111:\n        /* \"#utility.yul\":5754:5758   */\n      0x00\n        /* \"#utility.yul\":5786:5790   */\n      0x20\n        /* \"#utility.yul\":5781:5784   */\n      dup3\n        /* \"#utility.yul\":5777:5791   */\n      add\n        /* \"#utility.yul\":5769:5791   */\n      swap1\n      pop\n        /* \"#utility.yul\":5661:5797   */\n      swap2\n      swap1\n      pop\n      jump\t// out\n        /* \"#utility.yul\":5850:6697   */\n    tag_112:\n        /* \"#utility.yul\":5992:5995   */\n      0x00\n        /* \"#utility.yul\":6021:6098   */\n      tag_194\n        /* \"#utility.yul\":6092:6097   */\n      dup3\n        /* \"#utility.yul\":6021:6098   */\n      tag_102\n      jump\t// in\n    tag_194:\n        /* \"#utility.yul\":6114:6200   */\n      tag_195\n        /* \"#utility.yul\":6193:6199   */\n      dup2\n        /* \"#utility.yul\":6188:6191   */\n      dup6\n        /* \"#utility.yul\":6114:6200   */\n      tag_103\n      jump\t// in\n    tag_195:\n        /* \"#utility.yul\":6107:6200   */\n      swap4\n      pop\n        /* \"#utility.yul\":6224:6303   */\n      tag_196\n        /* \"#utility.yul\":6297:6302   */\n      dup4\n        /* \"#utility.yul\":6224:6303   */\n      tag_104\n      jump\t// in\n    tag_196:\n        /* \"#utility.yul\":6326:6333   */\n      dup1\n        /* \"#utility.yul\":6357:6358   */\n      0x00\n        /* \"#utility.yul\":6342:6672   */\n    tag_197:\n        /* \"#utility.yul\":6367:6373   */\n      dup4\n        /* \"#utility.yul\":6364:6365   */\n      dup2\n        /* \"#utility.yul\":6361:6374   */\n      lt\n        /* \"#utility.yul\":6342:6672   */\n      iszero\n      tag_199\n      jumpi\n        /* \"#utility.yul\":6443:6449   */\n      dup2\n        /* \"#utility.yul\":6437:6450   */\n      mload\n        /* \"#utility.yul\":6470:6556   */\n      tag_200\n        /* \"#utility.yul\":6552:6555   */\n      dup9\n        /* \"#utility.yul\":6537:6550   */\n      dup3\n        /* \"#utility.yul\":6470:6556   */\n      tag_110\n      jump\t// in\n    tag_200:\n        /* \"#utility.yul\":6463:6556   */\n      swap8\n      pop\n        /* \"#utility.yul\":6579:6662   */\n      tag_201\n        /* \"#utility.yul\":6655:6661   */\n      dup4\n        /* \"#utility.yul\":6579:6662   */\n      tag_111\n      jump\t// in\n    tag_201:\n        /* \"#utility.yul\":6569:6662   */\n      swap3\n      pop\n        /* \"#utility.yul\":6402:6672   */\n      pop\n        /* \"#utility.yul\":6389:6390   */\n      0x01\n        /* \"#utility.yul\":6386:6387   */\n      dup2\n        /* \"#utility.yul\":6382:6391   */\n      add\n        /* \"#utility.yul\":6377:6391   */\n      swap1\n      pop\n        /* \"#utility.yul\":6342:6672   */\n      jump(tag_197)\n    tag_199:\n        /* \"#utility.yul\":6346:6360   */\n      pop\n        /* \"#utility.yul\":6688:6691   */\n      dup6\n        /* \"#utility.yul\":6681:6691   */\n      swap4\n      pop\n        /* \"#utility.yul\":5997:6697   */\n      pop\n      pop\n      pop\n        /* \"#utility.yul\":5850:6697   */\n      swap3\n      swap2\n      pop\n      pop\n      jump\t// out\n        /* \"#utility.yul\":6703:7122   */\n    tag_18:\n        /* \"#utility.yul\":6869:6873   */\n      0x00\n        /* \"#utility.yul\":6907:6909   */\n      0x20\n        /* \"#utility.yul\":6896:6905   */\n      dup3\n        /* \"#utility.yul\":6892:6910   */\n      add\n        /* \"#utility.yul\":6884:6910   */\n      swap1\n      pop\n        /* \"#utility.yul\":6956:6965   */\n      dup2\n        /* \"#utility.yul\":6950:6954   */\n      dup2\n        /* \"#utility.yul\":6946:6966   */\n      sub\n        /* \"#utility.yul\":6942:6943   */\n      0x00\n        /* \"#utility.yul\":6931:6940   */\n      dup4\n        /* \"#utility.yul\":6927:6944   */\n      add\n        /* \"#utility.yul\":6920:6967   */\n      mstore\n        /* \"#utility.yul\":6984:7115   */\n      tag_203\n        /* \"#utility.yul\":7110:7114   */\n      dup2\n        /* \"#utility.yul\":7101:7107   */\n      dup5\n        /* \"#utility.yul\":6984:7115   */\n      tag_112\n      jump\t// in\n    tag_203:\n        /* \"#utility.yul\":6976:7115   */\n      swap1\n      pop\n        /* \"#utility.yul\":6703:7122   */\n      swap3\n      swap2\n      pop\n      pop\n      jump\t// out\n        /* \"#utility.yul\":7128:7308   */\n    tag_31:\n        /* \"#utility.yul\":7176:7253   */\n      0x4e487b7100000000000000000000000000000000000000000000000000000000\n        /* \"#utility.yul\":7173:7174   */\n      0x00\n        /* \"#utility.yul\":7166:7254   */\n      mstore\n        /* \"#utility.yul\":7273:7277   */\n      0x32\n        /* \"#utility.yul\":7270:7271   */\n      0x04\n        /* \"#utility.yul\":7263:7278   */\n      mstore\n        /* \"#utility.yul\":7297:7301   */\n      0x24\n        /* \"#utility.yul\":7294:7295   */\n      0x00\n        /* \"#utility.yul\":7287:7302   */\n      revert\n        /* \"#utility.yul\":7314:7560   */\n    tag_113:\n        /* \"#utility.yul\":7395:7396   */\n      0x00\n        /* \"#utility.yul\":7405:7518   */\n    tag_206:\n        /* \"#utility.yul\":7419:7425   */\n      dup4\n        /* \"#utility.yul\":7416:7417   */\n      dup2\n        /* \"#utility.yul\":7413:7426   */\n      lt\n        /* \"#utility.yul\":7405:7518   */\n      iszero\n      tag_208\n      jumpi\n        /* \"#utility.yul\":7504:7505   */\n      dup1\n        /* \"#utility.yul\":7499:7502   */\n      dup3\n        /* \"#utility.yul\":7495:7506   */\n      add\n        /* \"#utility.yul\":7489:7507   */\n      mload\n        /* \"#utility.yul\":7485:7486   */\n      dup2\n        /* \"#utility.yul\":7480:7483   */\n      dup5\n        /* \"#utility.yul\":7476:7487   */\n      add\n        /* \"#utility.yul\":7469:7508   */\n      mstore\n        /* \"#utility.yul\":7441:7443   */\n      0x20\n        /* \"#utility.yul\":7438:7439   */\n      dup2\n        /* \"#utility.yul\":7434:7444   */\n      add\n        /* \"#utility.yul\":7429:7444   */\n      swap1\n      pop\n        /* \"#utility.yul\":7405:7518   */\n      jump(tag_206)\n    tag_208:\n        /* \"#utility.yul\":7552:7553   */\n      0x00\n        /* \"#utility.yul\":7543:7549   */\n      dup5\n        /* \"#utility.yul\":7538:7541   */\n      dup5\n        /* \"#utility.yul\":7534:7550   */\n      add\n        /* \"#utility.yul\":7527:7554   */\n      mstore\n        /* \"#utility.yul\":7376:7560   */\n      pop\n        /* \"#utility.yul\":7314:7560   */\n      pop\n      pop\n      pop\n      jump\t// out\n        /* \"#utility.yul\":7566:8000   */\n    tag_114:\n        /* \"#utility.yul\":7655:7660   */\n      0x00\n        /* \"#utility.yul\":7680:7746   */\n      tag_210\n        /* \"#utility.yul\":7696:7745   */\n      tag_211\n        /* \"#utility.yul\":7738:7744   */\n      dup5\n        /* \"#utility.yul\":7696:7745   */\n      tag_93\n      jump\t// in\n    tag_211:\n        /* \"#utility.yul\":7680:7746   */\n      tag_92\n      jump\t// in\n    tag_210:\n        /* \"#utility.yul\":7671:7746   */\n      swap1\n      pop\n        /* \"#utility.yul\":7769:7775   */\n      dup3\n        /* \"#utility.yul\":7762:7767   */\n      dup2\n        /* \"#utility.yul\":7755:7776   */\n      mstore\n        /* \"#utility.yul\":7807:7811   */\n      0x20\n        /* \"#utility.yul\":7800:7805   */\n      dup2\n        /* \"#utility.yul\":7796:7812   */\n      add\n        /* \"#utility.yul\":7845:7848   */\n      dup5\n        /* \"#utility.yul\":7836:7842   */\n      dup5\n        /* \"#utility.yul\":7831:7834   */\n      dup5\n        /* \"#utility.yul\":7827:7843   */\n      add\n        /* \"#utility.yul\":7824:7849   */\n      gt\n        /* \"#utility.yul\":7821:7933   */\n      iszero\n      tag_212\n      jumpi\n        /* \"#utility.yul\":7852:7931   */\n      tag_213\n      tag_89\n      jump\t// in\n    tag_213:\n        /* \"#utility.yul\":7821:7933   */\n    tag_212:\n        /* \"#utility.yul\":7942:7994   */\n      tag_214\n        /* \"#utility.yul\":7987:7993   */\n      dup5\n        /* \"#utility.yul\":7982:7985   */\n      dup3\n        /* \"#utility.yul\":7977:7980   */\n      dup6\n        /* \"#utility.yul\":7942:7994   */\n      tag_113\n      jump\t// in\n    tag_214:\n        /* \"#utility.yul\":7661:8000   */\n      pop\n        /* \"#utility.yul\":7566:8000   */\n      swap4\n      swap3\n      pop\n      pop\n      pop\n      jump\t// out\n        /* \"#utility.yul\":8020:8375   */\n    tag_115:\n        /* \"#utility.yul\":8087:8092   */\n      0x00\n        /* \"#utility.yul\":8136:8139   */\n      dup3\n        /* \"#utility.yul\":8129:8133   */\n      0x1f\n        /* \"#utility.yul\":8121:8127   */\n      dup4\n        /* \"#utility.yul\":8117:8134   */\n      add\n        /* \"#utility.yul\":8113:8140   */\n      slt\n        /* \"#utility.yul\":8103:8225   */\n      tag_216\n      jumpi\n        /* \"#utility.yul\":8144:8223   */\n      tag_217\n      tag_88\n      jump\t// in\n    tag_217:\n        /* \"#utility.yul\":8103:8225   */\n    tag_216:\n        /* \"#utility.yul\":8254:8260   */\n      dup2\n        /* \"#utility.yul\":8248:8261   */\n      mload\n        /* \"#utility.yul\":8279:8369   */\n      tag_218\n        /* \"#utility.yul\":8365:8368   */\n      dup5\n        /* \"#utility.yul\":8357:8363   */\n      dup3\n        /* \"#utility.yul\":8350:8354   */\n      0x20\n        /* \"#utility.yul\":8342:8348   */\n      dup7\n        /* \"#utility.yul\":8338:8355   */\n      add\n        /* \"#utility.yul\":8279:8369   */\n      tag_114\n      jump\t// in\n    tag_218:\n        /* \"#utility.yul\":8270:8369   */\n      swap2\n      pop\n        /* \"#utility.yul\":8093:8375   */\n      pop\n        /* \"#utility.yul\":8020:8375   */\n      swap3\n      swap2\n      pop\n      pop\n      jump\t// out\n        /* \"#utility.yul\":8381:8905   */\n    tag_36:\n        /* \"#utility.yul\":8461:8467   */\n      0x00\n        /* \"#utility.yul\":8510:8512   */\n      0x20\n        /* \"#utility.yul\":8498:8507   */\n      dup3\n        /* \"#utility.yul\":8489:8496   */\n      dup5\n        /* \"#utility.yul\":8485:8508   */\n      sub\n        /* \"#utility.yul\":8481:8513   */\n      slt\n        /* \"#utility.yul\":8478:8597   */\n      iszero\n      tag_220\n      jumpi\n        /* \"#utility.yul\":8516:8595   */\n      tag_221\n      tag_86\n      jump\t// in\n    tag_221:\n        /* \"#utility.yul\":8478:8597   */\n    tag_220:\n        /* \"#utility.yul\":8657:8658   */\n      0x00\n        /* \"#utility.yul\":8646:8655   */\n      dup3\n        /* \"#utility.yul\":8642:8659   */\n      add\n        /* \"#utility.yul\":8636:8660   */\n      mload\n        /* \"#utility.yul\":8687:8705   */\n      0xffffffffffffffff\n        /* \"#utility.yul\":8679:8685   */\n      dup2\n        /* \"#utility.yul\":8676:8706   */\n      gt\n        /* \"#utility.yul\":8673:8790   */\n      iszero\n      tag_222\n      jumpi\n        /* \"#utility.yul\":8709:8788   */\n      tag_223\n      tag_87\n      jump\t// in\n    tag_223:\n        /* \"#utility.yul\":8673:8790   */\n    tag_222:\n        /* \"#utility.yul\":8814:8888   */\n      tag_224\n        /* \"#utility.yul\":8880:8887   */\n      dup5\n        /* \"#utility.yul\":8871:8877   */\n      dup3\n        /* \"#utility.yul\":8860:8869   */\n      dup6\n        /* \"#utility.yul\":8856:8878   */\n      add\n        /* \"#utility.yul\":8814:8888   */\n      tag_115\n      jump\t// in\n    tag_224:\n        /* \"#utility.yul\":8804:8888   */\n      swap2\n      pop\n        /* \"#utility.yul\":8607:8898   */\n      pop\n        /* \"#utility.yul\":8381:8905   */\n      swap3\n      swap2\n      pop\n      pop\n      jump\t// out\n        /* \"#utility.yul\":8911:9010   */\n    tag_116:\n        /* \"#utility.yul\":8963:8969   */\n      0x00\n        /* \"#utility.yul\":8997:9002   */\n      dup2\n        /* \"#utility.yul\":8991:9003   */\n      mload\n        /* \"#utility.yul\":8981:9003   */\n      swap1\n      pop\n        /* \"#utility.yul\":8911:9010   */\n      swap2\n      swap1\n      pop\n      jump\t// out\n        /* \"#utility.yul\":9016:9164   */\n    tag_117:\n        /* \"#utility.yul\":9118:9129   */\n      0x00\n        /* \"#utility.yul\":9155:9158   */\n      dup2\n        /* \"#utility.yul\":9140:9158   */\n      swap1\n      pop\n        /* \"#utility.yul\":9016:9164   */\n      swap3\n      swap2\n      pop\n      pop\n      jump\t// out\n        /* \"#utility.yul\":9170:9560   */\n    tag_118:\n        /* \"#utility.yul\":9276:9279   */\n      0x00\n        /* \"#utility.yul\":9304:9343   */\n      tag_228\n        /* \"#utility.yul\":9337:9342   */\n      dup3\n        /* \"#utility.yul\":9304:9343   */\n      tag_116\n      jump\t// in\n    tag_228:\n        /* \"#utility.yul\":9359:9448   */\n      tag_229\n        /* \"#utility.yul\":9441:9447   */\n      dup2\n        /* \"#utility.yul\":9436:9439   */\n      dup6\n        /* \"#utility.yul\":9359:9448   */\n      tag_117\n      jump\t// in\n    tag_229:\n        /* \"#utility.yul\":9352:9448   */\n      swap4\n      pop\n        /* \"#utility.yul\":9457:9522   */\n      tag_230\n        /* \"#utility.yul\":9515:9521   */\n      dup2\n        /* \"#utility.yul\":9510:9513   */\n      dup6\n        /* \"#utility.yul\":9503:9507   */\n      0x20\n        /* \"#utility.yul\":9496:9501   */\n      dup7\n        /* \"#utility.yul\":9492:9508   */\n      add\n        /* \"#utility.yul\":9457:9522   */\n      tag_113\n      jump\t// in\n    tag_230:\n        /* \"#utility.yul\":9547:9553   */\n      dup1\n        /* \"#utility.yul\":9542:9545   */\n      dup5\n        /* \"#utility.yul\":9538:9554   */\n      add\n        /* \"#utility.yul\":9531:9554   */\n      swap2\n      pop\n        /* \"#utility.yul\":9280:9560   */\n      pop\n        /* \"#utility.yul\":9170:9560   */\n      swap3\n      swap2\n      pop\n      pop\n      jump\t// out\n        /* \"#utility.yul\":9566:9841   */\n    tag_38:\n        /* \"#utility.yul\":9698:9701   */\n      0x00\n        /* \"#utility.yul\":9720:9815   */\n      tag_232\n        /* \"#utility.yul\":9811:9814   */\n      dup3\n        /* \"#utility.yul\":9802:9808   */\n      dup5\n        /* \"#utility.yul\":9720:9815   */\n      tag_118\n      jump\t// in\n    tag_232:\n        /* \"#utility.yul\":9713:9815   */\n      swap2\n      pop\n        /* \"#utility.yul\":9832:9835   */\n      dup2\n        /* \"#utility.yul\":9825:9835   */\n      swap1\n      pop\n        /* \"#utility.yul\":9566:9841   */\n      swap3\n      swap2\n      pop\n      pop\n      jump\t// out\n        /* \"#utility.yul\":9847:10027   */\n    tag_119:\n        /* \"#utility.yul\":9895:9972   */\n      0x4e487b7100000000000000000000000000000000000000000000000000000000\n        /* \"#utility.yul\":9892:9893   */\n      0x00\n        /* \"#utility.yul\":9885:9973   */\n      mstore\n        /* \"#utility.yul\":9992:9996   */\n      0x11\n        /* \"#utility.yul\":9989:9990   */\n      0x04\n        /* \"#utility.yul\":9982:9997   */\n      mstore\n        /* \"#utility.yul\":10016:10020   */\n      0x24\n        /* \"#utility.yul\":10013:10014   */\n      0x00\n        /* \"#utility.yul\":10006:10021   */\n      revert\n        /* \"#utility.yul\":10033:10110   */\n    tag_120:\n        /* \"#utility.yul\":10070:10077   */\n      0x00\n        /* \"#utility.yul\":10099:10104   */\n      dup2\n        /* \"#utility.yul\":10088:10104   */\n      swap1\n      pop\n        /* \"#utility.yul\":10033:10110   */\n      swap2\n      swap1\n      pop\n      jump\t// out\n        /* \"#utility.yul\":10116:10349   */\n    tag_45:\n        /* \"#utility.yul\":10155:10158   */\n      0x00\n        /* \"#utility.yul\":10178:10202   */\n      tag_236\n        /* \"#utility.yul\":10196:10201   */\n      dup3\n        /* \"#utility.yul\":10178:10202   */\n      tag_120\n      jump\t// in\n    tag_236:\n        /* \"#utility.yul\":10169:10202   */\n      swap2\n      pop\n        /* \"#utility.yul\":10224:10290   */\n      0xffffffffffffffffffffffffffffffffffffffffffffffffffffffffffffffff\n        /* \"#utility.yul\":10217:10222   */\n      dup3\n        /* \"#utility.yul\":10214:10291   */\n      sub\n        /* \"#utility.yul\":10211:10314   */\n      tag_237\n      jumpi\n        /* \"#utility.yul\":10294:10312   */\n      tag_238\n      tag_119\n      jump\t// in\n    tag_238:\n        /* \"#utility.yul\":10211:10314   */\n    tag_237:\n        /* \"#utility.yul\":10341:10342   */\n      0x01\n        /* \"#utility.yul\":10334:10339   */\n      dup3\n        /* \"#utility.yul\":10330:10343   */\n      add\n        /* \"#utility.yul\":10323:10343   */\n      swap1\n      pop\n        /* \"#utility.yul\":10116:10349   */\n      swap2\n      swap1\n      pop\n      jump\t// out\n        /* \"#utility.yul\":10355:10498   */\n    tag_121:\n        /* \"#utility.yul\":10412:10417   */\n      0x00\n        /* \"#utility.yul\":10443:10449   */\n      dup2\n        /* \"#utility.yul\":10437:10450   */\n      mload\n        /* \"#utility.yul\":10428:10450   */\n      swap1\n      pop\n        /* \"#utility.yul\":10459:10492   */\n      tag_240\n        /* \"#utility.yul\":10486:10491   */\n      dup2\n        /* \"#utility.yul\":10459:10492   */\n      tag_100\n      jump\t// in\n    tag_240:\n        /* \"#utility.yul\":10355:10498   */\n      swap3\n      swap2\n      pop\n      pop\n      jump\t// out\n        /* \"#utility.yul\":10504:10855   */\n    tag_60:\n        /* \"#utility.yul\":10574:10580   */\n      0x00\n        /* \"#utility.yul\":10623:10625   */\n      0x20\n        /* \"#utility.yul\":10611:10620   */\n      dup3\n        /* \"#utility.yul\":10602:10609   */\n      dup5\n        /* \"#utility.yul\":10598:10621   */\n      sub\n        /* \"#utility.yul\":10594:10626   */\n      slt\n        /* \"#utility.yul\":10591:10710   */\n      iszero\n      tag_242\n      jumpi\n        /* \"#utility.yul\":10629:10708   */\n      tag_243\n      tag_86\n      jump\t// in\n    tag_243:\n        /* \"#utility.yul\":10591:10710   */\n    tag_242:\n        /* \"#utility.yul\":10749:10750   */\n      0x00\n        /* \"#utility.yul\":10774:10838   */\n      tag_244\n        /* \"#utility.yul\":10830:10837   */\n      dup5\n        /* \"#utility.yul\":10821:10827   */\n      dup3\n        /* \"#utility.yul\":10810:10819   */\n      dup6\n        /* \"#utility.yul\":10806:10828   */\n      add\n        /* \"#utility.yul\":10774:10838   */\n      tag_121\n      jump\t// in\n    tag_244:\n        /* \"#utility.yul\":10764:10838   */\n      swap2\n      pop\n        /* \"#utility.yul\":10720:10848   */\n      pop\n        /* \"#utility.yul\":10504:10855   */\n      swap3\n      swap2\n      pop\n      pop\n      jump\t// out\n        /* \"#utility.yul\":10861:11030   */\n    tag_122:\n        /* \"#utility.yul\":10945:10956   */\n      0x00\n        /* \"#utility.yul\":10979:10985   */\n      dup3\n        /* \"#utility.yul\":10974:10977   */\n      dup3\n        /* \"#utility.yul\":10967:10986   */\n      mstore\n        /* \"#utility.yul\":11019:11023   */\n      0x20\n        /* \"#utility.yul\":11014:11017   */\n      dup3\n        /* \"#utility.yul\":11010:11024   */\n      add\n        /* \"#utility.yul\":10995:11024   */\n      swap1\n      pop\n        /* \"#utility.yul\":10861:11030   */\n      swap3\n      swap2\n      pop\n      pop\n      jump\t// out\n        /* \"#utility.yul\":11036:11413   */\n    tag_123:\n        /* \"#utility.yul\":11124:11127   */\n      0x00\n        /* \"#utility.yul\":11152:11191   */\n      tag_247\n        /* \"#utility.yul\":11185:11190   */\n      dup3\n        /* \"#utility.yul\":11152:11191   */\n      tag_116\n      jump\t// in\n    tag_247:\n        /* \"#utility.yul\":11207:11278   */\n      tag_248\n        /* \"#utility.yul\":11271:11277   */\n      dup2\n        /* \"#utility.yul\":11266:11269   */\n      dup6\n        /* \"#utility.yul\":11207:11278   */\n      tag_122\n      jump\t// in\n    tag_248:\n        /* \"#utility.yul\":11200:11278   */\n      swap4\n      pop\n        /* \"#utility.yul\":11287:11352   */\n      tag_249\n        /* \"#utility.yul\":11345:11351   */\n      dup2\n        /* \"#utility.yul\":11340:11343   */\n      dup6\n        /* \"#utility.yul\":11333:11337   */\n      0x20\n        /* \"#utility.yul\":11326:11331   */\n      dup7\n        /* \"#utility.yul\":11322:11338   */\n      add\n        /* \"#utility.yul\":11287:11352   */\n      tag_113\n      jump\t// in\n    tag_249:\n        /* \"#utility.yul\":11377:11406   */\n      tag_250\n        /* \"#utility.yul\":11399:11405   */\n      dup2\n        /* \"#utility.yul\":11377:11406   */\n      tag_90\n      jump\t// in\n    tag_250:\n        /* \"#utility.yul\":11372:11375   */\n      dup5\n        /* \"#utility.yul\":11368:11407   */\n      add\n        /* \"#utility.yul\":11361:11407   */\n      swap2\n      pop\n        /* \"#utility.yul\":11128:11413   */\n      pop\n        /* \"#utility.yul\":11036:11413   */\n      swap3\n      swap2\n      pop\n      pop\n      jump\t// out\n        /* \"#utility.yul\":11419:11732   */\n    tag_82:\n        /* \"#utility.yul\":11532:11536   */\n      0x00\n        /* \"#utility.yul\":11570:11572   */\n      0x20\n        /* \"#utility.yul\":11559:11568   */\n      dup3\n        /* \"#utility.yul\":11555:11573   */\n      add\n        /* \"#utility.yul\":11547:11573   */\n      swap1\n      pop\n        /* \"#utility.yul\":11619:11628   */\n      dup2\n        /* \"#utility.yul\":11613:11617   */\n      dup2\n        /* \"#utility.yul\":11609:11629   */\n      sub\n        /* \"#utility.yul\":11605:11606   */\n      0x00\n        /* \"#utility.yul\":11594:11603   */\n      dup4\n        /* \"#utility.yul\":11590:11607   */\n      add\n        /* \"#utility.yul\":11583:11630   */\n      mstore\n        /* \"#utility.yul\":11647:11725   */\n      tag_252\n        /* \"#utility.yul\":11720:11724   */\n      dup2\n        /* \"#utility.yul\":11711:11717   */\n      dup5\n        /* \"#utility.yul\":11647:11725   */\n      tag_123\n      jump\t// in\n    tag_252:\n        /* \"#utility.yul\":11639:11725   */\n      swap1\n      pop\n        /* \"#utility.yul\":11419:11732   */\n      swap3\n      swap2\n      pop\n      pop\n      jump\t// out\n    stop\n\n    sub_0: assembly {\n            /* \"Users/michael/Documents/dev/e-community-platform/in-progress/consent-management/src/blockchain/smart_contracts/contracts/ConsentContract.sol\":144:6998  contract ConsentContract {... */\n          mstore(0x40, 0x80)\n            /* \"Users/michael/Documents/dev/e-community-platform/in-progress/consent-management/src/blockchain/smart_contracts/contracts/ConsentContract.sol\":1595:1723  constructor(string memory _contractID) {... */\n          callvalue\n          dup1\n          iszero\n          tag_1\n          jumpi\n          0x00\n          dup1\n          revert\n        tag_1:\n          pop\n          mload(0x40)\n          sub(codesize, bytecodeSize)\n          dup1\n          bytecodeSize\n          dup4\n          codecopy\n          dup2\n          dup2\n          add\n          0x40\n          mstore\n          dup2\n          add\n          swap1\n          tag_2\n          swap2\n          swap1\n          tag_3\n          jump\t// in\n        tag_2:\n            /* \"Users/michael/Documents/dev/e-community-platform/in-progress/consent-management/src/blockchain/smart_contracts/contracts/ConsentContract.sol\":1657:1668  _contractID */\n          dup1\n            /* \"Users/michael/Documents/dev/e-community-platform/in-progress/consent-management/src/blockchain/smart_contracts/contracts/ConsentContract.sol\":1644:1654  contractID */\n          0x00\n            /* \"Users/michael/Documents/dev/e-community-platform/in-progress/consent-management/src/blockchain/smart_contracts/contracts/ConsentContract.sol\":1644:1668  contractID = _contractID */\n          swap1\n          dup2\n          tag_6\n          swap2\n          swap1\n          tag_7\n          jump\t// in\n        tag_6:\n          pop\n            /* \"Users/michael/Documents/dev/e-community-platform/in-progress/consent-management/src/blockchain/smart_contracts/contracts/ConsentContract.sol\":1694:1716  STATE.CONTRACT_CREATED */\n          0x00\n            /* \"Users/michael/Documents/dev/e-community-platform/in-progress/consent-management/src/blockchain/smart_contracts/contracts/ConsentContract.sol\":1678:1691  contractState */\n          0x0b\n          0x00\n            /* \"Users/michael/Documents/dev/e-community-platform/in-progress/consent-management/src/blockchain/smart_contracts/contracts/ConsentContract.sol\":1678:1716  contractState = STATE.CONTRACT_CREATED */\n          0x0100\n          exp\n          dup2\n          sload\n          dup2\n          0xff\n          mul\n          not\n          and\n          swap1\n          dup4\n          0x07\n          dup2\n          gt\n          iszero\n          tag_8\n          jumpi\n          tag_9\n          tag_10\n          jump\t// in\n        tag_9:\n        tag_8:\n          mul\n          or\n          swap1\n          sstore\n          pop\n            /* \"Users/michael/Documents/dev/e-community-platform/in-progress/consent-management/src/blockchain/smart_contracts/contracts/ConsentContract.sol\":1595:1723  constructor(string memory _contractID) {... */\n          pop\n            /* \"Users/michael/Documents/dev/e-community-platform/in-progress/consent-management/src/blockchain/smart_contracts/contracts/ConsentContract.sol\":144:6998  contract ConsentContract {... */\n          jump(tag_11)\n            /* \"#utility.yul\":7:82   */\n        tag_12:\n            /* \"#utility.yul\":40:46   */\n          0x00\n            /* \"#utility.yul\":73:75   */\n          0x40\n            /* \"#utility.yul\":67:76   */\n          mload\n            /* \"#utility.yul\":57:76   */\n          swap1\n          pop\n            /* \"#utility.yul\":7:82   */\n          swap1\n          jump\t// out\n            /* \"#utility.yul\":88:205   */\n        tag_13:\n            /* \"#utility.yul\":197:198   */\n          0x00\n            /* \"#utility.yul\":194:195   */\n          dup1\n            /* \"#utility.yul\":187:199   */\n          revert\n            /* \"#utility.yul\":211:328   */\n        tag_14:\n            /* \"#utility.yul\":320:321   */\n          0x00\n            /* \"#utility.yul\":317:318   */\n          dup1\n            /* \"#utility.yul\":310:322   */\n          revert\n            /* \"#utility.yul\":334:451   */\n        tag_15:\n            /* \"#utility.yul\":443:444   */\n          0x00\n            /* \"#utility.yul\":440:441   */\n          dup1\n            /* \"#utility.yul\":433:445   */\n          revert\n            /* \"#utility.yul\":457:574   */\n        tag_16:\n            /* \"#utility.yul\":566:567   */\n          0x00\n            /* \"#utility.yul\":563:564   */\n          dup1\n            /* \"#utility.yul\":556:568   */\n          revert\n            /* \"#utility.yul\":580:682   */\n        tag_17:\n            /* \"#utility.yul\":621:627   */\n          0x00\n            /* \"#utility.yul\":672:674   */\n          0x1f\n            /* \"#utility.yul\":668:675   */\n          not\n            /* \"#utility.yul\":663:665   */\n          0x1f\n            /* \"#utility.yul\":656:661   */\n          dup4\n            /* \"#utility.yul\":652:666   */\n          add\n            /* \"#utility.yul\":648:676   */\n          and\n            /* \"#utility.yul\":638:676   */\n          swap1\n          pop\n            /* \"#utility.yul\":580:682   */\n          swap2\n          swap1\n          pop\n          jump\t// out\n            /* \"#utility.yul\":688:868   */\n        tag_18:\n            /* \"#utility.yul\":736:813   */\n          0x4e487b7100000000000000000000000000000000000000000000000000000000\n            /* \"#utility.yul\":733:734   */\n          0x00\n            /* \"#utility.yul\":726:814   */\n          mstore\n            /* \"#utility.yul\":833:837   */\n          0x41\n            /* \"#utility.yul\":830:831   */\n          0x04\n            /* \"#utility.yul\":823:838   */\n          mstore\n            /* \"#utility.yul\":857:861   */\n          0x24\n            /* \"#utility.yul\":854:855   */\n          0x00\n            /* \"#utility.yul\":847:862   */\n          revert\n            /* \"#utility.yul\":874:1155   */\n        tag_19:\n            /* \"#utility.yul\":957:984   */\n          tag_53\n            /* \"#utility.yul\":979:983   */\n          dup3\n            /* \"#utility.yul\":957:984   */\n          tag_17\n          jump\t// in\n        tag_53:\n            /* \"#utility.yul\":949:955   */\n          dup2\n            /* \"#utility.yul\":945:985   */\n          add\n            /* \"#utility.yul\":1087:1093   */\n          dup2\n            /* \"#utility.yul\":1075:1085   */\n          dup2\n            /* \"#utility.yul\":1072:1094   */\n          lt\n            /* \"#utility.yul\":1051:1069   */\n          0xffffffffffffffff\n            /* \"#utility.yul\":1039:1049   */\n          dup3\n            /* \"#utility.yul\":1036:1070   */\n          gt\n            /* \"#utility.yul\":1033:1095   */\n          or\n            /* \"#utility.yul\":1030:1118   */\n          iszero\n          tag_54\n          jumpi\n            /* \"#utility.yul\":1098:1116   */\n          tag_55\n          tag_18\n          jump\t// in\n        tag_55:\n            /* \"#utility.yul\":1030:1118   */\n        tag_54:\n            /* \"#utility.yul\":1138:1148   */\n          dup1\n            /* \"#utility.yul\":1134:1136   */\n          0x40\n            /* \"#utility.yul\":1127:1149   */\n          mstore\n            /* \"#utility.yul\":917:1155   */\n          pop\n            /* \"#utility.yul\":874:1155   */\n          pop\n          pop\n          jump\t// out\n            /* \"#utility.yul\":1161:1290   */\n        tag_20:\n            /* \"#utility.yul\":1195:1201   */\n          0x00\n            /* \"#utility.yul\":1222:1242   */\n          tag_57\n          tag_12\n          jump\t// in\n        tag_57:\n            /* \"#utility.yul\":1212:1242   */\n          swap1\n          pop\n            /* \"#utility.yul\":1251:1284   */\n          tag_58\n            /* \"#utility.yul\":1279:1283   */\n          dup3\n            /* \"#utility.yul\":1271:1277   */\n          dup3\n            /* \"#utility.yul\":1251:1284   */\n          tag_19\n          jump\t// in\n        tag_58:\n            /* \"#utility.yul\":1161:1290   */\n          swap2\n          swap1\n          pop\n          jump\t// out\n            /* \"#utility.yul\":1296:1604   */\n        tag_21:\n            /* \"#utility.yul\":1358:1362   */\n          0x00\n            /* \"#utility.yul\":1448:1466   */\n          0xffffffffffffffff\n            /* \"#utility.yul\":1440:1446   */\n          dup3\n            /* \"#utility.yul\":1437:1467   */\n          gt\n            /* \"#utility.yul\":1434:1490   */\n          iszero\n          tag_60\n          jumpi\n            /* \"#utility.yul\":1470:1488   */\n          tag_61\n          tag_18\n          jump\t// in\n        tag_61:\n            /* \"#utility.yul\":1434:1490   */\n        tag_60:\n            /* \"#utility.yul\":1508:1537   */\n          tag_62\n            /* \"#utility.yul\":1530:1536   */\n          dup3\n            /* \"#utility.yul\":1508:1537   */\n          tag_17\n          jump\t// in\n        tag_62:\n            /* \"#utility.yul\":1500:1537   */\n          swap1\n          pop\n            /* \"#utility.yul\":1592:1596   */\n          0x20\n            /* \"#utility.yul\":1586:1590   */\n          dup2\n            /* \"#utility.yul\":1582:1597   */\n          add\n            /* \"#utility.yul\":1574:1597   */\n          swap1\n          pop\n            /* \"#utility.yul\":1296:1604   */\n          swap2\n          swap1\n          pop\n          jump\t// out\n            /* \"#utility.yul\":1610:1856   */\n        tag_22:\n            /* \"#utility.yul\":1691:1692   */\n          0x00\n            /* \"#utility.yul\":1701:1814   */\n        tag_64:\n            /* \"#utility.yul\":1715:1721   */\n          dup4\n            /* \"#utility.yul\":1712:1713   */\n          dup2\n            /* \"#utility.yul\":1709:1722   */\n          lt\n            /* \"#utility.yul\":1701:1814   */\n          iszero\n          tag_66\n          jumpi\n            /* \"#utility.yul\":1800:1801   */\n          dup1\n            /* \"#utility.yul\":1795:1798   */\n          dup3\n            /* \"#utility.yul\":1791:1802   */\n          add\n            /* \"#utility.yul\":1785:1803   */\n          mload\n            /* \"#utility.yul\":1781:1782   */\n          dup2\n            /* \"#utility.yul\":1776:1779   */\n          dup5\n            /* \"#utility.yul\":1772:1783   */\n          add\n            /* \"#utility.yul\":1765:1804   */\n          mstore\n            /* \"#utility.yul\":1737:1739   */\n          0x20\n            /* \"#utility.yul\":1734:1735   */\n          dup2\n            /* \"#utility.yul\":1730:1740   */\n          add\n            /* \"#utility.yul\":1725:1740   */\n          swap1\n          pop\n            /* \"#utility.yul\":1701:1814   */\n          jump(tag_64)\n        tag_66:\n            /* \"#utility.yul\":1848:1849   */\n          0x00\n            /* \"#utility.yul\":1839:1845   */\n          dup5\n            /* \"#utility.yul\":1834:1837   */\n          dup5\n            /* \"#utility.yul\":1830:1846   */\n          add\n            /* \"#utility.yul\":1823:1850   */\n          mstore\n            /* \"#utility.yul\":1672:1856   */\n          pop\n            /* \"#utility.yul\":1610:1856   */\n          pop\n          pop\n          pop\n          jump\t// out\n            /* \"#utility.yul\":1862:2296   */\n        tag_23:\n            /* \"#utility.yul\":1951:1956   */\n          0x00\n            /* \"#utility.yul\":1976:2042   */\n          tag_68\n            /* \"#utility.yul\":1992:2041   */\n          tag_69\n            /* \"#utility.yul\":2034:2040   */\n          dup5\n            /* \"#utility.yul\":1992:2041   */\n          tag_21\n          jump\t// in\n        tag_69:\n            /* \"#utility.yul\":1976:2042   */\n          tag_20\n          jump\t// in\n        tag_68:\n            /* \"#utility.yul\":1967:2042   */\n          swap1\n          pop\n            /* \"#utility.yul\":2065:2071   */\n          dup3\n            /* \"#utility.yul\":2058:2063   */\n          dup2\n            /* \"#utility.yul\":2051:2072   */\n          mstore\n            /* \"#utility.yul\":2103:2107   */\n          0x20\n            /* \"#utility.yul\":2096:2101   */\n          dup2\n            /* \"#utility.yul\":2092:2108   */\n          add\n            /* \"#utility.yul\":2141:2144   */\n          dup5\n            /* \"#utility.yul\":2132:2138   */\n          dup5\n            /* \"#utility.yul\":2127:2130   */\n          dup5\n            /* \"#utility.yul\":2123:2139   */\n          add\n            /* \"#utility.yul\":2120:2145   */\n          gt\n            /* \"#utility.yul\":2117:2229   */\n          iszero\n          tag_70\n          jumpi\n            /* \"#utility.yul\":2148:2227   */\n          tag_71\n          tag_16\n          jump\t// in\n        tag_71:\n            /* \"#utility.yul\":2117:2229   */\n        tag_70:\n            /* \"#utility.yul\":2238:2290   */\n          tag_72\n            /* \"#utility.yul\":2283:2289   */\n          dup5\n            /* \"#utility.yul\":2278:2281   */\n          dup3\n            /* \"#utility.yul\":2273:2276   */\n          dup6\n            /* \"#utility.yul\":2238:2290   */\n          tag_22\n          jump\t// in\n        tag_72:\n            /* \"#utility.yul\":1957:2296   */\n          pop\n            /* \"#utility.yul\":1862:2296   */\n          swap4\n          swap3\n          pop\n          pop\n          pop\n          jump\t// out\n            /* \"#utility.yul\":2316:2671   */\n        tag_24:\n            /* \"#utility.yul\":2383:2388   */\n          0x00\n            /* \"#utility.yul\":2432:2435   */\n          dup3\n            /* \"#utility.yul\":2425:2429   */\n          0x1f\n            /* \"#utility.yul\":2417:2423   */\n          dup4\n            /* \"#utility.yul\":2413:2430   */\n          add\n            /* \"#utility.yul\":2409:2436   */\n          slt\n            /* \"#utility.yul\":2399:2521   */\n          tag_74\n          jumpi\n            /* \"#utility.yul\":2440:2519   */\n          tag_75\n          tag_15\n          jump\t// in\n        tag_75:\n            /* \"#utility.yul\":2399:2521   */\n        tag_74:\n            /* \"#utility.yul\":2550:2556   */\n          dup2\n            /* \"#utility.yul\":2544:2557   */\n          mload\n            /* \"#utility.yul\":2575:2665   */\n          tag_76\n            /* \"#utility.yul\":2661:2664   */\n          dup5\n            /* \"#utility.yul\":2653:2659   */\n          dup3\n            /* \"#utility.yul\":2646:2650   */\n          0x20\n            /* \"#utility.yul\":2638:2644   */\n          dup7\n            /* \"#utility.yul\":2634:2651   */\n          add\n            /* \"#utility.yul\":2575:2665   */\n          tag_23\n          jump\t// in\n        tag_76:\n            /* \"#utility.yul\":2566:2665   */\n          swap2\n          pop\n            /* \"#utility.yul\":2389:2671   */\n          pop\n            /* \"#utility.yul\":2316:2671   */\n          swap3\n          swap2\n          pop\n          pop\n          jump\t// out\n            /* \"#utility.yul\":2677:3201   */\n        tag_3:\n            /* \"#utility.yul\":2757:2763   */\n          0x00\n            /* \"#utility.yul\":2806:2808   */\n          0x20\n            /* \"#utility.yul\":2794:2803   */\n          dup3\n            /* \"#utility.yul\":2785:2792   */\n          dup5\n            /* \"#utility.yul\":2781:2804   */\n          sub\n            /* \"#utility.yul\":2777:2809   */\n          slt\n            /* \"#utility.yul\":2774:2893   */\n          iszero\n          tag_78\n          jumpi\n            /* \"#utility.yul\":2812:2891   */\n          tag_79\n          tag_13\n          jump\t// in\n        tag_79:\n            /* \"#utility.yul\":2774:2893   */\n        tag_78:\n            /* \"#utility.yul\":2953:2954   */\n          0x00\n            /* \"#utility.yul\":2942:2951   */\n          dup3\n            /* \"#utility.yul\":2938:2955   */\n          add\n            /* \"#utility.yul\":2932:2956   */\n          mload\n            /* \"#utility.yul\":2983:3001   */\n          0xffffffffffffffff\n            /* \"#utility.yul\":2975:2981   */\n          dup2\n            /* \"#utility.yul\":2972:3002   */\n          gt\n            /* \"#utility.yul\":2969:3086   */\n          iszero\n          tag_80\n          jumpi\n            /* \"#utility.yul\":3005:3084   */\n          tag_81\n          tag_14\n          jump\t// in\n        tag_81:\n            /* \"#utility.yul\":2969:3086   */\n        tag_80:\n            /* \"#utility.yul\":3110:3184   */\n          tag_82\n            /* \"#utility.yul\":3176:3183   */\n          dup5\n            /* \"#utility.yul\":3167:3173   */\n          dup3\n            /* \"#utility.yul\":3156:3165   */\n          dup6\n            /* \"#utility.yul\":3152:3174   */\n          add\n            /* \"#utility.yul\":3110:3184   */\n          tag_24\n          jump\t// in\n        tag_82:\n            /* \"#utility.yul\":3100:3184   */\n          swap2\n          pop\n            /* \"#utility.yul\":2903:3194   */\n          pop\n            /* \"#utility.yul\":2677:3201   */\n          swap3\n          swap2\n          pop\n          pop\n          jump\t// out\n            /* \"#utility.yul\":3207:3306   */\n        tag_25:\n            /* \"#utility.yul\":3259:3265   */\n          0x00\n            /* \"#utility.yul\":3293:3298   */\n          dup2\n            /* \"#utility.yul\":3287:3299   */\n          mload\n            /* \"#utility.yul\":3277:3299   */\n          swap1\n          pop\n            /* \"#utility.yul\":3207:3306   */\n          swap2\n          swap1\n          pop\n          jump\t// out\n            /* \"#utility.yul\":3312:3492   */\n        tag_26:\n            /* \"#utility.yul\":3360:3437   */\n          0x4e487b7100000000000000000000000000000000000000000000000000000000\n            /* \"#utility.yul\":3357:3358   */\n          0x00\n            /* \"#utility.yul\":3350:3438   */\n          mstore\n            /* \"#utility.yul\":3457:3461   */\n          0x22\n            /* \"#utility.yul\":3454:3455   */\n          0x04\n            /* \"#utility.yul\":3447:3462   */\n          mstore\n            /* \"#utility.yul\":3481:3485   */\n          0x24\n            /* \"#utility.yul\":3478:3479   */\n          0x00\n            /* \"#utility.yul\":3471:3486   */\n          revert\n            /* \"#utility.yul\":3498:3818   */\n        tag_27:\n            /* \"#utility.yul\":3542:3548   */\n          0x00\n            /* \"#utility.yul\":3579:3580   */\n          0x02\n            /* \"#utility.yul\":3573:3577   */\n          dup3\n            /* \"#utility.yul\":3569:3581   */\n          div\n            /* \"#utility.yul\":3559:3581   */\n          swap1\n          pop\n            /* \"#utility.yul\":3626:3627   */\n          0x01\n            /* \"#utility.yul\":3620:3624   */\n          dup3\n            /* \"#utility.yul\":3616:3628   */\n          and\n            /* \"#utility.yul\":3647:3665   */\n          dup1\n            /* \"#utility.yul\":3637:3718   */\n          tag_86\n          jumpi\n            /* \"#utility.yul\":3703:3707   */\n          0x7f\n            /* \"#utility.yul\":3695:3701   */\n          dup3\n            /* \"#utility.yul\":3691:3708   */\n          and\n            /* \"#utility.yul\":3681:3708   */\n          swap2\n          pop\n            /* \"#utility.yul\":3637:3718   */\n        tag_86:\n            /* \"#utility.yul\":3765:3767   */\n          0x20\n            /* \"#utility.yul\":3757:3763   */\n          dup3\n            /* \"#utility.yul\":3754:3768   */\n          lt\n            /* \"#utility.yul\":3734:3752   */\n          dup2\n            /* \"#utility.yul\":3731:3769   */\n          sub\n            /* \"#utility.yul\":3728:3812   */\n          tag_87\n          jumpi\n            /* \"#utility.yul\":3784:3802   */\n          tag_88\n          tag_26\n          jump\t// in\n        tag_88:\n            /* \"#utility.yul\":3728:3812   */\n        tag_87:\n            /* \"#utility.yul\":3549:3818   */\n          pop\n            /* \"#utility.yul\":3498:3818   */\n          swap2\n          swap1\n          pop\n          jump\t// out\n            /* \"#utility.yul\":3824:3965   */\n        tag_28:\n            /* \"#utility.yul\":3873:3877   */\n          0x00\n            /* \"#utility.yul\":3896:3899   */\n          dup2\n            /* \"#utility.yul\":3888:3899   */\n          swap1\n          pop\n            /* \"#utility.yul\":3919:3922   */\n          dup2\n            /* \"#utility.yul\":3916:3917   */\n          0x00\n            /* \"#utility.yul\":3909:3923   */\n          mstore\n            /* \"#utility.yul\":3953:3957   */\n          0x20\n            /* \"#utility.yul\":3950:3951   */\n          0x00\n            /* \"#utility.yul\":3940:3958   */\n          keccak256\n            /* \"#utility.yul\":3932:3958   */\n          swap1\n          pop\n            /* \"#utility.yul\":3824:3965   */\n          swap2\n          swap1\n          pop\n          jump\t// out\n            /* \"#utility.yul\":3971:4064   */\n        tag_29:\n            /* \"#utility.yul\":4008:4014   */\n          0x00\n            /* \"#utility.yul\":4055:4057   */\n          0x20\n            /* \"#utility.yul\":4050:4052   */\n          0x1f\n            /* \"#utility.yul\":4043:4048   */\n          dup4\n            /* \"#utility.yul\":4039:4053   */\n          add\n            /* \"#utility.yul\":4035:4058   */\n          div\n            /* \"#utility.yul\":4025:4058   */\n          swap1\n          pop\n            /* \"#utility.yul\":3971:4064   */\n          swap2\n          swap1\n          pop\n          jump\t// out\n            /* \"#utility.yul\":4070:4177   */\n        tag_30:\n            /* \"#utility.yul\":4114:4122   */\n          0x00\n            /* \"#utility.yul\":4164:4169   */\n          dup3\n            /* \"#utility.yul\":4158:4162   */\n          dup3\n            /* \"#utility.yul\":4154:4170   */\n          shl\n            /* \"#utility.yul\":4133:4170   */\n          swap1\n          pop\n            /* \"#utility.yul\":4070:4177   */\n          swap3\n          swap2\n          pop\n          pop\n          jump\t// out\n            /* \"#utility.yul\":4183:4576   */\n        tag_31:\n            /* \"#utility.yul\":4252:4258   */\n          0x00\n            /* \"#utility.yul\":4302:4303   */\n          0x08\n            /* \"#utility.yul\":4290:4300   */\n          dup4\n            /* \"#utility.yul\":4286:4304   */\n          mul\n            /* \"#utility.yul\":4325:4422   */\n          tag_93\n            /* \"#utility.yul\":4355:4421   */\n          0xffffffffffffffffffffffffffffffffffffffffffffffffffffffffffffffff\n            /* \"#utility.yul\":4344:4353   */\n          dup3\n            /* \"#utility.yul\":4325:4422   */\n          tag_30\n          jump\t// in\n        tag_93:\n            /* \"#utility.yul\":4443:4482   */\n          tag_94\n            /* \"#utility.yul\":4473:4481   */\n          dup7\n            /* \"#utility.yul\":4462:4471   */\n          dup4\n            /* \"#utility.yul\":4443:4482   */\n          tag_30\n          jump\t// in\n        tag_94:\n            /* \"#utility.yul\":4431:4482   */\n          swap6\n          pop\n            /* \"#utility.yul\":4515:4519   */\n          dup1\n            /* \"#utility.yul\":4511:4520   */\n          not\n            /* \"#utility.yul\":4504:4509   */\n          dup5\n            /* \"#utility.yul\":4500:4521   */\n          and\n            /* \"#utility.yul\":4491:4521   */\n          swap4\n          pop\n            /* \"#utility.yul\":4564:4568   */\n          dup1\n            /* \"#utility.yul\":4554:4562   */\n          dup7\n            /* \"#utility.yul\":4550:4569   */\n          and\n            /* \"#utility.yul\":4543:4548   */\n          dup5\n            /* \"#utility.yul\":4540:4570   */\n          or\n            /* \"#utility.yul\":4530:4570   */\n          swap3\n          pop\n            /* \"#utility.yul\":4259:4576   */\n          pop\n          pop\n            /* \"#utility.yul\":4183:4576   */\n          swap4\n          swap3\n          pop\n          pop\n          pop\n          jump\t// out\n            /* \"#utility.yul\":4582:4659   */\n        tag_32:\n            /* \"#utility.yul\":4619:4626   */\n          0x00\n            /* \"#utility.yul\":4648:4653   */\n          dup2\n            /* \"#utility.yul\":4637:4653   */\n          swap1\n          pop\n            /* \"#utility.yul\":4582:4659   */\n          swap2\n          swap1\n          pop\n          jump\t// out\n            /* \"#utility.yul\":4665:4725   */\n        tag_33:\n            /* \"#utility.yul\":4693:4696   */\n          0x00\n            /* \"#utility.yul\":4714:4719   */\n          dup2\n            /* \"#utility.yul\":4707:4719   */\n          swap1\n          pop\n            /* \"#utility.yul\":4665:4725   */\n          swap2\n          swap1\n          pop\n          jump\t// out\n            /* \"#utility.yul\":4731:4873   */\n        tag_34:\n            /* \"#utility.yul\":4781:4790   */\n          0x00\n            /* \"#utility.yul\":4814:4867   */\n          tag_98\n            /* \"#utility.yul\":4832:4866   */\n          tag_99\n            /* \"#utility.yul\":4841:4865   */\n          tag_100\n            /* \"#utility.yul\":4859:4864   */\n          dup5\n            /* \"#utility.yul\":4841:4865   */\n          tag_32\n          jump\t// in\n        tag_100:\n            /* \"#utility.yul\":4832:4866   */\n          tag_33\n          jump\t// in\n        tag_99:\n            /* \"#utility.yul\":4814:4867   */\n          tag_32\n          jump\t// in\n        tag_98:\n            /* \"#utility.yul\":4801:4867   */\n          swap1\n          pop\n            /* \"#utility.yul\":4731:4873   */\n          swap2\n          swap1\n          pop\n          jump\t// out\n            /* \"#utility.yul\":4879:4954   */\n        tag_35:\n            /* \"#utility.yul\":4922:4925   */\n          0x00\n            /* \"#utility.yul\":4943:4948   */\n          dup2\n            /* \"#utility.yul\":4936:4948   */\n          swap1\n          pop\n            /* \"#utility.yul\":4879:4954   */\n          swap2\n          swap1\n          pop\n          jump\t// out\n            /* \"#utility.yul\":4960:5229   */\n        tag_36:\n            /* \"#utility.yul\":5070:5109   */\n          tag_103\n            /* \"#utility.yul\":5101:5108   */\n          dup4\n            /* \"#utility.yul\":5070:5109   */\n          tag_34\n          jump\t// in\n        tag_103:\n            /* \"#utility.yul\":5131:5222   */\n          tag_104\n            /* \"#utility.yul\":5180:5221   */\n          tag_105\n            /* \"#utility.yul\":5204:5220   */\n          dup3\n            /* \"#utility.yul\":5180:5221   */\n          tag_35\n          jump\t// in\n        tag_105:\n            /* \"#utility.yul\":5172:5178   */\n          dup5\n            /* \"#utility.yul\":5165:5169   */\n          dup5\n            /* \"#utility.yul\":5159:5170   */\n          sload\n            /* \"#utility.yul\":5131:5222   */\n          tag_31\n          jump\t// in\n        tag_104:\n            /* \"#utility.yul\":5125:5129   */\n          dup3\n            /* \"#utility.yul\":5118:5223   */\n          sstore\n            /* \"#utility.yul\":5036:5229   */\n          pop\n            /* \"#utility.yul\":4960:5229   */\n          pop\n          pop\n          pop\n          jump\t// out\n            /* \"#utility.yul\":5235:5308   */\n        tag_37:\n            /* \"#utility.yul\":5280:5283   */\n          0x00\n            /* \"#utility.yul\":5235:5308   */\n          swap1\n          jump\t// out\n            /* \"#utility.yul\":5314:5503   */\n        tag_38:\n            /* \"#utility.yul\":5391:5423   */\n          tag_108\n          tag_37\n          jump\t// in\n        tag_108:\n            /* \"#utility.yul\":5432:5497   */\n          tag_109\n            /* \"#utility.yul\":5490:5496   */\n          dup2\n            /* \"#utility.yul\":5482:5488   */\n          dup5\n            /* \"#utility.yul\":5476:5480   */\n          dup5\n            /* \"#utility.yul\":5432:5497   */\n          tag_36\n          jump\t// in\n        tag_109:\n            /* \"#utility.yul\":5367:5503   */\n          pop\n            /* \"#utility.yul\":5314:5503   */\n          pop\n          pop\n          jump\t// out\n            /* \"#utility.yul\":5509:5695   */\n        tag_39:\n            /* \"#utility.yul\":5569:5689   */\n        tag_111:\n            /* \"#utility.yul\":5586:5589   */\n          dup2\n            /* \"#utility.yul\":5579:5584   */\n          dup2\n            /* \"#utility.yul\":5576:5590   */\n          lt\n            /* \"#utility.yul\":5569:5689   */\n          iszero\n          tag_113\n          jumpi\n            /* \"#utility.yul\":5640:5679   */\n          tag_114\n            /* \"#utility.yul\":5677:5678   */\n          0x00\n            /* \"#utility.yul\":5670:5675   */\n          dup3\n            /* \"#utility.yul\":5640:5679   */\n          tag_38\n          jump\t// in\n        tag_114:\n            /* \"#utility.yul\":5613:5614   */\n          0x01\n            /* \"#utility.yul\":5606:5611   */\n          dup2\n            /* \"#utility.yul\":5602:5615   */\n          add\n            /* \"#utility.yul\":5593:5615   */\n          swap1\n          pop\n            /* \"#utility.yul\":5569:5689   */\n          jump(tag_111)\n        tag_113:\n            /* \"#utility.yul\":5509:5695   */\n          pop\n          pop\n          jump\t// out\n            /* \"#utility.yul\":5701:6244   */\n        tag_40:\n            /* \"#utility.yul\":5802:5804   */\n          0x1f\n            /* \"#utility.yul\":5797:5800   */\n          dup3\n            /* \"#utility.yul\":5794:5805   */\n          gt\n            /* \"#utility.yul\":5791:6237   */\n          iszero\n          tag_116\n          jumpi\n            /* \"#utility.yul\":5836:5874   */\n          tag_117\n            /* \"#utility.yul\":5868:5873   */\n          dup2\n            /* \"#utility.yul\":5836:5874   */\n          tag_28\n          jump\t// in\n        tag_117:\n            /* \"#utility.yul\":5920:5949   */\n          tag_118\n            /* \"#utility.yul\":5938:5948   */\n          dup5\n            /* \"#utility.yul\":5920:5949   */\n          tag_29\n          jump\t// in\n        tag_118:\n            /* \"#utility.yul\":5910:5918   */\n          dup2\n            /* \"#utility.yul\":5906:5950   */\n          add\n            /* \"#utility.yul\":6103:6105   */\n          0x20\n            /* \"#utility.yul\":6091:6101   */\n          dup6\n            /* \"#utility.yul\":6088:6106   */\n          lt\n            /* \"#utility.yul\":6085:6134   */\n          iszero\n          tag_119\n          jumpi\n            /* \"#utility.yul\":6124:6132   */\n          dup2\n            /* \"#utility.yul\":6109:6132   */\n          swap1\n          pop\n            /* \"#utility.yul\":6085:6134   */\n        tag_119:\n            /* \"#utility.yul\":6147:6227   */\n          tag_120\n            /* \"#utility.yul\":6203:6225   */\n          tag_121\n            /* \"#utility.yul\":6221:6224   */\n          dup6\n            /* \"#utility.yul\":6203:6225   */\n          tag_29\n          jump\t// in\n        tag_121:\n            /* \"#utility.yul\":6193:6201   */\n          dup4\n            /* \"#utility.yul\":6189:6226   */\n          add\n            /* \"#utility.yul\":6176:6187   */\n          dup3\n            /* \"#utility.yul\":6147:6227   */\n          tag_39\n          jump\t// in\n        tag_120:\n            /* \"#utility.yul\":5806:6237   */\n          pop\n          pop\n            /* \"#utility.yul\":5791:6237   */\n        tag_116:\n            /* \"#utility.yul\":5701:6244   */\n          pop\n          pop\n          pop\n          jump\t// out\n            /* \"#utility.yul\":6250:6367   */\n        tag_41:\n            /* \"#utility.yul\":6304:6312   */\n          0x00\n            /* \"#utility.yul\":6354:6359   */\n          dup3\n            /* \"#utility.yul\":6348:6352   */\n          dup3\n            /* \"#utility.yul\":6344:6360   */\n          shr\n            /* \"#utility.yul\":6323:6360   */\n          swap1\n          pop\n            /* \"#utility.yul\":6250:6367   */\n          swap3\n          swap2\n          pop\n          pop\n          jump\t// out\n            /* \"#utility.yul\":6373:6542   */\n        tag_42:\n            /* \"#utility.yul\":6417:6423   */\n          0x00\n            /* \"#utility.yul\":6450:6501   */\n          tag_124\n            /* \"#utility.yul\":6498:6499   */\n          0x00\n            /* \"#utility.yul\":6494:6500   */\n          not\n            /* \"#utility.yul\":6486:6491   */\n          dup5\n            /* \"#utility.yul\":6483:6484   */\n          0x08\n            /* \"#utility.yul\":6479:6492   */\n          mul\n            /* \"#utility.yul\":6450:6501   */\n          tag_41\n          jump\t// in\n        tag_124:\n            /* \"#utility.yul\":6446:6502   */\n          not\n            /* \"#utility.yul\":6531:6535   */\n          dup1\n            /* \"#utility.yul\":6525:6529   */\n          dup4\n            /* \"#utility.yul\":6521:6536   */\n          and\n            /* \"#utility.yul\":6511:6536   */\n          swap2\n          pop\n            /* \"#utility.yul\":6424:6542   */\n          pop\n            /* \"#utility.yul\":6373:6542   */\n          swap3\n          swap2\n          pop\n          pop\n          jump\t// out\n            /* \"#utility.yul\":6547:6842   */\n        tag_43:\n            /* \"#utility.yul\":6623:6627   */\n          0x00\n            /* \"#utility.yul\":6769:6798   */\n          tag_126\n            /* \"#utility.yul\":6794:6797   */\n          dup4\n            /* \"#utility.yul\":6788:6792   */\n          dup4\n            /* \"#utility.yul\":6769:6798   */\n          tag_42\n          jump\t// in\n        tag_126:\n            /* \"#utility.yul\":6761:6798   */\n          swap2\n          pop\n            /* \"#utility.yul\":6831:6834   */\n          dup3\n            /* \"#utility.yul\":6828:6829   */\n          0x02\n            /* \"#utility.yul\":6824:6835   */\n          mul\n            /* \"#utility.yul\":6818:6822   */\n          dup3\n            /* \"#utility.yul\":6815:6836   */\n          or\n            /* \"#utility.yul\":6807:6836   */\n          swap1\n          pop\n            /* \"#utility.yul\":6547:6842   */\n          swap3\n          swap2\n          pop\n          pop\n          jump\t// out\n            /* \"#utility.yul\":6847:8242   */\n        tag_7:\n            /* \"#utility.yul\":6964:7001   */\n          tag_128\n            /* \"#utility.yul\":6997:7000   */\n          dup3\n            /* \"#utility.yul\":6964:7001   */\n          tag_25\n          jump\t// in\n        tag_128:\n            /* \"#utility.yul\":7066:7084   */\n          0xffffffffffffffff\n            /* \"#utility.yul\":7058:7064   */\n          dup2\n            /* \"#utility.yul\":7055:7085   */\n          gt\n            /* \"#utility.yul\":7052:7108   */\n          iszero\n          tag_129\n          jumpi\n            /* \"#utility.yul\":7088:7106   */\n          tag_130\n          tag_18\n          jump\t// in\n        tag_130:\n            /* \"#utility.yul\":7052:7108   */\n        tag_129:\n            /* \"#utility.yul\":7132:7170   */\n          tag_131\n            /* \"#utility.yul\":7164:7168   */\n          dup3\n            /* \"#utility.yul\":7158:7169   */\n          sload\n            /* \"#utility.yul\":7132:7170   */\n          tag_27\n          jump\t// in\n        tag_131:\n            /* \"#utility.yul\":7217:7284   */\n          tag_132\n            /* \"#utility.yul\":7277:7283   */\n          dup3\n            /* \"#utility.yul\":7269:7275   */\n          dup3\n            /* \"#utility.yul\":7263:7267   */\n          dup6\n            /* \"#utility.yul\":7217:7284   */\n          tag_40\n          jump\t// in\n        tag_132:\n            /* \"#utility.yul\":7311:7312   */\n          0x00\n            /* \"#utility.yul\":7335:7339   */\n          0x20\n            /* \"#utility.yul\":7322:7339   */\n          swap1\n          pop\n            /* \"#utility.yul\":7367:7369   */\n          0x1f\n            /* \"#utility.yul\":7359:7365   */\n          dup4\n            /* \"#utility.yul\":7356:7370   */\n          gt\n            /* \"#utility.yul\":7384:7385   */\n          0x01\n            /* \"#utility.yul\":7379:7997   */\n          dup2\n          eq\n          tag_134\n          jumpi\n            /* \"#utility.yul\":8041:8042   */\n          0x00\n            /* \"#utility.yul\":8058:8064   */\n          dup5\n            /* \"#utility.yul\":8055:8132   */\n          iszero\n          tag_135\n          jumpi\n            /* \"#utility.yul\":8107:8116   */\n          dup3\n            /* \"#utility.yul\":8102:8105   */\n          dup8\n            /* \"#utility.yul\":8098:8117   */\n          add\n            /* \"#utility.yul\":8092:8118   */\n          mload\n            /* \"#utility.yul\":8083:8118   */\n          swap1\n          pop\n            /* \"#utility.yul\":8055:8132   */\n        tag_135:\n            /* \"#utility.yul\":8158:8225   */\n          tag_136\n            /* \"#utility.yul\":8218:8224   */\n          dup6\n            /* \"#utility.yul\":8211:8216   */\n          dup3\n            /* \"#utility.yul\":8158:8225   */\n          tag_43\n          jump\t// in\n        tag_136:\n            /* \"#utility.yul\":8152:8156   */\n          dup7\n            /* \"#utility.yul\":8145:8226   */\n          sstore\n            /* \"#utility.yul\":8014:8236   */\n          pop\n            /* \"#utility.yul\":7349:8236   */\n          jump(tag_133)\n            /* \"#utility.yul\":7379:7997   */\n        tag_134:\n            /* \"#utility.yul\":7431:7435   */\n          0x1f\n            /* \"#utility.yul\":7427:7436   */\n          not\n            /* \"#utility.yul\":7419:7425   */\n          dup5\n            /* \"#utility.yul\":7415:7437   */\n          and\n            /* \"#utility.yul\":7465:7502   */\n          tag_137\n            /* \"#utility.yul\":7497:7501   */\n          dup7\n            /* \"#utility.yul\":7465:7502   */\n          tag_28\n          jump\t// in\n        tag_137:\n            /* \"#utility.yul\":7524:7525   */\n          0x00\n            /* \"#utility.yul\":7538:7746   */\n        tag_138:\n            /* \"#utility.yul\":7552:7559   */\n          dup3\n            /* \"#utility.yul\":7549:7550   */\n          dup2\n            /* \"#utility.yul\":7546:7560   */\n          lt\n            /* \"#utility.yul\":7538:7746   */\n          iszero\n          tag_140\n          jumpi\n            /* \"#utility.yul\":7631:7640   */\n          dup5\n            /* \"#utility.yul\":7626:7629   */\n          dup10\n            /* \"#utility.yul\":7622:7641   */\n          add\n            /* \"#utility.yul\":7616:7642   */\n          mload\n            /* \"#utility.yul\":7608:7614   */\n          dup3\n            /* \"#utility.yul\":7601:7643   */\n          sstore\n            /* \"#utility.yul\":7682:7683   */\n          0x01\n            /* \"#utility.yul\":7674:7680   */\n          dup3\n            /* \"#utility.yul\":7670:7684   */\n          add\n            /* \"#utility.yul\":7660:7684   */\n          swap2\n          pop\n            /* \"#utility.yul\":7729:7731   */\n          0x20\n            /* \"#utility.yul\":7718:7727   */\n          dup6\n            /* \"#utility.yul\":7714:7732   */\n          add\n            /* \"#utility.yul\":7701:7732   */\n          swap5\n          pop\n            /* \"#utility.yul\":7575:7579   */\n          0x20\n            /* \"#utility.yul\":7572:7573   */\n          dup2\n            /* \"#utility.yul\":7568:7580   */\n          add\n            /* \"#utility.yul\":7563:7580   */\n          swap1\n          pop\n            /* \"#utility.yul\":7538:7746   */\n          jump(tag_138)\n        tag_140:\n            /* \"#utility.yul\":7774:7780   */\n          dup7\n            /* \"#utility.yul\":7765:7772   */\n          dup4\n            /* \"#utility.yul\":7762:7781   */\n          lt\n            /* \"#utility.yul\":7759:7938   */\n          iszero\n          tag_141\n          jumpi\n            /* \"#utility.yul\":7832:7841   */\n          dup5\n            /* \"#utility.yul\":7827:7830   */\n          dup10\n            /* \"#utility.yul\":7823:7842   */\n          add\n            /* \"#utility.yul\":7817:7843   */\n          mload\n            /* \"#utility.yul\":7875:7923   */\n          tag_142\n            /* \"#utility.yul\":7917:7921   */\n          0x1f\n            /* \"#utility.yul\":7909:7915   */\n          dup10\n            /* \"#utility.yul\":7905:7922   */\n          and\n            /* \"#utility.yul\":7894:7903   */\n          dup3\n            /* \"#utility.yul\":7875:7923   */\n          tag_42\n          jump\t// in\n        tag_142:\n            /* \"#utility.yul\":7867:7873   */\n          dup4\n            /* \"#utility.yul\":7860:7924   */\n          sstore\n            /* \"#utility.yul\":7782:7938   */\n          pop\n            /* \"#utility.yul\":7759:7938   */\n        tag_141:\n            /* \"#utility.yul\":7984:7985   */\n          0x01\n            /* \"#utility.yul\":7980:7981   */\n          0x02\n            /* \"#utility.yul\":7972:7978   */\n          dup9\n            /* \"#utility.yul\":7968:7982   */\n          mul\n            /* \"#utility.yul\":7964:7986   */\n          add\n            /* \"#utility.yul\":7958:7962   */\n          dup9\n            /* \"#utility.yul\":7951:7987   */\n          sstore\n            /* \"#utility.yul\":7386:7997   */\n          pop\n          pop\n          pop\n            /* \"#utility.yul\":7349:8236   */\n        tag_133:\n          pop\n            /* \"#utility.yul\":6939:8242   */\n          pop\n          pop\n          pop\n            /* \"#utility.yul\":6847:8242   */\n          pop\n          pop\n          jump\t// out\n            /* \"#utility.yul\":8248:8428   */\n        tag_10:\n            /* \"#utility.yul\":8296:8373   */\n          0x4e487b7100000000000000000000000000000000000000000000000000000000\n            /* \"#utility.yul\":8293:8294   */\n          0x00\n            /* \"#utility.yul\":8286:8374   */\n          mstore\n            /* \"#utility.yul\":8393:8397   */\n          0x21\n            /* \"#utility.yul\":8390:8391   */\n          0x04\n            /* \"#utility.yul\":8383:8398   */\n          mstore\n            /* \"#utility.yul\":8417:8421   */\n          0x24\n            /* \"#utility.yul\":8414:8415   */\n          0x00\n            /* \"#utility.yul\":8407:8422   */\n          revert\n            /* \"Users/michael/Documents/dev/e-community-platform/in-progress/consent-management/src/blockchain/smart_contracts/contracts/ConsentContract.sol\":144:6998  contract ConsentContract {... */\n        tag_11:\n          dataSize(sub_0)\n          dup1\n          dataOffset(sub_0)\n          0x00\n          codecopy\n          0x00\n          return\n        stop\n\n        sub_0: assembly {\n                /* \"Users/michael/Documents/dev/e-community-platform/in-progress/consent-management/src/blockchain/smart_contracts/contracts/ConsentContract.sol\":144:6998  contract ConsentContract {... */\n              mstore(0x40, 0x80)\n              jumpi(tag_1, lt(calldatasize, 0x04))\n              shr(0xe0, calldataload(0x00))\n              dup1\n              0x91f30bd4\n              gt\n              tag_13\n              jumpi\n              dup1\n              0x91f30bd4\n              eq\n              tag_7\n              jumpi\n              dup1\n              0x9dfc9117\n              eq\n              tag_8\n              jumpi\n              dup1\n              0xa8e4fb90\n              eq\n              tag_9\n              jumpi\n              dup1\n              0xd0e30db0\n              eq\n              tag_10\n              jumpi\n              dup1\n              0xe74071b4\n              eq\n              tag_11\n              jumpi\n              dup1\n              0xff4c4d54\n              eq\n              tag_12\n              jumpi\n              jump(tag_1)\n            tag_13:\n              dup1\n              0x1865c57d\n              eq\n              tag_2\n              jumpi\n              dup1\n              0x3ccfd60b\n              eq\n              tag_3\n              jumpi\n              dup1\n              0x509c2222\n              eq\n              tag_4\n              jumpi\n              dup1\n              0x79e93bf8\n              eq\n              tag_5\n              jumpi\n              dup1\n              0x7c8dc575\n              eq\n              tag_6\n              jumpi\n            tag_1:\n              0x00\n              dup1\n              revert\n                /* \"Users/michael/Documents/dev/e-community-platform/in-progress/consent-management/src/blockchain/smart_contracts/contracts/ConsentContract.sol\":6150:6499  function getState() public returns(STATE) {... */\n            tag_2:\n              callvalue\n              dup1\n              iszero\n              tag_14\n              jumpi\n              0x00\n              dup1\n              revert\n            tag_14:\n              pop\n              tag_15\n              tag_16\n              jump\t// in\n            tag_15:\n              mload(0x40)\n              tag_17\n              swap2\n              swap1\n              tag_18\n              jump\t// in\n            tag_17:\n              mload(0x40)\n              dup1\n              swap2\n              sub\n              swap1\n              return\n                /* \"Users/michael/Documents/dev/e-community-platform/in-progress/consent-management/src/blockchain/smart_contracts/contracts/ConsentContract.sol\":5572:5917  function withdraw() public onlyConsenter {... */\n            tag_3:\n              callvalue\n              dup1\n              iszero\n              tag_19\n              jumpi\n              0x00\n              dup1\n              revert\n            tag_19:\n              pop\n              tag_20\n              tag_21\n              jump\t// in\n            tag_20:\n              stop\n                /* \"Users/michael/Documents/dev/e-community-platform/in-progress/consent-management/src/blockchain/smart_contracts/contracts/ConsentContract.sol\":3101:3761  function setContractDetails(... */\n            tag_4:\n              callvalue\n              dup1\n              iszero\n              tag_22\n              jumpi\n              0x00\n              dup1\n              revert\n            tag_22:\n              pop\n              tag_23\n              0x04\n              dup1\n              calldatasize\n              sub\n              dup2\n              add\n              swap1\n              tag_24\n              swap2\n              swap1\n              tag_25\n              jump\t// in\n            tag_24:\n              tag_26\n              jump\t// in\n            tag_23:\n              stop\n                /* \"Users/michael/Documents/dev/e-community-platform/in-progress/consent-management/src/blockchain/smart_contracts/contracts/ConsentContract.sol\":4000:4449  function signContract(address _sender) public bothParties {... */\n            tag_5:\n              callvalue\n              dup1\n              iszero\n              tag_27\n              jumpi\n              0x00\n              dup1\n              revert\n            tag_27:\n              pop\n              tag_28\n              0x04\n              dup1\n              calldatasize\n              sub\n              dup2\n              add\n              swap1\n              tag_29\n              swap2\n              swap1\n              tag_30\n              jump\t// in\n            tag_29:\n              tag_31\n              jump\t// in\n            tag_28:\n              stop\n                /* \"Users/michael/Documents/dev/e-community-platform/in-progress/consent-management/src/blockchain/smart_contracts/contracts/ConsentContract.sol\":4652:4754  function rejectConsent() public onlyConsenter {... */\n            tag_6:\n              callvalue\n              dup1\n              iszero\n              tag_32\n              jumpi\n              0x00\n              dup1\n              revert\n            tag_32:\n              pop\n              tag_33\n              tag_34\n              jump\t// in\n            tag_33:\n              stop\n                /* \"Users/michael/Documents/dev/e-community-platform/in-progress/consent-management/src/blockchain/smart_contracts/contracts/ConsentContract.sol\":943:967  string public contractID */\n            tag_7:\n              callvalue\n              dup1\n              iszero\n              tag_35\n              jumpi\n              0x00\n              dup1\n              revert\n            tag_35:\n              pop\n              tag_36\n              tag_37\n              jump\t// in\n            tag_36:\n              mload(0x40)\n              tag_38\n              swap2\n              swap1\n              tag_39\n              jump\t// in\n            tag_38:\n              mload(0x40)\n              dup1\n              swap2\n              sub\n              swap1\n              return\n                /* \"Users/michael/Documents/dev/e-community-platform/in-progress/consent-management/src/blockchain/smart_contracts/contracts/ConsentContract.sol\":1830:2421  function getContractDetails() public view returns(address, address, ... */\n            tag_8:\n              callvalue\n              dup1\n              iszero\n              tag_40\n              jumpi\n              0x00\n              dup1\n              revert\n            tag_40:\n              pop\n              tag_41\n              tag_42\n              jump\t// in\n            tag_41:\n              mload(0x40)\n              tag_43\n              swap12\n              swap11\n              swap10\n              swap9\n              swap8\n              swap7\n              swap6\n              swap5\n              swap4\n              swap3\n              swap2\n              swap1\n              tag_44\n              jump\t// in\n            tag_43:\n              mload(0x40)\n              dup1\n              swap2\n              sub\n              swap1\n              return\n                /* \"Users/michael/Documents/dev/e-community-platform/in-progress/consent-management/src/blockchain/smart_contracts/contracts/ConsentContract.sol\":973:996  address public proposer */\n            tag_9:\n              callvalue\n              dup1\n              iszero\n              tag_45\n              jumpi\n              0x00\n              dup1\n              revert\n            tag_45:\n              pop\n              tag_46\n              tag_47\n              jump\t// in\n            tag_46:\n              mload(0x40)\n              tag_48\n              swap2\n              swap1\n              tag_49\n              jump\t// in\n            tag_48:\n              mload(0x40)\n              dup1\n              swap2\n              sub\n              swap1\n              return\n                /* \"Users/michael/Documents/dev/e-community-platform/in-progress/consent-management/src/blockchain/smart_contracts/contracts/ConsentContract.sol\":5038:5357  function deposit() public payable onlyOwner {... */\n            tag_10:\n              tag_50\n              tag_51\n              jump\t// in\n            tag_50:\n              stop\n                /* \"Users/michael/Documents/dev/e-community-platform/in-progress/consent-management/src/blockchain/smart_contracts/contracts/ConsentContract.sol\":1057:1081  address public consenter */\n            tag_11:\n              callvalue\n              dup1\n              iszero\n              tag_52\n              jumpi\n              0x00\n              dup1\n              revert\n            tag_52:\n              pop\n              tag_53\n              tag_54\n              jump\t// in\n            tag_53:\n              mload(0x40)\n              tag_55\n              swap2\n              swap1\n              tag_49\n              jump\t// in\n            tag_55:\n              mload(0x40)\n              dup1\n              swap2\n              sub\n              swap1\n              return\n                /* \"Users/michael/Documents/dev/e-community-platform/in-progress/consent-management/src/blockchain/smart_contracts/contracts/ConsentContract.sol\":4504:4603  function revokeConsent() public bothParties {... */\n            tag_12:\n              callvalue\n              dup1\n              iszero\n              tag_56\n              jumpi\n              0x00\n              dup1\n              revert\n            tag_56:\n              pop\n              tag_57\n              tag_58\n              jump\t// in\n            tag_57:\n              stop\n                /* \"Users/michael/Documents/dev/e-community-platform/in-progress/consent-management/src/blockchain/smart_contracts/contracts/ConsentContract.sol\":6150:6499  function getState() public returns(STATE) {... */\n            tag_16:\n                /* \"Users/michael/Documents/dev/e-community-platform/in-progress/consent-management/src/blockchain/smart_contracts/contracts/ConsentContract.sol\":6185:6190  STATE */\n              0x00\n                /* \"Users/michael/Documents/dev/e-community-platform/in-progress/consent-management/src/blockchain/smart_contracts/contracts/ConsentContract.sol\":6295:6316  STATE.CONTRACT_ACTIVE */\n              0x02\n                /* \"Users/michael/Documents/dev/e-community-platform/in-progress/consent-management/src/blockchain/smart_contracts/contracts/ConsentContract.sol\":6278:6316  contractState == STATE.CONTRACT_ACTIVE */\n              0x07\n              dup2\n              gt\n              iszero\n              tag_60\n              jumpi\n              tag_61\n              tag_62\n              jump\t// in\n            tag_61:\n            tag_60:\n                /* \"Users/michael/Documents/dev/e-community-platform/in-progress/consent-management/src/blockchain/smart_contracts/contracts/ConsentContract.sol\":6278:6291  contractState */\n              0x0b\n              0x00\n              swap1\n              sload\n              swap1\n              0x0100\n              exp\n              swap1\n              div\n              0xff\n              and\n                /* \"Users/michael/Documents/dev/e-community-platform/in-progress/consent-management/src/blockchain/smart_contracts/contracts/ConsentContract.sol\":6278:6316  contractState == STATE.CONTRACT_ACTIVE */\n              0x07\n              dup2\n              gt\n              iszero\n              tag_63\n              jumpi\n              tag_64\n              tag_62\n              jump\t// in\n            tag_64:\n            tag_63:\n              sub\n                /* \"Users/michael/Documents/dev/e-community-platform/in-progress/consent-management/src/blockchain/smart_contracts/contracts/ConsentContract.sol\":6274:6454  if (contractState == STATE.CONTRACT_ACTIVE) {... */\n              tag_65\n              jumpi\n                /* \"Users/michael/Documents/dev/e-community-platform/in-progress/consent-management/src/blockchain/smart_contracts/contracts/ConsentContract.sol\":6354:6372  validityOfContract */\n              sload(0x05)\n                /* \"Users/michael/Documents/dev/e-community-platform/in-progress/consent-management/src/blockchain/smart_contracts/contracts/ConsentContract.sol\":6336:6351  block.timestamp */\n              timestamp\n                /* \"Users/michael/Documents/dev/e-community-platform/in-progress/consent-management/src/blockchain/smart_contracts/contracts/ConsentContract.sol\":6336:6372  block.timestamp > validityOfContract */\n              gt\n                /* \"Users/michael/Documents/dev/e-community-platform/in-progress/consent-management/src/blockchain/smart_contracts/contracts/ConsentContract.sol\":6332:6444  if (block.timestamp > validityOfContract) {... */\n              iszero\n              tag_66\n              jumpi\n                /* \"Users/michael/Documents/dev/e-community-platform/in-progress/consent-management/src/blockchain/smart_contracts/contracts/ConsentContract.sol\":6408:6429  STATE.CONTRACT_CLOSED */\n              0x07\n                /* \"Users/michael/Documents/dev/e-community-platform/in-progress/consent-management/src/blockchain/smart_contracts/contracts/ConsentContract.sol\":6392:6405  contractState */\n              0x0b\n              0x00\n                /* \"Users/michael/Documents/dev/e-community-platform/in-progress/consent-management/src/blockchain/smart_contracts/contracts/ConsentContract.sol\":6392:6429  contractState = STATE.CONTRACT_CLOSED */\n              0x0100\n              exp\n              dup2\n              sload\n              dup2\n              0xff\n              mul\n              not\n              and\n              swap1\n              dup4\n              0x07\n              dup2\n              gt\n              iszero\n              tag_67\n              jumpi\n              tag_68\n              tag_62\n              jump\t// in\n            tag_68:\n            tag_67:\n              mul\n              or\n              swap1\n              sstore\n              pop\n                /* \"Users/michael/Documents/dev/e-community-platform/in-progress/consent-management/src/blockchain/smart_contracts/contracts/ConsentContract.sol\":6332:6444  if (block.timestamp > validityOfContract) {... */\n            tag_66:\n                /* \"Users/michael/Documents/dev/e-community-platform/in-progress/consent-management/src/blockchain/smart_contracts/contracts/ConsentContract.sol\":6274:6454  if (contractState == STATE.CONTRACT_ACTIVE) {... */\n            tag_65:\n                /* \"Users/michael/Documents/dev/e-community-platform/in-progress/consent-management/src/blockchain/smart_contracts/contracts/ConsentContract.sol\":6479:6492  contractState */\n              0x0b\n              0x00\n              swap1\n              sload\n              swap1\n              0x0100\n              exp\n              swap1\n              div\n              0xff\n              and\n                /* \"Users/michael/Documents/dev/e-community-platform/in-progress/consent-management/src/blockchain/smart_contracts/contracts/ConsentContract.sol\":6472:6492  return contractState */\n              swap1\n              pop\n                /* \"Users/michael/Documents/dev/e-community-platform/in-progress/consent-management/src/blockchain/smart_contracts/contracts/ConsentContract.sol\":6150:6499  function getState() public returns(STATE) {... */\n              swap1\n              jump\t// out\n                /* \"Users/michael/Documents/dev/e-community-platform/in-progress/consent-management/src/blockchain/smart_contracts/contracts/ConsentContract.sol\":5572:5917  function withdraw() public onlyConsenter {... */\n            tag_21:\n                /* \"Users/michael/Documents/dev/e-community-platform/in-progress/consent-management/src/blockchain/smart_contracts/contracts/ConsentContract.sol\":5648:5684  STATE.CONTRACT_ACTIVE_WITHDRAW_READY */\n              0x03\n                /* \"Users/michael/Documents/dev/e-community-platform/in-progress/consent-management/src/blockchain/smart_contracts/contracts/ConsentContract.sol\":5631:5684  contractState == STATE.CONTRACT_ACTIVE_WITHDRAW_READY */\n              0x07\n              dup2\n              gt\n              iszero\n              tag_71\n              jumpi\n              tag_72\n              tag_62\n              jump\t// in\n            tag_72:\n            tag_71:\n                /* \"Users/michael/Documents/dev/e-community-platform/in-progress/consent-management/src/blockchain/smart_contracts/contracts/ConsentContract.sol\":5631:5644  contractState */\n              0x0b\n              0x00\n              swap1\n              sload\n              swap1\n              0x0100\n              exp\n              swap1\n              div\n              0xff\n              and\n                /* \"Users/michael/Documents/dev/e-community-platform/in-progress/consent-management/src/blockchain/smart_contracts/contracts/ConsentContract.sol\":5631:5684  contractState == STATE.CONTRACT_ACTIVE_WITHDRAW_READY */\n              0x07\n              dup2\n              gt\n              iszero\n              tag_73\n              jumpi\n              tag_74\n              tag_62\n              jump\t// in\n            tag_74:\n            tag_73:\n              eq\n                /* \"Users/michael/Documents/dev/e-community-platform/in-progress/consent-management/src/blockchain/smart_contracts/contracts/ConsentContract.sol\":5623:5740  require(contractState == STATE.CONTRACT_ACTIVE_WITHDRAW_READY, \"Nothing withdraw, consenter needs to send ETH first\") */\n              tag_75\n              jumpi\n              mload(0x40)\n              0x08c379a000000000000000000000000000000000000000000000000000000000\n              dup2\n              mstore\n              0x04\n              add\n              tag_76\n              swap1\n              tag_77\n              jump\t// in\n            tag_76:\n              mload(0x40)\n              dup1\n              swap2\n              sub\n              swap1\n              revert\n            tag_75:\n                /* \"Users/michael/Documents/dev/e-community-platform/in-progress/consent-management/src/blockchain/smart_contracts/contracts/ConsentContract.sol\":5831:5840  consenter */\n              0x02\n              0x00\n              swap1\n              sload\n              swap1\n              0x0100\n              exp\n              swap1\n              div\n              0xffffffffffffffffffffffffffffffffffffffff\n              and\n                /* \"Users/michael/Documents/dev/e-community-platform/in-progress/consent-management/src/blockchain/smart_contracts/contracts/ConsentContract.sol\":5823:5850  payable(consenter).transfer */\n              0xffffffffffffffffffffffffffffffffffffffff\n              and\n                /* \"Users/michael/Documents/dev/e-community-platform/in-progress/consent-management/src/blockchain/smart_contracts/contracts/ConsentContract.sol\":5823:5862  payable(consenter).transfer(totalPrice) */\n              0x08fc\n                /* \"Users/michael/Documents/dev/e-community-platform/in-progress/consent-management/src/blockchain/smart_contracts/contracts/ConsentContract.sol\":5851:5861  totalPrice */\n              sload(0x07)\n                /* \"Users/michael/Documents/dev/e-community-platform/in-progress/consent-management/src/blockchain/smart_contracts/contracts/ConsentContract.sol\":5823:5862  payable(consenter).transfer(totalPrice) */\n              swap1\n              dup2\n              iszero\n              mul\n              swap1\n              mload(0x40)\n              0x00\n              mload(0x40)\n              dup1\n              dup4\n              sub\n              dup2\n              dup6\n              dup9\n              dup9\n              call\n              swap4\n              pop\n              pop\n              pop\n              pop\n              iszero\n              dup1\n              iszero\n              tag_79\n              jumpi\n              returndatasize\n              0x00\n              dup1\n              returndatacopy\n              revert(0x00, returndatasize)\n            tag_79:\n              pop\n                /* \"Users/michael/Documents/dev/e-community-platform/in-progress/consent-management/src/blockchain/smart_contracts/contracts/ConsentContract.sol\":5889:5910  STATE.CONTRACT_ACTIVE */\n              0x02\n                /* \"Users/michael/Documents/dev/e-community-platform/in-progress/consent-management/src/blockchain/smart_contracts/contracts/ConsentContract.sol\":5873:5886  contractState */\n              0x0b\n              0x00\n                /* \"Users/michael/Documents/dev/e-community-platform/in-progress/consent-management/src/blockchain/smart_contracts/contracts/ConsentContract.sol\":5873:5910  contractState = STATE.CONTRACT_ACTIVE */\n              0x0100\n              exp\n              dup2\n              sload\n              dup2\n              0xff\n              mul\n              not\n              and\n              swap1\n              dup4\n              0x07\n              dup2\n              gt\n              iszero\n              tag_80\n              jumpi\n              tag_81\n              tag_62\n              jump\t// in\n            tag_81:\n            tag_80:\n              mul\n              or\n              swap1\n              sstore\n              pop\n                /* \"Users/michael/Documents/dev/e-community-platform/in-progress/consent-management/src/blockchain/smart_contracts/contracts/ConsentContract.sol\":5572:5917  function withdraw() public onlyConsenter {... */\n              jump\t// out\n                /* \"Users/michael/Documents/dev/e-community-platform/in-progress/consent-management/src/blockchain/smart_contracts/contracts/ConsentContract.sol\":3101:3761  function setContractDetails(... */\n            tag_26:\n                /* \"Users/michael/Documents/dev/e-community-platform/in-progress/consent-management/src/blockchain/smart_contracts/contracts/ConsentContract.sol\":3433:3442  _proposer */\n              dup9\n                /* \"Users/michael/Documents/dev/e-community-platform/in-progress/consent-management/src/blockchain/smart_contracts/contracts/ConsentContract.sol\":3422:3430  proposer */\n              0x01\n              0x00\n                /* \"Users/michael/Documents/dev/e-community-platform/in-progress/consent-management/src/blockchain/smart_contracts/contracts/ConsentContract.sol\":3422:3442  proposer = _proposer */\n              0x0100\n              exp\n              dup2\n              sload\n              dup2\n              0xffffffffffffffffffffffffffffffffffffffff\n              mul\n              not\n              and\n              swap1\n              dup4\n              0xffffffffffffffffffffffffffffffffffffffff\n              and\n              mul\n              or\n              swap1\n              sstore\n              pop\n                /* \"Users/michael/Documents/dev/e-community-platform/in-progress/consent-management/src/blockchain/smart_contracts/contracts/ConsentContract.sol\":3464:3474  _consenter */\n              dup8\n                /* \"Users/michael/Documents/dev/e-community-platform/in-progress/consent-management/src/blockchain/smart_contracts/contracts/ConsentContract.sol\":3452:3461  consenter */\n              0x02\n              0x00\n                /* \"Users/michael/Documents/dev/e-community-platform/in-progress/consent-management/src/blockchain/smart_contracts/contracts/ConsentContract.sol\":3452:3474  consenter = _consenter */\n              0x0100\n              exp\n              dup2\n              sload\n              dup2\n              0xffffffffffffffffffffffffffffffffffffffff\n              mul\n              not\n              and\n              swap1\n              dup4\n              0xffffffffffffffffffffffffffffffffffffffff\n              and\n              mul\n              or\n              swap1\n              sstore\n              pop\n                /* \"Users/michael/Documents/dev/e-community-platform/in-progress/consent-management/src/blockchain/smart_contracts/contracts/ConsentContract.sol\":3502:3518  _startEnergyData */\n              dup7\n                /* \"Users/michael/Documents/dev/e-community-platform/in-progress/consent-management/src/blockchain/smart_contracts/contracts/ConsentContract.sol\":3484:3499  startEnergyData */\n              0x03\n                /* \"Users/michael/Documents/dev/e-community-platform/in-progress/consent-management/src/blockchain/smart_contracts/contracts/ConsentContract.sol\":3484:3518  startEnergyData = _startEnergyData */\n              dup2\n              swap1\n              sstore\n              pop\n                /* \"Users/michael/Documents/dev/e-community-platform/in-progress/consent-management/src/blockchain/smart_contracts/contracts/ConsentContract.sol\":3544:3558  _endEnergyData */\n              dup6\n                /* \"Users/michael/Documents/dev/e-community-platform/in-progress/consent-management/src/blockchain/smart_contracts/contracts/ConsentContract.sol\":3528:3541  endEnergyData */\n              0x04\n                /* \"Users/michael/Documents/dev/e-community-platform/in-progress/consent-management/src/blockchain/smart_contracts/contracts/ConsentContract.sol\":3528:3558  endEnergyData = _endEnergyData */\n              dup2\n              swap1\n              sstore\n              pop\n                /* \"Users/michael/Documents/dev/e-community-platform/in-progress/consent-management/src/blockchain/smart_contracts/contracts/ConsentContract.sol\":3589:3608  _validityOfContract */\n              dup5\n                /* \"Users/michael/Documents/dev/e-community-platform/in-progress/consent-management/src/blockchain/smart_contracts/contracts/ConsentContract.sol\":3568:3586  validityOfContract */\n              0x05\n                /* \"Users/michael/Documents/dev/e-community-platform/in-progress/consent-management/src/blockchain/smart_contracts/contracts/ConsentContract.sol\":3568:3608  validityOfContract = _validityOfContract */\n              dup2\n              swap1\n              sstore\n              pop\n                /* \"Users/michael/Documents/dev/e-community-platform/in-progress/consent-management/src/blockchain/smart_contracts/contracts/ConsentContract.sol\":3633:3646  _pricePerHour */\n              dup4\n                /* \"Users/michael/Documents/dev/e-community-platform/in-progress/consent-management/src/blockchain/smart_contracts/contracts/ConsentContract.sol\":3618:3630  pricePerHour */\n              0x06\n                /* \"Users/michael/Documents/dev/e-community-platform/in-progress/consent-management/src/blockchain/smart_contracts/contracts/ConsentContract.sol\":3618:3646  pricePerHour = _pricePerHour */\n              dup2\n              swap1\n              sstore\n              pop\n                /* \"Users/michael/Documents/dev/e-community-platform/in-progress/consent-management/src/blockchain/smart_contracts/contracts/ConsentContract.sol\":3669:3680  _totalPrice */\n              dup3\n                /* \"Users/michael/Documents/dev/e-community-platform/in-progress/consent-management/src/blockchain/smart_contracts/contracts/ConsentContract.sol\":3656:3666  totalPrice */\n              0x07\n                /* \"Users/michael/Documents/dev/e-community-platform/in-progress/consent-management/src/blockchain/smart_contracts/contracts/ConsentContract.sol\":3656:3680  totalPrice = _totalPrice */\n              dup2\n              swap1\n              sstore\n              pop\n                /* \"Users/michael/Documents/dev/e-community-platform/in-progress/consent-management/src/blockchain/smart_contracts/contracts/ConsentContract.sol\":3702:3712  _dataUsage */\n              dup2\n                /* \"Users/michael/Documents/dev/e-community-platform/in-progress/consent-management/src/blockchain/smart_contracts/contracts/ConsentContract.sol\":3690:3699  dataUsage */\n              0x08\n                /* \"Users/michael/Documents/dev/e-community-platform/in-progress/consent-management/src/blockchain/smart_contracts/contracts/ConsentContract.sol\":3690:3712  dataUsage = _dataUsage */\n              dup2\n              swap1\n              sstore\n              pop\n                /* \"Users/michael/Documents/dev/e-community-platform/in-progress/consent-management/src/blockchain/smart_contracts/contracts/ConsentContract.sol\":3739:3754  _timeResolution */\n              dup1\n                /* \"Users/michael/Documents/dev/e-community-platform/in-progress/consent-management/src/blockchain/smart_contracts/contracts/ConsentContract.sol\":3722:3736  timeResolution */\n              0x09\n                /* \"Users/michael/Documents/dev/e-community-platform/in-progress/consent-management/src/blockchain/smart_contracts/contracts/ConsentContract.sol\":3722:3754  timeResolution = _timeResolution */\n              dup2\n              swap1\n              sstore\n              pop\n                /* \"Users/michael/Documents/dev/e-community-platform/in-progress/consent-management/src/blockchain/smart_contracts/contracts/ConsentContract.sol\":3101:3761  function setContractDetails(... */\n              pop\n              pop\n              pop\n              pop\n              pop\n              pop\n              pop\n              pop\n              pop\n              jump\t// out\n                /* \"Users/michael/Documents/dev/e-community-platform/in-progress/consent-management/src/blockchain/smart_contracts/contracts/ConsentContract.sol\":4000:4449  function signContract(address _sender) public bothParties {... */\n            tag_31:\n                /* \"Users/michael/Documents/dev/e-community-platform/in-progress/consent-management/src/blockchain/smart_contracts/contracts/ConsentContract.sol\":4083:4091  proposer */\n              0x01\n              0x00\n              swap1\n              sload\n              swap1\n              0x0100\n              exp\n              swap1\n              div\n              0xffffffffffffffffffffffffffffffffffffffff\n              and\n                /* \"Users/michael/Documents/dev/e-community-platform/in-progress/consent-management/src/blockchain/smart_contracts/contracts/ConsentContract.sol\":4072:4091  _sender == proposer */\n              0xffffffffffffffffffffffffffffffffffffffff\n              and\n                /* \"Users/michael/Documents/dev/e-community-platform/in-progress/consent-management/src/blockchain/smart_contracts/contracts/ConsentContract.sol\":4072:4079  _sender */\n              dup2\n                /* \"Users/michael/Documents/dev/e-community-platform/in-progress/consent-management/src/blockchain/smart_contracts/contracts/ConsentContract.sol\":4072:4091  _sender == proposer */\n              0xffffffffffffffffffffffffffffffffffffffff\n              and\n              sub\n                /* \"Users/michael/Documents/dev/e-community-platform/in-progress/consent-management/src/blockchain/smart_contracts/contracts/ConsentContract.sol\":4068:4205  if (_sender == proposer) { ... */\n              tag_86\n              jumpi\n                /* \"Users/michael/Documents/dev/e-community-platform/in-progress/consent-management/src/blockchain/smart_contracts/contracts/ConsentContract.sol\":4137:4141  true */\n              0x01\n                /* \"Users/michael/Documents/dev/e-community-platform/in-progress/consent-management/src/blockchain/smart_contracts/contracts/ConsentContract.sol\":4108:4117  signature */\n              0x0a\n                /* \"Users/michael/Documents/dev/e-community-platform/in-progress/consent-management/src/blockchain/smart_contracts/contracts/ConsentContract.sol\":4108:4134  signature.signedByProposer */\n              0x00\n              add\n              0x00\n                /* \"Users/michael/Documents/dev/e-community-platform/in-progress/consent-management/src/blockchain/smart_contracts/contracts/ConsentContract.sol\":4108:4141  signature.signedByProposer = true */\n              0x0100\n              exp\n              dup2\n              sload\n              dup2\n              0xff\n              mul\n              not\n              and\n              swap1\n              dup4\n              iszero\n              iszero\n              mul\n              or\n              swap1\n              sstore\n              pop\n                /* \"Users/michael/Documents/dev/e-community-platform/in-progress/consent-management/src/blockchain/smart_contracts/contracts/ConsentContract.sol\":4172:4194  STATE.CONTRACT_PENDING */\n              0x01\n                /* \"Users/michael/Documents/dev/e-community-platform/in-progress/consent-management/src/blockchain/smart_contracts/contracts/ConsentContract.sol\":4156:4169  contractState */\n              0x0b\n              0x00\n                /* \"Users/michael/Documents/dev/e-community-platform/in-progress/consent-management/src/blockchain/smart_contracts/contracts/ConsentContract.sol\":4156:4194  contractState = STATE.CONTRACT_PENDING */\n              0x0100\n              exp\n              dup2\n              sload\n              dup2\n              0xff\n              mul\n              not\n              and\n              swap1\n              dup4\n              0x07\n              dup2\n              gt\n              iszero\n              tag_87\n              jumpi\n              tag_88\n              tag_62\n              jump\t// in\n            tag_88:\n            tag_87:\n              mul\n              or\n              swap1\n              sstore\n              pop\n                /* \"Users/michael/Documents/dev/e-community-platform/in-progress/consent-management/src/blockchain/smart_contracts/contracts/ConsentContract.sol\":4068:4205  if (_sender == proposer) { ... */\n            tag_86:\n                /* \"Users/michael/Documents/dev/e-community-platform/in-progress/consent-management/src/blockchain/smart_contracts/contracts/ConsentContract.sol\":4229:4238  consenter */\n              0x02\n              0x00\n              swap1\n              sload\n              swap1\n              0x0100\n              exp\n              swap1\n              div\n              0xffffffffffffffffffffffffffffffffffffffff\n              and\n                /* \"Users/michael/Documents/dev/e-community-platform/in-progress/consent-management/src/blockchain/smart_contracts/contracts/ConsentContract.sol\":4218:4238  _sender == consenter */\n              0xffffffffffffffffffffffffffffffffffffffff\n              and\n                /* \"Users/michael/Documents/dev/e-community-platform/in-progress/consent-management/src/blockchain/smart_contracts/contracts/ConsentContract.sol\":4218:4225  _sender */\n              dup2\n                /* \"Users/michael/Documents/dev/e-community-platform/in-progress/consent-management/src/blockchain/smart_contracts/contracts/ConsentContract.sol\":4218:4238  _sender == consenter */\n              0xffffffffffffffffffffffffffffffffffffffff\n              and\n              sub\n                /* \"Users/michael/Documents/dev/e-community-platform/in-progress/consent-management/src/blockchain/smart_contracts/contracts/ConsentContract.sol\":4214:4299  if (_sender == consenter) {... */\n              tag_89\n              jumpi\n                /* \"Users/michael/Documents/dev/e-community-platform/in-progress/consent-management/src/blockchain/smart_contracts/contracts/ConsentContract.sol\":4284:4288  true */\n              0x01\n                /* \"Users/michael/Documents/dev/e-community-platform/in-progress/consent-management/src/blockchain/smart_contracts/contracts/ConsentContract.sol\":4254:4263  signature */\n              0x0a\n                /* \"Users/michael/Documents/dev/e-community-platform/in-progress/consent-management/src/blockchain/smart_contracts/contracts/ConsentContract.sol\":4254:4281  signature.signedByConsenter */\n              0x00\n              add\n              0x01\n                /* \"Users/michael/Documents/dev/e-community-platform/in-progress/consent-management/src/blockchain/smart_contracts/contracts/ConsentContract.sol\":4254:4288  signature.signedByConsenter = true */\n              0x0100\n              exp\n              dup2\n              sload\n              dup2\n              0xff\n              mul\n              not\n              and\n              swap1\n              dup4\n              iszero\n              iszero\n              mul\n              or\n              swap1\n              sstore\n              pop\n                /* \"Users/michael/Documents/dev/e-community-platform/in-progress/consent-management/src/blockchain/smart_contracts/contracts/ConsentContract.sol\":4214:4299  if (_sender == consenter) {... */\n            tag_89:\n                /* \"Users/michael/Documents/dev/e-community-platform/in-progress/consent-management/src/blockchain/smart_contracts/contracts/ConsentContract.sol\":4313:4322  signature */\n              0x0a\n                /* \"Users/michael/Documents/dev/e-community-platform/in-progress/consent-management/src/blockchain/smart_contracts/contracts/ConsentContract.sol\":4313:4339  signature.signedByProposer */\n              0x00\n              add\n              0x00\n              swap1\n              sload\n              swap1\n              0x0100\n              exp\n              swap1\n              div\n              0xff\n              and\n                /* \"Users/michael/Documents/dev/e-community-platform/in-progress/consent-management/src/blockchain/smart_contracts/contracts/ConsentContract.sol\":4313:4370  signature.signedByProposer && signature.signedByConsenter */\n              dup1\n              iszero\n              tag_90\n              jumpi\n              pop\n                /* \"Users/michael/Documents/dev/e-community-platform/in-progress/consent-management/src/blockchain/smart_contracts/contracts/ConsentContract.sol\":4343:4352  signature */\n              0x0a\n                /* \"Users/michael/Documents/dev/e-community-platform/in-progress/consent-management/src/blockchain/smart_contracts/contracts/ConsentContract.sol\":4343:4370  signature.signedByConsenter */\n              0x00\n              add\n              0x01\n              swap1\n              sload\n              swap1\n              0x0100\n              exp\n              swap1\n              div\n              0xff\n              and\n                /* \"Users/michael/Documents/dev/e-community-platform/in-progress/consent-management/src/blockchain/smart_contracts/contracts/ConsentContract.sol\":4313:4370  signature.signedByProposer && signature.signedByConsenter */\n            tag_90:\n                /* \"Users/michael/Documents/dev/e-community-platform/in-progress/consent-management/src/blockchain/smart_contracts/contracts/ConsentContract.sol\":4309:4443  if (signature.signedByProposer && signature.signedByConsenter) {... */\n              iszero\n              tag_91\n              jumpi\n                /* \"Users/michael/Documents/dev/e-community-platform/in-progress/consent-management/src/blockchain/smart_contracts/contracts/ConsentContract.sol\":4402:4432  STATE.CONTRACT_PAYMENT_PENDING */\n              0x04\n                /* \"Users/michael/Documents/dev/e-community-platform/in-progress/consent-management/src/blockchain/smart_contracts/contracts/ConsentContract.sol\":4386:4399  contractState */\n              0x0b\n              0x00\n                /* \"Users/michael/Documents/dev/e-community-platform/in-progress/consent-management/src/blockchain/smart_contracts/contracts/ConsentContract.sol\":4386:4432  contractState = STATE.CONTRACT_PAYMENT_PENDING */\n              0x0100\n              exp\n              dup2\n              sload\n              dup2\n              0xff\n              mul\n              not\n              and\n              swap1\n              dup4\n              0x07\n              dup2\n              gt\n              iszero\n              tag_92\n              jumpi\n              tag_93\n              tag_62\n              jump\t// in\n            tag_93:\n            tag_92:\n              mul\n              or\n              swap1\n              sstore\n              pop\n                /* \"Users/michael/Documents/dev/e-community-platform/in-progress/consent-management/src/blockchain/smart_contracts/contracts/ConsentContract.sol\":4309:4443  if (signature.signedByProposer && signature.signedByConsenter) {... */\n            tag_91:\n                /* \"Users/michael/Documents/dev/e-community-platform/in-progress/consent-management/src/blockchain/smart_contracts/contracts/ConsentContract.sol\":4000:4449  function signContract(address _sender) public bothParties {... */\n              pop\n              jump\t// out\n                /* \"Users/michael/Documents/dev/e-community-platform/in-progress/consent-management/src/blockchain/smart_contracts/contracts/ConsentContract.sol\":4652:4754  function rejectConsent() public onlyConsenter {... */\n            tag_34:\n                /* \"Users/michael/Documents/dev/e-community-platform/in-progress/consent-management/src/blockchain/smart_contracts/contracts/ConsentContract.sol\":4724:4747  STATE.CONTRACT_REJECTED */\n              0x05\n                /* \"Users/michael/Documents/dev/e-community-platform/in-progress/consent-management/src/blockchain/smart_contracts/contracts/ConsentContract.sol\":4708:4721  contractState */\n              0x0b\n              0x00\n                /* \"Users/michael/Documents/dev/e-community-platform/in-progress/consent-management/src/blockchain/smart_contracts/contracts/ConsentContract.sol\":4708:4747  contractState = STATE.CONTRACT_REJECTED */\n              0x0100\n              exp\n              dup2\n              sload\n              dup2\n              0xff\n              mul\n              not\n              and\n              swap1\n              dup4\n              0x07\n              dup2\n              gt\n              iszero\n              tag_96\n              jumpi\n              tag_97\n              tag_62\n              jump\t// in\n            tag_97:\n            tag_96:\n              mul\n              or\n              swap1\n              sstore\n              pop\n                /* \"Users/michael/Documents/dev/e-community-platform/in-progress/consent-management/src/blockchain/smart_contracts/contracts/ConsentContract.sol\":4652:4754  function rejectConsent() public onlyConsenter {... */\n              jump\t// out\n                /* \"Users/michael/Documents/dev/e-community-platform/in-progress/consent-management/src/blockchain/smart_contracts/contracts/ConsentContract.sol\":943:967  string public contractID */\n            tag_37:\n              0x00\n              dup1\n              sload\n              tag_98\n              swap1\n              tag_99\n              jump\t// in\n            tag_98:\n              dup1\n              0x1f\n              add\n              0x20\n              dup1\n              swap2\n              div\n              mul\n              0x20\n              add\n              mload(0x40)\n              swap1\n              dup2\n              add\n              0x40\n              mstore\n              dup1\n              swap3\n              swap2\n              swap1\n              dup2\n              dup2\n              mstore\n              0x20\n              add\n              dup3\n              dup1\n              sload\n              tag_100\n              swap1\n              tag_99\n              jump\t// in\n            tag_100:\n              dup1\n              iszero\n              tag_101\n              jumpi\n              dup1\n              0x1f\n              lt\n              tag_102\n              jumpi\n              0x0100\n              dup1\n              dup4\n              sload\n              div\n              mul\n              dup4\n              mstore\n              swap2\n              0x20\n              add\n              swap2\n              jump(tag_101)\n            tag_102:\n              dup3\n              add\n              swap2\n              swap1\n              0x00\n              mstore\n              keccak256(0x00, 0x20)\n              swap1\n            tag_103:\n              dup2\n              sload\n              dup2\n              mstore\n              swap1\n              0x01\n              add\n              swap1\n              0x20\n              add\n              dup1\n              dup4\n              gt\n              tag_103\n              jumpi\n              dup3\n              swap1\n              sub\n              0x1f\n              and\n              dup3\n              add\n              swap2\n            tag_101:\n              pop\n              pop\n              pop\n              pop\n              pop\n              dup2\n              jump\t// out\n                /* \"Users/michael/Documents/dev/e-community-platform/in-progress/consent-management/src/blockchain/smart_contracts/contracts/ConsentContract.sol\":1830:2421  function getContractDetails() public view returns(address, address, ... */\n            tag_42:\n                /* \"Users/michael/Documents/dev/e-community-platform/in-progress/consent-management/src/blockchain/smart_contracts/contracts/ConsentContract.sol\":1880:1887  address */\n              0x00\n                /* \"Users/michael/Documents/dev/e-community-platform/in-progress/consent-management/src/blockchain/smart_contracts/contracts/ConsentContract.sol\":1889:1896  address */\n              dup1\n                /* \"Users/michael/Documents/dev/e-community-platform/in-progress/consent-management/src/blockchain/smart_contracts/contracts/ConsentContract.sol\":1953:1966  string memory */\n              0x60\n                /* \"Users/michael/Documents/dev/e-community-platform/in-progress/consent-management/src/blockchain/smart_contracts/contracts/ConsentContract.sol\":1968:1972  uint */\n              0x00\n                /* \"Users/michael/Documents/dev/e-community-platform/in-progress/consent-management/src/blockchain/smart_contracts/contracts/ConsentContract.sol\":2029:2033  uint */\n              dup1\n                /* \"Users/michael/Documents/dev/e-community-platform/in-progress/consent-management/src/blockchain/smart_contracts/contracts/ConsentContract.sol\":2035:2039  uint */\n              0x00\n                /* \"Users/michael/Documents/dev/e-community-platform/in-progress/consent-management/src/blockchain/smart_contracts/contracts/ConsentContract.sol\":2041:2045  uint */\n              dup1\n                /* \"Users/michael/Documents/dev/e-community-platform/in-progress/consent-management/src/blockchain/smart_contracts/contracts/ConsentContract.sol\":2047:2051  uint */\n              0x00\n                /* \"Users/michael/Documents/dev/e-community-platform/in-progress/consent-management/src/blockchain/smart_contracts/contracts/ConsentContract.sol\":2053:2057  uint */\n              dup1\n                /* \"Users/michael/Documents/dev/e-community-platform/in-progress/consent-management/src/blockchain/smart_contracts/contracts/ConsentContract.sol\":2059:2063  uint */\n              0x00\n                /* \"Users/michael/Documents/dev/e-community-platform/in-progress/consent-management/src/blockchain/smart_contracts/contracts/ConsentContract.sol\":2065:2069  uint */\n              dup1\n                /* \"Users/michael/Documents/dev/e-community-platform/in-progress/consent-management/src/blockchain/smart_contracts/contracts/ConsentContract.sol\":2089:2097  proposer */\n              0x01\n              0x00\n              swap1\n              sload\n              swap1\n              0x0100\n              exp\n              swap1\n              div\n              0xffffffffffffffffffffffffffffffffffffffff\n              and\n                /* \"Users/michael/Documents/dev/e-community-platform/in-progress/consent-management/src/blockchain/smart_contracts/contracts/ConsentContract.sol\":2116:2125  consenter */\n              0x02\n              0x00\n              swap1\n              sload\n              swap1\n              0x0100\n              exp\n              swap1\n              div\n              0xffffffffffffffffffffffffffffffffffffffff\n              and\n                /* \"Users/michael/Documents/dev/e-community-platform/in-progress/consent-management/src/blockchain/smart_contracts/contracts/ConsentContract.sol\":2144:2154  contractID */\n              0x00\n                /* \"Users/michael/Documents/dev/e-community-platform/in-progress/consent-management/src/blockchain/smart_contracts/contracts/ConsentContract.sol\":2173:2188  startEnergyData */\n              sload(0x03)\n                /* \"Users/michael/Documents/dev/e-community-platform/in-progress/consent-management/src/blockchain/smart_contracts/contracts/ConsentContract.sol\":2207:2220  endEnergyData */\n              sload(0x04)\n                /* \"Users/michael/Documents/dev/e-community-platform/in-progress/consent-management/src/blockchain/smart_contracts/contracts/ConsentContract.sol\":2239:2257  validityOfContract */\n              sload(0x05)\n                /* \"Users/michael/Documents/dev/e-community-platform/in-progress/consent-management/src/blockchain/smart_contracts/contracts/ConsentContract.sol\":2276:2288  pricePerHour */\n              sload(0x06)\n                /* \"Users/michael/Documents/dev/e-community-platform/in-progress/consent-management/src/blockchain/smart_contracts/contracts/ConsentContract.sol\":2307:2317  totalPrice */\n              sload(0x07)\n                /* \"Users/michael/Documents/dev/e-community-platform/in-progress/consent-management/src/blockchain/smart_contracts/contracts/ConsentContract.sol\":2340:2353  contractState */\n              0x0b\n              0x00\n              swap1\n              sload\n              swap1\n              0x0100\n              exp\n              swap1\n              div\n              0xff\n              and\n                /* \"Users/michael/Documents/dev/e-community-platform/in-progress/consent-management/src/blockchain/smart_contracts/contracts/ConsentContract.sol\":2335:2354  uint(contractState) */\n              0x07\n              dup2\n              gt\n              iszero\n              tag_105\n              jumpi\n              tag_106\n              tag_62\n              jump\t// in\n            tag_106:\n            tag_105:\n                /* \"Users/michael/Documents/dev/e-community-platform/in-progress/consent-management/src/blockchain/smart_contracts/contracts/ConsentContract.sol\":2372:2381  dataUsage */\n              sload(0x08)\n                /* \"Users/michael/Documents/dev/e-community-platform/in-progress/consent-management/src/blockchain/smart_contracts/contracts/ConsentContract.sol\":2399:2413  timeResolution */\n              sload(0x09)\n                /* \"Users/michael/Documents/dev/e-community-platform/in-progress/consent-management/src/blockchain/smart_contracts/contracts/ConsentContract.sol\":2081:2414  return (proposer, ... */\n              dup9\n              dup1\n              sload\n              tag_107\n              swap1\n              tag_99\n              jump\t// in\n            tag_107:\n              dup1\n              0x1f\n              add\n              0x20\n              dup1\n              swap2\n              div\n              mul\n              0x20\n              add\n              mload(0x40)\n              swap1\n              dup2\n              add\n              0x40\n              mstore\n              dup1\n              swap3\n              swap2\n              swap1\n              dup2\n              dup2\n              mstore\n              0x20\n              add\n              dup3\n              dup1\n              sload\n              tag_108\n              swap1\n              tag_99\n              jump\t// in\n            tag_108:\n              dup1\n              iszero\n              tag_109\n              jumpi\n              dup1\n              0x1f\n              lt\n              tag_110\n              jumpi\n              0x0100\n              dup1\n              dup4\n              sload\n              div\n              mul\n              dup4\n              mstore\n              swap2\n              0x20\n              add\n              swap2\n              jump(tag_109)\n            tag_110:\n              dup3\n              add\n              swap2\n              swap1\n              0x00\n              mstore\n              keccak256(0x00, 0x20)\n              swap1\n            tag_111:\n              dup2\n              sload\n              dup2\n              mstore\n              swap1\n              0x01\n              add\n              swap1\n              0x20\n              add\n              dup1\n              dup4\n              gt\n              tag_111\n              jumpi\n              dup3\n              swap1\n              sub\n              0x1f\n              and\n              dup3\n              add\n              swap2\n            tag_109:\n              pop\n              pop\n              pop\n              pop\n              pop\n              swap9\n              pop\n              swap11\n              pop\n              swap11\n              pop\n              swap11\n              pop\n              swap11\n              pop\n              swap11\n              pop\n              swap11\n              pop\n              swap11\n              pop\n              swap11\n              pop\n              swap11\n              pop\n              swap11\n              pop\n              swap11\n              pop\n                /* \"Users/michael/Documents/dev/e-community-platform/in-progress/consent-management/src/blockchain/smart_contracts/contracts/ConsentContract.sol\":1830:2421  function getContractDetails() public view returns(address, address, ... */\n              swap1\n              swap2\n              swap3\n              swap4\n              swap5\n              swap6\n              swap7\n              swap8\n              swap9\n              swap10\n              swap11\n              jump\t// out\n                /* \"Users/michael/Documents/dev/e-community-platform/in-progress/consent-management/src/blockchain/smart_contracts/contracts/ConsentContract.sol\":973:996  address public proposer */\n            tag_47:\n              0x01\n              0x00\n              swap1\n              sload\n              swap1\n              0x0100\n              exp\n              swap1\n              div\n              0xffffffffffffffffffffffffffffffffffffffff\n              and\n              dup2\n              jump\t// out\n                /* \"Users/michael/Documents/dev/e-community-platform/in-progress/consent-management/src/blockchain/smart_contracts/contracts/ConsentContract.sol\":5038:5357  function deposit() public payable onlyOwner {... */\n            tag_51:\n                /* \"Users/michael/Documents/dev/e-community-platform/in-progress/consent-management/src/blockchain/smart_contracts/contracts/ConsentContract.sol\":5117:5147  STATE.CONTRACT_PAYMENT_PENDING */\n              0x04\n                /* \"Users/michael/Documents/dev/e-community-platform/in-progress/consent-management/src/blockchain/smart_contracts/contracts/ConsentContract.sol\":5100:5147  contractState == STATE.CONTRACT_PAYMENT_PENDING */\n              0x07\n              dup2\n              gt\n              iszero\n              tag_114\n              jumpi\n              tag_115\n              tag_62\n              jump\t// in\n            tag_115:\n            tag_114:\n                /* \"Users/michael/Documents/dev/e-community-platform/in-progress/consent-management/src/blockchain/smart_contracts/contracts/ConsentContract.sol\":5100:5113  contractState */\n              0x0b\n              0x00\n              swap1\n              sload\n              swap1\n              0x0100\n              exp\n              swap1\n              div\n              0xff\n              and\n                /* \"Users/michael/Documents/dev/e-community-platform/in-progress/consent-management/src/blockchain/smart_contracts/contracts/ConsentContract.sol\":5100:5147  contractState == STATE.CONTRACT_PAYMENT_PENDING */\n              0x07\n              dup2\n              gt\n              iszero\n              tag_116\n              jumpi\n              tag_117\n              tag_62\n              jump\t// in\n            tag_117:\n            tag_116:\n              eq\n                /* \"Users/michael/Documents/dev/e-community-platform/in-progress/consent-management/src/blockchain/smart_contracts/contracts/ConsentContract.sol\":5092:5196  require(contractState == STATE.CONTRACT_PAYMENT_PENDING, \"Contract need to be signed from both parties\") */\n              tag_118\n              jumpi\n              mload(0x40)\n              0x08c379a000000000000000000000000000000000000000000000000000000000\n              dup2\n              mstore\n              0x04\n              add\n              tag_119\n              swap1\n              tag_120\n              jump\t// in\n            tag_119:\n              mload(0x40)\n              dup1\n              swap2\n              sub\n              swap1\n              revert\n            tag_118:\n                /* \"Users/michael/Documents/dev/e-community-platform/in-progress/consent-management/src/blockchain/smart_contracts/contracts/ConsentContract.sol\":5227:5237  totalPrice */\n              sload(0x07)\n                /* \"Users/michael/Documents/dev/e-community-platform/in-progress/consent-management/src/blockchain/smart_contracts/contracts/ConsentContract.sol\":5214:5223  msg.value */\n              callvalue\n                /* \"Users/michael/Documents/dev/e-community-platform/in-progress/consent-management/src/blockchain/smart_contracts/contracts/ConsentContract.sol\":5214:5237  msg.value == totalPrice */\n              eq\n                /* \"Users/michael/Documents/dev/e-community-platform/in-progress/consent-management/src/blockchain/smart_contracts/contracts/ConsentContract.sol\":5206:5279  require(msg.value == totalPrice, \"You need to deposit the agreed price!\") */\n              tag_121\n              jumpi\n              mload(0x40)\n              0x08c379a000000000000000000000000000000000000000000000000000000000\n              dup2\n              mstore\n              0x04\n              add\n              tag_122\n              swap1\n              tag_123\n              jump\t// in\n            tag_122:\n              mload(0x40)\n              dup1\n              swap2\n              sub\n              swap1\n              revert\n            tag_121:\n                /* \"Users/michael/Documents/dev/e-community-platform/in-progress/consent-management/src/blockchain/smart_contracts/contracts/ConsentContract.sol\":5314:5350  STATE.CONTRACT_ACTIVE_WITHDRAW_READY */\n              0x03\n                /* \"Users/michael/Documents/dev/e-community-platform/in-progress/consent-management/src/blockchain/smart_contracts/contracts/ConsentContract.sol\":5298:5311  contractState */\n              0x0b\n              0x00\n                /* \"Users/michael/Documents/dev/e-community-platform/in-progress/consent-management/src/blockchain/smart_contracts/contracts/ConsentContract.sol\":5298:5350  contractState = STATE.CONTRACT_ACTIVE_WITHDRAW_READY */\n              0x0100\n              exp\n              dup2\n              sload\n              dup2\n              0xff\n              mul\n              not\n              and\n              swap1\n              dup4\n              0x07\n              dup2\n              gt\n              iszero\n              tag_124\n              jumpi\n              tag_125\n              tag_62\n              jump\t// in\n            tag_125:\n            tag_124:\n              mul\n              or\n              swap1\n              sstore\n              pop\n                /* \"Users/michael/Documents/dev/e-community-platform/in-progress/consent-management/src/blockchain/smart_contracts/contracts/ConsentContract.sol\":5038:5357  function deposit() public payable onlyOwner {... */\n              jump\t// out\n                /* \"Users/michael/Documents/dev/e-community-platform/in-progress/consent-management/src/blockchain/smart_contracts/contracts/ConsentContract.sol\":1057:1081  address public consenter */\n            tag_54:\n              0x02\n              0x00\n              swap1\n              sload\n              swap1\n              0x0100\n              exp\n              swap1\n              div\n              0xffffffffffffffffffffffffffffffffffffffff\n              and\n              dup2\n              jump\t// out\n                /* \"Users/michael/Documents/dev/e-community-platform/in-progress/consent-management/src/blockchain/smart_contracts/contracts/ConsentContract.sol\":4504:4603  function revokeConsent() public bothParties {... */\n            tag_58:\n                /* \"Users/michael/Documents/dev/e-community-platform/in-progress/consent-management/src/blockchain/smart_contracts/contracts/ConsentContract.sol\":4574:4596  STATE.CONTRACT_REVOKED */\n              0x06\n                /* \"Users/michael/Documents/dev/e-community-platform/in-progress/consent-management/src/blockchain/smart_contracts/contracts/ConsentContract.sol\":4558:4571  contractState */\n              0x0b\n              0x00\n                /* \"Users/michael/Documents/dev/e-community-platform/in-progress/consent-management/src/blockchain/smart_contracts/contracts/ConsentContract.sol\":4558:4596  contractState = STATE.CONTRACT_REVOKED */\n              0x0100\n              exp\n              dup2\n              sload\n              dup2\n              0xff\n              mul\n              not\n              and\n              swap1\n              dup4\n              0x07\n              dup2\n              gt\n              iszero\n              tag_128\n              jumpi\n              tag_129\n              tag_62\n              jump\t// in\n            tag_129:\n            tag_128:\n              mul\n              or\n              swap1\n              sstore\n              pop\n                /* \"Users/michael/Documents/dev/e-community-platform/in-progress/consent-management/src/blockchain/smart_contracts/contracts/ConsentContract.sol\":4504:4603  function revokeConsent() public bothParties {... */\n              jump\t// out\n                /* \"#utility.yul\":7:187   */\n            tag_62:\n                /* \"#utility.yul\":55:132   */\n              0x4e487b7100000000000000000000000000000000000000000000000000000000\n                /* \"#utility.yul\":52:53   */\n              0x00\n                /* \"#utility.yul\":45:133   */\n              mstore\n                /* \"#utility.yul\":152:156   */\n              0x21\n                /* \"#utility.yul\":149:150   */\n              0x04\n                /* \"#utility.yul\":142:157   */\n              mstore\n                /* \"#utility.yul\":176:180   */\n              0x24\n                /* \"#utility.yul\":173:174   */\n              0x00\n                /* \"#utility.yul\":166:181   */\n              revert\n                /* \"#utility.yul\":193:306   */\n            tag_130:\n                /* \"#utility.yul\":274:275   */\n              0x08\n                /* \"#utility.yul\":267:272   */\n              dup2\n                /* \"#utility.yul\":264:276   */\n              lt\n                /* \"#utility.yul\":254:300   */\n              tag_161\n              jumpi\n                /* \"#utility.yul\":280:298   */\n              tag_162\n              tag_62\n              jump\t// in\n            tag_162:\n                /* \"#utility.yul\":254:300   */\n            tag_161:\n                /* \"#utility.yul\":193:306   */\n              pop\n              jump\t// out\n                /* \"#utility.yul\":312:439   */\n            tag_131:\n                /* \"#utility.yul\":357:364   */\n              0x00\n                /* \"#utility.yul\":386:391   */\n              dup2\n                /* \"#utility.yul\":375:391   */\n              swap1\n              pop\n                /* \"#utility.yul\":392:433   */\n              tag_164\n                /* \"#utility.yul\":427:432   */\n              dup3\n                /* \"#utility.yul\":392:433   */\n              tag_130\n              jump\t// in\n            tag_164:\n                /* \"#utility.yul\":312:439   */\n              swap2\n              swap1\n              pop\n              jump\t// out\n                /* \"#utility.yul\":445:572   */\n            tag_132:\n                /* \"#utility.yul\":501:510   */\n              0x00\n                /* \"#utility.yul\":534:566   */\n              tag_166\n                /* \"#utility.yul\":560:565   */\n              dup3\n                /* \"#utility.yul\":534:566   */\n              tag_131\n              jump\t// in\n            tag_166:\n                /* \"#utility.yul\":521:566   */\n              swap1\n              pop\n                /* \"#utility.yul\":445:572   */\n              swap2\n              swap1\n              pop\n              jump\t// out\n                /* \"#utility.yul\":578:721   */\n            tag_133:\n                /* \"#utility.yul\":671:714   */\n              tag_168\n                /* \"#utility.yul\":708:713   */\n              dup2\n                /* \"#utility.yul\":671:714   */\n              tag_132\n              jump\t// in\n            tag_168:\n                /* \"#utility.yul\":666:669   */\n              dup3\n                /* \"#utility.yul\":659:715   */\n              mstore\n                /* \"#utility.yul\":578:721   */\n              pop\n              pop\n              jump\t// out\n                /* \"#utility.yul\":727:961   */\n            tag_18:\n                /* \"#utility.yul\":826:830   */\n              0x00\n                /* \"#utility.yul\":864:866   */\n              0x20\n                /* \"#utility.yul\":853:862   */\n              dup3\n                /* \"#utility.yul\":849:867   */\n              add\n                /* \"#utility.yul\":841:867   */\n              swap1\n              pop\n                /* \"#utility.yul\":877:954   */\n              tag_170\n                /* \"#utility.yul\":951:952   */\n              0x00\n                /* \"#utility.yul\":940:949   */\n              dup4\n                /* \"#utility.yul\":936:953   */\n              add\n                /* \"#utility.yul\":927:933   */\n              dup5\n                /* \"#utility.yul\":877:954   */\n              tag_133\n              jump\t// in\n            tag_170:\n                /* \"#utility.yul\":727:961   */\n              swap3\n              swap2\n              pop\n              pop\n              jump\t// out\n                /* \"#utility.yul\":1048:1165   */\n            tag_135:\n                /* \"#utility.yul\":1157:1158   */\n              0x00\n                /* \"#utility.yul\":1154:1155   */\n              dup1\n                /* \"#utility.yul\":1147:1159   */\n              revert\n                /* \"#utility.yul\":1294:1420   */\n            tag_137:\n                /* \"#utility.yul\":1331:1338   */\n              0x00\n                /* \"#utility.yul\":1371:1413   */\n              0xffffffffffffffffffffffffffffffffffffffff\n                /* \"#utility.yul\":1364:1369   */\n              dup3\n                /* \"#utility.yul\":1360:1414   */\n              and\n                /* \"#utility.yul\":1349:1414   */\n              swap1\n              pop\n                /* \"#utility.yul\":1294:1420   */\n              swap2\n              swap1\n              pop\n              jump\t// out\n                /* \"#utility.yul\":1426:1522   */\n            tag_138:\n                /* \"#utility.yul\":1463:1470   */\n              0x00\n                /* \"#utility.yul\":1492:1516   */\n              tag_176\n                /* \"#utility.yul\":1510:1515   */\n              dup3\n                /* \"#utility.yul\":1492:1516   */\n              tag_137\n              jump\t// in\n            tag_176:\n                /* \"#utility.yul\":1481:1516   */\n              swap1\n              pop\n                /* \"#utility.yul\":1426:1522   */\n              swap2\n              swap1\n              pop\n              jump\t// out\n                /* \"#utility.yul\":1528:1650   */\n            tag_139:\n                /* \"#utility.yul\":1601:1625   */\n              tag_178\n                /* \"#utility.yul\":1619:1624   */\n              dup2\n                /* \"#utility.yul\":1601:1625   */\n              tag_138\n              jump\t// in\n            tag_178:\n                /* \"#utility.yul\":1594:1599   */\n              dup2\n                /* \"#utility.yul\":1591:1626   */\n              eq\n                /* \"#utility.yul\":1581:1644   */\n              tag_179\n              jumpi\n                /* \"#utility.yul\":1640:1641   */\n              0x00\n                /* \"#utility.yul\":1637:1638   */\n              dup1\n                /* \"#utility.yul\":1630:1642   */\n              revert\n                /* \"#utility.yul\":1581:1644   */\n            tag_179:\n                /* \"#utility.yul\":1528:1650   */\n              pop\n              jump\t// out\n                /* \"#utility.yul\":1656:1795   */\n            tag_140:\n                /* \"#utility.yul\":1702:1707   */\n              0x00\n                /* \"#utility.yul\":1740:1746   */\n              dup2\n                /* \"#utility.yul\":1727:1747   */\n              calldataload\n                /* \"#utility.yul\":1718:1747   */\n              swap1\n              pop\n                /* \"#utility.yul\":1756:1789   */\n              tag_181\n                /* \"#utility.yul\":1783:1788   */\n              dup2\n                /* \"#utility.yul\":1756:1789   */\n              tag_139\n              jump\t// in\n            tag_181:\n                /* \"#utility.yul\":1656:1795   */\n              swap3\n              swap2\n              pop\n              pop\n              jump\t// out\n                /* \"#utility.yul\":1801:1878   */\n            tag_141:\n                /* \"#utility.yul\":1838:1845   */\n              0x00\n                /* \"#utility.yul\":1867:1872   */\n              dup2\n                /* \"#utility.yul\":1856:1872   */\n              swap1\n              pop\n                /* \"#utility.yul\":1801:1878   */\n              swap2\n              swap1\n              pop\n              jump\t// out\n                /* \"#utility.yul\":1884:2006   */\n            tag_142:\n                /* \"#utility.yul\":1957:1981   */\n              tag_184\n                /* \"#utility.yul\":1975:1980   */\n              dup2\n                /* \"#utility.yul\":1957:1981   */\n              tag_141\n              jump\t// in\n            tag_184:\n                /* \"#utility.yul\":1950:1955   */\n              dup2\n                /* \"#utility.yul\":1947:1982   */\n              eq\n                /* \"#utility.yul\":1937:2000   */\n              tag_185\n              jumpi\n                /* \"#utility.yul\":1996:1997   */\n              0x00\n                /* \"#utility.yul\":1993:1994   */\n              dup1\n                /* \"#utility.yul\":1986:1998   */\n              revert\n                /* \"#utility.yul\":1937:2000   */\n            tag_185:\n                /* \"#utility.yul\":1884:2006   */\n              pop\n              jump\t// out\n                /* \"#utility.yul\":2012:2151   */\n            tag_143:\n                /* \"#utility.yul\":2058:2063   */\n              0x00\n                /* \"#utility.yul\":2096:2102   */\n              dup2\n                /* \"#utility.yul\":2083:2103   */\n              calldataload\n                /* \"#utility.yul\":2074:2103   */\n              swap1\n              pop\n                /* \"#utility.yul\":2112:2145   */\n              tag_187\n                /* \"#utility.yul\":2139:2144   */\n              dup2\n                /* \"#utility.yul\":2112:2145   */\n              tag_142\n              jump\t// in\n            tag_187:\n                /* \"#utility.yul\":2012:2151   */\n              swap3\n              swap2\n              pop\n              pop\n              jump\t// out\n                /* \"#utility.yul\":2157:3652   */\n            tag_25:\n                /* \"#utility.yul\":2288:2294   */\n              0x00\n                /* \"#utility.yul\":2296:2302   */\n              dup1\n                /* \"#utility.yul\":2304:2310   */\n              0x00\n                /* \"#utility.yul\":2312:2318   */\n              dup1\n                /* \"#utility.yul\":2320:2326   */\n              0x00\n                /* \"#utility.yul\":2328:2334   */\n              dup1\n                /* \"#utility.yul\":2336:2342   */\n              0x00\n                /* \"#utility.yul\":2344:2350   */\n              dup1\n                /* \"#utility.yul\":2352:2358   */\n              0x00\n                /* \"#utility.yul\":2401:2404   */\n              0x0120\n                /* \"#utility.yul\":2389:2398   */\n              dup11\n                /* \"#utility.yul\":2380:2387   */\n              dup13\n                /* \"#utility.yul\":2376:2399   */\n              sub\n                /* \"#utility.yul\":2372:2405   */\n              slt\n                /* \"#utility.yul\":2369:2489   */\n              iszero\n              tag_189\n              jumpi\n                /* \"#utility.yul\":2408:2487   */\n              tag_190\n              tag_135\n              jump\t// in\n            tag_190:\n                /* \"#utility.yul\":2369:2489   */\n            tag_189:\n                /* \"#utility.yul\":2528:2529   */\n              0x00\n                /* \"#utility.yul\":2553:2606   */\n              tag_191\n                /* \"#utility.yul\":2598:2605   */\n              dup13\n                /* \"#utility.yul\":2589:2595   */\n              dup3\n                /* \"#utility.yul\":2578:2587   */\n              dup14\n                /* \"#utility.yul\":2574:2596   */\n              add\n                /* \"#utility.yul\":2553:2606   */\n              tag_140\n              jump\t// in\n            tag_191:\n                /* \"#utility.yul\":2543:2606   */\n              swap10\n              pop\n                /* \"#utility.yul\":2499:2616   */\n              pop\n                /* \"#utility.yul\":2655:2657   */\n              0x20\n                /* \"#utility.yul\":2681:2734   */\n              tag_192\n                /* \"#utility.yul\":2726:2733   */\n              dup13\n                /* \"#utility.yul\":2717:2723   */\n              dup3\n                /* \"#utility.yul\":2706:2715   */\n              dup14\n                /* \"#utility.yul\":2702:2724   */\n              add\n                /* \"#utility.yul\":2681:2734   */\n              tag_140\n              jump\t// in\n            tag_192:\n                /* \"#utility.yul\":2671:2734   */\n              swap9\n              pop\n                /* \"#utility.yul\":2626:2744   */\n              pop\n                /* \"#utility.yul\":2783:2785   */\n              0x40\n                /* \"#utility.yul\":2809:2862   */\n              tag_193\n                /* \"#utility.yul\":2854:2861   */\n              dup13\n                /* \"#utility.yul\":2845:2851   */\n              dup3\n                /* \"#utility.yul\":2834:2843   */\n              dup14\n                /* \"#utility.yul\":2830:2852   */\n              add\n                /* \"#utility.yul\":2809:2862   */\n              tag_143\n              jump\t// in\n            tag_193:\n                /* \"#utility.yul\":2799:2862   */\n              swap8\n              pop\n                /* \"#utility.yul\":2754:2872   */\n              pop\n                /* \"#utility.yul\":2911:2913   */\n              0x60\n                /* \"#utility.yul\":2937:2990   */\n              tag_194\n                /* \"#utility.yul\":2982:2989   */\n              dup13\n                /* \"#utility.yul\":2973:2979   */\n              dup3\n                /* \"#utility.yul\":2962:2971   */\n              dup14\n                /* \"#utility.yul\":2958:2980   */\n              add\n                /* \"#utility.yul\":2937:2990   */\n              tag_143\n              jump\t// in\n            tag_194:\n                /* \"#utility.yul\":2927:2990   */\n              swap7\n              pop\n                /* \"#utility.yul\":2882:3000   */\n              pop\n                /* \"#utility.yul\":3039:3042   */\n              0x80\n                /* \"#utility.yul\":3066:3119   */\n              tag_195\n                /* \"#utility.yul\":3111:3118   */\n              dup13\n                /* \"#utility.yul\":3102:3108   */\n              dup3\n                /* \"#utility.yul\":3091:3100   */\n              dup14\n                /* \"#utility.yul\":3087:3109   */\n              add\n                /* \"#utility.yul\":3066:3119   */\n              tag_143\n              jump\t// in\n            tag_195:\n                /* \"#utility.yul\":3056:3119   */\n              swap6\n              pop\n                /* \"#utility.yul\":3010:3129   */\n              pop\n                /* \"#utility.yul\":3168:3171   */\n              0xa0\n                /* \"#utility.yul\":3195:3248   */\n              tag_196\n                /* \"#utility.yul\":3240:3247   */\n              dup13\n                /* \"#utility.yul\":3231:3237   */\n              dup3\n                /* \"#utility.yul\":3220:3229   */\n              dup14\n                /* \"#utility.yul\":3216:3238   */\n              add\n                /* \"#utility.yul\":3195:3248   */\n              tag_143\n              jump\t// in\n            tag_196:\n                /* \"#utility.yul\":3185:3248   */\n              swap5\n              pop\n                /* \"#utility.yul\":3139:3258   */\n              pop\n                /* \"#utility.yul\":3297:3300   */\n              0xc0\n                /* \"#utility.yul\":3324:3377   */\n              tag_197\n                /* \"#utility.yul\":3369:3376   */\n              dup13\n                /* \"#utility.yul\":3360:3366   */\n              dup3\n                /* \"#utility.yul\":3349:3358   */\n              dup14\n                /* \"#utility.yul\":3345:3367   */\n              add\n                /* \"#utility.yul\":3324:3377   */\n              tag_143\n              jump\t// in\n            tag_197:\n                /* \"#utility.yul\":3314:3377   */\n              swap4\n              pop\n                /* \"#utility.yul\":3268:3387   */\n              pop\n                /* \"#utility.yul\":3426:3429   */\n              0xe0\n                /* \"#utility.yul\":3453:3506   */\n              tag_198\n                /* \"#utility.yul\":3498:3505   */\n              dup13\n                /* \"#utility.yul\":3489:3495   */\n              dup3\n                /* \"#utility.yul\":3478:3487   */\n              dup14\n                /* \"#utility.yul\":3474:3496   */\n              add\n                /* \"#utility.yul\":3453:3506   */\n              tag_143\n              jump\t// in\n            tag_198:\n                /* \"#utility.yul\":3443:3506   */\n              swap3\n              pop\n                /* \"#utility.yul\":3397:3516   */\n              pop\n                /* \"#utility.yul\":3555:3558   */\n              0x0100\n                /* \"#utility.yul\":3582:3635   */\n              tag_199\n                /* \"#utility.yul\":3627:3634   */\n              dup13\n                /* \"#utility.yul\":3618:3624   */\n              dup3\n                /* \"#utility.yul\":3607:3616   */\n              dup14\n                /* \"#utility.yul\":3603:3625   */\n              add\n                /* \"#utility.yul\":3582:3635   */\n              tag_143\n              jump\t// in\n            tag_199:\n                /* \"#utility.yul\":3572:3635   */\n              swap2\n              pop\n                /* \"#utility.yul\":3526:3645   */\n              pop\n                /* \"#utility.yul\":2157:3652   */\n              swap3\n              swap6\n              swap9\n              pop\n              swap3\n              swap6\n              swap9\n              pop\n              swap3\n              swap6\n              swap9\n              jump\t// out\n                /* \"#utility.yul\":3658:3987   */\n            tag_30:\n                /* \"#utility.yul\":3717:3723   */\n              0x00\n                /* \"#utility.yul\":3766:3768   */\n              0x20\n                /* \"#utility.yul\":3754:3763   */\n              dup3\n                /* \"#utility.yul\":3745:3752   */\n              dup5\n                /* \"#utility.yul\":3741:3764   */\n              sub\n                /* \"#utility.yul\":3737:3769   */\n              slt\n                /* \"#utility.yul\":3734:3853   */\n              iszero\n              tag_201\n              jumpi\n                /* \"#utility.yul\":3772:3851   */\n              tag_202\n              tag_135\n              jump\t// in\n            tag_202:\n                /* \"#utility.yul\":3734:3853   */\n            tag_201:\n                /* \"#utility.yul\":3892:3893   */\n              0x00\n                /* \"#utility.yul\":3917:3970   */\n              tag_203\n                /* \"#utility.yul\":3962:3969   */\n              dup5\n                /* \"#utility.yul\":3953:3959   */\n              dup3\n                /* \"#utility.yul\":3942:3951   */\n              dup6\n                /* \"#utility.yul\":3938:3960   */\n              add\n                /* \"#utility.yul\":3917:3970   */\n              tag_140\n              jump\t// in\n            tag_203:\n                /* \"#utility.yul\":3907:3970   */\n              swap2\n              pop\n                /* \"#utility.yul\":3863:3980   */\n              pop\n                /* \"#utility.yul\":3658:3987   */\n              swap3\n              swap2\n              pop\n              pop\n              jump\t// out\n                /* \"#utility.yul\":3993:4092   */\n            tag_144:\n                /* \"#utility.yul\":4045:4051   */\n              0x00\n                /* \"#utility.yul\":4079:4084   */\n              dup2\n                /* \"#utility.yul\":4073:4085   */\n              mload\n                /* \"#utility.yul\":4063:4085   */\n              swap1\n              pop\n                /* \"#utility.yul\":3993:4092   */\n              swap2\n              swap1\n              pop\n              jump\t// out\n                /* \"#utility.yul\":4098:4267   */\n            tag_145:\n                /* \"#utility.yul\":4182:4193   */\n              0x00\n                /* \"#utility.yul\":4216:4222   */\n              dup3\n                /* \"#utility.yul\":4211:4214   */\n              dup3\n                /* \"#utility.yul\":4204:4223   */\n              mstore\n                /* \"#utility.yul\":4256:4260   */\n              0x20\n                /* \"#utility.yul\":4251:4254   */\n              dup3\n                /* \"#utility.yul\":4247:4261   */\n              add\n                /* \"#utility.yul\":4232:4261   */\n              swap1\n              pop\n                /* \"#utility.yul\":4098:4267   */\n              swap3\n              swap2\n              pop\n              pop\n              jump\t// out\n                /* \"#utility.yul\":4273:4519   */\n            tag_146:\n                /* \"#utility.yul\":4354:4355   */\n              0x00\n                /* \"#utility.yul\":4364:4477   */\n            tag_207:\n                /* \"#utility.yul\":4378:4384   */\n              dup4\n                /* \"#utility.yul\":4375:4376   */\n              dup2\n                /* \"#utility.yul\":4372:4385   */\n              lt\n                /* \"#utility.yul\":4364:4477   */\n              iszero\n              tag_209\n              jumpi\n                /* \"#utility.yul\":4463:4464   */\n              dup1\n                /* \"#utility.yul\":4458:4461   */\n              dup3\n                /* \"#utility.yul\":4454:4465   */\n              add\n                /* \"#utility.yul\":4448:4466   */\n              mload\n                /* \"#utility.yul\":4444:4445   */\n              dup2\n                /* \"#utility.yul\":4439:4442   */\n              dup5\n                /* \"#utility.yul\":4435:4446   */\n              add\n                /* \"#utility.yul\":4428:4467   */\n              mstore\n                /* \"#utility.yul\":4400:4402   */\n              0x20\n                /* \"#utility.yul\":4397:4398   */\n              dup2\n                /* \"#utility.yul\":4393:4403   */\n              add\n                /* \"#utility.yul\":4388:4403   */\n              swap1\n              pop\n                /* \"#utility.yul\":4364:4477   */\n              jump(tag_207)\n            tag_209:\n                /* \"#utility.yul\":4511:4512   */\n              0x00\n                /* \"#utility.yul\":4502:4508   */\n              dup5\n                /* \"#utility.yul\":4497:4500   */\n              dup5\n                /* \"#utility.yul\":4493:4509   */\n              add\n                /* \"#utility.yul\":4486:4513   */\n              mstore\n                /* \"#utility.yul\":4335:4519   */\n              pop\n                /* \"#utility.yul\":4273:4519   */\n              pop\n              pop\n              pop\n              jump\t// out\n                /* \"#utility.yul\":4525:4627   */\n            tag_147:\n                /* \"#utility.yul\":4566:4572   */\n              0x00\n                /* \"#utility.yul\":4617:4619   */\n              0x1f\n                /* \"#utility.yul\":4613:4620   */\n              not\n                /* \"#utility.yul\":4608:4610   */\n              0x1f\n                /* \"#utility.yul\":4601:4606   */\n              dup4\n                /* \"#utility.yul\":4597:4611   */\n              add\n                /* \"#utility.yul\":4593:4621   */\n              and\n                /* \"#utility.yul\":4583:4621   */\n              swap1\n              pop\n                /* \"#utility.yul\":4525:4627   */\n              swap2\n              swap1\n              pop\n              jump\t// out\n                /* \"#utility.yul\":4633:5010   */\n            tag_148:\n                /* \"#utility.yul\":4721:4724   */\n              0x00\n                /* \"#utility.yul\":4749:4788   */\n              tag_212\n                /* \"#utility.yul\":4782:4787   */\n              dup3\n                /* \"#utility.yul\":4749:4788   */\n              tag_144\n              jump\t// in\n            tag_212:\n                /* \"#utility.yul\":4804:4875   */\n              tag_213\n                /* \"#utility.yul\":4868:4874   */\n              dup2\n                /* \"#utility.yul\":4863:4866   */\n              dup6\n                /* \"#utility.yul\":4804:4875   */\n              tag_145\n              jump\t// in\n            tag_213:\n                /* \"#utility.yul\":4797:4875   */\n              swap4\n              pop\n                /* \"#utility.yul\":4884:4949   */\n              tag_214\n                /* \"#utility.yul\":4942:4948   */\n              dup2\n                /* \"#utility.yul\":4937:4940   */\n              dup6\n                /* \"#utility.yul\":4930:4934   */\n              0x20\n                /* \"#utility.yul\":4923:4928   */\n              dup7\n                /* \"#utility.yul\":4919:4935   */\n              add\n                /* \"#utility.yul\":4884:4949   */\n              tag_146\n              jump\t// in\n            tag_214:\n                /* \"#utility.yul\":4974:5003   */\n              tag_215\n                /* \"#utility.yul\":4996:5002   */\n              dup2\n                /* \"#utility.yul\":4974:5003   */\n              tag_147\n              jump\t// in\n            tag_215:\n                /* \"#utility.yul\":4969:4972   */\n              dup5\n                /* \"#utility.yul\":4965:5004   */\n              add\n                /* \"#utility.yul\":4958:5004   */\n              swap2\n              pop\n                /* \"#utility.yul\":4725:5010   */\n              pop\n                /* \"#utility.yul\":4633:5010   */\n              swap3\n              swap2\n              pop\n              pop\n              jump\t// out\n                /* \"#utility.yul\":5016:5329   */\n            tag_39:\n                /* \"#utility.yul\":5129:5133   */\n              0x00\n                /* \"#utility.yul\":5167:5169   */\n              0x20\n                /* \"#utility.yul\":5156:5165   */\n              dup3\n                /* \"#utility.yul\":5152:5170   */\n              add\n                /* \"#utility.yul\":5144:5170   */\n              swap1\n              pop\n                /* \"#utility.yul\":5216:5225   */\n              dup2\n                /* \"#utility.yul\":5210:5214   */\n              dup2\n                /* \"#utility.yul\":5206:5226   */\n              sub\n                /* \"#utility.yul\":5202:5203   */\n              0x00\n                /* \"#utility.yul\":5191:5200   */\n              dup4\n                /* \"#utility.yul\":5187:5204   */\n              add\n                /* \"#utility.yul\":5180:5227   */\n              mstore\n                /* \"#utility.yul\":5244:5322   */\n              tag_217\n                /* \"#utility.yul\":5317:5321   */\n              dup2\n                /* \"#utility.yul\":5308:5314   */\n              dup5\n                /* \"#utility.yul\":5244:5322   */\n              tag_148\n              jump\t// in\n            tag_217:\n                /* \"#utility.yul\":5236:5322   */\n              swap1\n              pop\n                /* \"#utility.yul\":5016:5329   */\n              swap3\n              swap2\n              pop\n              pop\n              jump\t// out\n                /* \"#utility.yul\":5335:5453   */\n            tag_149:\n                /* \"#utility.yul\":5422:5446   */\n              tag_219\n                /* \"#utility.yul\":5440:5445   */\n              dup2\n                /* \"#utility.yul\":5422:5446   */\n              tag_138\n              jump\t// in\n            tag_219:\n                /* \"#utility.yul\":5417:5420   */\n              dup3\n                /* \"#utility.yul\":5410:5447   */\n              mstore\n                /* \"#utility.yul\":5335:5453   */\n              pop\n              pop\n              jump\t// out\n                /* \"#utility.yul\":5459:5577   */\n            tag_150:\n                /* \"#utility.yul\":5546:5570   */\n              tag_221\n                /* \"#utility.yul\":5564:5569   */\n              dup2\n                /* \"#utility.yul\":5546:5570   */\n              tag_141\n              jump\t// in\n            tag_221:\n                /* \"#utility.yul\":5541:5544   */\n              dup3\n                /* \"#utility.yul\":5534:5571   */\n              mstore\n                /* \"#utility.yul\":5459:5577   */\n              pop\n              pop\n              jump\t// out\n                /* \"#utility.yul\":5583:7006   */\n            tag_44:\n                /* \"#utility.yul\":5977:5981   */\n              0x00\n                /* \"#utility.yul\":6015:6018   */\n              0x0160\n                /* \"#utility.yul\":6004:6013   */\n              dup3\n                /* \"#utility.yul\":6000:6019   */\n              add\n                /* \"#utility.yul\":5992:6019   */\n              swap1\n              pop\n                /* \"#utility.yul\":6029:6100   */\n              tag_223\n                /* \"#utility.yul\":6097:6098   */\n              0x00\n                /* \"#utility.yul\":6086:6095   */\n              dup4\n                /* \"#utility.yul\":6082:6099   */\n              add\n                /* \"#utility.yul\":6073:6079   */\n              dup15\n                /* \"#utility.yul\":6029:6100   */\n              tag_149\n              jump\t// in\n            tag_223:\n                /* \"#utility.yul\":6110:6182   */\n              tag_224\n                /* \"#utility.yul\":6178:6180   */\n              0x20\n                /* \"#utility.yul\":6167:6176   */\n              dup4\n                /* \"#utility.yul\":6163:6181   */\n              add\n                /* \"#utility.yul\":6154:6160   */\n              dup14\n                /* \"#utility.yul\":6110:6182   */\n              tag_149\n              jump\t// in\n            tag_224:\n                /* \"#utility.yul\":6229:6238   */\n              dup2\n                /* \"#utility.yul\":6223:6227   */\n              dup2\n                /* \"#utility.yul\":6219:6239   */\n              sub\n                /* \"#utility.yul\":6214:6216   */\n              0x40\n                /* \"#utility.yul\":6203:6212   */\n              dup4\n                /* \"#utility.yul\":6199:6217   */\n              add\n                /* \"#utility.yul\":6192:6240   */\n              mstore\n                /* \"#utility.yul\":6257:6335   */\n              tag_225\n                /* \"#utility.yul\":6330:6334   */\n              dup2\n                /* \"#utility.yul\":6321:6327   */\n              dup13\n                /* \"#utility.yul\":6257:6335   */\n              tag_148\n              jump\t// in\n            tag_225:\n                /* \"#utility.yul\":6249:6335   */\n              swap1\n              pop\n                /* \"#utility.yul\":6345:6417   */\n              tag_226\n                /* \"#utility.yul\":6413:6415   */\n              0x60\n                /* \"#utility.yul\":6402:6411   */\n              dup4\n                /* \"#utility.yul\":6398:6416   */\n              add\n                /* \"#utility.yul\":6389:6395   */\n              dup12\n                /* \"#utility.yul\":6345:6417   */\n              tag_150\n              jump\t// in\n            tag_226:\n                /* \"#utility.yul\":6427:6500   */\n              tag_227\n                /* \"#utility.yul\":6495:6498   */\n              0x80\n                /* \"#utility.yul\":6484:6493   */\n              dup4\n                /* \"#utility.yul\":6480:6499   */\n              add\n                /* \"#utility.yul\":6471:6477   */\n              dup11\n                /* \"#utility.yul\":6427:6500   */\n              tag_150\n              jump\t// in\n            tag_227:\n                /* \"#utility.yul\":6510:6583   */\n              tag_228\n                /* \"#utility.yul\":6578:6581   */\n              0xa0\n                /* \"#utility.yul\":6567:6576   */\n              dup4\n                /* \"#utility.yul\":6563:6582   */\n              add\n                /* \"#utility.yul\":6554:6560   */\n              dup10\n                /* \"#utility.yul\":6510:6583   */\n              tag_150\n              jump\t// in\n            tag_228:\n                /* \"#utility.yul\":6593:6666   */\n              tag_229\n                /* \"#utility.yul\":6661:6664   */\n              0xc0\n                /* \"#utility.yul\":6650:6659   */\n              dup4\n                /* \"#utility.yul\":6646:6665   */\n              add\n                /* \"#utility.yul\":6637:6643   */\n              dup9\n                /* \"#utility.yul\":6593:6666   */\n              tag_150\n              jump\t// in\n            tag_229:\n                /* \"#utility.yul\":6676:6749   */\n              tag_230\n                /* \"#utility.yul\":6744:6747   */\n              0xe0\n                /* \"#utility.yul\":6733:6742   */\n              dup4\n                /* \"#utility.yul\":6729:6748   */\n              add\n                /* \"#utility.yul\":6720:6726   */\n              dup8\n                /* \"#utility.yul\":6676:6749   */\n              tag_150\n              jump\t// in\n            tag_230:\n                /* \"#utility.yul\":6759:6832   */\n              tag_231\n                /* \"#utility.yul\":6827:6830   */\n              0x0100\n                /* \"#utility.yul\":6816:6825   */\n              dup4\n                /* \"#utility.yul\":6812:6831   */\n              add\n                /* \"#utility.yul\":6803:6809   */\n              dup7\n                /* \"#utility.yul\":6759:6832   */\n              tag_150\n              jump\t// in\n            tag_231:\n                /* \"#utility.yul\":6842:6915   */\n              tag_232\n                /* \"#utility.yul\":6910:6913   */\n              0x0120\n                /* \"#utility.yul\":6899:6908   */\n              dup4\n                /* \"#utility.yul\":6895:6914   */\n              add\n                /* \"#utility.yul\":6886:6892   */\n              dup6\n                /* \"#utility.yul\":6842:6915   */\n              tag_150\n              jump\t// in\n            tag_232:\n                /* \"#utility.yul\":6925:6999   */\n              tag_233\n                /* \"#utility.yul\":6994:6997   */\n              0x0140\n                /* \"#utility.yul\":6983:6992   */\n              dup4\n                /* \"#utility.yul\":6979:6998   */\n              add\n                /* \"#utility.yul\":6969:6976   */\n              dup5\n                /* \"#utility.yul\":6925:6999   */\n              tag_150\n              jump\t// in\n            tag_233:\n                /* \"#utility.yul\":5583:7006   */\n              swap13\n              swap12\n              pop\n              pop\n              pop\n              pop\n              pop\n              pop\n              pop\n              pop\n              pop\n              pop\n              pop\n              pop\n              jump\t// out\n                /* \"#utility.yul\":7012:7234   */\n            tag_49:\n                /* \"#utility.yul\":7105:7109   */\n              0x00\n                /* \"#utility.yul\":7143:7145   */\n              0x20\n                /* \"#utility.yul\":7132:7141   */\n              dup3\n                /* \"#utility.yul\":7128:7146   */\n              add\n                /* \"#utility.yul\":7120:7146   */\n              swap1\n              pop\n                /* \"#utility.yul\":7156:7227   */\n              tag_235\n                /* \"#utility.yul\":7224:7225   */\n              0x00\n                /* \"#utility.yul\":7213:7222   */\n              dup4\n                /* \"#utility.yul\":7209:7226   */\n              add\n                /* \"#utility.yul\":7200:7206   */\n              dup5\n                /* \"#utility.yul\":7156:7227   */\n              tag_149\n              jump\t// in\n            tag_235:\n                /* \"#utility.yul\":7012:7234   */\n              swap3\n              swap2\n              pop\n              pop\n              jump\t// out\n                /* \"#utility.yul\":7240:7478   */\n            tag_151:\n                /* \"#utility.yul\":7380:7414   */\n              0x4e6f7468696e672077697468647261772c20636f6e73656e746572206e656564\n                /* \"#utility.yul\":7376:7377   */\n              0x00\n                /* \"#utility.yul\":7368:7374   */\n              dup3\n                /* \"#utility.yul\":7364:7378   */\n              add\n                /* \"#utility.yul\":7357:7415   */\n              mstore\n                /* \"#utility.yul\":7449:7470   */\n              0x7320746f2073656e642045544820666972737400000000000000000000000000\n                /* \"#utility.yul\":7444:7446   */\n              0x20\n                /* \"#utility.yul\":7436:7442   */\n              dup3\n                /* \"#utility.yul\":7432:7447   */\n              add\n                /* \"#utility.yul\":7425:7471   */\n              mstore\n                /* \"#utility.yul\":7240:7478   */\n              pop\n              jump\t// out\n                /* \"#utility.yul\":7484:7850   */\n            tag_152:\n                /* \"#utility.yul\":7626:7629   */\n              0x00\n                /* \"#utility.yul\":7647:7714   */\n              tag_238\n                /* \"#utility.yul\":7711:7713   */\n              0x33\n                /* \"#utility.yul\":7706:7709   */\n              dup4\n                /* \"#utility.yul\":7647:7714   */\n              tag_145\n              jump\t// in\n            tag_238:\n                /* \"#utility.yul\":7640:7714   */\n              swap2\n              pop\n                /* \"#utility.yul\":7723:7816   */\n              tag_239\n                /* \"#utility.yul\":7812:7815   */\n              dup3\n                /* \"#utility.yul\":7723:7816   */\n              tag_151\n              jump\t// in\n            tag_239:\n                /* \"#utility.yul\":7841:7843   */\n              0x40\n                /* \"#utility.yul\":7836:7839   */\n              dup3\n                /* \"#utility.yul\":7832:7844   */\n              add\n                /* \"#utility.yul\":7825:7844   */\n              swap1\n              pop\n                /* \"#utility.yul\":7484:7850   */\n              swap2\n              swap1\n              pop\n              jump\t// out\n                /* \"#utility.yul\":7856:8275   */\n            tag_77:\n                /* \"#utility.yul\":8022:8026   */\n              0x00\n                /* \"#utility.yul\":8060:8062   */\n              0x20\n                /* \"#utility.yul\":8049:8058   */\n              dup3\n                /* \"#utility.yul\":8045:8063   */\n              add\n                /* \"#utility.yul\":8037:8063   */\n              swap1\n              pop\n                /* \"#utility.yul\":8109:8118   */\n              dup2\n                /* \"#utility.yul\":8103:8107   */\n              dup2\n                /* \"#utility.yul\":8099:8119   */\n              sub\n                /* \"#utility.yul\":8095:8096   */\n              0x00\n                /* \"#utility.yul\":8084:8093   */\n              dup4\n                /* \"#utility.yul\":8080:8097   */\n              add\n                /* \"#utility.yul\":8073:8120   */\n              mstore\n                /* \"#utility.yul\":8137:8268   */\n              tag_241\n                /* \"#utility.yul\":8263:8267   */\n              dup2\n                /* \"#utility.yul\":8137:8268   */\n              tag_152\n              jump\t// in\n            tag_241:\n                /* \"#utility.yul\":8129:8268   */\n              swap1\n              pop\n                /* \"#utility.yul\":7856:8275   */\n              swap2\n              swap1\n              pop\n              jump\t// out\n                /* \"#utility.yul\":8281:8461   */\n            tag_153:\n                /* \"#utility.yul\":8329:8406   */\n              0x4e487b7100000000000000000000000000000000000000000000000000000000\n                /* \"#utility.yul\":8326:8327   */\n              0x00\n                /* \"#utility.yul\":8319:8407   */\n              mstore\n                /* \"#utility.yul\":8426:8430   */\n              0x22\n                /* \"#utility.yul\":8423:8424   */\n              0x04\n                /* \"#utility.yul\":8416:8431   */\n              mstore\n                /* \"#utility.yul\":8450:8454   */\n              0x24\n                /* \"#utility.yul\":8447:8448   */\n              0x00\n                /* \"#utility.yul\":8440:8455   */\n              revert\n                /* \"#utility.yul\":8467:8787   */\n            tag_99:\n                /* \"#utility.yul\":8511:8517   */\n              0x00\n                /* \"#utility.yul\":8548:8549   */\n              0x02\n                /* \"#utility.yul\":8542:8546   */\n              dup3\n                /* \"#utility.yul\":8538:8550   */\n              div\n                /* \"#utility.yul\":8528:8550   */\n              swap1\n              pop\n                /* \"#utility.yul\":8595:8596   */\n              0x01\n                /* \"#utility.yul\":8589:8593   */\n              dup3\n                /* \"#utility.yul\":8585:8597   */\n              and\n                /* \"#utility.yul\":8616:8634   */\n              dup1\n                /* \"#utility.yul\":8606:8687   */\n              tag_244\n              jumpi\n                /* \"#utility.yul\":8672:8676   */\n              0x7f\n                /* \"#utility.yul\":8664:8670   */\n              dup3\n                /* \"#utility.yul\":8660:8677   */\n              and\n                /* \"#utility.yul\":8650:8677   */\n              swap2\n              pop\n                /* \"#utility.yul\":8606:8687   */\n            tag_244:\n                /* \"#utility.yul\":8734:8736   */\n              0x20\n                /* \"#utility.yul\":8726:8732   */\n              dup3\n                /* \"#utility.yul\":8723:8737   */\n              lt\n                /* \"#utility.yul\":8703:8721   */\n              dup2\n                /* \"#utility.yul\":8700:8738   */\n              sub\n                /* \"#utility.yul\":8697:8781   */\n              tag_245\n              jumpi\n                /* \"#utility.yul\":8753:8771   */\n              tag_246\n              tag_153\n              jump\t// in\n            tag_246:\n                /* \"#utility.yul\":8697:8781   */\n            tag_245:\n                /* \"#utility.yul\":8518:8787   */\n              pop\n                /* \"#utility.yul\":8467:8787   */\n              swap2\n              swap1\n              pop\n              jump\t// out\n                /* \"#utility.yul\":8793:9024   */\n            tag_154:\n                /* \"#utility.yul\":8933:8967   */\n              0x436f6e7472616374206e65656420746f206265207369676e65642066726f6d20\n                /* \"#utility.yul\":8929:8930   */\n              0x00\n                /* \"#utility.yul\":8921:8927   */\n              dup3\n                /* \"#utility.yul\":8917:8931   */\n              add\n                /* \"#utility.yul\":8910:8968   */\n              mstore\n                /* \"#utility.yul\":9002:9016   */\n              0x626f746820706172746965730000000000000000000000000000000000000000\n                /* \"#utility.yul\":8997:8999   */\n              0x20\n                /* \"#utility.yul\":8989:8995   */\n              dup3\n                /* \"#utility.yul\":8985:9000   */\n              add\n                /* \"#utility.yul\":8978:9017   */\n              mstore\n                /* \"#utility.yul\":8793:9024   */\n              pop\n              jump\t// out\n                /* \"#utility.yul\":9030:9396   */\n            tag_155:\n                /* \"#utility.yul\":9172:9175   */\n              0x00\n                /* \"#utility.yul\":9193:9260   */\n              tag_249\n                /* \"#utility.yul\":9257:9259   */\n              0x2c\n                /* \"#utility.yul\":9252:9255   */\n              dup4\n                /* \"#utility.yul\":9193:9260   */\n              tag_145\n              jump\t// in\n            tag_249:\n                /* \"#utility.yul\":9186:9260   */\n              swap2\n              pop\n                /* \"#utility.yul\":9269:9362   */\n              tag_250\n                /* \"#utility.yul\":9358:9361   */\n              dup3\n                /* \"#utility.yul\":9269:9362   */\n              tag_154\n              jump\t// in\n            tag_250:\n                /* \"#utility.yul\":9387:9389   */\n              0x40\n                /* \"#utility.yul\":9382:9385   */\n              dup3\n                /* \"#utility.yul\":9378:9390   */\n              add\n                /* \"#utility.yul\":9371:9390   */\n              swap1\n              pop\n                /* \"#utility.yul\":9030:9396   */\n              swap2\n              swap1\n              pop\n              jump\t// out\n                /* \"#utility.yul\":9402:9821   */\n            tag_120:\n                /* \"#utility.yul\":9568:9572   */\n              0x00\n                /* \"#utility.yul\":9606:9608   */\n              0x20\n                /* \"#utility.yul\":9595:9604   */\n              dup3\n                /* \"#utility.yul\":9591:9609   */\n              add\n                /* \"#utility.yul\":9583:9609   */\n              swap1\n              pop\n                /* \"#utility.yul\":9655:9664   */\n              dup2\n                /* \"#utility.yul\":9649:9653   */\n              dup2\n                /* \"#utility.yul\":9645:9665   */\n              sub\n                /* \"#utility.yul\":9641:9642   */\n              0x00\n                /* \"#utility.yul\":9630:9639   */\n              dup4\n                /* \"#utility.yul\":9626:9643   */\n              add\n                /* \"#utility.yul\":9619:9666   */\n              mstore\n                /* \"#utility.yul\":9683:9814   */\n              tag_252\n                /* \"#utility.yul\":9809:9813   */\n              dup2\n                /* \"#utility.yul\":9683:9814   */\n              tag_155\n              jump\t// in\n            tag_252:\n                /* \"#utility.yul\":9675:9814   */\n              swap1\n              pop\n                /* \"#utility.yul\":9402:9821   */\n              swap2\n              swap1\n              pop\n              jump\t// out\n                /* \"#utility.yul\":9827:10051   */\n            tag_156:\n                /* \"#utility.yul\":9967:10001   */\n              0x596f75206e65656420746f206465706f73697420746865206167726565642070\n                /* \"#utility.yul\":9963:9964   */\n              0x00\n                /* \"#utility.yul\":9955:9961   */\n              dup3\n                /* \"#utility.yul\":9951:9965   */\n              add\n                /* \"#utility.yul\":9944:10002   */\n              mstore\n                /* \"#utility.yul\":10036:10043   */\n              0x7269636521000000000000000000000000000000000000000000000000000000\n                /* \"#utility.yul\":10031:10033   */\n              0x20\n                /* \"#utility.yul\":10023:10029   */\n              dup3\n                /* \"#utility.yul\":10019:10034   */\n              add\n                /* \"#utility.yul\":10012:10044   */\n              mstore\n                /* \"#utility.yul\":9827:10051   */\n              pop\n              jump\t// out\n                /* \"#utility.yul\":10057:10423   */\n            tag_157:\n                /* \"#utility.yul\":10199:10202   */\n              0x00\n                /* \"#utility.yul\":10220:10287   */\n              tag_255\n                /* \"#utility.yul\":10284:10286   */\n              0x25\n                /* \"#utility.yul\":10279:10282   */\n              dup4\n                /* \"#utility.yul\":10220:10287   */\n              tag_145\n              jump\t// in\n            tag_255:\n                /* \"#utility.yul\":10213:10287   */\n              swap2\n              pop\n                /* \"#utility.yul\":10296:10389   */\n              tag_256\n                /* \"#utility.yul\":10385:10388   */\n              dup3\n                /* \"#utility.yul\":10296:10389   */\n              tag_156\n              jump\t// in\n            tag_256:\n                /* \"#utility.yul\":10414:10416   */\n              0x40\n                /* \"#utility.yul\":10409:10412   */\n              dup3\n                /* \"#utility.yul\":10405:10417   */\n              add\n                /* \"#utility.yul\":10398:10417   */\n              swap1\n              pop\n                /* \"#utility.yul\":10057:10423   */\n              swap2\n              swap1\n              pop\n              jump\t// out\n                /* \"#utility.yul\":10429:10848   */\n            tag_123:\n                /* \"#utility.yul\":10595:10599   */\n              0x00\n                /* \"#utility.yul\":10633:10635   */\n              0x20\n                /* \"#utility.yul\":10622:10631   */\n              dup3\n                /* \"#utility.yul\":10618:10636   */\n              add\n                /* \"#utility.yul\":10610:10636   */\n              swap1\n              pop\n                /* \"#utility.yul\":10682:10691   */\n              dup2\n                /* \"#utility.yul\":10676:10680   */\n              dup2\n                /* \"#utility.yul\":10672:10692   */\n              sub\n                /* \"#utility.yul\":10668:10669   */\n              0x00\n                /* \"#utility.yul\":10657:10666   */\n              dup4\n                /* \"#utility.yul\":10653:10670   */\n              add\n                /* \"#utility.yul\":10646:10693   */\n              mstore\n                /* \"#utility.yul\":10710:10841   */\n              tag_258\n                /* \"#utility.yul\":10836:10840   */\n              dup2\n                /* \"#utility.yul\":10710:10841   */\n              tag_157\n              jump\t// in\n            tag_258:\n                /* \"#utility.yul\":10702:10841   */\n              swap1\n              pop\n                /* \"#utility.yul\":10429:10848   */\n              swap2\n              swap1\n              pop\n              jump\t// out\n\n            auxdata: 0xa2646970667358221220d7991fcbebb92c0bcd8c18f8f906e52aed575a68b55f3b5f3d4c47682baf65d464736f6c63430008110033\n        }\n    }\n\n    auxdata: 0xa2646970667358221220b2088a052eda1994549c30b48f637a7872898f28c0d6cc70b1210c03a167045c64736f6c63430008110033\n}\n",
				"bytecode": {
					"linkReferences": {},
					"object": "608060405234801561001057600080fd5b506122d0806100206000396000f3fe60806040523480156200001157600080fd5b5060043610620000525760003560e01c806304433bbc1462000057578063213fe2b7146200008d5780632283bffd14620000c35780635b6015f414620000e5575b600080fd5b6200007560048036038101906200006f91906200083e565b62000105565b604051620000849190620008d4565b60405180910390f35b620000ab6004803603810190620000a5919062000922565b6200029b565b604051620000ba919062000a7c565b60405180910390f35b620000cd62000586565b604051620000dc919062000a7c565b60405180910390f35b620001036004803603810190620000fd91906200083e565b62000616565b005b600080600090505b6000805490508110156200029157600080828154811062000133576200013262000aa0565b5b9060005260206000200160009054906101000a900473ffffffffffffffffffffffffffffffffffffffff1673ffffffffffffffffffffffffffffffffffffffff166391f30bd46040518163ffffffff1660e01b8152600401600060405180830381865afa158015620001a9573d6000803e3d6000fd5b505050506040513d6000823e3d601f19601f82011682018060405250810190620001d4919062000b79565b905083604051602001620001e9919062000c17565b604051602081830303815290604052805190602001208160405160200162000212919062000c17565b60405160208183030381529060405280519060200120036200027a576000828154811062000245576200024462000aa0565b5b9060005260206000200160009054906101000a900473ffffffffffffffffffffffffffffffffffffffff169250505062000296565b508080620002889062000c69565b9150506200010d565b503090505b919050565b60606000808054905067ffffffffffffffff811115620002c057620002bf620006f7565b5b604051908082528060200260200182016040528015620002ef5781602001602082028036833780820191505090505b50905060005b6000805490508110156200057c578373ffffffffffffffffffffffffffffffffffffffff166000828154811062000331576200033062000aa0565b5b9060005260206000200160009054906101000a900473ffffffffffffffffffffffffffffffffffffffff1673ffffffffffffffffffffffffffffffffffffffff1663a8e4fb906040518163ffffffff1660e01b8152600401602060405180830381865afa158015620003a7573d6000803e3d6000fd5b505050506040513d601f19601f82011682018060405250810190620003cd919062000ccd565b73ffffffffffffffffffffffffffffffffffffffff161480620004cd57508373ffffffffffffffffffffffffffffffffffffffff166000828154811062000419576200041862000aa0565b5b9060005260206000200160009054906101000a900473ffffffffffffffffffffffffffffffffffffffff1673ffffffffffffffffffffffffffffffffffffffff1663e74071b46040518163ffffffff1660e01b8152600401602060405180830381865afa1580156200048f573d6000803e3d6000fd5b505050506040513d601f19601f82011682018060405250810190620004b5919062000ccd565b73ffffffffffffffffffffffffffffffffffffffff16145b15620005665760008181548110620004ea57620004e962000aa0565b5b9060005260206000200160009054906101000a900473ffffffffffffffffffffffffffffffffffffffff168282815181106200052b576200052a62000aa0565b5b602002602001019073ffffffffffffffffffffffffffffffffffffffff16908173ffffffffffffffffffffffffffffffffffffffff16815250505b8080620005739062000c69565b915050620002f5565b5080915050919050565b606060008054806020026020016040519081016040528092919081815260200182805480156200060c57602002820191906000526020600020905b8160009054906101000a900473ffffffffffffffffffffffffffffffffffffffff1673ffffffffffffffffffffffffffffffffffffffff1681526020019060010190808311620005c1575b5050505050905090565b6000816040516200062790620006ba565b62000633919062000d51565b604051809103906000f08015801562000650573d6000803e3d6000fd5b5090506000819080600181540180825580915050600190039060005260206000200160009091909190916101000a81548173ffffffffffffffffffffffffffffffffffffffff021916908373ffffffffffffffffffffffffffffffffffffffff1602179055505050565b6115258062000d7683390190565b6000604051905090565b600080fd5b600080fd5b600080fd5b600080fd5b6000601f19601f8301169050919050565b7f4e487b7100000000000000000000000000000000000000000000000000000000600052604160045260246000fd5b6200073182620006e6565b810181811067ffffffffffffffff82111715620007535762000752620006f7565b5b80604052505050565b600062000768620006c8565b905062000776828262000726565b919050565b600067ffffffffffffffff821115620007995762000798620006f7565b5b620007a482620006e6565b9050602081019050919050565b82818337600083830152505050565b6000620007d7620007d1846200077b565b6200075c565b905082815260208101848484011115620007f657620007f5620006e1565b5b62000803848285620007b1565b509392505050565b600082601f830112620008235762000822620006dc565b5b813562000835848260208601620007c0565b91505092915050565b600060208284031215620008575762000856620006d2565b5b600082013567ffffffffffffffff811115620008785762000877620006d7565b5b62000886848285016200080b565b91505092915050565b600073ffffffffffffffffffffffffffffffffffffffff82169050919050565b6000620008bc826200088f565b9050919050565b620008ce81620008af565b82525050565b6000602082019050620008eb6000830184620008c3565b92915050565b620008fc81620008af565b81146200090857600080fd5b50565b6000813590506200091c81620008f1565b92915050565b6000602082840312156200093b576200093a620006d2565b5b60006200094b848285016200090b565b91505092915050565b600081519050919050565b600082825260208201905092915050565b6000819050602082019050919050565b6000819050919050565b6000620009ab620009a56200099f846200088f565b62000980565b6200088f565b9050919050565b6000620009bf826200098a565b9050919050565b6000620009d382620009b2565b9050919050565b620009e581620009c6565b82525050565b6000620009f98383620009da565b60208301905092915050565b6000602082019050919050565b600062000a1f8262000954565b62000a2b81856200095f565b935062000a388362000970565b8060005b8381101562000a6f57815162000a538882620009eb565b975062000a608362000a05565b92505060018101905062000a3c565b5085935050505092915050565b6000602082019050818103600083015262000a98818462000a12565b905092915050565b7f4e487b7100000000000000000000000000000000000000000000000000000000600052603260045260246000fd5b60005b8381101562000aef57808201518184015260208101905062000ad2565b60008484015250505050565b600062000b1262000b0c846200077b565b6200075c565b90508281526020810184848401111562000b315762000b30620006e1565b5b62000b3e84828562000acf565b509392505050565b600082601f83011262000b5e5762000b5d620006dc565b5b815162000b7084826020860162000afb565b91505092915050565b60006020828403121562000b925762000b91620006d2565b5b600082015167ffffffffffffffff81111562000bb35762000bb2620006d7565b5b62000bc18482850162000b46565b91505092915050565b600081519050919050565b600081905092915050565b600062000bed8262000bca565b62000bf9818562000bd5565b935062000c0b81856020860162000acf565b80840191505092915050565b600062000c25828462000be0565b915081905092915050565b7f4e487b7100000000000000000000000000000000000000000000000000000000600052601160045260246000fd5b6000819050919050565b600062000c768262000c5f565b91507fffffffffffffffffffffffffffffffffffffffffffffffffffffffffffffffff820362000cab5762000caa62000c30565b5b600182019050919050565b60008151905062000cc781620008f1565b92915050565b60006020828403121562000ce65762000ce5620006d2565b5b600062000cf68482850162000cb6565b91505092915050565b600082825260208201905092915050565b600062000d1d8262000bca565b62000d29818562000cff565b935062000d3b81856020860162000acf565b62000d4681620006e6565b840191505092915050565b6000602082019050818103600083015262000d6d818462000d10565b90509291505056fe60806040523480156200001157600080fd5b506040516200152538038062001525833981810160405281019062000037919062000211565b8060009081620000489190620004ad565b506000600b60006101000a81548160ff0219169083600781111562000072576200007162000594565b5b021790555050620005c3565b6000604051905090565b600080fd5b600080fd5b600080fd5b600080fd5b6000601f19601f8301169050919050565b7f4e487b7100000000000000000000000000000000000000000000000000000000600052604160045260246000fd5b620000e7826200009c565b810181811067ffffffffffffffff82111715620001095762000108620000ad565b5b80604052505050565b60006200011e6200007e565b90506200012c8282620000dc565b919050565b600067ffffffffffffffff8211156200014f576200014e620000ad565b5b6200015a826200009c565b9050602081019050919050565b60005b83811015620001875780820151818401526020810190506200016a565b60008484015250505050565b6000620001aa620001a48462000131565b62000112565b905082815260208101848484011115620001c957620001c862000097565b5b620001d684828562000167565b509392505050565b600082601f830112620001f657620001f562000092565b5b81516200020884826020860162000193565b91505092915050565b6000602082840312156200022a576200022962000088565b5b600082015167ffffffffffffffff8111156200024b576200024a6200008d565b5b6200025984828501620001de565b91505092915050565b600081519050919050565b7f4e487b7100000000000000000000000000000000000000000000000000000000600052602260045260246000fd5b60006002820490506001821680620002b557607f821691505b602082108103620002cb57620002ca6200026d565b5b50919050565b60008190508160005260206000209050919050565b60006020601f8301049050919050565b600082821b905092915050565b600060088302620003357fffffffffffffffffffffffffffffffffffffffffffffffffffffffffffffffff82620002f6565b620003418683620002f6565b95508019841693508086168417925050509392505050565b6000819050919050565b6000819050919050565b60006200038e62000388620003828462000359565b62000363565b62000359565b9050919050565b6000819050919050565b620003aa836200036d565b620003c2620003b98262000395565b84845462000303565b825550505050565b600090565b620003d9620003ca565b620003e68184846200039f565b505050565b5b818110156200040e5762000402600082620003cf565b600181019050620003ec565b5050565b601f8211156200045d576200042781620002d1565b6200043284620002e6565b8101602085101562000442578190505b6200045a6200045185620002e6565b830182620003eb565b50505b505050565b600082821c905092915050565b6000620004826000198460080262000462565b1980831691505092915050565b60006200049d83836200046f565b9150826002028217905092915050565b620004b88262000262565b67ffffffffffffffff811115620004d457620004d3620000ad565b5b620004e082546200029c565b620004ed82828562000412565b600060209050601f83116001811462000525576000841562000510578287015190505b6200051c85826200048f565b8655506200058c565b601f1984166200053586620002d1565b60005b828110156200055f5784890151825560018201915060208501945060208101905062000538565b868310156200057f57848901516200057b601f8916826200046f565b8355505b6001600288020188555050505b505050505050565b7f4e487b7100000000000000000000000000000000000000000000000000000000600052602160045260246000fd5b610f5280620005d36000396000f3fe60806040526004361061009c5760003560e01c806391f30bd41161006457806391f30bd41461014c5780639dfc911714610177578063a8e4fb90146101ac578063d0e30db0146101d7578063e74071b4146101e1578063ff4c4d541461020c5761009c565b80631865c57d146100a15780633ccfd60b146100cc578063509c2222146100e357806379e93bf81461010c5780637c8dc57514610135575b600080fd5b3480156100ad57600080fd5b506100b6610223565b6040516100c391906109be565b60405180910390f35b3480156100d857600080fd5b506100e16102ac565b005b3480156100ef57600080fd5b5061010a60048036038101906101059190610a72565b6103ba565b005b34801561011857600080fd5b50610133600480360381019061012e9190610b3c565b610478565b005b34801561014157600080fd5b5061014a6105ed565b005b34801561015857600080fd5b5061016161061a565b60405161016e9190610bf9565b60405180910390f35b34801561018357600080fd5b5061018c6106a8565b6040516101a39b9a99989796959493929190610c39565b60405180910390f35b3480156101b857600080fd5b506101c16107e7565b6040516101ce9190610ceb565b60405180910390f35b6101df61080d565b005b3480156101ed57600080fd5b506101f66108f4565b6040516102039190610ceb565b60405180910390f35b34801561021857600080fd5b5061022161091a565b005b60006002600781111561023957610238610947565b5b600b60009054906101000a900460ff16600781111561025b5761025a610947565b5b0361029757600554421115610296576007600b60006101000a81548160ff021916908360078111156102905761028f610947565b5b02179055505b5b600b60009054906101000a900460ff16905090565b600360078111156102c0576102bf610947565b5b600b60009054906101000a900460ff1660078111156102e2576102e1610947565b5b14610322576040517f08c379a000000000000000000000000000000000000000000000000000000000815260040161031990610d78565b60405180910390fd5b600260009054906101000a900473ffffffffffffffffffffffffffffffffffffffff1673ffffffffffffffffffffffffffffffffffffffff166108fc6007549081150290604051600060405180830381858888f1935050505015801561038c573d6000803e3d6000fd5b506002600b60006101000a81548160ff021916908360078111156103b3576103b2610947565b5b0217905550565b88600160006101000a81548173ffffffffffffffffffffffffffffffffffffffff021916908373ffffffffffffffffffffffffffffffffffffffff16021790555087600260006101000a81548173ffffffffffffffffffffffffffffffffffffffff021916908373ffffffffffffffffffffffffffffffffffffffff16021790555086600381905550856004819055508460058190555083600681905550826007819055508160088190555080600981905550505050505050505050565b600160009054906101000a900473ffffffffffffffffffffffffffffffffffffffff1673ffffffffffffffffffffffffffffffffffffffff168173ffffffffffffffffffffffffffffffffffffffff1603610517576001600a60000160006101000a81548160ff0219169083151502179055506001600b60006101000a81548160ff0219169083600781111561051157610510610947565b5b02179055505b600260009054906101000a900473ffffffffffffffffffffffffffffffffffffffff1673ffffffffffffffffffffffffffffffffffffffff168173ffffffffffffffffffffffffffffffffffffffff160361058b576001600a60000160016101000a81548160ff0219169083151502179055505b600a60000160009054906101000a900460ff1680156105b95750600a60000160019054906101000a900460ff165b156105ea576004600b60006101000a81548160ff021916908360078111156105e4576105e3610947565b5b02179055505b50565b6005600b60006101000a81548160ff0219169083600781111561061357610612610947565b5b0217905550565b6000805461062790610dc7565b80601f016020809104026020016040519081016040528092919081815260200182805461065390610dc7565b80156106a05780601f10610675576101008083540402835291602001916106a0565b820191906000526020600020905b81548152906001019060200180831161068357829003601f168201915b505050505081565b6000806060600080600080600080600080600160009054906101000a900473ffffffffffffffffffffffffffffffffffffffff16600260009054906101000a900473ffffffffffffffffffffffffffffffffffffffff166000600354600454600554600654600754600b60009054906101000a900460ff16600781111561073257610731610947565b5b60085460095488805461074490610dc7565b80601f016020809104026020016040519081016040528092919081815260200182805461077090610dc7565b80156107bd5780601f10610792576101008083540402835291602001916107bd565b820191906000526020600020905b8154815290600101906020018083116107a057829003601f168201915b505050505098509a509a509a509a509a509a509a509a509a509a509a50909192939495969798999a565b600160009054906101000a900473ffffffffffffffffffffffffffffffffffffffff1681565b6004600781111561082157610820610947565b5b600b60009054906101000a900460ff16600781111561084357610842610947565b5b14610883576040517f08c379a000000000000000000000000000000000000000000000000000000000815260040161087a90610e6a565b60405180910390fd5b60075434146108c7576040517f08c379a00000000000000000000000000000000000000000000000000000000081526004016108be90610efc565b60405180910390fd5b6003600b60006101000a81548160ff021916908360078111156108ed576108ec610947565b5b0217905550565b600260009054906101000a900473ffffffffffffffffffffffffffffffffffffffff1681565b6006600b60006101000a81548160ff021916908360078111156109405761093f610947565b5b0217905550565b7f4e487b7100000000000000000000000000000000000000000000000000000000600052602160045260246000fd5b6008811061098757610986610947565b5b50565b600081905061099882610976565b919050565b60006109a88261098a565b9050919050565b6109b88161099d565b82525050565b60006020820190506109d360008301846109af565b92915050565b600080fd5b600073ffffffffffffffffffffffffffffffffffffffff82169050919050565b6000610a09826109de565b9050919050565b610a19816109fe565b8114610a2457600080fd5b50565b600081359050610a3681610a10565b92915050565b6000819050919050565b610a4f81610a3c565b8114610a5a57600080fd5b50565b600081359050610a6c81610a46565b92915050565b60008060008060008060008060006101208a8c031215610a9557610a946109d9565b5b6000610aa38c828d01610a27565b9950506020610ab48c828d01610a27565b9850506040610ac58c828d01610a5d565b9750506060610ad68c828d01610a5d565b9650506080610ae78c828d01610a5d565b95505060a0610af88c828d01610a5d565b94505060c0610b098c828d01610a5d565b93505060e0610b1a8c828d01610a5d565b925050610100610b2c8c828d01610a5d565b9150509295985092959850929598565b600060208284031215610b5257610b516109d9565b5b6000610b6084828501610a27565b91505092915050565b600081519050919050565b600082825260208201905092915050565b60005b83811015610ba3578082015181840152602081019050610b88565b60008484015250505050565b6000601f19601f8301169050919050565b6000610bcb82610b69565b610bd58185610b74565b9350610be5818560208601610b85565b610bee81610baf565b840191505092915050565b60006020820190508181036000830152610c138184610bc0565b905092915050565b610c24816109fe565b82525050565b610c3381610a3c565b82525050565b600061016082019050610c4f600083018e610c1b565b610c5c602083018d610c1b565b8181036040830152610c6e818c610bc0565b9050610c7d606083018b610c2a565b610c8a608083018a610c2a565b610c9760a0830189610c2a565b610ca460c0830188610c2a565b610cb160e0830187610c2a565b610cbf610100830186610c2a565b610ccd610120830185610c2a565b610cdb610140830184610c2a565b9c9b505050505050505050505050565b6000602082019050610d006000830184610c1b565b92915050565b7f4e6f7468696e672077697468647261772c20636f6e73656e746572206e65656460008201527f7320746f2073656e642045544820666972737400000000000000000000000000602082015250565b6000610d62603383610b74565b9150610d6d82610d06565b604082019050919050565b60006020820190508181036000830152610d9181610d55565b9050919050565b7f4e487b7100000000000000000000000000000000000000000000000000000000600052602260045260246000fd5b60006002820490506001821680610ddf57607f821691505b602082108103610df257610df1610d98565b5b50919050565b7f436f6e7472616374206e65656420746f206265207369676e65642066726f6d2060008201527f626f746820706172746965730000000000000000000000000000000000000000602082015250565b6000610e54602c83610b74565b9150610e5f82610df8565b604082019050919050565b60006020820190508181036000830152610e8381610e47565b9050919050565b7f596f75206e65656420746f206465706f7369742074686520616772656564207060008201527f7269636521000000000000000000000000000000000000000000000000000000602082015250565b6000610ee6602583610b74565b9150610ef182610e8a565b604082019050919050565b60006020820190508181036000830152610f1581610ed9565b905091905056fea2646970667358221220d7991fcbebb92c0bcd8c18f8f906e52aed575a68b55f3b5f3d4c47682baf65d464736f6c63430008110033a2646970667358221220b2088a052eda1994549c30b48f637a7872898f28c0d6cc70b1210c03a167045c64736f6c63430008110033",
					"opcodes": "PUSH1 0x80 PUSH1 0x40 MSTORE CALLVALUE DUP1 ISZERO PUSH2 0x10 JUMPI PUSH1 0x0 DUP1 REVERT JUMPDEST POP PUSH2 0x22D0 DUP1 PUSH2 0x20 PUSH1 0x0 CODECOPY PUSH1 0x0 RETURN INVALID PUSH1 0x80 PUSH1 0x40 MSTORE CALLVALUE DUP1 ISZERO PUSH3 0x11 JUMPI PUSH1 0x0 DUP1 REVERT JUMPDEST POP PUSH1 0x4 CALLDATASIZE LT PUSH3 0x52 JUMPI PUSH1 0x0 CALLDATALOAD PUSH1 0xE0 SHR DUP1 PUSH4 0x4433BBC EQ PUSH3 0x57 JUMPI DUP1 PUSH4 0x213FE2B7 EQ PUSH3 0x8D JUMPI DUP1 PUSH4 0x2283BFFD EQ PUSH3 0xC3 JUMPI DUP1 PUSH4 0x5B6015F4 EQ PUSH3 0xE5 JUMPI JUMPDEST PUSH1 0x0 DUP1 REVERT JUMPDEST PUSH3 0x75 PUSH1 0x4 DUP1 CALLDATASIZE SUB DUP2 ADD SWAP1 PUSH3 0x6F SWAP2 SWAP1 PUSH3 0x83E JUMP JUMPDEST PUSH3 0x105 JUMP JUMPDEST PUSH1 0x40 MLOAD PUSH3 0x84 SWAP2 SWAP1 PUSH3 0x8D4 JUMP JUMPDEST PUSH1 0x40 MLOAD DUP1 SWAP2 SUB SWAP1 RETURN JUMPDEST PUSH3 0xAB PUSH1 0x4 DUP1 CALLDATASIZE SUB DUP2 ADD SWAP1 PUSH3 0xA5 SWAP2 SWAP1 PUSH3 0x922 JUMP JUMPDEST PUSH3 0x29B JUMP JUMPDEST PUSH1 0x40 MLOAD PUSH3 0xBA SWAP2 SWAP1 PUSH3 0xA7C JUMP JUMPDEST PUSH1 0x40 MLOAD DUP1 SWAP2 SUB SWAP1 RETURN JUMPDEST PUSH3 0xCD PUSH3 0x586 JUMP JUMPDEST PUSH1 0x40 MLOAD PUSH3 0xDC SWAP2 SWAP1 PUSH3 0xA7C JUMP JUMPDEST PUSH1 0x40 MLOAD DUP1 SWAP2 SUB SWAP1 RETURN JUMPDEST PUSH3 0x103 PUSH1 0x4 DUP1 CALLDATASIZE SUB DUP2 ADD SWAP1 PUSH3 0xFD SWAP2 SWAP1 PUSH3 0x83E JUMP JUMPDEST PUSH3 0x616 JUMP JUMPDEST STOP JUMPDEST PUSH1 0x0 DUP1 PUSH1 0x0 SWAP1 POP JUMPDEST PUSH1 0x0 DUP1 SLOAD SWAP1 POP DUP2 LT ISZERO PUSH3 0x291 JUMPI PUSH1 0x0 DUP1 DUP3 DUP2 SLOAD DUP2 LT PUSH3 0x133 JUMPI PUSH3 0x132 PUSH3 0xAA0 JUMP JUMPDEST JUMPDEST SWAP1 PUSH1 0x0 MSTORE PUSH1 0x20 PUSH1 0x0 KECCAK256 ADD PUSH1 0x0 SWAP1 SLOAD SWAP1 PUSH2 0x100 EXP SWAP1 DIV PUSH20 0xFFFFFFFFFFFFFFFFFFFFFFFFFFFFFFFFFFFFFFFF AND PUSH20 0xFFFFFFFFFFFFFFFFFFFFFFFFFFFFFFFFFFFFFFFF AND PUSH4 0x91F30BD4 PUSH1 0x40 MLOAD DUP2 PUSH4 0xFFFFFFFF AND PUSH1 0xE0 SHL DUP2 MSTORE PUSH1 0x4 ADD PUSH1 0x0 PUSH1 0x40 MLOAD DUP1 DUP4 SUB DUP2 DUP7 GAS STATICCALL ISZERO DUP1 ISZERO PUSH3 0x1A9 JUMPI RETURNDATASIZE PUSH1 0x0 DUP1 RETURNDATACOPY RETURNDATASIZE PUSH1 0x0 REVERT JUMPDEST POP POP POP POP PUSH1 0x40 MLOAD RETURNDATASIZE PUSH1 0x0 DUP3 RETURNDATACOPY RETURNDATASIZE PUSH1 0x1F NOT PUSH1 0x1F DUP3 ADD AND DUP3 ADD DUP1 PUSH1 0x40 MSTORE POP DUP2 ADD SWAP1 PUSH3 0x1D4 SWAP2 SWAP1 PUSH3 0xB79 JUMP JUMPDEST SWAP1 POP DUP4 PUSH1 0x40 MLOAD PUSH1 0x20 ADD PUSH3 0x1E9 SWAP2 SWAP1 PUSH3 0xC17 JUMP JUMPDEST PUSH1 0x40 MLOAD PUSH1 0x20 DUP2 DUP4 SUB SUB DUP2 MSTORE SWAP1 PUSH1 0x40 MSTORE DUP1 MLOAD SWAP1 PUSH1 0x20 ADD KECCAK256 DUP2 PUSH1 0x40 MLOAD PUSH1 0x20 ADD PUSH3 0x212 SWAP2 SWAP1 PUSH3 0xC17 JUMP JUMPDEST PUSH1 0x40 MLOAD PUSH1 0x20 DUP2 DUP4 SUB SUB DUP2 MSTORE SWAP1 PUSH1 0x40 MSTORE DUP1 MLOAD SWAP1 PUSH1 0x20 ADD KECCAK256 SUB PUSH3 0x27A JUMPI PUSH1 0x0 DUP3 DUP2 SLOAD DUP2 LT PUSH3 0x245 JUMPI PUSH3 0x244 PUSH3 0xAA0 JUMP JUMPDEST JUMPDEST SWAP1 PUSH1 0x0 MSTORE PUSH1 0x20 PUSH1 0x0 KECCAK256 ADD PUSH1 0x0 SWAP1 SLOAD SWAP1 PUSH2 0x100 EXP SWAP1 DIV PUSH20 0xFFFFFFFFFFFFFFFFFFFFFFFFFFFFFFFFFFFFFFFF AND SWAP3 POP POP POP PUSH3 0x296 JUMP JUMPDEST POP DUP1 DUP1 PUSH3 0x288 SWAP1 PUSH3 0xC69 JUMP JUMPDEST SWAP2 POP POP PUSH3 0x10D JUMP JUMPDEST POP ADDRESS SWAP1 POP JUMPDEST SWAP2 SWAP1 POP JUMP JUMPDEST PUSH1 0x60 PUSH1 0x0 DUP1 DUP1 SLOAD SWAP1 POP PUSH8 0xFFFFFFFFFFFFFFFF DUP2 GT ISZERO PUSH3 0x2C0 JUMPI PUSH3 0x2BF PUSH3 0x6F7 JUMP JUMPDEST JUMPDEST PUSH1 0x40 MLOAD SWAP1 DUP1 DUP3 MSTORE DUP1 PUSH1 0x20 MUL PUSH1 0x20 ADD DUP3 ADD PUSH1 0x40 MSTORE DUP1 ISZERO PUSH3 0x2EF JUMPI DUP2 PUSH1 0x20 ADD PUSH1 0x20 DUP3 MUL DUP1 CALLDATASIZE DUP4 CALLDATACOPY DUP1 DUP3 ADD SWAP2 POP POP SWAP1 POP JUMPDEST POP SWAP1 POP PUSH1 0x0 JUMPDEST PUSH1 0x0 DUP1 SLOAD SWAP1 POP DUP2 LT ISZERO PUSH3 0x57C JUMPI DUP4 PUSH20 0xFFFFFFFFFFFFFFFFFFFFFFFFFFFFFFFFFFFFFFFF AND PUSH1 0x0 DUP3 DUP2 SLOAD DUP2 LT PUSH3 0x331 JUMPI PUSH3 0x330 PUSH3 0xAA0 JUMP JUMPDEST JUMPDEST SWAP1 PUSH1 0x0 MSTORE PUSH1 0x20 PUSH1 0x0 KECCAK256 ADD PUSH1 0x0 SWAP1 SLOAD SWAP1 PUSH2 0x100 EXP SWAP1 DIV PUSH20 0xFFFFFFFFFFFFFFFFFFFFFFFFFFFFFFFFFFFFFFFF AND PUSH20 0xFFFFFFFFFFFFFFFFFFFFFFFFFFFFFFFFFFFFFFFF AND PUSH4 0xA8E4FB90 PUSH1 0x40 MLOAD DUP2 PUSH4 0xFFFFFFFF AND PUSH1 0xE0 SHL DUP2 MSTORE PUSH1 0x4 ADD PUSH1 0x20 PUSH1 0x40 MLOAD DUP1 DUP4 SUB DUP2 DUP7 GAS STATICCALL ISZERO DUP1 ISZERO PUSH3 0x3A7 JUMPI RETURNDATASIZE PUSH1 0x0 DUP1 RETURNDATACOPY RETURNDATASIZE PUSH1 0x0 REVERT JUMPDEST POP POP POP POP PUSH1 0x40 MLOAD RETURNDATASIZE PUSH1 0x1F NOT PUSH1 0x1F DUP3 ADD AND DUP3 ADD DUP1 PUSH1 0x40 MSTORE POP DUP2 ADD SWAP1 PUSH3 0x3CD SWAP2 SWAP1 PUSH3 0xCCD JUMP JUMPDEST PUSH20 0xFFFFFFFFFFFFFFFFFFFFFFFFFFFFFFFFFFFFFFFF AND EQ DUP1 PUSH3 0x4CD JUMPI POP DUP4 PUSH20 0xFFFFFFFFFFFFFFFFFFFFFFFFFFFFFFFFFFFFFFFF AND PUSH1 0x0 DUP3 DUP2 SLOAD DUP2 LT PUSH3 0x419 JUMPI PUSH3 0x418 PUSH3 0xAA0 JUMP JUMPDEST JUMPDEST SWAP1 PUSH1 0x0 MSTORE PUSH1 0x20 PUSH1 0x0 KECCAK256 ADD PUSH1 0x0 SWAP1 SLOAD SWAP1 PUSH2 0x100 EXP SWAP1 DIV PUSH20 0xFFFFFFFFFFFFFFFFFFFFFFFFFFFFFFFFFFFFFFFF AND PUSH20 0xFFFFFFFFFFFFFFFFFFFFFFFFFFFFFFFFFFFFFFFF AND PUSH4 0xE74071B4 PUSH1 0x40 MLOAD DUP2 PUSH4 0xFFFFFFFF AND PUSH1 0xE0 SHL DUP2 MSTORE PUSH1 0x4 ADD PUSH1 0x20 PUSH1 0x40 MLOAD DUP1 DUP4 SUB DUP2 DUP7 GAS STATICCALL ISZERO DUP1 ISZERO PUSH3 0x48F JUMPI RETURNDATASIZE PUSH1 0x0 DUP1 RETURNDATACOPY RETURNDATASIZE PUSH1 0x0 REVERT JUMPDEST POP POP POP POP PUSH1 0x40 MLOAD RETURNDATASIZE PUSH1 0x1F NOT PUSH1 0x1F DUP3 ADD AND DUP3 ADD DUP1 PUSH1 0x40 MSTORE POP DUP2 ADD SWAP1 PUSH3 0x4B5 SWAP2 SWAP1 PUSH3 0xCCD JUMP JUMPDEST PUSH20 0xFFFFFFFFFFFFFFFFFFFFFFFFFFFFFFFFFFFFFFFF AND EQ JUMPDEST ISZERO PUSH3 0x566 JUMPI PUSH1 0x0 DUP2 DUP2 SLOAD DUP2 LT PUSH3 0x4EA JUMPI PUSH3 0x4E9 PUSH3 0xAA0 JUMP JUMPDEST JUMPDEST SWAP1 PUSH1 0x0 MSTORE PUSH1 0x20 PUSH1 0x0 KECCAK256 ADD PUSH1 0x0 SWAP1 SLOAD SWAP1 PUSH2 0x100 EXP SWAP1 DIV PUSH20 0xFFFFFFFFFFFFFFFFFFFFFFFFFFFFFFFFFFFFFFFF AND DUP3 DUP3 DUP2 MLOAD DUP2 LT PUSH3 0x52B JUMPI PUSH3 0x52A PUSH3 0xAA0 JUMP JUMPDEST JUMPDEST PUSH1 0x20 MUL PUSH1 0x20 ADD ADD SWAP1 PUSH20 0xFFFFFFFFFFFFFFFFFFFFFFFFFFFFFFFFFFFFFFFF AND SWAP1 DUP2 PUSH20 0xFFFFFFFFFFFFFFFFFFFFFFFFFFFFFFFFFFFFFFFF AND DUP2 MSTORE POP POP JUMPDEST DUP1 DUP1 PUSH3 0x573 SWAP1 PUSH3 0xC69 JUMP JUMPDEST SWAP2 POP POP PUSH3 0x2F5 JUMP JUMPDEST POP DUP1 SWAP2 POP POP SWAP2 SWAP1 POP JUMP JUMPDEST PUSH1 0x60 PUSH1 0x0 DUP1 SLOAD DUP1 PUSH1 0x20 MUL PUSH1 0x20 ADD PUSH1 0x40 MLOAD SWAP1 DUP2 ADD PUSH1 0x40 MSTORE DUP1 SWAP3 SWAP2 SWAP1 DUP2 DUP2 MSTORE PUSH1 0x20 ADD DUP3 DUP1 SLOAD DUP1 ISZERO PUSH3 0x60C JUMPI PUSH1 0x20 MUL DUP3 ADD SWAP2 SWAP1 PUSH1 0x0 MSTORE PUSH1 0x20 PUSH1 0x0 KECCAK256 SWAP1 JUMPDEST DUP2 PUSH1 0x0 SWAP1 SLOAD SWAP1 PUSH2 0x100 EXP SWAP1 DIV PUSH20 0xFFFFFFFFFFFFFFFFFFFFFFFFFFFFFFFFFFFFFFFF AND PUSH20 0xFFFFFFFFFFFFFFFFFFFFFFFFFFFFFFFFFFFFFFFF AND DUP2 MSTORE PUSH1 0x20 ADD SWAP1 PUSH1 0x1 ADD SWAP1 DUP1 DUP4 GT PUSH3 0x5C1 JUMPI JUMPDEST POP POP POP POP POP SWAP1 POP SWAP1 JUMP JUMPDEST PUSH1 0x0 DUP2 PUSH1 0x40 MLOAD PUSH3 0x627 SWAP1 PUSH3 0x6BA JUMP JUMPDEST PUSH3 0x633 SWAP2 SWAP1 PUSH3 0xD51 JUMP JUMPDEST PUSH1 0x40 MLOAD DUP1 SWAP2 SUB SWAP1 PUSH1 0x0 CREATE DUP1 ISZERO DUP1 ISZERO PUSH3 0x650 JUMPI RETURNDATASIZE PUSH1 0x0 DUP1 RETURNDATACOPY RETURNDATASIZE PUSH1 0x0 REVERT JUMPDEST POP SWAP1 POP PUSH1 0x0 DUP2 SWAP1 DUP1 PUSH1 0x1 DUP2 SLOAD ADD DUP1 DUP3 SSTORE DUP1 SWAP2 POP POP PUSH1 0x1 SWAP1 SUB SWAP1 PUSH1 0x0 MSTORE PUSH1 0x20 PUSH1 0x0 KECCAK256 ADD PUSH1 0x0 SWAP1 SWAP2 SWAP1 SWAP2 SWAP1 SWAP2 PUSH2 0x100 EXP DUP2 SLOAD DUP2 PUSH20 0xFFFFFFFFFFFFFFFFFFFFFFFFFFFFFFFFFFFFFFFF MUL NOT AND SWAP1 DUP4 PUSH20 0xFFFFFFFFFFFFFFFFFFFFFFFFFFFFFFFFFFFFFFFF AND MUL OR SWAP1 SSTORE POP POP POP JUMP JUMPDEST PUSH2 0x1525 DUP1 PUSH3 0xD76 DUP4 CODECOPY ADD SWAP1 JUMP JUMPDEST PUSH1 0x0 PUSH1 0x40 MLOAD SWAP1 POP SWAP1 JUMP JUMPDEST PUSH1 0x0 DUP1 REVERT JUMPDEST PUSH1 0x0 DUP1 REVERT JUMPDEST PUSH1 0x0 DUP1 REVERT JUMPDEST PUSH1 0x0 DUP1 REVERT JUMPDEST PUSH1 0x0 PUSH1 0x1F NOT PUSH1 0x1F DUP4 ADD AND SWAP1 POP SWAP2 SWAP1 POP JUMP JUMPDEST PUSH32 0x4E487B7100000000000000000000000000000000000000000000000000000000 PUSH1 0x0 MSTORE PUSH1 0x41 PUSH1 0x4 MSTORE PUSH1 0x24 PUSH1 0x0 REVERT JUMPDEST PUSH3 0x731 DUP3 PUSH3 0x6E6 JUMP JUMPDEST DUP2 ADD DUP2 DUP2 LT PUSH8 0xFFFFFFFFFFFFFFFF DUP3 GT OR ISZERO PUSH3 0x753 JUMPI PUSH3 0x752 PUSH3 0x6F7 JUMP JUMPDEST JUMPDEST DUP1 PUSH1 0x40 MSTORE POP POP POP JUMP JUMPDEST PUSH1 0x0 PUSH3 0x768 PUSH3 0x6C8 JUMP JUMPDEST SWAP1 POP PUSH3 0x776 DUP3 DUP3 PUSH3 0x726 JUMP JUMPDEST SWAP2 SWAP1 POP JUMP JUMPDEST PUSH1 0x0 PUSH8 0xFFFFFFFFFFFFFFFF DUP3 GT ISZERO PUSH3 0x799 JUMPI PUSH3 0x798 PUSH3 0x6F7 JUMP JUMPDEST JUMPDEST PUSH3 0x7A4 DUP3 PUSH3 0x6E6 JUMP JUMPDEST SWAP1 POP PUSH1 0x20 DUP2 ADD SWAP1 POP SWAP2 SWAP1 POP JUMP JUMPDEST DUP3 DUP2 DUP4 CALLDATACOPY PUSH1 0x0 DUP4 DUP4 ADD MSTORE POP POP POP JUMP JUMPDEST PUSH1 0x0 PUSH3 0x7D7 PUSH3 0x7D1 DUP5 PUSH3 0x77B JUMP JUMPDEST PUSH3 0x75C JUMP JUMPDEST SWAP1 POP DUP3 DUP2 MSTORE PUSH1 0x20 DUP2 ADD DUP5 DUP5 DUP5 ADD GT ISZERO PUSH3 0x7F6 JUMPI PUSH3 0x7F5 PUSH3 0x6E1 JUMP JUMPDEST JUMPDEST PUSH3 0x803 DUP5 DUP3 DUP6 PUSH3 0x7B1 JUMP JUMPDEST POP SWAP4 SWAP3 POP POP POP JUMP JUMPDEST PUSH1 0x0 DUP3 PUSH1 0x1F DUP4 ADD SLT PUSH3 0x823 JUMPI PUSH3 0x822 PUSH3 0x6DC JUMP JUMPDEST JUMPDEST DUP2 CALLDATALOAD PUSH3 0x835 DUP5 DUP3 PUSH1 0x20 DUP7 ADD PUSH3 0x7C0 JUMP JUMPDEST SWAP2 POP POP SWAP3 SWAP2 POP POP JUMP JUMPDEST PUSH1 0x0 PUSH1 0x20 DUP3 DUP5 SUB SLT ISZERO PUSH3 0x857 JUMPI PUSH3 0x856 PUSH3 0x6D2 JUMP JUMPDEST JUMPDEST PUSH1 0x0 DUP3 ADD CALLDATALOAD PUSH8 0xFFFFFFFFFFFFFFFF DUP2 GT ISZERO PUSH3 0x878 JUMPI PUSH3 0x877 PUSH3 0x6D7 JUMP JUMPDEST JUMPDEST PUSH3 0x886 DUP5 DUP3 DUP6 ADD PUSH3 0x80B JUMP JUMPDEST SWAP2 POP POP SWAP3 SWAP2 POP POP JUMP JUMPDEST PUSH1 0x0 PUSH20 0xFFFFFFFFFFFFFFFFFFFFFFFFFFFFFFFFFFFFFFFF DUP3 AND SWAP1 POP SWAP2 SWAP1 POP JUMP JUMPDEST PUSH1 0x0 PUSH3 0x8BC DUP3 PUSH3 0x88F JUMP JUMPDEST SWAP1 POP SWAP2 SWAP1 POP JUMP JUMPDEST PUSH3 0x8CE DUP2 PUSH3 0x8AF JUMP JUMPDEST DUP3 MSTORE POP POP JUMP JUMPDEST PUSH1 0x0 PUSH1 0x20 DUP3 ADD SWAP1 POP PUSH3 0x8EB PUSH1 0x0 DUP4 ADD DUP5 PUSH3 0x8C3 JUMP JUMPDEST SWAP3 SWAP2 POP POP JUMP JUMPDEST PUSH3 0x8FC DUP2 PUSH3 0x8AF JUMP JUMPDEST DUP2 EQ PUSH3 0x908 JUMPI PUSH1 0x0 DUP1 REVERT JUMPDEST POP JUMP JUMPDEST PUSH1 0x0 DUP2 CALLDATALOAD SWAP1 POP PUSH3 0x91C DUP2 PUSH3 0x8F1 JUMP JUMPDEST SWAP3 SWAP2 POP POP JUMP JUMPDEST PUSH1 0x0 PUSH1 0x20 DUP3 DUP5 SUB SLT ISZERO PUSH3 0x93B JUMPI PUSH3 0x93A PUSH3 0x6D2 JUMP JUMPDEST JUMPDEST PUSH1 0x0 PUSH3 0x94B DUP5 DUP3 DUP6 ADD PUSH3 0x90B JUMP JUMPDEST SWAP2 POP POP SWAP3 SWAP2 POP POP JUMP JUMPDEST PUSH1 0x0 DUP2 MLOAD SWAP1 POP SWAP2 SWAP1 POP JUMP JUMPDEST PUSH1 0x0 DUP3 DUP3 MSTORE PUSH1 0x20 DUP3 ADD SWAP1 POP SWAP3 SWAP2 POP POP JUMP JUMPDEST PUSH1 0x0 DUP2 SWAP1 POP PUSH1 0x20 DUP3 ADD SWAP1 POP SWAP2 SWAP1 POP JUMP JUMPDEST PUSH1 0x0 DUP2 SWAP1 POP SWAP2 SWAP1 POP JUMP JUMPDEST PUSH1 0x0 PUSH3 0x9AB PUSH3 0x9A5 PUSH3 0x99F DUP5 PUSH3 0x88F JUMP JUMPDEST PUSH3 0x980 JUMP JUMPDEST PUSH3 0x88F JUMP JUMPDEST SWAP1 POP SWAP2 SWAP1 POP JUMP JUMPDEST PUSH1 0x0 PUSH3 0x9BF DUP3 PUSH3 0x98A JUMP JUMPDEST SWAP1 POP SWAP2 SWAP1 POP JUMP JUMPDEST PUSH1 0x0 PUSH3 0x9D3 DUP3 PUSH3 0x9B2 JUMP JUMPDEST SWAP1 POP SWAP2 SWAP1 POP JUMP JUMPDEST PUSH3 0x9E5 DUP2 PUSH3 0x9C6 JUMP JUMPDEST DUP3 MSTORE POP POP JUMP JUMPDEST PUSH1 0x0 PUSH3 0x9F9 DUP4 DUP4 PUSH3 0x9DA JUMP JUMPDEST PUSH1 0x20 DUP4 ADD SWAP1 POP SWAP3 SWAP2 POP POP JUMP JUMPDEST PUSH1 0x0 PUSH1 0x20 DUP3 ADD SWAP1 POP SWAP2 SWAP1 POP JUMP JUMPDEST PUSH1 0x0 PUSH3 0xA1F DUP3 PUSH3 0x954 JUMP JUMPDEST PUSH3 0xA2B DUP2 DUP6 PUSH3 0x95F JUMP JUMPDEST SWAP4 POP PUSH3 0xA38 DUP4 PUSH3 0x970 JUMP JUMPDEST DUP1 PUSH1 0x0 JUMPDEST DUP4 DUP2 LT ISZERO PUSH3 0xA6F JUMPI DUP2 MLOAD PUSH3 0xA53 DUP9 DUP3 PUSH3 0x9EB JUMP JUMPDEST SWAP8 POP PUSH3 0xA60 DUP4 PUSH3 0xA05 JUMP JUMPDEST SWAP3 POP POP PUSH1 0x1 DUP2 ADD SWAP1 POP PUSH3 0xA3C JUMP JUMPDEST POP DUP6 SWAP4 POP POP POP POP SWAP3 SWAP2 POP POP JUMP JUMPDEST PUSH1 0x0 PUSH1 0x20 DUP3 ADD SWAP1 POP DUP2 DUP2 SUB PUSH1 0x0 DUP4 ADD MSTORE PUSH3 0xA98 DUP2 DUP5 PUSH3 0xA12 JUMP JUMPDEST SWAP1 POP SWAP3 SWAP2 POP POP JUMP JUMPDEST PUSH32 0x4E487B7100000000000000000000000000000000000000000000000000000000 PUSH1 0x0 MSTORE PUSH1 0x32 PUSH1 0x4 MSTORE PUSH1 0x24 PUSH1 0x0 REVERT JUMPDEST PUSH1 0x0 JUMPDEST DUP4 DUP2 LT ISZERO PUSH3 0xAEF JUMPI DUP1 DUP3 ADD MLOAD DUP2 DUP5 ADD MSTORE PUSH1 0x20 DUP2 ADD SWAP1 POP PUSH3 0xAD2 JUMP JUMPDEST PUSH1 0x0 DUP5 DUP5 ADD MSTORE POP POP POP POP JUMP JUMPDEST PUSH1 0x0 PUSH3 0xB12 PUSH3 0xB0C DUP5 PUSH3 0x77B JUMP JUMPDEST PUSH3 0x75C JUMP JUMPDEST SWAP1 POP DUP3 DUP2 MSTORE PUSH1 0x20 DUP2 ADD DUP5 DUP5 DUP5 ADD GT ISZERO PUSH3 0xB31 JUMPI PUSH3 0xB30 PUSH3 0x6E1 JUMP JUMPDEST JUMPDEST PUSH3 0xB3E DUP5 DUP3 DUP6 PUSH3 0xACF JUMP JUMPDEST POP SWAP4 SWAP3 POP POP POP JUMP JUMPDEST PUSH1 0x0 DUP3 PUSH1 0x1F DUP4 ADD SLT PUSH3 0xB5E JUMPI PUSH3 0xB5D PUSH3 0x6DC JUMP JUMPDEST JUMPDEST DUP2 MLOAD PUSH3 0xB70 DUP5 DUP3 PUSH1 0x20 DUP7 ADD PUSH3 0xAFB JUMP JUMPDEST SWAP2 POP POP SWAP3 SWAP2 POP POP JUMP JUMPDEST PUSH1 0x0 PUSH1 0x20 DUP3 DUP5 SUB SLT ISZERO PUSH3 0xB92 JUMPI PUSH3 0xB91 PUSH3 0x6D2 JUMP JUMPDEST JUMPDEST PUSH1 0x0 DUP3 ADD MLOAD PUSH8 0xFFFFFFFFFFFFFFFF DUP2 GT ISZERO PUSH3 0xBB3 JUMPI PUSH3 0xBB2 PUSH3 0x6D7 JUMP JUMPDEST JUMPDEST PUSH3 0xBC1 DUP5 DUP3 DUP6 ADD PUSH3 0xB46 JUMP JUMPDEST SWAP2 POP POP SWAP3 SWAP2 POP POP JUMP JUMPDEST PUSH1 0x0 DUP2 MLOAD SWAP1 POP SWAP2 SWAP1 POP JUMP JUMPDEST PUSH1 0x0 DUP2 SWAP1 POP SWAP3 SWAP2 POP POP JUMP JUMPDEST PUSH1 0x0 PUSH3 0xBED DUP3 PUSH3 0xBCA JUMP JUMPDEST PUSH3 0xBF9 DUP2 DUP6 PUSH3 0xBD5 JUMP JUMPDEST SWAP4 POP PUSH3 0xC0B DUP2 DUP6 PUSH1 0x20 DUP7 ADD PUSH3 0xACF JUMP JUMPDEST DUP1 DUP5 ADD SWAP2 POP POP SWAP3 SWAP2 POP POP JUMP JUMPDEST PUSH1 0x0 PUSH3 0xC25 DUP3 DUP5 PUSH3 0xBE0 JUMP JUMPDEST SWAP2 POP DUP2 SWAP1 POP SWAP3 SWAP2 POP POP JUMP JUMPDEST PUSH32 0x4E487B7100000000000000000000000000000000000000000000000000000000 PUSH1 0x0 MSTORE PUSH1 0x11 PUSH1 0x4 MSTORE PUSH1 0x24 PUSH1 0x0 REVERT JUMPDEST PUSH1 0x0 DUP2 SWAP1 POP SWAP2 SWAP1 POP JUMP JUMPDEST PUSH1 0x0 PUSH3 0xC76 DUP3 PUSH3 0xC5F JUMP JUMPDEST SWAP2 POP PUSH32 0xFFFFFFFFFFFFFFFFFFFFFFFFFFFFFFFFFFFFFFFFFFFFFFFFFFFFFFFFFFFFFFFF DUP3 SUB PUSH3 0xCAB JUMPI PUSH3 0xCAA PUSH3 0xC30 JUMP JUMPDEST JUMPDEST PUSH1 0x1 DUP3 ADD SWAP1 POP SWAP2 SWAP1 POP JUMP JUMPDEST PUSH1 0x0 DUP2 MLOAD SWAP1 POP PUSH3 0xCC7 DUP2 PUSH3 0x8F1 JUMP JUMPDEST SWAP3 SWAP2 POP POP JUMP JUMPDEST PUSH1 0x0 PUSH1 0x20 DUP3 DUP5 SUB SLT ISZERO PUSH3 0xCE6 JUMPI PUSH3 0xCE5 PUSH3 0x6D2 JUMP JUMPDEST JUMPDEST PUSH1 0x0 PUSH3 0xCF6 DUP5 DUP3 DUP6 ADD PUSH3 0xCB6 JUMP JUMPDEST SWAP2 POP POP SWAP3 SWAP2 POP POP JUMP JUMPDEST PUSH1 0x0 DUP3 DUP3 MSTORE PUSH1 0x20 DUP3 ADD SWAP1 POP SWAP3 SWAP2 POP POP JUMP JUMPDEST PUSH1 0x0 PUSH3 0xD1D DUP3 PUSH3 0xBCA JUMP JUMPDEST PUSH3 0xD29 DUP2 DUP6 PUSH3 0xCFF JUMP JUMPDEST SWAP4 POP PUSH3 0xD3B DUP2 DUP6 PUSH1 0x20 DUP7 ADD PUSH3 0xACF JUMP JUMPDEST PUSH3 0xD46 DUP2 PUSH3 0x6E6 JUMP JUMPDEST DUP5 ADD SWAP2 POP POP SWAP3 SWAP2 POP POP JUMP JUMPDEST PUSH1 0x0 PUSH1 0x20 DUP3 ADD SWAP1 POP DUP2 DUP2 SUB PUSH1 0x0 DUP4 ADD MSTORE PUSH3 0xD6D DUP2 DUP5 PUSH3 0xD10 JUMP JUMPDEST SWAP1 POP SWAP3 SWAP2 POP POP JUMP INVALID PUSH1 0x80 PUSH1 0x40 MSTORE CALLVALUE DUP1 ISZERO PUSH3 0x11 JUMPI PUSH1 0x0 DUP1 REVERT JUMPDEST POP PUSH1 0x40 MLOAD PUSH3 0x1525 CODESIZE SUB DUP1 PUSH3 0x1525 DUP4 CODECOPY DUP2 DUP2 ADD PUSH1 0x40 MSTORE DUP2 ADD SWAP1 PUSH3 0x37 SWAP2 SWAP1 PUSH3 0x211 JUMP JUMPDEST DUP1 PUSH1 0x0 SWAP1 DUP2 PUSH3 0x48 SWAP2 SWAP1 PUSH3 0x4AD JUMP JUMPDEST POP PUSH1 0x0 PUSH1 0xB PUSH1 0x0 PUSH2 0x100 EXP DUP2 SLOAD DUP2 PUSH1 0xFF MUL NOT AND SWAP1 DUP4 PUSH1 0x7 DUP2 GT ISZERO PUSH3 0x72 JUMPI PUSH3 0x71 PUSH3 0x594 JUMP JUMPDEST JUMPDEST MUL OR SWAP1 SSTORE POP POP PUSH3 0x5C3 JUMP JUMPDEST PUSH1 0x0 PUSH1 0x40 MLOAD SWAP1 POP SWAP1 JUMP JUMPDEST PUSH1 0x0 DUP1 REVERT JUMPDEST PUSH1 0x0 DUP1 REVERT JUMPDEST PUSH1 0x0 DUP1 REVERT JUMPDEST PUSH1 0x0 DUP1 REVERT JUMPDEST PUSH1 0x0 PUSH1 0x1F NOT PUSH1 0x1F DUP4 ADD AND SWAP1 POP SWAP2 SWAP1 POP JUMP JUMPDEST PUSH32 0x4E487B7100000000000000000000000000000000000000000000000000000000 PUSH1 0x0 MSTORE PUSH1 0x41 PUSH1 0x4 MSTORE PUSH1 0x24 PUSH1 0x0 REVERT JUMPDEST PUSH3 0xE7 DUP3 PUSH3 0x9C JUMP JUMPDEST DUP2 ADD DUP2 DUP2 LT PUSH8 0xFFFFFFFFFFFFFFFF DUP3 GT OR ISZERO PUSH3 0x109 JUMPI PUSH3 0x108 PUSH3 0xAD JUMP JUMPDEST JUMPDEST DUP1 PUSH1 0x40 MSTORE POP POP POP JUMP JUMPDEST PUSH1 0x0 PUSH3 0x11E PUSH3 0x7E JUMP JUMPDEST SWAP1 POP PUSH3 0x12C DUP3 DUP3 PUSH3 0xDC JUMP JUMPDEST SWAP2 SWAP1 POP JUMP JUMPDEST PUSH1 0x0 PUSH8 0xFFFFFFFFFFFFFFFF DUP3 GT ISZERO PUSH3 0x14F JUMPI PUSH3 0x14E PUSH3 0xAD JUMP JUMPDEST JUMPDEST PUSH3 0x15A DUP3 PUSH3 0x9C JUMP JUMPDEST SWAP1 POP PUSH1 0x20 DUP2 ADD SWAP1 POP SWAP2 SWAP1 POP JUMP JUMPDEST PUSH1 0x0 JUMPDEST DUP4 DUP2 LT ISZERO PUSH3 0x187 JUMPI DUP1 DUP3 ADD MLOAD DUP2 DUP5 ADD MSTORE PUSH1 0x20 DUP2 ADD SWAP1 POP PUSH3 0x16A JUMP JUMPDEST PUSH1 0x0 DUP5 DUP5 ADD MSTORE POP POP POP POP JUMP JUMPDEST PUSH1 0x0 PUSH3 0x1AA PUSH3 0x1A4 DUP5 PUSH3 0x131 JUMP JUMPDEST PUSH3 0x112 JUMP JUMPDEST SWAP1 POP DUP3 DUP2 MSTORE PUSH1 0x20 DUP2 ADD DUP5 DUP5 DUP5 ADD GT ISZERO PUSH3 0x1C9 JUMPI PUSH3 0x1C8 PUSH3 0x97 JUMP JUMPDEST JUMPDEST PUSH3 0x1D6 DUP5 DUP3 DUP6 PUSH3 0x167 JUMP JUMPDEST POP SWAP4 SWAP3 POP POP POP JUMP JUMPDEST PUSH1 0x0 DUP3 PUSH1 0x1F DUP4 ADD SLT PUSH3 0x1F6 JUMPI PUSH3 0x1F5 PUSH3 0x92 JUMP JUMPDEST JUMPDEST DUP2 MLOAD PUSH3 0x208 DUP5 DUP3 PUSH1 0x20 DUP7 ADD PUSH3 0x193 JUMP JUMPDEST SWAP2 POP POP SWAP3 SWAP2 POP POP JUMP JUMPDEST PUSH1 0x0 PUSH1 0x20 DUP3 DUP5 SUB SLT ISZERO PUSH3 0x22A JUMPI PUSH3 0x229 PUSH3 0x88 JUMP JUMPDEST JUMPDEST PUSH1 0x0 DUP3 ADD MLOAD PUSH8 0xFFFFFFFFFFFFFFFF DUP2 GT ISZERO PUSH3 0x24B JUMPI PUSH3 0x24A PUSH3 0x8D JUMP JUMPDEST JUMPDEST PUSH3 0x259 DUP5 DUP3 DUP6 ADD PUSH3 0x1DE JUMP JUMPDEST SWAP2 POP POP SWAP3 SWAP2 POP POP JUMP JUMPDEST PUSH1 0x0 DUP2 MLOAD SWAP1 POP SWAP2 SWAP1 POP JUMP JUMPDEST PUSH32 0x4E487B7100000000000000000000000000000000000000000000000000000000 PUSH1 0x0 MSTORE PUSH1 0x22 PUSH1 0x4 MSTORE PUSH1 0x24 PUSH1 0x0 REVERT JUMPDEST PUSH1 0x0 PUSH1 0x2 DUP3 DIV SWAP1 POP PUSH1 0x1 DUP3 AND DUP1 PUSH3 0x2B5 JUMPI PUSH1 0x7F DUP3 AND SWAP2 POP JUMPDEST PUSH1 0x20 DUP3 LT DUP2 SUB PUSH3 0x2CB JUMPI PUSH3 0x2CA PUSH3 0x26D JUMP JUMPDEST JUMPDEST POP SWAP2 SWAP1 POP JUMP JUMPDEST PUSH1 0x0 DUP2 SWAP1 POP DUP2 PUSH1 0x0 MSTORE PUSH1 0x20 PUSH1 0x0 KECCAK256 SWAP1 POP SWAP2 SWAP1 POP JUMP JUMPDEST PUSH1 0x0 PUSH1 0x20 PUSH1 0x1F DUP4 ADD DIV SWAP1 POP SWAP2 SWAP1 POP JUMP JUMPDEST PUSH1 0x0 DUP3 DUP3 SHL SWAP1 POP SWAP3 SWAP2 POP POP JUMP JUMPDEST PUSH1 0x0 PUSH1 0x8 DUP4 MUL PUSH3 0x335 PUSH32 0xFFFFFFFFFFFFFFFFFFFFFFFFFFFFFFFFFFFFFFFFFFFFFFFFFFFFFFFFFFFFFFFF DUP3 PUSH3 0x2F6 JUMP JUMPDEST PUSH3 0x341 DUP7 DUP4 PUSH3 0x2F6 JUMP JUMPDEST SWAP6 POP DUP1 NOT DUP5 AND SWAP4 POP DUP1 DUP7 AND DUP5 OR SWAP3 POP POP POP SWAP4 SWAP3 POP POP POP JUMP JUMPDEST PUSH1 0x0 DUP2 SWAP1 POP SWAP2 SWAP1 POP JUMP JUMPDEST PUSH1 0x0 DUP2 SWAP1 POP SWAP2 SWAP1 POP JUMP JUMPDEST PUSH1 0x0 PUSH3 0x38E PUSH3 0x388 PUSH3 0x382 DUP5 PUSH3 0x359 JUMP JUMPDEST PUSH3 0x363 JUMP JUMPDEST PUSH3 0x359 JUMP JUMPDEST SWAP1 POP SWAP2 SWAP1 POP JUMP JUMPDEST PUSH1 0x0 DUP2 SWAP1 POP SWAP2 SWAP1 POP JUMP JUMPDEST PUSH3 0x3AA DUP4 PUSH3 0x36D JUMP JUMPDEST PUSH3 0x3C2 PUSH3 0x3B9 DUP3 PUSH3 0x395 JUMP JUMPDEST DUP5 DUP5 SLOAD PUSH3 0x303 JUMP JUMPDEST DUP3 SSTORE POP POP POP POP JUMP JUMPDEST PUSH1 0x0 SWAP1 JUMP JUMPDEST PUSH3 0x3D9 PUSH3 0x3CA JUMP JUMPDEST PUSH3 0x3E6 DUP2 DUP5 DUP5 PUSH3 0x39F JUMP JUMPDEST POP POP POP JUMP JUMPDEST JUMPDEST DUP2 DUP2 LT ISZERO PUSH3 0x40E JUMPI PUSH3 0x402 PUSH1 0x0 DUP3 PUSH3 0x3CF JUMP JUMPDEST PUSH1 0x1 DUP2 ADD SWAP1 POP PUSH3 0x3EC JUMP JUMPDEST POP POP JUMP JUMPDEST PUSH1 0x1F DUP3 GT ISZERO PUSH3 0x45D JUMPI PUSH3 0x427 DUP2 PUSH3 0x2D1 JUMP JUMPDEST PUSH3 0x432 DUP5 PUSH3 0x2E6 JUMP JUMPDEST DUP2 ADD PUSH1 0x20 DUP6 LT ISZERO PUSH3 0x442 JUMPI DUP2 SWAP1 POP JUMPDEST PUSH3 0x45A PUSH3 0x451 DUP6 PUSH3 0x2E6 JUMP JUMPDEST DUP4 ADD DUP3 PUSH3 0x3EB JUMP JUMPDEST POP POP JUMPDEST POP POP POP JUMP JUMPDEST PUSH1 0x0 DUP3 DUP3 SHR SWAP1 POP SWAP3 SWAP2 POP POP JUMP JUMPDEST PUSH1 0x0 PUSH3 0x482 PUSH1 0x0 NOT DUP5 PUSH1 0x8 MUL PUSH3 0x462 JUMP JUMPDEST NOT DUP1 DUP4 AND SWAP2 POP POP SWAP3 SWAP2 POP POP JUMP JUMPDEST PUSH1 0x0 PUSH3 0x49D DUP4 DUP4 PUSH3 0x46F JUMP JUMPDEST SWAP2 POP DUP3 PUSH1 0x2 MUL DUP3 OR SWAP1 POP SWAP3 SWAP2 POP POP JUMP JUMPDEST PUSH3 0x4B8 DUP3 PUSH3 0x262 JUMP JUMPDEST PUSH8 0xFFFFFFFFFFFFFFFF DUP2 GT ISZERO PUSH3 0x4D4 JUMPI PUSH3 0x4D3 PUSH3 0xAD JUMP JUMPDEST JUMPDEST PUSH3 0x4E0 DUP3 SLOAD PUSH3 0x29C JUMP JUMPDEST PUSH3 0x4ED DUP3 DUP3 DUP6 PUSH3 0x412 JUMP JUMPDEST PUSH1 0x0 PUSH1 0x20 SWAP1 POP PUSH1 0x1F DUP4 GT PUSH1 0x1 DUP2 EQ PUSH3 0x525 JUMPI PUSH1 0x0 DUP5 ISZERO PUSH3 0x510 JUMPI DUP3 DUP8 ADD MLOAD SWAP1 POP JUMPDEST PUSH3 0x51C DUP6 DUP3 PUSH3 0x48F JUMP JUMPDEST DUP7 SSTORE POP PUSH3 0x58C JUMP JUMPDEST PUSH1 0x1F NOT DUP5 AND PUSH3 0x535 DUP7 PUSH3 0x2D1 JUMP JUMPDEST PUSH1 0x0 JUMPDEST DUP3 DUP2 LT ISZERO PUSH3 0x55F JUMPI DUP5 DUP10 ADD MLOAD DUP3 SSTORE PUSH1 0x1 DUP3 ADD SWAP2 POP PUSH1 0x20 DUP6 ADD SWAP5 POP PUSH1 0x20 DUP2 ADD SWAP1 POP PUSH3 0x538 JUMP JUMPDEST DUP7 DUP4 LT ISZERO PUSH3 0x57F JUMPI DUP5 DUP10 ADD MLOAD PUSH3 0x57B PUSH1 0x1F DUP10 AND DUP3 PUSH3 0x46F JUMP JUMPDEST DUP4 SSTORE POP JUMPDEST PUSH1 0x1 PUSH1 0x2 DUP9 MUL ADD DUP9 SSTORE POP POP POP JUMPDEST POP POP POP POP POP POP JUMP JUMPDEST PUSH32 0x4E487B7100000000000000000000000000000000000000000000000000000000 PUSH1 0x0 MSTORE PUSH1 0x21 PUSH1 0x4 MSTORE PUSH1 0x24 PUSH1 0x0 REVERT JUMPDEST PUSH2 0xF52 DUP1 PUSH3 0x5D3 PUSH1 0x0 CODECOPY PUSH1 0x0 RETURN INVALID PUSH1 0x80 PUSH1 0x40 MSTORE PUSH1 0x4 CALLDATASIZE LT PUSH2 0x9C JUMPI PUSH1 0x0 CALLDATALOAD PUSH1 0xE0 SHR DUP1 PUSH4 0x91F30BD4 GT PUSH2 0x64 JUMPI DUP1 PUSH4 0x91F30BD4 EQ PUSH2 0x14C JUMPI DUP1 PUSH4 0x9DFC9117 EQ PUSH2 0x177 JUMPI DUP1 PUSH4 0xA8E4FB90 EQ PUSH2 0x1AC JUMPI DUP1 PUSH4 0xD0E30DB0 EQ PUSH2 0x1D7 JUMPI DUP1 PUSH4 0xE74071B4 EQ PUSH2 0x1E1 JUMPI DUP1 PUSH4 0xFF4C4D54 EQ PUSH2 0x20C JUMPI PUSH2 0x9C JUMP JUMPDEST DUP1 PUSH4 0x1865C57D EQ PUSH2 0xA1 JUMPI DUP1 PUSH4 0x3CCFD60B EQ PUSH2 0xCC JUMPI DUP1 PUSH4 0x509C2222 EQ PUSH2 0xE3 JUMPI DUP1 PUSH4 0x79E93BF8 EQ PUSH2 0x10C JUMPI DUP1 PUSH4 0x7C8DC575 EQ PUSH2 0x135 JUMPI JUMPDEST PUSH1 0x0 DUP1 REVERT JUMPDEST CALLVALUE DUP1 ISZERO PUSH2 0xAD JUMPI PUSH1 0x0 DUP1 REVERT JUMPDEST POP PUSH2 0xB6 PUSH2 0x223 JUMP JUMPDEST PUSH1 0x40 MLOAD PUSH2 0xC3 SWAP2 SWAP1 PUSH2 0x9BE JUMP JUMPDEST PUSH1 0x40 MLOAD DUP1 SWAP2 SUB SWAP1 RETURN JUMPDEST CALLVALUE DUP1 ISZERO PUSH2 0xD8 JUMPI PUSH1 0x0 DUP1 REVERT JUMPDEST POP PUSH2 0xE1 PUSH2 0x2AC JUMP JUMPDEST STOP JUMPDEST CALLVALUE DUP1 ISZERO PUSH2 0xEF JUMPI PUSH1 0x0 DUP1 REVERT JUMPDEST POP PUSH2 0x10A PUSH1 0x4 DUP1 CALLDATASIZE SUB DUP2 ADD SWAP1 PUSH2 0x105 SWAP2 SWAP1 PUSH2 0xA72 JUMP JUMPDEST PUSH2 0x3BA JUMP JUMPDEST STOP JUMPDEST CALLVALUE DUP1 ISZERO PUSH2 0x118 JUMPI PUSH1 0x0 DUP1 REVERT JUMPDEST POP PUSH2 0x133 PUSH1 0x4 DUP1 CALLDATASIZE SUB DUP2 ADD SWAP1 PUSH2 0x12E SWAP2 SWAP1 PUSH2 0xB3C JUMP JUMPDEST PUSH2 0x478 JUMP JUMPDEST STOP JUMPDEST CALLVALUE DUP1 ISZERO PUSH2 0x141 JUMPI PUSH1 0x0 DUP1 REVERT JUMPDEST POP PUSH2 0x14A PUSH2 0x5ED JUMP JUMPDEST STOP JUMPDEST CALLVALUE DUP1 ISZERO PUSH2 0x158 JUMPI PUSH1 0x0 DUP1 REVERT JUMPDEST POP PUSH2 0x161 PUSH2 0x61A JUMP JUMPDEST PUSH1 0x40 MLOAD PUSH2 0x16E SWAP2 SWAP1 PUSH2 0xBF9 JUMP JUMPDEST PUSH1 0x40 MLOAD DUP1 SWAP2 SUB SWAP1 RETURN JUMPDEST CALLVALUE DUP1 ISZERO PUSH2 0x183 JUMPI PUSH1 0x0 DUP1 REVERT JUMPDEST POP PUSH2 0x18C PUSH2 0x6A8 JUMP JUMPDEST PUSH1 0x40 MLOAD PUSH2 0x1A3 SWAP12 SWAP11 SWAP10 SWAP9 SWAP8 SWAP7 SWAP6 SWAP5 SWAP4 SWAP3 SWAP2 SWAP1 PUSH2 0xC39 JUMP JUMPDEST PUSH1 0x40 MLOAD DUP1 SWAP2 SUB SWAP1 RETURN JUMPDEST CALLVALUE DUP1 ISZERO PUSH2 0x1B8 JUMPI PUSH1 0x0 DUP1 REVERT JUMPDEST POP PUSH2 0x1C1 PUSH2 0x7E7 JUMP JUMPDEST PUSH1 0x40 MLOAD PUSH2 0x1CE SWAP2 SWAP1 PUSH2 0xCEB JUMP JUMPDEST PUSH1 0x40 MLOAD DUP1 SWAP2 SUB SWAP1 RETURN JUMPDEST PUSH2 0x1DF PUSH2 0x80D JUMP JUMPDEST STOP JUMPDEST CALLVALUE DUP1 ISZERO PUSH2 0x1ED JUMPI PUSH1 0x0 DUP1 REVERT JUMPDEST POP PUSH2 0x1F6 PUSH2 0x8F4 JUMP JUMPDEST PUSH1 0x40 MLOAD PUSH2 0x203 SWAP2 SWAP1 PUSH2 0xCEB JUMP JUMPDEST PUSH1 0x40 MLOAD DUP1 SWAP2 SUB SWAP1 RETURN JUMPDEST CALLVALUE DUP1 ISZERO PUSH2 0x218 JUMPI PUSH1 0x0 DUP1 REVERT JUMPDEST POP PUSH2 0x221 PUSH2 0x91A JUMP JUMPDEST STOP JUMPDEST PUSH1 0x0 PUSH1 0x2 PUSH1 0x7 DUP2 GT ISZERO PUSH2 0x239 JUMPI PUSH2 0x238 PUSH2 0x947 JUMP JUMPDEST JUMPDEST PUSH1 0xB PUSH1 0x0 SWAP1 SLOAD SWAP1 PUSH2 0x100 EXP SWAP1 DIV PUSH1 0xFF AND PUSH1 0x7 DUP2 GT ISZERO PUSH2 0x25B JUMPI PUSH2 0x25A PUSH2 0x947 JUMP JUMPDEST JUMPDEST SUB PUSH2 0x297 JUMPI PUSH1 0x5 SLOAD TIMESTAMP GT ISZERO PUSH2 0x296 JUMPI PUSH1 0x7 PUSH1 0xB PUSH1 0x0 PUSH2 0x100 EXP DUP2 SLOAD DUP2 PUSH1 0xFF MUL NOT AND SWAP1 DUP4 PUSH1 0x7 DUP2 GT ISZERO PUSH2 0x290 JUMPI PUSH2 0x28F PUSH2 0x947 JUMP JUMPDEST JUMPDEST MUL OR SWAP1 SSTORE POP JUMPDEST JUMPDEST PUSH1 0xB PUSH1 0x0 SWAP1 SLOAD SWAP1 PUSH2 0x100 EXP SWAP1 DIV PUSH1 0xFF AND SWAP1 POP SWAP1 JUMP JUMPDEST PUSH1 0x3 PUSH1 0x7 DUP2 GT ISZERO PUSH2 0x2C0 JUMPI PUSH2 0x2BF PUSH2 0x947 JUMP JUMPDEST JUMPDEST PUSH1 0xB PUSH1 0x0 SWAP1 SLOAD SWAP1 PUSH2 0x100 EXP SWAP1 DIV PUSH1 0xFF AND PUSH1 0x7 DUP2 GT ISZERO PUSH2 0x2E2 JUMPI PUSH2 0x2E1 PUSH2 0x947 JUMP JUMPDEST JUMPDEST EQ PUSH2 0x322 JUMPI PUSH1 0x40 MLOAD PUSH32 0x8C379A000000000000000000000000000000000000000000000000000000000 DUP2 MSTORE PUSH1 0x4 ADD PUSH2 0x319 SWAP1 PUSH2 0xD78 JUMP JUMPDEST PUSH1 0x40 MLOAD DUP1 SWAP2 SUB SWAP1 REVERT JUMPDEST PUSH1 0x2 PUSH1 0x0 SWAP1 SLOAD SWAP1 PUSH2 0x100 EXP SWAP1 DIV PUSH20 0xFFFFFFFFFFFFFFFFFFFFFFFFFFFFFFFFFFFFFFFF AND PUSH20 0xFFFFFFFFFFFFFFFFFFFFFFFFFFFFFFFFFFFFFFFF AND PUSH2 0x8FC PUSH1 0x7 SLOAD SWAP1 DUP2 ISZERO MUL SWAP1 PUSH1 0x40 MLOAD PUSH1 0x0 PUSH1 0x40 MLOAD DUP1 DUP4 SUB DUP2 DUP6 DUP9 DUP9 CALL SWAP4 POP POP POP POP ISZERO DUP1 ISZERO PUSH2 0x38C JUMPI RETURNDATASIZE PUSH1 0x0 DUP1 RETURNDATACOPY RETURNDATASIZE PUSH1 0x0 REVERT JUMPDEST POP PUSH1 0x2 PUSH1 0xB PUSH1 0x0 PUSH2 0x100 EXP DUP2 SLOAD DUP2 PUSH1 0xFF MUL NOT AND SWAP1 DUP4 PUSH1 0x7 DUP2 GT ISZERO PUSH2 0x3B3 JUMPI PUSH2 0x3B2 PUSH2 0x947 JUMP JUMPDEST JUMPDEST MUL OR SWAP1 SSTORE POP JUMP JUMPDEST DUP9 PUSH1 0x1 PUSH1 0x0 PUSH2 0x100 EXP DUP2 SLOAD DUP2 PUSH20 0xFFFFFFFFFFFFFFFFFFFFFFFFFFFFFFFFFFFFFFFF MUL NOT AND SWAP1 DUP4 PUSH20 0xFFFFFFFFFFFFFFFFFFFFFFFFFFFFFFFFFFFFFFFF AND MUL OR SWAP1 SSTORE POP DUP8 PUSH1 0x2 PUSH1 0x0 PUSH2 0x100 EXP DUP2 SLOAD DUP2 PUSH20 0xFFFFFFFFFFFFFFFFFFFFFFFFFFFFFFFFFFFFFFFF MUL NOT AND SWAP1 DUP4 PUSH20 0xFFFFFFFFFFFFFFFFFFFFFFFFFFFFFFFFFFFFFFFF AND MUL OR SWAP1 SSTORE POP DUP7 PUSH1 0x3 DUP2 SWAP1 SSTORE POP DUP6 PUSH1 0x4 DUP2 SWAP1 SSTORE POP DUP5 PUSH1 0x5 DUP2 SWAP1 SSTORE POP DUP4 PUSH1 0x6 DUP2 SWAP1 SSTORE POP DUP3 PUSH1 0x7 DUP2 SWAP1 SSTORE POP DUP2 PUSH1 0x8 DUP2 SWAP1 SSTORE POP DUP1 PUSH1 0x9 DUP2 SWAP1 SSTORE POP POP POP POP POP POP POP POP POP POP JUMP JUMPDEST PUSH1 0x1 PUSH1 0x0 SWAP1 SLOAD SWAP1 PUSH2 0x100 EXP SWAP1 DIV PUSH20 0xFFFFFFFFFFFFFFFFFFFFFFFFFFFFFFFFFFFFFFFF AND PUSH20 0xFFFFFFFFFFFFFFFFFFFFFFFFFFFFFFFFFFFFFFFF AND DUP2 PUSH20 0xFFFFFFFFFFFFFFFFFFFFFFFFFFFFFFFFFFFFFFFF AND SUB PUSH2 0x517 JUMPI PUSH1 0x1 PUSH1 0xA PUSH1 0x0 ADD PUSH1 0x0 PUSH2 0x100 EXP DUP2 SLOAD DUP2 PUSH1 0xFF MUL NOT AND SWAP1 DUP4 ISZERO ISZERO MUL OR SWAP1 SSTORE POP PUSH1 0x1 PUSH1 0xB PUSH1 0x0 PUSH2 0x100 EXP DUP2 SLOAD DUP2 PUSH1 0xFF MUL NOT AND SWAP1 DUP4 PUSH1 0x7 DUP2 GT ISZERO PUSH2 0x511 JUMPI PUSH2 0x510 PUSH2 0x947 JUMP JUMPDEST JUMPDEST MUL OR SWAP1 SSTORE POP JUMPDEST PUSH1 0x2 PUSH1 0x0 SWAP1 SLOAD SWAP1 PUSH2 0x100 EXP SWAP1 DIV PUSH20 0xFFFFFFFFFFFFFFFFFFFFFFFFFFFFFFFFFFFFFFFF AND PUSH20 0xFFFFFFFFFFFFFFFFFFFFFFFFFFFFFFFFFFFFFFFF AND DUP2 PUSH20 0xFFFFFFFFFFFFFFFFFFFFFFFFFFFFFFFFFFFFFFFF AND SUB PUSH2 0x58B JUMPI PUSH1 0x1 PUSH1 0xA PUSH1 0x0 ADD PUSH1 0x1 PUSH2 0x100 EXP DUP2 SLOAD DUP2 PUSH1 0xFF MUL NOT AND SWAP1 DUP4 ISZERO ISZERO MUL OR SWAP1 SSTORE POP JUMPDEST PUSH1 0xA PUSH1 0x0 ADD PUSH1 0x0 SWAP1 SLOAD SWAP1 PUSH2 0x100 EXP SWAP1 DIV PUSH1 0xFF AND DUP1 ISZERO PUSH2 0x5B9 JUMPI POP PUSH1 0xA PUSH1 0x0 ADD PUSH1 0x1 SWAP1 SLOAD SWAP1 PUSH2 0x100 EXP SWAP1 DIV PUSH1 0xFF AND JUMPDEST ISZERO PUSH2 0x5EA JUMPI PUSH1 0x4 PUSH1 0xB PUSH1 0x0 PUSH2 0x100 EXP DUP2 SLOAD DUP2 PUSH1 0xFF MUL NOT AND SWAP1 DUP4 PUSH1 0x7 DUP2 GT ISZERO PUSH2 0x5E4 JUMPI PUSH2 0x5E3 PUSH2 0x947 JUMP JUMPDEST JUMPDEST MUL OR SWAP1 SSTORE POP JUMPDEST POP JUMP JUMPDEST PUSH1 0x5 PUSH1 0xB PUSH1 0x0 PUSH2 0x100 EXP DUP2 SLOAD DUP2 PUSH1 0xFF MUL NOT AND SWAP1 DUP4 PUSH1 0x7 DUP2 GT ISZERO PUSH2 0x613 JUMPI PUSH2 0x612 PUSH2 0x947 JUMP JUMPDEST JUMPDEST MUL OR SWAP1 SSTORE POP JUMP JUMPDEST PUSH1 0x0 DUP1 SLOAD PUSH2 0x627 SWAP1 PUSH2 0xDC7 JUMP JUMPDEST DUP1 PUSH1 0x1F ADD PUSH1 0x20 DUP1 SWAP2 DIV MUL PUSH1 0x20 ADD PUSH1 0x40 MLOAD SWAP1 DUP2 ADD PUSH1 0x40 MSTORE DUP1 SWAP3 SWAP2 SWAP1 DUP2 DUP2 MSTORE PUSH1 0x20 ADD DUP3 DUP1 SLOAD PUSH2 0x653 SWAP1 PUSH2 0xDC7 JUMP JUMPDEST DUP1 ISZERO PUSH2 0x6A0 JUMPI DUP1 PUSH1 0x1F LT PUSH2 0x675 JUMPI PUSH2 0x100 DUP1 DUP4 SLOAD DIV MUL DUP4 MSTORE SWAP2 PUSH1 0x20 ADD SWAP2 PUSH2 0x6A0 JUMP JUMPDEST DUP3 ADD SWAP2 SWAP1 PUSH1 0x0 MSTORE PUSH1 0x20 PUSH1 0x0 KECCAK256 SWAP1 JUMPDEST DUP2 SLOAD DUP2 MSTORE SWAP1 PUSH1 0x1 ADD SWAP1 PUSH1 0x20 ADD DUP1 DUP4 GT PUSH2 0x683 JUMPI DUP3 SWAP1 SUB PUSH1 0x1F AND DUP3 ADD SWAP2 JUMPDEST POP POP POP POP POP DUP2 JUMP JUMPDEST PUSH1 0x0 DUP1 PUSH1 0x60 PUSH1 0x0 DUP1 PUSH1 0x0 DUP1 PUSH1 0x0 DUP1 PUSH1 0x0 DUP1 PUSH1 0x1 PUSH1 0x0 SWAP1 SLOAD SWAP1 PUSH2 0x100 EXP SWAP1 DIV PUSH20 0xFFFFFFFFFFFFFFFFFFFFFFFFFFFFFFFFFFFFFFFF AND PUSH1 0x2 PUSH1 0x0 SWAP1 SLOAD SWAP1 PUSH2 0x100 EXP SWAP1 DIV PUSH20 0xFFFFFFFFFFFFFFFFFFFFFFFFFFFFFFFFFFFFFFFF AND PUSH1 0x0 PUSH1 0x3 SLOAD PUSH1 0x4 SLOAD PUSH1 0x5 SLOAD PUSH1 0x6 SLOAD PUSH1 0x7 SLOAD PUSH1 0xB PUSH1 0x0 SWAP1 SLOAD SWAP1 PUSH2 0x100 EXP SWAP1 DIV PUSH1 0xFF AND PUSH1 0x7 DUP2 GT ISZERO PUSH2 0x732 JUMPI PUSH2 0x731 PUSH2 0x947 JUMP JUMPDEST JUMPDEST PUSH1 0x8 SLOAD PUSH1 0x9 SLOAD DUP9 DUP1 SLOAD PUSH2 0x744 SWAP1 PUSH2 0xDC7 JUMP JUMPDEST DUP1 PUSH1 0x1F ADD PUSH1 0x20 DUP1 SWAP2 DIV MUL PUSH1 0x20 ADD PUSH1 0x40 MLOAD SWAP1 DUP2 ADD PUSH1 0x40 MSTORE DUP1 SWAP3 SWAP2 SWAP1 DUP2 DUP2 MSTORE PUSH1 0x20 ADD DUP3 DUP1 SLOAD PUSH2 0x770 SWAP1 PUSH2 0xDC7 JUMP JUMPDEST DUP1 ISZERO PUSH2 0x7BD JUMPI DUP1 PUSH1 0x1F LT PUSH2 0x792 JUMPI PUSH2 0x100 DUP1 DUP4 SLOAD DIV MUL DUP4 MSTORE SWAP2 PUSH1 0x20 ADD SWAP2 PUSH2 0x7BD JUMP JUMPDEST DUP3 ADD SWAP2 SWAP1 PUSH1 0x0 MSTORE PUSH1 0x20 PUSH1 0x0 KECCAK256 SWAP1 JUMPDEST DUP2 SLOAD DUP2 MSTORE SWAP1 PUSH1 0x1 ADD SWAP1 PUSH1 0x20 ADD DUP1 DUP4 GT PUSH2 0x7A0 JUMPI DUP3 SWAP1 SUB PUSH1 0x1F AND DUP3 ADD SWAP2 JUMPDEST POP POP POP POP POP SWAP9 POP SWAP11 POP SWAP11 POP SWAP11 POP SWAP11 POP SWAP11 POP SWAP11 POP SWAP11 POP SWAP11 POP SWAP11 POP SWAP11 POP SWAP11 POP SWAP1 SWAP2 SWAP3 SWAP4 SWAP5 SWAP6 SWAP7 SWAP8 SWAP9 SWAP10 SWAP11 JUMP JUMPDEST PUSH1 0x1 PUSH1 0x0 SWAP1 SLOAD SWAP1 PUSH2 0x100 EXP SWAP1 DIV PUSH20 0xFFFFFFFFFFFFFFFFFFFFFFFFFFFFFFFFFFFFFFFF AND DUP2 JUMP JUMPDEST PUSH1 0x4 PUSH1 0x7 DUP2 GT ISZERO PUSH2 0x821 JUMPI PUSH2 0x820 PUSH2 0x947 JUMP JUMPDEST JUMPDEST PUSH1 0xB PUSH1 0x0 SWAP1 SLOAD SWAP1 PUSH2 0x100 EXP SWAP1 DIV PUSH1 0xFF AND PUSH1 0x7 DUP2 GT ISZERO PUSH2 0x843 JUMPI PUSH2 0x842 PUSH2 0x947 JUMP JUMPDEST JUMPDEST EQ PUSH2 0x883 JUMPI PUSH1 0x40 MLOAD PUSH32 0x8C379A000000000000000000000000000000000000000000000000000000000 DUP2 MSTORE PUSH1 0x4 ADD PUSH2 0x87A SWAP1 PUSH2 0xE6A JUMP JUMPDEST PUSH1 0x40 MLOAD DUP1 SWAP2 SUB SWAP1 REVERT JUMPDEST PUSH1 0x7 SLOAD CALLVALUE EQ PUSH2 0x8C7 JUMPI PUSH1 0x40 MLOAD PUSH32 0x8C379A000000000000000000000000000000000000000000000000000000000 DUP2 MSTORE PUSH1 0x4 ADD PUSH2 0x8BE SWAP1 PUSH2 0xEFC JUMP JUMPDEST PUSH1 0x40 MLOAD DUP1 SWAP2 SUB SWAP1 REVERT JUMPDEST PUSH1 0x3 PUSH1 0xB PUSH1 0x0 PUSH2 0x100 EXP DUP2 SLOAD DUP2 PUSH1 0xFF MUL NOT AND SWAP1 DUP4 PUSH1 0x7 DUP2 GT ISZERO PUSH2 0x8ED JUMPI PUSH2 0x8EC PUSH2 0x947 JUMP JUMPDEST JUMPDEST MUL OR SWAP1 SSTORE POP JUMP JUMPDEST PUSH1 0x2 PUSH1 0x0 SWAP1 SLOAD SWAP1 PUSH2 0x100 EXP SWAP1 DIV PUSH20 0xFFFFFFFFFFFFFFFFFFFFFFFFFFFFFFFFFFFFFFFF AND DUP2 JUMP JUMPDEST PUSH1 0x6 PUSH1 0xB PUSH1 0x0 PUSH2 0x100 EXP DUP2 SLOAD DUP2 PUSH1 0xFF MUL NOT AND SWAP1 DUP4 PUSH1 0x7 DUP2 GT ISZERO PUSH2 0x940 JUMPI PUSH2 0x93F PUSH2 0x947 JUMP JUMPDEST JUMPDEST MUL OR SWAP1 SSTORE POP JUMP JUMPDEST PUSH32 0x4E487B7100000000000000000000000000000000000000000000000000000000 PUSH1 0x0 MSTORE PUSH1 0x21 PUSH1 0x4 MSTORE PUSH1 0x24 PUSH1 0x0 REVERT JUMPDEST PUSH1 0x8 DUP2 LT PUSH2 0x987 JUMPI PUSH2 0x986 PUSH2 0x947 JUMP JUMPDEST JUMPDEST POP JUMP JUMPDEST PUSH1 0x0 DUP2 SWAP1 POP PUSH2 0x998 DUP3 PUSH2 0x976 JUMP JUMPDEST SWAP2 SWAP1 POP JUMP JUMPDEST PUSH1 0x0 PUSH2 0x9A8 DUP3 PUSH2 0x98A JUMP JUMPDEST SWAP1 POP SWAP2 SWAP1 POP JUMP JUMPDEST PUSH2 0x9B8 DUP2 PUSH2 0x99D JUMP JUMPDEST DUP3 MSTORE POP POP JUMP JUMPDEST PUSH1 0x0 PUSH1 0x20 DUP3 ADD SWAP1 POP PUSH2 0x9D3 PUSH1 0x0 DUP4 ADD DUP5 PUSH2 0x9AF JUMP JUMPDEST SWAP3 SWAP2 POP POP JUMP JUMPDEST PUSH1 0x0 DUP1 REVERT JUMPDEST PUSH1 0x0 PUSH20 0xFFFFFFFFFFFFFFFFFFFFFFFFFFFFFFFFFFFFFFFF DUP3 AND SWAP1 POP SWAP2 SWAP1 POP JUMP JUMPDEST PUSH1 0x0 PUSH2 0xA09 DUP3 PUSH2 0x9DE JUMP JUMPDEST SWAP1 POP SWAP2 SWAP1 POP JUMP JUMPDEST PUSH2 0xA19 DUP2 PUSH2 0x9FE JUMP JUMPDEST DUP2 EQ PUSH2 0xA24 JUMPI PUSH1 0x0 DUP1 REVERT JUMPDEST POP JUMP JUMPDEST PUSH1 0x0 DUP2 CALLDATALOAD SWAP1 POP PUSH2 0xA36 DUP2 PUSH2 0xA10 JUMP JUMPDEST SWAP3 SWAP2 POP POP JUMP JUMPDEST PUSH1 0x0 DUP2 SWAP1 POP SWAP2 SWAP1 POP JUMP JUMPDEST PUSH2 0xA4F DUP2 PUSH2 0xA3C JUMP JUMPDEST DUP2 EQ PUSH2 0xA5A JUMPI PUSH1 0x0 DUP1 REVERT JUMPDEST POP JUMP JUMPDEST PUSH1 0x0 DUP2 CALLDATALOAD SWAP1 POP PUSH2 0xA6C DUP2 PUSH2 0xA46 JUMP JUMPDEST SWAP3 SWAP2 POP POP JUMP JUMPDEST PUSH1 0x0 DUP1 PUSH1 0x0 DUP1 PUSH1 0x0 DUP1 PUSH1 0x0 DUP1 PUSH1 0x0 PUSH2 0x120 DUP11 DUP13 SUB SLT ISZERO PUSH2 0xA95 JUMPI PUSH2 0xA94 PUSH2 0x9D9 JUMP JUMPDEST JUMPDEST PUSH1 0x0 PUSH2 0xAA3 DUP13 DUP3 DUP14 ADD PUSH2 0xA27 JUMP JUMPDEST SWAP10 POP POP PUSH1 0x20 PUSH2 0xAB4 DUP13 DUP3 DUP14 ADD PUSH2 0xA27 JUMP JUMPDEST SWAP9 POP POP PUSH1 0x40 PUSH2 0xAC5 DUP13 DUP3 DUP14 ADD PUSH2 0xA5D JUMP JUMPDEST SWAP8 POP POP PUSH1 0x60 PUSH2 0xAD6 DUP13 DUP3 DUP14 ADD PUSH2 0xA5D JUMP JUMPDEST SWAP7 POP POP PUSH1 0x80 PUSH2 0xAE7 DUP13 DUP3 DUP14 ADD PUSH2 0xA5D JUMP JUMPDEST SWAP6 POP POP PUSH1 0xA0 PUSH2 0xAF8 DUP13 DUP3 DUP14 ADD PUSH2 0xA5D JUMP JUMPDEST SWAP5 POP POP PUSH1 0xC0 PUSH2 0xB09 DUP13 DUP3 DUP14 ADD PUSH2 0xA5D JUMP JUMPDEST SWAP4 POP POP PUSH1 0xE0 PUSH2 0xB1A DUP13 DUP3 DUP14 ADD PUSH2 0xA5D JUMP JUMPDEST SWAP3 POP POP PUSH2 0x100 PUSH2 0xB2C DUP13 DUP3 DUP14 ADD PUSH2 0xA5D JUMP JUMPDEST SWAP2 POP POP SWAP3 SWAP6 SWAP9 POP SWAP3 SWAP6 SWAP9 POP SWAP3 SWAP6 SWAP9 JUMP JUMPDEST PUSH1 0x0 PUSH1 0x20 DUP3 DUP5 SUB SLT ISZERO PUSH2 0xB52 JUMPI PUSH2 0xB51 PUSH2 0x9D9 JUMP JUMPDEST JUMPDEST PUSH1 0x0 PUSH2 0xB60 DUP5 DUP3 DUP6 ADD PUSH2 0xA27 JUMP JUMPDEST SWAP2 POP POP SWAP3 SWAP2 POP POP JUMP JUMPDEST PUSH1 0x0 DUP2 MLOAD SWAP1 POP SWAP2 SWAP1 POP JUMP JUMPDEST PUSH1 0x0 DUP3 DUP3 MSTORE PUSH1 0x20 DUP3 ADD SWAP1 POP SWAP3 SWAP2 POP POP JUMP JUMPDEST PUSH1 0x0 JUMPDEST DUP4 DUP2 LT ISZERO PUSH2 0xBA3 JUMPI DUP1 DUP3 ADD MLOAD DUP2 DUP5 ADD MSTORE PUSH1 0x20 DUP2 ADD SWAP1 POP PUSH2 0xB88 JUMP JUMPDEST PUSH1 0x0 DUP5 DUP5 ADD MSTORE POP POP POP POP JUMP JUMPDEST PUSH1 0x0 PUSH1 0x1F NOT PUSH1 0x1F DUP4 ADD AND SWAP1 POP SWAP2 SWAP1 POP JUMP JUMPDEST PUSH1 0x0 PUSH2 0xBCB DUP3 PUSH2 0xB69 JUMP JUMPDEST PUSH2 0xBD5 DUP2 DUP6 PUSH2 0xB74 JUMP JUMPDEST SWAP4 POP PUSH2 0xBE5 DUP2 DUP6 PUSH1 0x20 DUP7 ADD PUSH2 0xB85 JUMP JUMPDEST PUSH2 0xBEE DUP2 PUSH2 0xBAF JUMP JUMPDEST DUP5 ADD SWAP2 POP POP SWAP3 SWAP2 POP POP JUMP JUMPDEST PUSH1 0x0 PUSH1 0x20 DUP3 ADD SWAP1 POP DUP2 DUP2 SUB PUSH1 0x0 DUP4 ADD MSTORE PUSH2 0xC13 DUP2 DUP5 PUSH2 0xBC0 JUMP JUMPDEST SWAP1 POP SWAP3 SWAP2 POP POP JUMP JUMPDEST PUSH2 0xC24 DUP2 PUSH2 0x9FE JUMP JUMPDEST DUP3 MSTORE POP POP JUMP JUMPDEST PUSH2 0xC33 DUP2 PUSH2 0xA3C JUMP JUMPDEST DUP3 MSTORE POP POP JUMP JUMPDEST PUSH1 0x0 PUSH2 0x160 DUP3 ADD SWAP1 POP PUSH2 0xC4F PUSH1 0x0 DUP4 ADD DUP15 PUSH2 0xC1B JUMP JUMPDEST PUSH2 0xC5C PUSH1 0x20 DUP4 ADD DUP14 PUSH2 0xC1B JUMP JUMPDEST DUP2 DUP2 SUB PUSH1 0x40 DUP4 ADD MSTORE PUSH2 0xC6E DUP2 DUP13 PUSH2 0xBC0 JUMP JUMPDEST SWAP1 POP PUSH2 0xC7D PUSH1 0x60 DUP4 ADD DUP12 PUSH2 0xC2A JUMP JUMPDEST PUSH2 0xC8A PUSH1 0x80 DUP4 ADD DUP11 PUSH2 0xC2A JUMP JUMPDEST PUSH2 0xC97 PUSH1 0xA0 DUP4 ADD DUP10 PUSH2 0xC2A JUMP JUMPDEST PUSH2 0xCA4 PUSH1 0xC0 DUP4 ADD DUP9 PUSH2 0xC2A JUMP JUMPDEST PUSH2 0xCB1 PUSH1 0xE0 DUP4 ADD DUP8 PUSH2 0xC2A JUMP JUMPDEST PUSH2 0xCBF PUSH2 0x100 DUP4 ADD DUP7 PUSH2 0xC2A JUMP JUMPDEST PUSH2 0xCCD PUSH2 0x120 DUP4 ADD DUP6 PUSH2 0xC2A JUMP JUMPDEST PUSH2 0xCDB PUSH2 0x140 DUP4 ADD DUP5 PUSH2 0xC2A JUMP JUMPDEST SWAP13 SWAP12 POP POP POP POP POP POP POP POP POP POP POP POP JUMP JUMPDEST PUSH1 0x0 PUSH1 0x20 DUP3 ADD SWAP1 POP PUSH2 0xD00 PUSH1 0x0 DUP4 ADD DUP5 PUSH2 0xC1B JUMP JUMPDEST SWAP3 SWAP2 POP POP JUMP JUMPDEST PUSH32 0x4E6F7468696E672077697468647261772C20636F6E73656E746572206E656564 PUSH1 0x0 DUP3 ADD MSTORE PUSH32 0x7320746F2073656E642045544820666972737400000000000000000000000000 PUSH1 0x20 DUP3 ADD MSTORE POP JUMP JUMPDEST PUSH1 0x0 PUSH2 0xD62 PUSH1 0x33 DUP4 PUSH2 0xB74 JUMP JUMPDEST SWAP2 POP PUSH2 0xD6D DUP3 PUSH2 0xD06 JUMP JUMPDEST PUSH1 0x40 DUP3 ADD SWAP1 POP SWAP2 SWAP1 POP JUMP JUMPDEST PUSH1 0x0 PUSH1 0x20 DUP3 ADD SWAP1 POP DUP2 DUP2 SUB PUSH1 0x0 DUP4 ADD MSTORE PUSH2 0xD91 DUP2 PUSH2 0xD55 JUMP JUMPDEST SWAP1 POP SWAP2 SWAP1 POP JUMP JUMPDEST PUSH32 0x4E487B7100000000000000000000000000000000000000000000000000000000 PUSH1 0x0 MSTORE PUSH1 0x22 PUSH1 0x4 MSTORE PUSH1 0x24 PUSH1 0x0 REVERT JUMPDEST PUSH1 0x0 PUSH1 0x2 DUP3 DIV SWAP1 POP PUSH1 0x1 DUP3 AND DUP1 PUSH2 0xDDF JUMPI PUSH1 0x7F DUP3 AND SWAP2 POP JUMPDEST PUSH1 0x20 DUP3 LT DUP2 SUB PUSH2 0xDF2 JUMPI PUSH2 0xDF1 PUSH2 0xD98 JUMP JUMPDEST JUMPDEST POP SWAP2 SWAP1 POP JUMP JUMPDEST PUSH32 0x436F6E7472616374206E65656420746F206265207369676E65642066726F6D20 PUSH1 0x0 DUP3 ADD MSTORE PUSH32 0x626F746820706172746965730000000000000000000000000000000000000000 PUSH1 0x20 DUP3 ADD MSTORE POP JUMP JUMPDEST PUSH1 0x0 PUSH2 0xE54 PUSH1 0x2C DUP4 PUSH2 0xB74 JUMP JUMPDEST SWAP2 POP PUSH2 0xE5F DUP3 PUSH2 0xDF8 JUMP JUMPDEST PUSH1 0x40 DUP3 ADD SWAP1 POP SWAP2 SWAP1 POP JUMP JUMPDEST PUSH1 0x0 PUSH1 0x20 DUP3 ADD SWAP1 POP DUP2 DUP2 SUB PUSH1 0x0 DUP4 ADD MSTORE PUSH2 0xE83 DUP2 PUSH2 0xE47 JUMP JUMPDEST SWAP1 POP SWAP2 SWAP1 POP JUMP JUMPDEST PUSH32 0x596F75206E65656420746F206465706F73697420746865206167726565642070 PUSH1 0x0 DUP3 ADD MSTORE PUSH32 0x7269636521000000000000000000000000000000000000000000000000000000 PUSH1 0x20 DUP3 ADD MSTORE POP JUMP JUMPDEST PUSH1 0x0 PUSH2 0xEE6 PUSH1 0x25 DUP4 PUSH2 0xB74 JUMP JUMPDEST SWAP2 POP PUSH2 0xEF1 DUP3 PUSH2 0xE8A JUMP JUMPDEST PUSH1 0x40 DUP3 ADD SWAP1 POP SWAP2 SWAP1 POP JUMP JUMPDEST PUSH1 0x0 PUSH1 0x20 DUP3 ADD SWAP1 POP DUP2 DUP2 SUB PUSH1 0x0 DUP4 ADD MSTORE PUSH2 0xF15 DUP2 PUSH2 0xED9 JUMP JUMPDEST SWAP1 POP SWAP2 SWAP1 POP JUMP INVALID LOG2 PUSH5 0x6970667358 0x22 SLT KECCAK256 0xD7 SWAP10 0x1F 0xCB 0xEB 0xB9 0x2C SIGNEXTEND 0xCD DUP13 XOR 0xF8 0xF9 MOD 0xE5 0x2A 0xED JUMPI GAS PUSH9 0xB55F3B5F3D4C47682B 0xAF PUSH6 0xD464736F6C63 NUMBER STOP ADDMOD GT STOP CALLER LOG2 PUSH5 0x6970667358 0x22 SLT KECCAK256 0xB2 ADDMOD DUP11 SDIV 0x2E 0xDA NOT SWAP5 SLOAD SWAP13 ADDRESS 0xB4 DUP16 PUSH4 0x7A787289 DUP16 0x28 0xC0 0xD6 0xCC PUSH17 0xB1210C03A167045C64736F6C6343000811 STOP CALLER "
				},
				"gasEstimates": {
					"creation": {
						"codeDepositCost": "1782400",
						"executionCost": "1877",
						"totalCost": "1784277"
					},
					"external": {
						"createConsentContract(string)": "infinite",
						"getContractAddress(string)": "infinite",
						"getContracts(address)": "infinite",
						"testArray()": "infinite"
					}
				},
				"methodIdentifiers": {
					"createConsentContract(string)": "5b6015f4",
					"getContractAddress(string)": "04433bbc",
					"getContracts(address)": "213fe2b7",
					"testArray()": "2283bffd"
				}
			},
			"storageLayout": {
				"storage": [
					{
						"astId": 336,
						"contract": "Users/michael/Documents/dev/e-community-platform/in-progress/consent-management/src/blockchain/smart_contracts/contracts/ConsentContractFactory.sol:ConsentContractFactory",
						"label": "contracts",
						"offset": 0,
						"slot": "0",
						"type": "t_array(t_contract(ConsentContract)328)dyn_storage"
					}
				],
				"types": {
					"t_array(t_contract(ConsentContract)328)dyn_storage": {
						"base": "t_contract(ConsentContract)328",
						"encoding": "dynamic_array",
						"label": "contract ConsentContract[]",
						"numberOfBytes": "32"
					},
					"t_contract(ConsentContract)328": {
						"encoding": "inplace",
						"label": "contract ConsentContract",
						"numberOfBytes": "20"
					}
				}
			},
			"userdoc": {
				"kind": "user",
				"methods": {
					"createConsentContract(string)": {
						"notice": "creates a new consent contract with a unique contractID"
					},
					"getContractAddress(string)": {
						"notice": "return the contract with the given contractID  if not found return the contract address"
					},
					"getContracts(address)": {
						"notice": "get related contracts for this address either Proposer or Consenter"
					}
				},
				"notice": "used because factory only need to be deployed once",
				"version": 1
			}
		}
	}
}