{
	"data": {
		"bytecode": {
			"linkReferences": {},
			"object": "60806040526000805534801561001457600080fd5b50610157806100246000396000f3fe608060405234801561001057600080fd5b506004361061002b5760003560e01c80632ca8326414610030575b600080fd5b61004a600480360381019061004591906100a4565b61004c565b005b806000819055507f42e31d4b020595d608b8ccda14f41450c8dbc6f2d779409750b2920f894a2fb560005460405161008491906100e0565b60405180910390a150565b60008135905061009e8161010a565b92915050565b6000602082840312156100ba576100b9610105565b5b60006100c88482850161008f565b91505092915050565b6100da816100fb565b82525050565b60006020820190506100f560008301846100d1565b92915050565b6000819050919050565b600080fd5b610113816100fb565b811461011e57600080fd5b5056fea2646970667358221220f4e2a67a3c87a2cee6695bfd59336cca07dd4578150799a4c5bf9e1cca628f0a64736f6c63430008070033",
			"opcodes": "PUSH1 0x80 PUSH1 0x40 MSTORE PUSH1 0x0 DUP1 SSTORE CALLVALUE DUP1 ISZERO PUSH2 0x14 JUMPI PUSH1 0x0 DUP1 REVERT JUMPDEST POP PUSH2 0x157 DUP1 PUSH2 0x24 PUSH1 0x0 CODECOPY PUSH1 0x0 RETURN INVALID PUSH1 0x80 PUSH1 0x40 MSTORE CALLVALUE DUP1 ISZERO PUSH2 0x10 JUMPI PUSH1 0x0 DUP1 REVERT JUMPDEST POP PUSH1 0x4 CALLDATASIZE LT PUSH2 0x2B JUMPI PUSH1 0x0 CALLDATALOAD PUSH1 0xE0 SHR DUP1 PUSH4 0x2CA83264 EQ PUSH2 0x30 JUMPI JUMPDEST PUSH1 0x0 DUP1 REVERT JUMPDEST PUSH2 0x4A PUSH1 0x4 DUP1 CALLDATASIZE SUB DUP2 ADD SWAP1 PUSH2 0x45 SWAP2 SWAP1 PUSH2 0xA4 JUMP JUMPDEST PUSH2 0x4C JUMP JUMPDEST STOP JUMPDEST DUP1 PUSH1 0x0 DUP2 SWAP1 SSTORE POP PUSH32 0x42E31D4B020595D608B8CCDA14F41450C8DBC6F2D779409750B2920F894A2FB5 PUSH1 0x0 SLOAD PUSH1 0x40 MLOAD PUSH2 0x84 SWAP2 SWAP1 PUSH2 0xE0 JUMP JUMPDEST PUSH1 0x40 MLOAD DUP1 SWAP2 SUB SWAP1 LOG1 POP JUMP JUMPDEST PUSH1 0x0 DUP2 CALLDATALOAD SWAP1 POP PUSH2 0x9E DUP2 PUSH2 0x10A JUMP JUMPDEST SWAP3 SWAP2 POP POP JUMP JUMPDEST PUSH1 0x0 PUSH1 0x20 DUP3 DUP5 SUB SLT ISZERO PUSH2 0xBA JUMPI PUSH2 0xB9 PUSH2 0x105 JUMP JUMPDEST JUMPDEST PUSH1 0x0 PUSH2 0xC8 DUP5 DUP3 DUP6 ADD PUSH2 0x8F JUMP JUMPDEST SWAP2 POP POP SWAP3 SWAP2 POP POP JUMP JUMPDEST PUSH2 0xDA DUP2 PUSH2 0xFB JUMP JUMPDEST DUP3 MSTORE POP POP JUMP JUMPDEST PUSH1 0x0 PUSH1 0x20 DUP3 ADD SWAP1 POP PUSH2 0xF5 PUSH1 0x0 DUP4 ADD DUP5 PUSH2 0xD1 JUMP JUMPDEST SWAP3 SWAP2 POP POP JUMP JUMPDEST PUSH1 0x0 DUP2 SWAP1 POP SWAP2 SWAP1 POP JUMP JUMPDEST PUSH1 0x0 DUP1 REVERT JUMPDEST PUSH2 0x113 DUP2 PUSH2 0xFB JUMP JUMPDEST DUP2 EQ PUSH2 0x11E JUMPI PUSH1 0x0 DUP1 REVERT JUMPDEST POP JUMP INVALID LOG2 PUSH5 0x6970667358 0x22 SLT KECCAK256 DELEGATECALL 0xE2 0xA6 PUSH27 0x3C87A2CEE6695BFD59336CCA07DD4578150799A4C5BF9E1CCA628F EXP PUSH5 0x736F6C6343 STOP ADDMOD SMOD STOP CALLER "
		},
		"gasEstimates": {
			"creation": {
				"codeDepositCost": "68600",
				"executionCost": "5123",
				"totalCost": "73723"
			},
			"external": {
				"newNumber(int256)": "infinite"
			}
		},
		"methodIdentifiers": {
			"newNumber(int256)": "2ca83264"
		}
	},
	"abi": [
		{
			"anonymous": false,
			"inputs": [
				{
					"indexed": false,
					"internalType": "int256",
					"name": "value",
					"type": "int256"
				}
			],
			"name": "NumberChanged",
			"type": "event"
		},
		{
			"inputs": [
				{
					"internalType": "int256",
					"name": "_value",
					"type": "int256"
				}
			],
			"name": "newNumber",
			"outputs": [],
			"stateMutability": "nonpayable",
			"type": "function"
		}
	]
}