{
	"data": {
		"bytecode": {
			"linkReferences": {},
			"object": "60806040523480156200001157600080fd5b5060405162000e6338038062000e638339818101604052810190620000379190620001c6565b33600160006101000a81548173ffffffffffffffffffffffffffffffffffffffff021916908373ffffffffffffffffffffffffffffffffffffffff16021790555080600090805190602001906200009092919062000098565b50506200039b565b828054620000a690620002ac565b90600052602060002090601f016020900481019282620000ca576000855562000116565b82601f10620000e557805160ff191683800117855562000116565b8280016001018555821562000116579182015b8281111562000115578251825591602001919060010190620000f8565b5b50905062000125919062000129565b5090565b5b80821115620001445760008160009055506001016200012a565b5090565b60006200015f620001598462000240565b62000217565b9050828152602081018484840111156200017e576200017d6200037b565b5b6200018b84828562000276565b509392505050565b600082601f830112620001ab57620001aa62000376565b5b8151620001bd84826020860162000148565b91505092915050565b600060208284031215620001df57620001de62000385565b5b600082015167ffffffffffffffff8111156200020057620001ff62000380565b5b6200020e8482850162000193565b91505092915050565b60006200022362000236565b9050620002318282620002e2565b919050565b6000604051905090565b600067ffffffffffffffff8211156200025e576200025d62000347565b5b62000269826200038a565b9050602081019050919050565b60005b838110156200029657808201518184015260208101905062000279565b83811115620002a6576000848401525b50505050565b60006002820490506001821680620002c557607f821691505b60208210811415620002dc57620002db62000318565b5b50919050565b620002ed826200038a565b810181811067ffffffffffffffff821117156200030f576200030e62000347565b5b80604052505050565b7f4e487b7100000000000000000000000000000000000000000000000000000000600052602260045260246000fd5b7f4e487b7100000000000000000000000000000000000000000000000000000000600052604160045260246000fd5b600080fd5b600080fd5b600080fd5b600080fd5b6000601f19601f8301169050919050565b610ab880620003ab6000396000f3fe60806040526004361061007b5760003560e01c8063b8b4f1a01161004e578063b8b4f1a014610118578063d0e30db01461012f578063f280570f14610139578063ff4c4d54146101625761007b565b80631865c57d146100805780633ccfd60b146100ab57806391f30bd4146100c2578063b69ef8a8146100ed575b600080fd5b34801561008c57600080fd5b50610095610179565b6040516100a2919061080e565b60405180910390f35b3480156100b757600080fd5b506100c06101ba565b005b3480156100ce57600080fd5b506100d76102d0565b6040516100e49190610829565b60405180910390f35b3480156100f957600080fd5b5061010261035e565b60405161010f919061086b565b60405180910390f35b34801561012457600080fd5b5061012d610366565b005b61013761055c565b005b34801561014557600080fd5b50610160600480360381019061015b919061063a565b6105a2565b005b34801561016e57600080fd5b5061017761060e565b005b60006003600581111561018f5761018e61097d565b5b600960009054906101000a900460ff1660058111156101b1576101b061097d565b5b50506005905090565b600260009054906101000a900473ffffffffffffffffffffffffffffffffffffffff1673ffffffffffffffffffffffffffffffffffffffff166108fc479081150290604051600060405180830381858888f19350505050158015610222573d6000803e3d6000fd5b507fd3e74016583aff79754a7ce6f1e0fec1da60abe14bf2a8691d924f3614ef29d9600260009054906101000a900473ffffffffffffffffffffffffffffffffffffffff16600160009054906101000a900473ffffffffffffffffffffffffffffffffffffffff16600060405161029b939291906107d0565b60405180910390a16003600960006101000a81548160ff021916908360058111156102c9576102c861097d565b5b0217905550565b600080546102dd9061094b565b80601f01602080910402602001604051908101604052809291908181526020018280546103099061094b565b80156103565780601f1061032b57610100808354040283529160200191610356565b820191906000526020600020905b81548152906001019060200180831161033957829003601f168201915b505050505081565b600047905090565b600160009054906101000a900473ffffffffffffffffffffffffffffffffffffffff1673ffffffffffffffffffffffffffffffffffffffff163373ffffffffffffffffffffffffffffffffffffffff161415610406576001600860000160006101000a81548160ff0219169083151502179055506000600960006101000a81548160ff02191690836005811115610400576103ff61097d565b5b02179055505b600260009054906101000a900473ffffffffffffffffffffffffffffffffffffffff1673ffffffffffffffffffffffffffffffffffffffff163373ffffffffffffffffffffffffffffffffffffffff16141561047b576001600860000160016101000a81548160ff0219169083151502179055505b600860000160009054906101000a900460ff1680156104a95750600860000160019054906101000a900460ff165b1561055a577f32f67f50e910168ca990077eeea1f27f4ff0c20c08adddf57c2258d39f7089d1600160009054906101000a900473ffffffffffffffffffffffffffffffffffffffff16600260009054906101000a900473ffffffffffffffffffffffffffffffffffffffff166000604051610526939291906107d0565b60405180910390a16001600960006101000a81548160ff021916908360058111156105545761055361097d565b5b02179055505b565b60075434146105a0576040517f08c379a00000000000000000000000000000000000000000000000000000000081526004016105979061084b565b60405180910390fd5b565b85600260006101000a81548173ffffffffffffffffffffffffffffffffffffffff021916908373ffffffffffffffffffffffffffffffffffffffff1602179055508460038190555083600481905550826005819055508160068190555080600781905550505050505050565b565b60008135905061061f81610a54565b92915050565b60008135905061063481610a6b565b92915050565b60008060008060008060c08789031215610657576106566109db565b5b600061066589828a01610610565b965050602061067689828a01610625565b955050604061068789828a01610625565b945050606061069889828a01610625565b93505060806106a989828a01610625565b92505060a06106ba89828a01610625565b9150509295509295509295565b6106d0816108b7565b82525050565b6106df81610906565b82525050565b60006106f08261089b565b6106fa81856108a6565b935061070a818560208601610918565b610713816109e0565b840191505092915050565b6000815461072b8161094b565b61073581866108a6565b94506001821660008114610750576001811461076257610795565b60ff1983168652602086019350610795565b61076b85610886565b60005b8381101561078d5781548189015260018201915060208101905061076e565b808801955050505b50505092915050565b60006107ab6025836108a6565b91506107b6826109f1565b604082019050919050565b6107ca816108fc565b82525050565b60006060820190506107e560008301866106c7565b6107f260208301856106c7565b8181036040830152610804818461071e565b9050949350505050565b600060208201905061082360008301846106d6565b92915050565b6000602082019050818103600083015261084381846106e5565b905092915050565b600060208201905081810360008301526108648161079e565b9050919050565b600060208201905061088060008301846107c1565b92915050565b60008190508160005260206000209050919050565b600081519050919050565b600082825260208201905092915050565b60006108c2826108dc565b9050919050565b60008190506108d782610a40565b919050565b600073ffffffffffffffffffffffffffffffffffffffff82169050919050565b6000819050919050565b6000610911826108c9565b9050919050565b60005b8381101561093657808201518184015260208101905061091b565b83811115610945576000848401525b50505050565b6000600282049050600182168061096357607f821691505b60208210811415610977576109766109ac565b5b50919050565b7f4e487b7100000000000000000000000000000000000000000000000000000000600052602160045260246000fd5b7f4e487b7100000000000000000000000000000000000000000000000000000000600052602260045260246000fd5b600080fd5b6000601f19601f8301169050919050565b7f596f75206e65656420746f206465706f7369742074686520616772656564207060008201527f7269636521000000000000000000000000000000000000000000000000000000602082015250565b60068110610a5157610a5061097d565b5b50565b610a5d816108b7565b8114610a6857600080fd5b50565b610a74816108fc565b8114610a7f57600080fd5b5056fea26469706673582212204af075ecf0e611edea68562a0d5fece361440ab5e196cb351a50cd64c54f229e64736f6c63430008070033",
			"opcodes": "PUSH1 0x80 PUSH1 0x40 MSTORE CALLVALUE DUP1 ISZERO PUSH3 0x11 JUMPI PUSH1 0x0 DUP1 REVERT JUMPDEST POP PUSH1 0x40 MLOAD PUSH3 0xE63 CODESIZE SUB DUP1 PUSH3 0xE63 DUP4 CODECOPY DUP2 DUP2 ADD PUSH1 0x40 MSTORE DUP2 ADD SWAP1 PUSH3 0x37 SWAP2 SWAP1 PUSH3 0x1C6 JUMP JUMPDEST CALLER PUSH1 0x1 PUSH1 0x0 PUSH2 0x100 EXP DUP2 SLOAD DUP2 PUSH20 0xFFFFFFFFFFFFFFFFFFFFFFFFFFFFFFFFFFFFFFFF MUL NOT AND SWAP1 DUP4 PUSH20 0xFFFFFFFFFFFFFFFFFFFFFFFFFFFFFFFFFFFFFFFF AND MUL OR SWAP1 SSTORE POP DUP1 PUSH1 0x0 SWAP1 DUP1 MLOAD SWAP1 PUSH1 0x20 ADD SWAP1 PUSH3 0x90 SWAP3 SWAP2 SWAP1 PUSH3 0x98 JUMP JUMPDEST POP POP PUSH3 0x39B JUMP JUMPDEST DUP3 DUP1 SLOAD PUSH3 0xA6 SWAP1 PUSH3 0x2AC JUMP JUMPDEST SWAP1 PUSH1 0x0 MSTORE PUSH1 0x20 PUSH1 0x0 KECCAK256 SWAP1 PUSH1 0x1F ADD PUSH1 0x20 SWAP1 DIV DUP2 ADD SWAP3 DUP3 PUSH3 0xCA JUMPI PUSH1 0x0 DUP6 SSTORE PUSH3 0x116 JUMP JUMPDEST DUP3 PUSH1 0x1F LT PUSH3 0xE5 JUMPI DUP1 MLOAD PUSH1 0xFF NOT AND DUP4 DUP1 ADD OR DUP6 SSTORE PUSH3 0x116 JUMP JUMPDEST DUP3 DUP1 ADD PUSH1 0x1 ADD DUP6 SSTORE DUP3 ISZERO PUSH3 0x116 JUMPI SWAP2 DUP3 ADD JUMPDEST DUP3 DUP2 GT ISZERO PUSH3 0x115 JUMPI DUP3 MLOAD DUP3 SSTORE SWAP2 PUSH1 0x20 ADD SWAP2 SWAP1 PUSH1 0x1 ADD SWAP1 PUSH3 0xF8 JUMP JUMPDEST JUMPDEST POP SWAP1 POP PUSH3 0x125 SWAP2 SWAP1 PUSH3 0x129 JUMP JUMPDEST POP SWAP1 JUMP JUMPDEST JUMPDEST DUP1 DUP3 GT ISZERO PUSH3 0x144 JUMPI PUSH1 0x0 DUP2 PUSH1 0x0 SWAP1 SSTORE POP PUSH1 0x1 ADD PUSH3 0x12A JUMP JUMPDEST POP SWAP1 JUMP JUMPDEST PUSH1 0x0 PUSH3 0x15F PUSH3 0x159 DUP5 PUSH3 0x240 JUMP JUMPDEST PUSH3 0x217 JUMP JUMPDEST SWAP1 POP DUP3 DUP2 MSTORE PUSH1 0x20 DUP2 ADD DUP5 DUP5 DUP5 ADD GT ISZERO PUSH3 0x17E JUMPI PUSH3 0x17D PUSH3 0x37B JUMP JUMPDEST JUMPDEST PUSH3 0x18B DUP5 DUP3 DUP6 PUSH3 0x276 JUMP JUMPDEST POP SWAP4 SWAP3 POP POP POP JUMP JUMPDEST PUSH1 0x0 DUP3 PUSH1 0x1F DUP4 ADD SLT PUSH3 0x1AB JUMPI PUSH3 0x1AA PUSH3 0x376 JUMP JUMPDEST JUMPDEST DUP2 MLOAD PUSH3 0x1BD DUP5 DUP3 PUSH1 0x20 DUP7 ADD PUSH3 0x148 JUMP JUMPDEST SWAP2 POP POP SWAP3 SWAP2 POP POP JUMP JUMPDEST PUSH1 0x0 PUSH1 0x20 DUP3 DUP5 SUB SLT ISZERO PUSH3 0x1DF JUMPI PUSH3 0x1DE PUSH3 0x385 JUMP JUMPDEST JUMPDEST PUSH1 0x0 DUP3 ADD MLOAD PUSH8 0xFFFFFFFFFFFFFFFF DUP2 GT ISZERO PUSH3 0x200 JUMPI PUSH3 0x1FF PUSH3 0x380 JUMP JUMPDEST JUMPDEST PUSH3 0x20E DUP5 DUP3 DUP6 ADD PUSH3 0x193 JUMP JUMPDEST SWAP2 POP POP SWAP3 SWAP2 POP POP JUMP JUMPDEST PUSH1 0x0 PUSH3 0x223 PUSH3 0x236 JUMP JUMPDEST SWAP1 POP PUSH3 0x231 DUP3 DUP3 PUSH3 0x2E2 JUMP JUMPDEST SWAP2 SWAP1 POP JUMP JUMPDEST PUSH1 0x0 PUSH1 0x40 MLOAD SWAP1 POP SWAP1 JUMP JUMPDEST PUSH1 0x0 PUSH8 0xFFFFFFFFFFFFFFFF DUP3 GT ISZERO PUSH3 0x25E JUMPI PUSH3 0x25D PUSH3 0x347 JUMP JUMPDEST JUMPDEST PUSH3 0x269 DUP3 PUSH3 0x38A JUMP JUMPDEST SWAP1 POP PUSH1 0x20 DUP2 ADD SWAP1 POP SWAP2 SWAP1 POP JUMP JUMPDEST PUSH1 0x0 JUMPDEST DUP4 DUP2 LT ISZERO PUSH3 0x296 JUMPI DUP1 DUP3 ADD MLOAD DUP2 DUP5 ADD MSTORE PUSH1 0x20 DUP2 ADD SWAP1 POP PUSH3 0x279 JUMP JUMPDEST DUP4 DUP2 GT ISZERO PUSH3 0x2A6 JUMPI PUSH1 0x0 DUP5 DUP5 ADD MSTORE JUMPDEST POP POP POP POP JUMP JUMPDEST PUSH1 0x0 PUSH1 0x2 DUP3 DIV SWAP1 POP PUSH1 0x1 DUP3 AND DUP1 PUSH3 0x2C5 JUMPI PUSH1 0x7F DUP3 AND SWAP2 POP JUMPDEST PUSH1 0x20 DUP3 LT DUP2 EQ ISZERO PUSH3 0x2DC JUMPI PUSH3 0x2DB PUSH3 0x318 JUMP JUMPDEST JUMPDEST POP SWAP2 SWAP1 POP JUMP JUMPDEST PUSH3 0x2ED DUP3 PUSH3 0x38A JUMP JUMPDEST DUP2 ADD DUP2 DUP2 LT PUSH8 0xFFFFFFFFFFFFFFFF DUP3 GT OR ISZERO PUSH3 0x30F JUMPI PUSH3 0x30E PUSH3 0x347 JUMP JUMPDEST JUMPDEST DUP1 PUSH1 0x40 MSTORE POP POP POP JUMP JUMPDEST PUSH32 0x4E487B7100000000000000000000000000000000000000000000000000000000 PUSH1 0x0 MSTORE PUSH1 0x22 PUSH1 0x4 MSTORE PUSH1 0x24 PUSH1 0x0 REVERT JUMPDEST PUSH32 0x4E487B7100000000000000000000000000000000000000000000000000000000 PUSH1 0x0 MSTORE PUSH1 0x41 PUSH1 0x4 MSTORE PUSH1 0x24 PUSH1 0x0 REVERT JUMPDEST PUSH1 0x0 DUP1 REVERT JUMPDEST PUSH1 0x0 DUP1 REVERT JUMPDEST PUSH1 0x0 DUP1 REVERT JUMPDEST PUSH1 0x0 DUP1 REVERT JUMPDEST PUSH1 0x0 PUSH1 0x1F NOT PUSH1 0x1F DUP4 ADD AND SWAP1 POP SWAP2 SWAP1 POP JUMP JUMPDEST PUSH2 0xAB8 DUP1 PUSH3 0x3AB PUSH1 0x0 CODECOPY PUSH1 0x0 RETURN INVALID PUSH1 0x80 PUSH1 0x40 MSTORE PUSH1 0x4 CALLDATASIZE LT PUSH2 0x7B JUMPI PUSH1 0x0 CALLDATALOAD PUSH1 0xE0 SHR DUP1 PUSH4 0xB8B4F1A0 GT PUSH2 0x4E JUMPI DUP1 PUSH4 0xB8B4F1A0 EQ PUSH2 0x118 JUMPI DUP1 PUSH4 0xD0E30DB0 EQ PUSH2 0x12F JUMPI DUP1 PUSH4 0xF280570F EQ PUSH2 0x139 JUMPI DUP1 PUSH4 0xFF4C4D54 EQ PUSH2 0x162 JUMPI PUSH2 0x7B JUMP JUMPDEST DUP1 PUSH4 0x1865C57D EQ PUSH2 0x80 JUMPI DUP1 PUSH4 0x3CCFD60B EQ PUSH2 0xAB JUMPI DUP1 PUSH4 0x91F30BD4 EQ PUSH2 0xC2 JUMPI DUP1 PUSH4 0xB69EF8A8 EQ PUSH2 0xED JUMPI JUMPDEST PUSH1 0x0 DUP1 REVERT JUMPDEST CALLVALUE DUP1 ISZERO PUSH2 0x8C JUMPI PUSH1 0x0 DUP1 REVERT JUMPDEST POP PUSH2 0x95 PUSH2 0x179 JUMP JUMPDEST PUSH1 0x40 MLOAD PUSH2 0xA2 SWAP2 SWAP1 PUSH2 0x80E JUMP JUMPDEST PUSH1 0x40 MLOAD DUP1 SWAP2 SUB SWAP1 RETURN JUMPDEST CALLVALUE DUP1 ISZERO PUSH2 0xB7 JUMPI PUSH1 0x0 DUP1 REVERT JUMPDEST POP PUSH2 0xC0 PUSH2 0x1BA JUMP JUMPDEST STOP JUMPDEST CALLVALUE DUP1 ISZERO PUSH2 0xCE JUMPI PUSH1 0x0 DUP1 REVERT JUMPDEST POP PUSH2 0xD7 PUSH2 0x2D0 JUMP JUMPDEST PUSH1 0x40 MLOAD PUSH2 0xE4 SWAP2 SWAP1 PUSH2 0x829 JUMP JUMPDEST PUSH1 0x40 MLOAD DUP1 SWAP2 SUB SWAP1 RETURN JUMPDEST CALLVALUE DUP1 ISZERO PUSH2 0xF9 JUMPI PUSH1 0x0 DUP1 REVERT JUMPDEST POP PUSH2 0x102 PUSH2 0x35E JUMP JUMPDEST PUSH1 0x40 MLOAD PUSH2 0x10F SWAP2 SWAP1 PUSH2 0x86B JUMP JUMPDEST PUSH1 0x40 MLOAD DUP1 SWAP2 SUB SWAP1 RETURN JUMPDEST CALLVALUE DUP1 ISZERO PUSH2 0x124 JUMPI PUSH1 0x0 DUP1 REVERT JUMPDEST POP PUSH2 0x12D PUSH2 0x366 JUMP JUMPDEST STOP JUMPDEST PUSH2 0x137 PUSH2 0x55C JUMP JUMPDEST STOP JUMPDEST CALLVALUE DUP1 ISZERO PUSH2 0x145 JUMPI PUSH1 0x0 DUP1 REVERT JUMPDEST POP PUSH2 0x160 PUSH1 0x4 DUP1 CALLDATASIZE SUB DUP2 ADD SWAP1 PUSH2 0x15B SWAP2 SWAP1 PUSH2 0x63A JUMP JUMPDEST PUSH2 0x5A2 JUMP JUMPDEST STOP JUMPDEST CALLVALUE DUP1 ISZERO PUSH2 0x16E JUMPI PUSH1 0x0 DUP1 REVERT JUMPDEST POP PUSH2 0x177 PUSH2 0x60E JUMP JUMPDEST STOP JUMPDEST PUSH1 0x0 PUSH1 0x3 PUSH1 0x5 DUP2 GT ISZERO PUSH2 0x18F JUMPI PUSH2 0x18E PUSH2 0x97D JUMP JUMPDEST JUMPDEST PUSH1 0x9 PUSH1 0x0 SWAP1 SLOAD SWAP1 PUSH2 0x100 EXP SWAP1 DIV PUSH1 0xFF AND PUSH1 0x5 DUP2 GT ISZERO PUSH2 0x1B1 JUMPI PUSH2 0x1B0 PUSH2 0x97D JUMP JUMPDEST JUMPDEST POP POP PUSH1 0x5 SWAP1 POP SWAP1 JUMP JUMPDEST PUSH1 0x2 PUSH1 0x0 SWAP1 SLOAD SWAP1 PUSH2 0x100 EXP SWAP1 DIV PUSH20 0xFFFFFFFFFFFFFFFFFFFFFFFFFFFFFFFFFFFFFFFF AND PUSH20 0xFFFFFFFFFFFFFFFFFFFFFFFFFFFFFFFFFFFFFFFF AND PUSH2 0x8FC SELFBALANCE SWAP1 DUP2 ISZERO MUL SWAP1 PUSH1 0x40 MLOAD PUSH1 0x0 PUSH1 0x40 MLOAD DUP1 DUP4 SUB DUP2 DUP6 DUP9 DUP9 CALL SWAP4 POP POP POP POP ISZERO DUP1 ISZERO PUSH2 0x222 JUMPI RETURNDATASIZE PUSH1 0x0 DUP1 RETURNDATACOPY RETURNDATASIZE PUSH1 0x0 REVERT JUMPDEST POP PUSH32 0xD3E74016583AFF79754A7CE6F1E0FEC1DA60ABE14BF2A8691D924F3614EF29D9 PUSH1 0x2 PUSH1 0x0 SWAP1 SLOAD SWAP1 PUSH2 0x100 EXP SWAP1 DIV PUSH20 0xFFFFFFFFFFFFFFFFFFFFFFFFFFFFFFFFFFFFFFFF AND PUSH1 0x1 PUSH1 0x0 SWAP1 SLOAD SWAP1 PUSH2 0x100 EXP SWAP1 DIV PUSH20 0xFFFFFFFFFFFFFFFFFFFFFFFFFFFFFFFFFFFFFFFF AND PUSH1 0x0 PUSH1 0x40 MLOAD PUSH2 0x29B SWAP4 SWAP3 SWAP2 SWAP1 PUSH2 0x7D0 JUMP JUMPDEST PUSH1 0x40 MLOAD DUP1 SWAP2 SUB SWAP1 LOG1 PUSH1 0x3 PUSH1 0x9 PUSH1 0x0 PUSH2 0x100 EXP DUP2 SLOAD DUP2 PUSH1 0xFF MUL NOT AND SWAP1 DUP4 PUSH1 0x5 DUP2 GT ISZERO PUSH2 0x2C9 JUMPI PUSH2 0x2C8 PUSH2 0x97D JUMP JUMPDEST JUMPDEST MUL OR SWAP1 SSTORE POP JUMP JUMPDEST PUSH1 0x0 DUP1 SLOAD PUSH2 0x2DD SWAP1 PUSH2 0x94B JUMP JUMPDEST DUP1 PUSH1 0x1F ADD PUSH1 0x20 DUP1 SWAP2 DIV MUL PUSH1 0x20 ADD PUSH1 0x40 MLOAD SWAP1 DUP2 ADD PUSH1 0x40 MSTORE DUP1 SWAP3 SWAP2 SWAP1 DUP2 DUP2 MSTORE PUSH1 0x20 ADD DUP3 DUP1 SLOAD PUSH2 0x309 SWAP1 PUSH2 0x94B JUMP JUMPDEST DUP1 ISZERO PUSH2 0x356 JUMPI DUP1 PUSH1 0x1F LT PUSH2 0x32B JUMPI PUSH2 0x100 DUP1 DUP4 SLOAD DIV MUL DUP4 MSTORE SWAP2 PUSH1 0x20 ADD SWAP2 PUSH2 0x356 JUMP JUMPDEST DUP3 ADD SWAP2 SWAP1 PUSH1 0x0 MSTORE PUSH1 0x20 PUSH1 0x0 KECCAK256 SWAP1 JUMPDEST DUP2 SLOAD DUP2 MSTORE SWAP1 PUSH1 0x1 ADD SWAP1 PUSH1 0x20 ADD DUP1 DUP4 GT PUSH2 0x339 JUMPI DUP3 SWAP1 SUB PUSH1 0x1F AND DUP3 ADD SWAP2 JUMPDEST POP POP POP POP POP DUP2 JUMP JUMPDEST PUSH1 0x0 SELFBALANCE SWAP1 POP SWAP1 JUMP JUMPDEST PUSH1 0x1 PUSH1 0x0 SWAP1 SLOAD SWAP1 PUSH2 0x100 EXP SWAP1 DIV PUSH20 0xFFFFFFFFFFFFFFFFFFFFFFFFFFFFFFFFFFFFFFFF AND PUSH20 0xFFFFFFFFFFFFFFFFFFFFFFFFFFFFFFFFFFFFFFFF AND CALLER PUSH20 0xFFFFFFFFFFFFFFFFFFFFFFFFFFFFFFFFFFFFFFFF AND EQ ISZERO PUSH2 0x406 JUMPI PUSH1 0x1 PUSH1 0x8 PUSH1 0x0 ADD PUSH1 0x0 PUSH2 0x100 EXP DUP2 SLOAD DUP2 PUSH1 0xFF MUL NOT AND SWAP1 DUP4 ISZERO ISZERO MUL OR SWAP1 SSTORE POP PUSH1 0x0 PUSH1 0x9 PUSH1 0x0 PUSH2 0x100 EXP DUP2 SLOAD DUP2 PUSH1 0xFF MUL NOT AND SWAP1 DUP4 PUSH1 0x5 DUP2 GT ISZERO PUSH2 0x400 JUMPI PUSH2 0x3FF PUSH2 0x97D JUMP JUMPDEST JUMPDEST MUL OR SWAP1 SSTORE POP JUMPDEST PUSH1 0x2 PUSH1 0x0 SWAP1 SLOAD SWAP1 PUSH2 0x100 EXP SWAP1 DIV PUSH20 0xFFFFFFFFFFFFFFFFFFFFFFFFFFFFFFFFFFFFFFFF AND PUSH20 0xFFFFFFFFFFFFFFFFFFFFFFFFFFFFFFFFFFFFFFFF AND CALLER PUSH20 0xFFFFFFFFFFFFFFFFFFFFFFFFFFFFFFFFFFFFFFFF AND EQ ISZERO PUSH2 0x47B JUMPI PUSH1 0x1 PUSH1 0x8 PUSH1 0x0 ADD PUSH1 0x1 PUSH2 0x100 EXP DUP2 SLOAD DUP2 PUSH1 0xFF MUL NOT AND SWAP1 DUP4 ISZERO ISZERO MUL OR SWAP1 SSTORE POP JUMPDEST PUSH1 0x8 PUSH1 0x0 ADD PUSH1 0x0 SWAP1 SLOAD SWAP1 PUSH2 0x100 EXP SWAP1 DIV PUSH1 0xFF AND DUP1 ISZERO PUSH2 0x4A9 JUMPI POP PUSH1 0x8 PUSH1 0x0 ADD PUSH1 0x1 SWAP1 SLOAD SWAP1 PUSH2 0x100 EXP SWAP1 DIV PUSH1 0xFF AND JUMPDEST ISZERO PUSH2 0x55A JUMPI PUSH32 0x32F67F50E910168CA990077EEEA1F27F4FF0C20C08ADDDF57C2258D39F7089D1 PUSH1 0x1 PUSH1 0x0 SWAP1 SLOAD SWAP1 PUSH2 0x100 EXP SWAP1 DIV PUSH20 0xFFFFFFFFFFFFFFFFFFFFFFFFFFFFFFFFFFFFFFFF AND PUSH1 0x2 PUSH1 0x0 SWAP1 SLOAD SWAP1 PUSH2 0x100 EXP SWAP1 DIV PUSH20 0xFFFFFFFFFFFFFFFFFFFFFFFFFFFFFFFFFFFFFFFF AND PUSH1 0x0 PUSH1 0x40 MLOAD PUSH2 0x526 SWAP4 SWAP3 SWAP2 SWAP1 PUSH2 0x7D0 JUMP JUMPDEST PUSH1 0x40 MLOAD DUP1 SWAP2 SUB SWAP1 LOG1 PUSH1 0x1 PUSH1 0x9 PUSH1 0x0 PUSH2 0x100 EXP DUP2 SLOAD DUP2 PUSH1 0xFF MUL NOT AND SWAP1 DUP4 PUSH1 0x5 DUP2 GT ISZERO PUSH2 0x554 JUMPI PUSH2 0x553 PUSH2 0x97D JUMP JUMPDEST JUMPDEST MUL OR SWAP1 SSTORE POP JUMPDEST JUMP JUMPDEST PUSH1 0x7 SLOAD CALLVALUE EQ PUSH2 0x5A0 JUMPI PUSH1 0x40 MLOAD PUSH32 0x8C379A000000000000000000000000000000000000000000000000000000000 DUP2 MSTORE PUSH1 0x4 ADD PUSH2 0x597 SWAP1 PUSH2 0x84B JUMP JUMPDEST PUSH1 0x40 MLOAD DUP1 SWAP2 SUB SWAP1 REVERT JUMPDEST JUMP JUMPDEST DUP6 PUSH1 0x2 PUSH1 0x0 PUSH2 0x100 EXP DUP2 SLOAD DUP2 PUSH20 0xFFFFFFFFFFFFFFFFFFFFFFFFFFFFFFFFFFFFFFFF MUL NOT AND SWAP1 DUP4 PUSH20 0xFFFFFFFFFFFFFFFFFFFFFFFFFFFFFFFFFFFFFFFF AND MUL OR SWAP1 SSTORE POP DUP5 PUSH1 0x3 DUP2 SWAP1 SSTORE POP DUP4 PUSH1 0x4 DUP2 SWAP1 SSTORE POP DUP3 PUSH1 0x5 DUP2 SWAP1 SSTORE POP DUP2 PUSH1 0x6 DUP2 SWAP1 SSTORE POP DUP1 PUSH1 0x7 DUP2 SWAP1 SSTORE POP POP POP POP POP POP POP JUMP JUMPDEST JUMP JUMPDEST PUSH1 0x0 DUP2 CALLDATALOAD SWAP1 POP PUSH2 0x61F DUP2 PUSH2 0xA54 JUMP JUMPDEST SWAP3 SWAP2 POP POP JUMP JUMPDEST PUSH1 0x0 DUP2 CALLDATALOAD SWAP1 POP PUSH2 0x634 DUP2 PUSH2 0xA6B JUMP JUMPDEST SWAP3 SWAP2 POP POP JUMP JUMPDEST PUSH1 0x0 DUP1 PUSH1 0x0 DUP1 PUSH1 0x0 DUP1 PUSH1 0xC0 DUP8 DUP10 SUB SLT ISZERO PUSH2 0x657 JUMPI PUSH2 0x656 PUSH2 0x9DB JUMP JUMPDEST JUMPDEST PUSH1 0x0 PUSH2 0x665 DUP10 DUP3 DUP11 ADD PUSH2 0x610 JUMP JUMPDEST SWAP7 POP POP PUSH1 0x20 PUSH2 0x676 DUP10 DUP3 DUP11 ADD PUSH2 0x625 JUMP JUMPDEST SWAP6 POP POP PUSH1 0x40 PUSH2 0x687 DUP10 DUP3 DUP11 ADD PUSH2 0x625 JUMP JUMPDEST SWAP5 POP POP PUSH1 0x60 PUSH2 0x698 DUP10 DUP3 DUP11 ADD PUSH2 0x625 JUMP JUMPDEST SWAP4 POP POP PUSH1 0x80 PUSH2 0x6A9 DUP10 DUP3 DUP11 ADD PUSH2 0x625 JUMP JUMPDEST SWAP3 POP POP PUSH1 0xA0 PUSH2 0x6BA DUP10 DUP3 DUP11 ADD PUSH2 0x625 JUMP JUMPDEST SWAP2 POP POP SWAP3 SWAP6 POP SWAP3 SWAP6 POP SWAP3 SWAP6 JUMP JUMPDEST PUSH2 0x6D0 DUP2 PUSH2 0x8B7 JUMP JUMPDEST DUP3 MSTORE POP POP JUMP JUMPDEST PUSH2 0x6DF DUP2 PUSH2 0x906 JUMP JUMPDEST DUP3 MSTORE POP POP JUMP JUMPDEST PUSH1 0x0 PUSH2 0x6F0 DUP3 PUSH2 0x89B JUMP JUMPDEST PUSH2 0x6FA DUP2 DUP6 PUSH2 0x8A6 JUMP JUMPDEST SWAP4 POP PUSH2 0x70A DUP2 DUP6 PUSH1 0x20 DUP7 ADD PUSH2 0x918 JUMP JUMPDEST PUSH2 0x713 DUP2 PUSH2 0x9E0 JUMP JUMPDEST DUP5 ADD SWAP2 POP POP SWAP3 SWAP2 POP POP JUMP JUMPDEST PUSH1 0x0 DUP2 SLOAD PUSH2 0x72B DUP2 PUSH2 0x94B JUMP JUMPDEST PUSH2 0x735 DUP2 DUP7 PUSH2 0x8A6 JUMP JUMPDEST SWAP5 POP PUSH1 0x1 DUP3 AND PUSH1 0x0 DUP2 EQ PUSH2 0x750 JUMPI PUSH1 0x1 DUP2 EQ PUSH2 0x762 JUMPI PUSH2 0x795 JUMP JUMPDEST PUSH1 0xFF NOT DUP4 AND DUP7 MSTORE PUSH1 0x20 DUP7 ADD SWAP4 POP PUSH2 0x795 JUMP JUMPDEST PUSH2 0x76B DUP6 PUSH2 0x886 JUMP JUMPDEST PUSH1 0x0 JUMPDEST DUP4 DUP2 LT ISZERO PUSH2 0x78D JUMPI DUP2 SLOAD DUP2 DUP10 ADD MSTORE PUSH1 0x1 DUP3 ADD SWAP2 POP PUSH1 0x20 DUP2 ADD SWAP1 POP PUSH2 0x76E JUMP JUMPDEST DUP1 DUP9 ADD SWAP6 POP POP POP JUMPDEST POP POP POP SWAP3 SWAP2 POP POP JUMP JUMPDEST PUSH1 0x0 PUSH2 0x7AB PUSH1 0x25 DUP4 PUSH2 0x8A6 JUMP JUMPDEST SWAP2 POP PUSH2 0x7B6 DUP3 PUSH2 0x9F1 JUMP JUMPDEST PUSH1 0x40 DUP3 ADD SWAP1 POP SWAP2 SWAP1 POP JUMP JUMPDEST PUSH2 0x7CA DUP2 PUSH2 0x8FC JUMP JUMPDEST DUP3 MSTORE POP POP JUMP JUMPDEST PUSH1 0x0 PUSH1 0x60 DUP3 ADD SWAP1 POP PUSH2 0x7E5 PUSH1 0x0 DUP4 ADD DUP7 PUSH2 0x6C7 JUMP JUMPDEST PUSH2 0x7F2 PUSH1 0x20 DUP4 ADD DUP6 PUSH2 0x6C7 JUMP JUMPDEST DUP2 DUP2 SUB PUSH1 0x40 DUP4 ADD MSTORE PUSH2 0x804 DUP2 DUP5 PUSH2 0x71E JUMP JUMPDEST SWAP1 POP SWAP5 SWAP4 POP POP POP POP JUMP JUMPDEST PUSH1 0x0 PUSH1 0x20 DUP3 ADD SWAP1 POP PUSH2 0x823 PUSH1 0x0 DUP4 ADD DUP5 PUSH2 0x6D6 JUMP JUMPDEST SWAP3 SWAP2 POP POP JUMP JUMPDEST PUSH1 0x0 PUSH1 0x20 DUP3 ADD SWAP1 POP DUP2 DUP2 SUB PUSH1 0x0 DUP4 ADD MSTORE PUSH2 0x843 DUP2 DUP5 PUSH2 0x6E5 JUMP JUMPDEST SWAP1 POP SWAP3 SWAP2 POP POP JUMP JUMPDEST PUSH1 0x0 PUSH1 0x20 DUP3 ADD SWAP1 POP DUP2 DUP2 SUB PUSH1 0x0 DUP4 ADD MSTORE PUSH2 0x864 DUP2 PUSH2 0x79E JUMP JUMPDEST SWAP1 POP SWAP2 SWAP1 POP JUMP JUMPDEST PUSH1 0x0 PUSH1 0x20 DUP3 ADD SWAP1 POP PUSH2 0x880 PUSH1 0x0 DUP4 ADD DUP5 PUSH2 0x7C1 JUMP JUMPDEST SWAP3 SWAP2 POP POP JUMP JUMPDEST PUSH1 0x0 DUP2 SWAP1 POP DUP2 PUSH1 0x0 MSTORE PUSH1 0x20 PUSH1 0x0 KECCAK256 SWAP1 POP SWAP2 SWAP1 POP JUMP JUMPDEST PUSH1 0x0 DUP2 MLOAD SWAP1 POP SWAP2 SWAP1 POP JUMP JUMPDEST PUSH1 0x0 DUP3 DUP3 MSTORE PUSH1 0x20 DUP3 ADD SWAP1 POP SWAP3 SWAP2 POP POP JUMP JUMPDEST PUSH1 0x0 PUSH2 0x8C2 DUP3 PUSH2 0x8DC JUMP JUMPDEST SWAP1 POP SWAP2 SWAP1 POP JUMP JUMPDEST PUSH1 0x0 DUP2 SWAP1 POP PUSH2 0x8D7 DUP3 PUSH2 0xA40 JUMP JUMPDEST SWAP2 SWAP1 POP JUMP JUMPDEST PUSH1 0x0 PUSH20 0xFFFFFFFFFFFFFFFFFFFFFFFFFFFFFFFFFFFFFFFF DUP3 AND SWAP1 POP SWAP2 SWAP1 POP JUMP JUMPDEST PUSH1 0x0 DUP2 SWAP1 POP SWAP2 SWAP1 POP JUMP JUMPDEST PUSH1 0x0 PUSH2 0x911 DUP3 PUSH2 0x8C9 JUMP JUMPDEST SWAP1 POP SWAP2 SWAP1 POP JUMP JUMPDEST PUSH1 0x0 JUMPDEST DUP4 DUP2 LT ISZERO PUSH2 0x936 JUMPI DUP1 DUP3 ADD MLOAD DUP2 DUP5 ADD MSTORE PUSH1 0x20 DUP2 ADD SWAP1 POP PUSH2 0x91B JUMP JUMPDEST DUP4 DUP2 GT ISZERO PUSH2 0x945 JUMPI PUSH1 0x0 DUP5 DUP5 ADD MSTORE JUMPDEST POP POP POP POP JUMP JUMPDEST PUSH1 0x0 PUSH1 0x2 DUP3 DIV SWAP1 POP PUSH1 0x1 DUP3 AND DUP1 PUSH2 0x963 JUMPI PUSH1 0x7F DUP3 AND SWAP2 POP JUMPDEST PUSH1 0x20 DUP3 LT DUP2 EQ ISZERO PUSH2 0x977 JUMPI PUSH2 0x976 PUSH2 0x9AC JUMP JUMPDEST JUMPDEST POP SWAP2 SWAP1 POP JUMP JUMPDEST PUSH32 0x4E487B7100000000000000000000000000000000000000000000000000000000 PUSH1 0x0 MSTORE PUSH1 0x21 PUSH1 0x4 MSTORE PUSH1 0x24 PUSH1 0x0 REVERT JUMPDEST PUSH32 0x4E487B7100000000000000000000000000000000000000000000000000000000 PUSH1 0x0 MSTORE PUSH1 0x22 PUSH1 0x4 MSTORE PUSH1 0x24 PUSH1 0x0 REVERT JUMPDEST PUSH1 0x0 DUP1 REVERT JUMPDEST PUSH1 0x0 PUSH1 0x1F NOT PUSH1 0x1F DUP4 ADD AND SWAP1 POP SWAP2 SWAP1 POP JUMP JUMPDEST PUSH32 0x596F75206E65656420746F206465706F73697420746865206167726565642070 PUSH1 0x0 DUP3 ADD MSTORE PUSH32 0x7269636521000000000000000000000000000000000000000000000000000000 PUSH1 0x20 DUP3 ADD MSTORE POP JUMP JUMPDEST PUSH1 0x6 DUP2 LT PUSH2 0xA51 JUMPI PUSH2 0xA50 PUSH2 0x97D JUMP JUMPDEST JUMPDEST POP JUMP JUMPDEST PUSH2 0xA5D DUP2 PUSH2 0x8B7 JUMP JUMPDEST DUP2 EQ PUSH2 0xA68 JUMPI PUSH1 0x0 DUP1 REVERT JUMPDEST POP JUMP JUMPDEST PUSH2 0xA74 DUP2 PUSH2 0x8FC JUMP JUMPDEST DUP2 EQ PUSH2 0xA7F JUMPI PUSH1 0x0 DUP1 REVERT JUMPDEST POP JUMP INVALID LOG2 PUSH5 0x6970667358 0x22 SLT KECCAK256 0x4A CREATE PUSH22 0xECF0E611EDEA68562A0D5FECE361440AB5E196CB351A POP 0xCD PUSH5 0xC54F229E64 PUSH20 0x6F6C634300080700330000000000000000000000 "
		},
		"gasEstimates": {
			"creation": {
				"codeDepositCost": "548800",
				"executionCost": "infinite",
				"totalCost": "infinite"
			},
			"external": {
				"balance()": "406",
				"contractID()": "infinite",
				"deposit()": "2571",
				"getState()": "2631",
				"revokeConsent()": "210",
				"setContractDetails(address,uint256,uint256,uint256,uint256,uint256)": "infinite",
				"signContract()": "infinite",
				"withdraw()": "infinite"
			}
		},
		"methodIdentifiers": {
			"balance()": "b69ef8a8",
			"contractID()": "91f30bd4",
			"deposit()": "d0e30db0",
			"getState()": "1865c57d",
			"revokeConsent()": "ff4c4d54",
			"setContractDetails(address,uint256,uint256,uint256,uint256,uint256)": "f280570f",
			"signContract()": "b8b4f1a0",
			"withdraw()": "3ccfd60b"
		}
	},
	"abi": [
		{
			"inputs": [
				{
					"internalType": "string",
					"name": "_contractID",
					"type": "string"
				}
			],
			"stateMutability": "nonpayable",
			"type": "constructor"
		},
		{
			"anonymous": false,
			"inputs": [
				{
					"indexed": false,
					"internalType": "address",
					"name": "proposer",
					"type": "address"
				},
				{
					"indexed": false,
					"internalType": "address",
					"name": "consenter",
					"type": "address"
				},
				{
					"indexed": false,
					"internalType": "string",
					"name": "contractID",
					"type": "string"
				}
			],
			"name": "ApprovedContract",
			"type": "event"
		},
		{
			"anonymous": false,
			"inputs": [
				{
					"indexed": false,
					"internalType": "address",
					"name": "proposer",
					"type": "address"
				},
				{
					"indexed": false,
					"internalType": "address",
					"name": "consenter",
					"type": "address"
				},
				{
					"indexed": false,
					"internalType": "string",
					"name": "contractID",
					"type": "string"
				}
			],
			"name": "PaymentReceived",
			"type": "event"
		},
		{
			"inputs": [],
			"name": "balance",
			"outputs": [
				{
					"internalType": "uint256",
					"name": "",
					"type": "uint256"
				}
			],
			"stateMutability": "view",
			"type": "function"
		},
		{
			"inputs": [],
			"name": "contractID",
			"outputs": [
				{
					"internalType": "string",
					"name": "",
					"type": "string"
				}
			],
			"stateMutability": "view",
			"type": "function"
		},
		{
			"inputs": [],
			"name": "deposit",
			"outputs": [],
			"stateMutability": "payable",
			"type": "function"
		},
		{
			"inputs": [],
			"name": "getState",
			"outputs": [
				{
					"internalType": "enum ConsentContract.STATE",
					"name": "",
					"type": "uint8"
				}
			],
			"stateMutability": "view",
			"type": "function"
		},
		{
			"inputs": [],
			"name": "revokeConsent",
			"outputs": [],
			"stateMutability": "nonpayable",
			"type": "function"
		},
		{
			"inputs": [
				{
					"internalType": "address",
					"name": "_consenter",
					"type": "address"
				},
				{
					"internalType": "uint256",
					"name": "_startEnergyData",
					"type": "uint256"
				},
				{
					"internalType": "uint256",
					"name": "_endEnergyData",
					"type": "uint256"
				},
				{
					"internalType": "uint256",
					"name": "_validityOfContract",
					"type": "uint256"
				},
				{
					"internalType": "uint256",
					"name": "_pricePerHour",
					"type": "uint256"
				},
				{
					"internalType": "uint256",
					"name": "_totalPrice",
					"type": "uint256"
				}
			],
			"name": "setContractDetails",
			"outputs": [],
			"stateMutability": "nonpayable",
			"type": "function"
		},
		{
			"inputs": [],
			"name": "signContract",
			"outputs": [],
			"stateMutability": "nonpayable",
			"type": "function"
		},
		{
			"inputs": [],
			"name": "withdraw",
			"outputs": [],
			"stateMutability": "nonpayable",
			"type": "function"
		}
	]
}