{
	"data": {
		"bytecode": {
			"linkReferences": {},
			"object": "608060405234801561001057600080fd5b50336000806101000a81548173ffffffffffffffffffffffffffffffffffffffff021916908373ffffffffffffffffffffffffffffffffffffffff1602179055506105d9806100606000396000f3fe608060405234801561001057600080fd5b50600436106100415760003560e01c8063b8b4f1a014610046578063f280570f14610050578063ff4c4d541461006c575b600080fd5b61004e610076565b005b61006a60048036038101906100659190610422565b610282565b005b610074610346565b005b60008054906101000a900473ffffffffffffffffffffffffffffffffffffffff1673ffffffffffffffffffffffffffffffffffffffff163373ffffffffffffffffffffffffffffffffffffffff16148061011d5750600160009054906101000a900473ffffffffffffffffffffffffffffffffffffffff1673ffffffffffffffffffffffffffffffffffffffff163373ffffffffffffffffffffffffffffffffffffffff16145b61012657600080fd5b60008054906101000a900473ffffffffffffffffffffffffffffffffffffffff1673ffffffffffffffffffffffffffffffffffffffff163373ffffffffffffffffffffffffffffffffffffffff161415610199576001600760000160006101000a81548160ff0219169083151502179055505b600160009054906101000a900473ffffffffffffffffffffffffffffffffffffffff1673ffffffffffffffffffffffffffffffffffffffff163373ffffffffffffffffffffffffffffffffffffffff16141561020e576001600760000160016101000a81548160ff0219169083151502179055505b600760000160009054906101000a900460ff16801561023c5750600760000160019054906101000a900460ff165b1561028057600060b44261025091906104af565b90507f1d0bcfc8e4ee578e5d42c0764c688a71df19942bebc0c262b0535deb145cc30260405160405180910390a1505b565b60008054906101000a900473ffffffffffffffffffffffffffffffffffffffff1673ffffffffffffffffffffffffffffffffffffffff163373ffffffffffffffffffffffffffffffffffffffff16146102da57600080fd5b85600160006101000a81548173ffffffffffffffffffffffffffffffffffffffff021916908373ffffffffffffffffffffffffffffffffffffffff1602179055508460028190555083600381905550826004819055508160058190555080600681905550505050505050565b60008054906101000a900473ffffffffffffffffffffffffffffffffffffffff1673ffffffffffffffffffffffffffffffffffffffff163373ffffffffffffffffffffffffffffffffffffffff1614806103ed5750600160009054906101000a900473ffffffffffffffffffffffffffffffffffffffff1673ffffffffffffffffffffffffffffffffffffffff163373ffffffffffffffffffffffffffffffffffffffff16145b6103f657600080fd5b565b60008135905061040781610575565b92915050565b60008135905061041c8161058c565b92915050565b60008060008060008060c0878903121561043f5761043e610570565b5b600061044d89828a016103f8565b965050602061045e89828a0161040d565b955050604061046f89828a0161040d565b945050606061048089828a0161040d565b935050608061049189828a0161040d565b92505060a06104a289828a0161040d565b9150509295509295509295565b60006104ba82610537565b91506104c583610537565b9250827fffffffffffffffffffffffffffffffffffffffffffffffffffffffffffffffff038211156104fa576104f9610541565b5b828201905092915050565b600061051082610517565b9050919050565b600073ffffffffffffffffffffffffffffffffffffffff82169050919050565b6000819050919050565b7f4e487b7100000000000000000000000000000000000000000000000000000000600052601160045260246000fd5b600080fd5b61057e81610505565b811461058957600080fd5b50565b61059581610537565b81146105a057600080fd5b5056fea2646970667358221220fc85e7afac023a88d9b28855e0f8228472f8a579f3e8c7084a316d498970db1b64736f6c63430008070033",
			"opcodes": "PUSH1 0x80 PUSH1 0x40 MSTORE CALLVALUE DUP1 ISZERO PUSH2 0x10 JUMPI PUSH1 0x0 DUP1 REVERT JUMPDEST POP CALLER PUSH1 0x0 DUP1 PUSH2 0x100 EXP DUP2 SLOAD DUP2 PUSH20 0xFFFFFFFFFFFFFFFFFFFFFFFFFFFFFFFFFFFFFFFF MUL NOT AND SWAP1 DUP4 PUSH20 0xFFFFFFFFFFFFFFFFFFFFFFFFFFFFFFFFFFFFFFFF AND MUL OR SWAP1 SSTORE POP PUSH2 0x5D9 DUP1 PUSH2 0x60 PUSH1 0x0 CODECOPY PUSH1 0x0 RETURN INVALID PUSH1 0x80 PUSH1 0x40 MSTORE CALLVALUE DUP1 ISZERO PUSH2 0x10 JUMPI PUSH1 0x0 DUP1 REVERT JUMPDEST POP PUSH1 0x4 CALLDATASIZE LT PUSH2 0x41 JUMPI PUSH1 0x0 CALLDATALOAD PUSH1 0xE0 SHR DUP1 PUSH4 0xB8B4F1A0 EQ PUSH2 0x46 JUMPI DUP1 PUSH4 0xF280570F EQ PUSH2 0x50 JUMPI DUP1 PUSH4 0xFF4C4D54 EQ PUSH2 0x6C JUMPI JUMPDEST PUSH1 0x0 DUP1 REVERT JUMPDEST PUSH2 0x4E PUSH2 0x76 JUMP JUMPDEST STOP JUMPDEST PUSH2 0x6A PUSH1 0x4 DUP1 CALLDATASIZE SUB DUP2 ADD SWAP1 PUSH2 0x65 SWAP2 SWAP1 PUSH2 0x422 JUMP JUMPDEST PUSH2 0x282 JUMP JUMPDEST STOP JUMPDEST PUSH2 0x74 PUSH2 0x346 JUMP JUMPDEST STOP JUMPDEST PUSH1 0x0 DUP1 SLOAD SWAP1 PUSH2 0x100 EXP SWAP1 DIV PUSH20 0xFFFFFFFFFFFFFFFFFFFFFFFFFFFFFFFFFFFFFFFF AND PUSH20 0xFFFFFFFFFFFFFFFFFFFFFFFFFFFFFFFFFFFFFFFF AND CALLER PUSH20 0xFFFFFFFFFFFFFFFFFFFFFFFFFFFFFFFFFFFFFFFF AND EQ DUP1 PUSH2 0x11D JUMPI POP PUSH1 0x1 PUSH1 0x0 SWAP1 SLOAD SWAP1 PUSH2 0x100 EXP SWAP1 DIV PUSH20 0xFFFFFFFFFFFFFFFFFFFFFFFFFFFFFFFFFFFFFFFF AND PUSH20 0xFFFFFFFFFFFFFFFFFFFFFFFFFFFFFFFFFFFFFFFF AND CALLER PUSH20 0xFFFFFFFFFFFFFFFFFFFFFFFFFFFFFFFFFFFFFFFF AND EQ JUMPDEST PUSH2 0x126 JUMPI PUSH1 0x0 DUP1 REVERT JUMPDEST PUSH1 0x0 DUP1 SLOAD SWAP1 PUSH2 0x100 EXP SWAP1 DIV PUSH20 0xFFFFFFFFFFFFFFFFFFFFFFFFFFFFFFFFFFFFFFFF AND PUSH20 0xFFFFFFFFFFFFFFFFFFFFFFFFFFFFFFFFFFFFFFFF AND CALLER PUSH20 0xFFFFFFFFFFFFFFFFFFFFFFFFFFFFFFFFFFFFFFFF AND EQ ISZERO PUSH2 0x199 JUMPI PUSH1 0x1 PUSH1 0x7 PUSH1 0x0 ADD PUSH1 0x0 PUSH2 0x100 EXP DUP2 SLOAD DUP2 PUSH1 0xFF MUL NOT AND SWAP1 DUP4 ISZERO ISZERO MUL OR SWAP1 SSTORE POP JUMPDEST PUSH1 0x1 PUSH1 0x0 SWAP1 SLOAD SWAP1 PUSH2 0x100 EXP SWAP1 DIV PUSH20 0xFFFFFFFFFFFFFFFFFFFFFFFFFFFFFFFFFFFFFFFF AND PUSH20 0xFFFFFFFFFFFFFFFFFFFFFFFFFFFFFFFFFFFFFFFF AND CALLER PUSH20 0xFFFFFFFFFFFFFFFFFFFFFFFFFFFFFFFFFFFFFFFF AND EQ ISZERO PUSH2 0x20E JUMPI PUSH1 0x1 PUSH1 0x7 PUSH1 0x0 ADD PUSH1 0x1 PUSH2 0x100 EXP DUP2 SLOAD DUP2 PUSH1 0xFF MUL NOT AND SWAP1 DUP4 ISZERO ISZERO MUL OR SWAP1 SSTORE POP JUMPDEST PUSH1 0x7 PUSH1 0x0 ADD PUSH1 0x0 SWAP1 SLOAD SWAP1 PUSH2 0x100 EXP SWAP1 DIV PUSH1 0xFF AND DUP1 ISZERO PUSH2 0x23C JUMPI POP PUSH1 0x7 PUSH1 0x0 ADD PUSH1 0x1 SWAP1 SLOAD SWAP1 PUSH2 0x100 EXP SWAP1 DIV PUSH1 0xFF AND JUMPDEST ISZERO PUSH2 0x280 JUMPI PUSH1 0x0 PUSH1 0xB4 TIMESTAMP PUSH2 0x250 SWAP2 SWAP1 PUSH2 0x4AF JUMP JUMPDEST SWAP1 POP PUSH32 0x1D0BCFC8E4EE578E5D42C0764C688A71DF19942BEBC0C262B0535DEB145CC302 PUSH1 0x40 MLOAD PUSH1 0x40 MLOAD DUP1 SWAP2 SUB SWAP1 LOG1 POP JUMPDEST JUMP JUMPDEST PUSH1 0x0 DUP1 SLOAD SWAP1 PUSH2 0x100 EXP SWAP1 DIV PUSH20 0xFFFFFFFFFFFFFFFFFFFFFFFFFFFFFFFFFFFFFFFF AND PUSH20 0xFFFFFFFFFFFFFFFFFFFFFFFFFFFFFFFFFFFFFFFF AND CALLER PUSH20 0xFFFFFFFFFFFFFFFFFFFFFFFFFFFFFFFFFFFFFFFF AND EQ PUSH2 0x2DA JUMPI PUSH1 0x0 DUP1 REVERT JUMPDEST DUP6 PUSH1 0x1 PUSH1 0x0 PUSH2 0x100 EXP DUP2 SLOAD DUP2 PUSH20 0xFFFFFFFFFFFFFFFFFFFFFFFFFFFFFFFFFFFFFFFF MUL NOT AND SWAP1 DUP4 PUSH20 0xFFFFFFFFFFFFFFFFFFFFFFFFFFFFFFFFFFFFFFFF AND MUL OR SWAP1 SSTORE POP DUP5 PUSH1 0x2 DUP2 SWAP1 SSTORE POP DUP4 PUSH1 0x3 DUP2 SWAP1 SSTORE POP DUP3 PUSH1 0x4 DUP2 SWAP1 SSTORE POP DUP2 PUSH1 0x5 DUP2 SWAP1 SSTORE POP DUP1 PUSH1 0x6 DUP2 SWAP1 SSTORE POP POP POP POP POP POP POP JUMP JUMPDEST PUSH1 0x0 DUP1 SLOAD SWAP1 PUSH2 0x100 EXP SWAP1 DIV PUSH20 0xFFFFFFFFFFFFFFFFFFFFFFFFFFFFFFFFFFFFFFFF AND PUSH20 0xFFFFFFFFFFFFFFFFFFFFFFFFFFFFFFFFFFFFFFFF AND CALLER PUSH20 0xFFFFFFFFFFFFFFFFFFFFFFFFFFFFFFFFFFFFFFFF AND EQ DUP1 PUSH2 0x3ED JUMPI POP PUSH1 0x1 PUSH1 0x0 SWAP1 SLOAD SWAP1 PUSH2 0x100 EXP SWAP1 DIV PUSH20 0xFFFFFFFFFFFFFFFFFFFFFFFFFFFFFFFFFFFFFFFF AND PUSH20 0xFFFFFFFFFFFFFFFFFFFFFFFFFFFFFFFFFFFFFFFF AND CALLER PUSH20 0xFFFFFFFFFFFFFFFFFFFFFFFFFFFFFFFFFFFFFFFF AND EQ JUMPDEST PUSH2 0x3F6 JUMPI PUSH1 0x0 DUP1 REVERT JUMPDEST JUMP JUMPDEST PUSH1 0x0 DUP2 CALLDATALOAD SWAP1 POP PUSH2 0x407 DUP2 PUSH2 0x575 JUMP JUMPDEST SWAP3 SWAP2 POP POP JUMP JUMPDEST PUSH1 0x0 DUP2 CALLDATALOAD SWAP1 POP PUSH2 0x41C DUP2 PUSH2 0x58C JUMP JUMPDEST SWAP3 SWAP2 POP POP JUMP JUMPDEST PUSH1 0x0 DUP1 PUSH1 0x0 DUP1 PUSH1 0x0 DUP1 PUSH1 0xC0 DUP8 DUP10 SUB SLT ISZERO PUSH2 0x43F JUMPI PUSH2 0x43E PUSH2 0x570 JUMP JUMPDEST JUMPDEST PUSH1 0x0 PUSH2 0x44D DUP10 DUP3 DUP11 ADD PUSH2 0x3F8 JUMP JUMPDEST SWAP7 POP POP PUSH1 0x20 PUSH2 0x45E DUP10 DUP3 DUP11 ADD PUSH2 0x40D JUMP JUMPDEST SWAP6 POP POP PUSH1 0x40 PUSH2 0x46F DUP10 DUP3 DUP11 ADD PUSH2 0x40D JUMP JUMPDEST SWAP5 POP POP PUSH1 0x60 PUSH2 0x480 DUP10 DUP3 DUP11 ADD PUSH2 0x40D JUMP JUMPDEST SWAP4 POP POP PUSH1 0x80 PUSH2 0x491 DUP10 DUP3 DUP11 ADD PUSH2 0x40D JUMP JUMPDEST SWAP3 POP POP PUSH1 0xA0 PUSH2 0x4A2 DUP10 DUP3 DUP11 ADD PUSH2 0x40D JUMP JUMPDEST SWAP2 POP POP SWAP3 SWAP6 POP SWAP3 SWAP6 POP SWAP3 SWAP6 JUMP JUMPDEST PUSH1 0x0 PUSH2 0x4BA DUP3 PUSH2 0x537 JUMP JUMPDEST SWAP2 POP PUSH2 0x4C5 DUP4 PUSH2 0x537 JUMP JUMPDEST SWAP3 POP DUP3 PUSH32 0xFFFFFFFFFFFFFFFFFFFFFFFFFFFFFFFFFFFFFFFFFFFFFFFFFFFFFFFFFFFFFFFF SUB DUP3 GT ISZERO PUSH2 0x4FA JUMPI PUSH2 0x4F9 PUSH2 0x541 JUMP JUMPDEST JUMPDEST DUP3 DUP3 ADD SWAP1 POP SWAP3 SWAP2 POP POP JUMP JUMPDEST PUSH1 0x0 PUSH2 0x510 DUP3 PUSH2 0x517 JUMP JUMPDEST SWAP1 POP SWAP2 SWAP1 POP JUMP JUMPDEST PUSH1 0x0 PUSH20 0xFFFFFFFFFFFFFFFFFFFFFFFFFFFFFFFFFFFFFFFF DUP3 AND SWAP1 POP SWAP2 SWAP1 POP JUMP JUMPDEST PUSH1 0x0 DUP2 SWAP1 POP SWAP2 SWAP1 POP JUMP JUMPDEST PUSH32 0x4E487B7100000000000000000000000000000000000000000000000000000000 PUSH1 0x0 MSTORE PUSH1 0x11 PUSH1 0x4 MSTORE PUSH1 0x24 PUSH1 0x0 REVERT JUMPDEST PUSH1 0x0 DUP1 REVERT JUMPDEST PUSH2 0x57E DUP2 PUSH2 0x505 JUMP JUMPDEST DUP2 EQ PUSH2 0x589 JUMPI PUSH1 0x0 DUP1 REVERT JUMPDEST POP JUMP JUMPDEST PUSH2 0x595 DUP2 PUSH2 0x537 JUMP JUMPDEST DUP2 EQ PUSH2 0x5A0 JUMPI PUSH1 0x0 DUP1 REVERT JUMPDEST POP JUMP INVALID LOG2 PUSH5 0x6970667358 0x22 SLT KECCAK256 0xFC DUP6 0xE7 0xAF 0xAC MUL GASPRICE DUP9 0xD9 0xB2 DUP9 SSTORE 0xE0 0xF8 0x22 DUP5 PUSH19 0xF8A579F3E8C7084A316D498970DB1B64736F6C PUSH4 0x43000807 STOP CALLER "
		},
		"gasEstimates": {
			"creation": {
				"codeDepositCost": "299400",
				"executionCost": "24603",
				"totalCost": "324003"
			},
			"external": {
				"revokeConsent()": "4508",
				"setContractDetails(address,uint256,uint256,uint256,uint256,uint256)": "infinite",
				"signContract()": "infinite"
			}
		},
		"methodIdentifiers": {
			"revokeConsent()": "ff4c4d54",
			"setContractDetails(address,uint256,uint256,uint256,uint256,uint256)": "f280570f",
			"signContract()": "b8b4f1a0"
		}
	},
	"abi": [
		{
			"inputs": [],
			"stateMutability": "nonpayable",
			"type": "constructor"
		},
		{
			"anonymous": false,
			"inputs": [],
			"name": "ApprovedContract",
			"type": "event"
		},
		{
			"anonymous": false,
			"inputs": [],
			"name": "ProposedContract",
			"type": "event"
		},
		{
			"inputs": [],
			"name": "revokeConsent",
			"outputs": [],
			"stateMutability": "nonpayable",
			"type": "function"
		},
		{
			"inputs": [
				{
					"internalType": "address",
					"name": "_consenter",
					"type": "address"
				},
				{
					"internalType": "uint256",
					"name": "_startEnergyData",
					"type": "uint256"
				},
				{
					"internalType": "uint256",
					"name": "_endEnergyData",
					"type": "uint256"
				},
				{
					"internalType": "uint256",
					"name": "_contractValidInDays",
					"type": "uint256"
				},
				{
					"internalType": "uint256",
					"name": "_pricePerHour",
					"type": "uint256"
				},
				{
					"internalType": "uint256",
					"name": "_totalPrice",
					"type": "uint256"
				}
			],
			"name": "setContractDetails",
			"outputs": [],
			"stateMutability": "nonpayable",
			"type": "function"
		},
		{
			"inputs": [],
			"name": "signContract",
			"outputs": [],
			"stateMutability": "nonpayable",
			"type": "function"
		}
	]
}