{
	"Documents/dev/e-community-platform/in-progress/consent-management/src/blockchain/smart_contracts/contracts/ConsentContract.sol": {
		"ConsentContract": {
			"abi": [
				{
					"inputs": [],
					"stateMutability": "nonpayable",
					"type": "constructor"
				},
				{
					"anonymous": false,
					"inputs": [],
					"name": "ApprovedContract",
					"type": "event"
				},
				{
					"anonymous": false,
					"inputs": [],
					"name": "ProposedContract",
					"type": "event"
				},
				{
					"inputs": [],
					"name": "revokeConsent",
					"outputs": [],
					"stateMutability": "nonpayable",
					"type": "function"
				},
				{
					"inputs": [
						{
							"internalType": "address",
							"name": "_consenter",
							"type": "address"
						}
					],
					"name": "setConsenter",
					"outputs": [],
					"stateMutability": "nonpayable",
					"type": "function"
				},
				{
					"inputs": [],
					"name": "signContract",
					"outputs": [],
					"stateMutability": "nonpayable",
					"type": "function"
				}
			],
			"devdoc": {
				"kind": "dev",
				"methods": {},
				"version": 1
			},
			"evm": {
				"assembly": "    /* \"Documents/dev/e-community-platform/in-progress/consent-management/src/blockchain/smart_contracts/contracts/ConsentContract.sol\":71:2178  contract ConsentContract {... */\n  mstore(0x40, 0x80)\n    /* \"Documents/dev/e-community-platform/in-progress/consent-management/src/blockchain/smart_contracts/contracts/ConsentContract.sol\":855:939  constructor() {... */\n  callvalue\n  dup1\n  iszero\n  tag_1\n  jumpi\n  0x00\n  dup1\n  revert\ntag_1:\n  pop\n    /* \"Documents/dev/e-community-platform/in-progress/consent-management/src/blockchain/smart_contracts/contracts/ConsentContract.sol\":890:900  msg.sender */\n  caller\n    /* \"Documents/dev/e-community-platform/in-progress/consent-management/src/blockchain/smart_contracts/contracts/ConsentContract.sol\":879:887  proposer */\n  0x00\n  dup1\n    /* \"Documents/dev/e-community-platform/in-progress/consent-management/src/blockchain/smart_contracts/contracts/ConsentContract.sol\":879:900  proposer = msg.sender */\n  0x0100\n  exp\n  dup2\n  sload\n  dup2\n  0xffffffffffffffffffffffffffffffffffffffff\n  mul\n  not\n  and\n  swap1\n  dup4\n  0xffffffffffffffffffffffffffffffffffffffff\n  and\n  mul\n  or\n  swap1\n  sstore\n  pop\n    /* \"Documents/dev/e-community-platform/in-progress/consent-management/src/blockchain/smart_contracts/contracts/ConsentContract.sol\":918:932  STATE.INACTIVE */\n  0x00\n    /* \"Documents/dev/e-community-platform/in-progress/consent-management/src/blockchain/smart_contracts/contracts/ConsentContract.sol\":910:915  state */\n  0x01\n  0x14\n    /* \"Documents/dev/e-community-platform/in-progress/consent-management/src/blockchain/smart_contracts/contracts/ConsentContract.sol\":910:932  state = STATE.INACTIVE */\n  0x0100\n  exp\n  dup2\n  sload\n  dup2\n  0xff\n  mul\n  not\n  and\n  swap1\n  dup4\n  0x03\n  dup2\n  gt\n  iszero\n  tag_4\n  jumpi\n  tag_5\n  tag_6\n  jump\t// in\ntag_5:\ntag_4:\n  mul\n  or\n  swap1\n  sstore\n  pop\n    /* \"Documents/dev/e-community-platform/in-progress/consent-management/src/blockchain/smart_contracts/contracts/ConsentContract.sol\":71:2178  contract ConsentContract {... */\n  jump(tag_7)\n    /* \"#utility.yul\":7:187   */\ntag_6:\n    /* \"#utility.yul\":55:132   */\n  0x4e487b7100000000000000000000000000000000000000000000000000000000\n    /* \"#utility.yul\":52:53   */\n  0x00\n    /* \"#utility.yul\":45:133   */\n  mstore\n    /* \"#utility.yul\":152:156   */\n  0x21\n    /* \"#utility.yul\":149:150   */\n  0x04\n    /* \"#utility.yul\":142:157   */\n  mstore\n    /* \"#utility.yul\":176:180   */\n  0x24\n    /* \"#utility.yul\":173:174   */\n  0x00\n    /* \"#utility.yul\":166:181   */\n  revert\n    /* \"Documents/dev/e-community-platform/in-progress/consent-management/src/blockchain/smart_contracts/contracts/ConsentContract.sol\":71:2178  contract ConsentContract {... */\ntag_7:\n  dataSize(sub_0)\n  dup1\n  dataOffset(sub_0)\n  0x00\n  codecopy\n  0x00\n  return\nstop\n\nsub_0: assembly {\n        /* \"Documents/dev/e-community-platform/in-progress/consent-management/src/blockchain/smart_contracts/contracts/ConsentContract.sol\":71:2178  contract ConsentContract {... */\n      mstore(0x40, 0x80)\n      callvalue\n      dup1\n      iszero\n      tag_1\n      jumpi\n      0x00\n      dup1\n      revert\n    tag_1:\n      pop\n      jumpi(tag_2, lt(calldatasize, 0x04))\n      shr(0xe0, calldataload(0x00))\n      dup1\n      0x77a424e7\n      eq\n      tag_3\n      jumpi\n      dup1\n      0xb8b4f1a0\n      eq\n      tag_4\n      jumpi\n      dup1\n      0xff4c4d54\n      eq\n      tag_5\n      jumpi\n    tag_2:\n      0x00\n      dup1\n      revert\n        /* \"Documents/dev/e-community-platform/in-progress/consent-management/src/blockchain/smart_contracts/contracts/ConsentContract.sol\":1015:1113  function setConsenter(address _consenter) public onlyOwner {... */\n    tag_3:\n      tag_6\n      0x04\n      dup1\n      calldatasize\n      sub\n      dup2\n      add\n      swap1\n      tag_7\n      swap2\n      swap1\n      tag_8\n      jump\t// in\n    tag_7:\n      tag_9\n      jump\t// in\n    tag_6:\n      stop\n        /* \"Documents/dev/e-community-platform/in-progress/consent-management/src/blockchain/smart_contracts/contracts/ConsentContract.sol\":1342:1699  function signContract() public bothParties {... */\n    tag_4:\n      tag_10\n      tag_11\n      jump\t// in\n    tag_10:\n      stop\n        /* \"Documents/dev/e-community-platform/in-progress/consent-management/src/blockchain/smart_contracts/contracts/ConsentContract.sol\":1754:1836  function revokeConsent() public bothParties {... */\n    tag_5:\n      tag_12\n      tag_13\n      jump\t// in\n    tag_12:\n      stop\n        /* \"Documents/dev/e-community-platform/in-progress/consent-management/src/blockchain/smart_contracts/contracts/ConsentContract.sol\":1015:1113  function setConsenter(address _consenter) public onlyOwner {... */\n    tag_9:\n        /* \"Documents/dev/e-community-platform/in-progress/consent-management/src/blockchain/smart_contracts/contracts/ConsentContract.sol\":1953:1961  proposer */\n      0x00\n      dup1\n      sload\n      swap1\n      0x0100\n      exp\n      swap1\n      div\n      0xffffffffffffffffffffffffffffffffffffffff\n      and\n        /* \"Documents/dev/e-community-platform/in-progress/consent-management/src/blockchain/smart_contracts/contracts/ConsentContract.sol\":1939:1961  msg.sender == proposer */\n      0xffffffffffffffffffffffffffffffffffffffff\n      and\n        /* \"Documents/dev/e-community-platform/in-progress/consent-management/src/blockchain/smart_contracts/contracts/ConsentContract.sol\":1939:1949  msg.sender */\n      caller\n        /* \"Documents/dev/e-community-platform/in-progress/consent-management/src/blockchain/smart_contracts/contracts/ConsentContract.sol\":1939:1961  msg.sender == proposer */\n      0xffffffffffffffffffffffffffffffffffffffff\n      and\n      eq\n        /* \"Documents/dev/e-community-platform/in-progress/consent-management/src/blockchain/smart_contracts/contracts/ConsentContract.sol\":1931:1962  require(msg.sender == proposer) */\n      tag_15\n      jumpi\n      0x00\n      dup1\n      revert\n    tag_15:\n        /* \"Documents/dev/e-community-platform/in-progress/consent-management/src/blockchain/smart_contracts/contracts/ConsentContract.sol\":1096:1106  _consenter */\n      dup1\n        /* \"Documents/dev/e-community-platform/in-progress/consent-management/src/blockchain/smart_contracts/contracts/ConsentContract.sol\":1084:1093  consenter */\n      0x01\n      0x00\n        /* \"Documents/dev/e-community-platform/in-progress/consent-management/src/blockchain/smart_contracts/contracts/ConsentContract.sol\":1084:1106  consenter = _consenter */\n      0x0100\n      exp\n      dup2\n      sload\n      dup2\n      0xffffffffffffffffffffffffffffffffffffffff\n      mul\n      not\n      and\n      swap1\n      dup4\n      0xffffffffffffffffffffffffffffffffffffffff\n      and\n      mul\n      or\n      swap1\n      sstore\n      pop\n        /* \"Documents/dev/e-community-platform/in-progress/consent-management/src/blockchain/smart_contracts/contracts/ConsentContract.sol\":1015:1113  function setConsenter(address _consenter) public onlyOwner {... */\n      pop\n      jump\t// out\n        /* \"Documents/dev/e-community-platform/in-progress/consent-management/src/blockchain/smart_contracts/contracts/ConsentContract.sol\":1342:1699  function signContract() public bothParties {... */\n    tag_11:\n        /* \"Documents/dev/e-community-platform/in-progress/consent-management/src/blockchain/smart_contracts/contracts/ConsentContract.sol\":2122:2130  proposer */\n      0x00\n      dup1\n      sload\n      swap1\n      0x0100\n      exp\n      swap1\n      div\n      0xffffffffffffffffffffffffffffffffffffffff\n      and\n        /* \"Documents/dev/e-community-platform/in-progress/consent-management/src/blockchain/smart_contracts/contracts/ConsentContract.sol\":2108:2130  msg.sender == proposer */\n      0xffffffffffffffffffffffffffffffffffffffff\n      and\n        /* \"Documents/dev/e-community-platform/in-progress/consent-management/src/blockchain/smart_contracts/contracts/ConsentContract.sol\":2108:2118  msg.sender */\n      caller\n        /* \"Documents/dev/e-community-platform/in-progress/consent-management/src/blockchain/smart_contracts/contracts/ConsentContract.sol\":2108:2130  msg.sender == proposer */\n      0xffffffffffffffffffffffffffffffffffffffff\n      and\n      eq\n        /* \"Documents/dev/e-community-platform/in-progress/consent-management/src/blockchain/smart_contracts/contracts/ConsentContract.sol\":2108:2157  msg.sender == proposer || msg.sender == consenter */\n      dup1\n      tag_18\n      jumpi\n      pop\n        /* \"Documents/dev/e-community-platform/in-progress/consent-management/src/blockchain/smart_contracts/contracts/ConsentContract.sol\":2148:2157  consenter */\n      0x01\n      0x00\n      swap1\n      sload\n      swap1\n      0x0100\n      exp\n      swap1\n      div\n      0xffffffffffffffffffffffffffffffffffffffff\n      and\n        /* \"Documents/dev/e-community-platform/in-progress/consent-management/src/blockchain/smart_contracts/contracts/ConsentContract.sol\":2134:2157  msg.sender == consenter */\n      0xffffffffffffffffffffffffffffffffffffffff\n      and\n        /* \"Documents/dev/e-community-platform/in-progress/consent-management/src/blockchain/smart_contracts/contracts/ConsentContract.sol\":2134:2144  msg.sender */\n      caller\n        /* \"Documents/dev/e-community-platform/in-progress/consent-management/src/blockchain/smart_contracts/contracts/ConsentContract.sol\":2134:2157  msg.sender == consenter */\n      0xffffffffffffffffffffffffffffffffffffffff\n      and\n      eq\n        /* \"Documents/dev/e-community-platform/in-progress/consent-management/src/blockchain/smart_contracts/contracts/ConsentContract.sol\":2108:2157  msg.sender == proposer || msg.sender == consenter */\n    tag_18:\n        /* \"Documents/dev/e-community-platform/in-progress/consent-management/src/blockchain/smart_contracts/contracts/ConsentContract.sol\":2100:2158  require(msg.sender == proposer || msg.sender == consenter) */\n      tag_19\n      jumpi\n      0x00\n      dup1\n      revert\n    tag_19:\n        /* \"Documents/dev/e-community-platform/in-progress/consent-management/src/blockchain/smart_contracts/contracts/ConsentContract.sol\":1413:1421  proposer */\n      0x00\n      dup1\n      sload\n      swap1\n      0x0100\n      exp\n      swap1\n      div\n      0xffffffffffffffffffffffffffffffffffffffff\n      and\n        /* \"Documents/dev/e-community-platform/in-progress/consent-management/src/blockchain/smart_contracts/contracts/ConsentContract.sol\":1399:1421  msg.sender == proposer */\n      0xffffffffffffffffffffffffffffffffffffffff\n      and\n        /* \"Documents/dev/e-community-platform/in-progress/consent-management/src/blockchain/smart_contracts/contracts/ConsentContract.sol\":1399:1409  msg.sender */\n      caller\n        /* \"Documents/dev/e-community-platform/in-progress/consent-management/src/blockchain/smart_contracts/contracts/ConsentContract.sol\":1399:1421  msg.sender == proposer */\n      0xffffffffffffffffffffffffffffffffffffffff\n      and\n      eq\n        /* \"Documents/dev/e-community-platform/in-progress/consent-management/src/blockchain/smart_contracts/contracts/ConsentContract.sol\":1395:1461  if (msg.sender == proposer) { signature.signedByProposer = true; } */\n      iszero\n      tag_21\n      jumpi\n        /* \"Documents/dev/e-community-platform/in-progress/consent-management/src/blockchain/smart_contracts/contracts/ConsentContract.sol\":1454:1458  true */\n      0x01\n        /* \"Documents/dev/e-community-platform/in-progress/consent-management/src/blockchain/smart_contracts/contracts/ConsentContract.sol\":1425:1434  signature */\n      0x02\n        /* \"Documents/dev/e-community-platform/in-progress/consent-management/src/blockchain/smart_contracts/contracts/ConsentContract.sol\":1425:1451  signature.signedByProposer */\n      0x00\n      add\n      0x00\n        /* \"Documents/dev/e-community-platform/in-progress/consent-management/src/blockchain/smart_contracts/contracts/ConsentContract.sol\":1425:1458  signature.signedByProposer = true */\n      0x0100\n      exp\n      dup2\n      sload\n      dup2\n      0xff\n      mul\n      not\n      and\n      swap1\n      dup4\n      iszero\n      iszero\n      mul\n      or\n      swap1\n      sstore\n      pop\n        /* \"Documents/dev/e-community-platform/in-progress/consent-management/src/blockchain/smart_contracts/contracts/ConsentContract.sol\":1395:1461  if (msg.sender == proposer) { signature.signedByProposer = true; } */\n    tag_21:\n        /* \"Documents/dev/e-community-platform/in-progress/consent-management/src/blockchain/smart_contracts/contracts/ConsentContract.sol\":1488:1497  consenter */\n      0x01\n      0x00\n      swap1\n      sload\n      swap1\n      0x0100\n      exp\n      swap1\n      div\n      0xffffffffffffffffffffffffffffffffffffffff\n      and\n        /* \"Documents/dev/e-community-platform/in-progress/consent-management/src/blockchain/smart_contracts/contracts/ConsentContract.sol\":1474:1497  msg.sender == consenter */\n      0xffffffffffffffffffffffffffffffffffffffff\n      and\n        /* \"Documents/dev/e-community-platform/in-progress/consent-management/src/blockchain/smart_contracts/contracts/ConsentContract.sol\":1474:1484  msg.sender */\n      caller\n        /* \"Documents/dev/e-community-platform/in-progress/consent-management/src/blockchain/smart_contracts/contracts/ConsentContract.sol\":1474:1497  msg.sender == consenter */\n      0xffffffffffffffffffffffffffffffffffffffff\n      and\n      eq\n        /* \"Documents/dev/e-community-platform/in-progress/consent-management/src/blockchain/smart_contracts/contracts/ConsentContract.sol\":1470:1538  if (msg.sender == consenter) { signature.signedByConsenter = true; } */\n      iszero\n      tag_22\n      jumpi\n        /* \"Documents/dev/e-community-platform/in-progress/consent-management/src/blockchain/smart_contracts/contracts/ConsentContract.sol\":1531:1535  true */\n      0x01\n        /* \"Documents/dev/e-community-platform/in-progress/consent-management/src/blockchain/smart_contracts/contracts/ConsentContract.sol\":1501:1510  signature */\n      0x02\n        /* \"Documents/dev/e-community-platform/in-progress/consent-management/src/blockchain/smart_contracts/contracts/ConsentContract.sol\":1501:1528  signature.signedByConsenter */\n      0x00\n      add\n      0x01\n        /* \"Documents/dev/e-community-platform/in-progress/consent-management/src/blockchain/smart_contracts/contracts/ConsentContract.sol\":1501:1535  signature.signedByConsenter = true */\n      0x0100\n      exp\n      dup2\n      sload\n      dup2\n      0xff\n      mul\n      not\n      and\n      swap1\n      dup4\n      iszero\n      iszero\n      mul\n      or\n      swap1\n      sstore\n      pop\n        /* \"Documents/dev/e-community-platform/in-progress/consent-management/src/blockchain/smart_contracts/contracts/ConsentContract.sol\":1470:1538  if (msg.sender == consenter) { signature.signedByConsenter = true; } */\n    tag_22:\n        /* \"Documents/dev/e-community-platform/in-progress/consent-management/src/blockchain/smart_contracts/contracts/ConsentContract.sol\":1552:1561  signature */\n      0x02\n        /* \"Documents/dev/e-community-platform/in-progress/consent-management/src/blockchain/smart_contracts/contracts/ConsentContract.sol\":1552:1578  signature.signedByProposer */\n      0x00\n      add\n      0x00\n      swap1\n      sload\n      swap1\n      0x0100\n      exp\n      swap1\n      div\n      0xff\n      and\n        /* \"Documents/dev/e-community-platform/in-progress/consent-management/src/blockchain/smart_contracts/contracts/ConsentContract.sol\":1552:1609  signature.signedByProposer && signature.signedByConsenter */\n      dup1\n      iszero\n      tag_23\n      jumpi\n      pop\n        /* \"Documents/dev/e-community-platform/in-progress/consent-management/src/blockchain/smart_contracts/contracts/ConsentContract.sol\":1582:1591  signature */\n      0x02\n        /* \"Documents/dev/e-community-platform/in-progress/consent-management/src/blockchain/smart_contracts/contracts/ConsentContract.sol\":1582:1609  signature.signedByConsenter */\n      0x00\n      add\n      0x01\n      swap1\n      sload\n      swap1\n      0x0100\n      exp\n      swap1\n      div\n      0xff\n      and\n        /* \"Documents/dev/e-community-platform/in-progress/consent-management/src/blockchain/smart_contracts/contracts/ConsentContract.sol\":1552:1609  signature.signedByProposer && signature.signedByConsenter */\n    tag_23:\n        /* \"Documents/dev/e-community-platform/in-progress/consent-management/src/blockchain/smart_contracts/contracts/ConsentContract.sol\":1548:1693  if (signature.signedByProposer && signature.signedByConsenter) {... */\n      iszero\n      tag_24\n      jumpi\n        /* \"Documents/dev/e-community-platform/in-progress/consent-management/src/blockchain/smart_contracts/contracts/ConsentContract.sol\":1633:1645  STATE.ACTIVE */\n      0x01\n        /* \"Documents/dev/e-community-platform/in-progress/consent-management/src/blockchain/smart_contracts/contracts/ConsentContract.sol\":1625:1630  state */\n      dup1\n      0x14\n        /* \"Documents/dev/e-community-platform/in-progress/consent-management/src/blockchain/smart_contracts/contracts/ConsentContract.sol\":1625:1645  state = STATE.ACTIVE */\n      0x0100\n      exp\n      dup2\n      sload\n      dup2\n      0xff\n      mul\n      not\n      and\n      swap1\n      dup4\n      0x03\n      dup2\n      gt\n      iszero\n      tag_25\n      jumpi\n      tag_26\n      tag_27\n      jump\t// in\n    tag_26:\n    tag_25:\n      mul\n      or\n      swap1\n      sstore\n      pop\n        /* \"Documents/dev/e-community-platform/in-progress/consent-management/src/blockchain/smart_contracts/contracts/ConsentContract.sol\":1664:1682  ApprovedContract() */\n      0x1d0bcfc8e4ee578e5d42c0764c688a71df19942bebc0c262b0535deb145cc302\n      mload(0x40)\n      mload(0x40)\n      dup1\n      swap2\n      sub\n      swap1\n      log1\n        /* \"Documents/dev/e-community-platform/in-progress/consent-management/src/blockchain/smart_contracts/contracts/ConsentContract.sol\":1548:1693  if (signature.signedByProposer && signature.signedByConsenter) {... */\n    tag_24:\n        /* \"Documents/dev/e-community-platform/in-progress/consent-management/src/blockchain/smart_contracts/contracts/ConsentContract.sol\":1342:1699  function signContract() public bothParties {... */\n      jump\t// out\n        /* \"Documents/dev/e-community-platform/in-progress/consent-management/src/blockchain/smart_contracts/contracts/ConsentContract.sol\":1754:1836  function revokeConsent() public bothParties {... */\n    tag_13:\n        /* \"Documents/dev/e-community-platform/in-progress/consent-management/src/blockchain/smart_contracts/contracts/ConsentContract.sol\":2122:2130  proposer */\n      0x00\n      dup1\n      sload\n      swap1\n      0x0100\n      exp\n      swap1\n      div\n      0xffffffffffffffffffffffffffffffffffffffff\n      and\n        /* \"Documents/dev/e-community-platform/in-progress/consent-management/src/blockchain/smart_contracts/contracts/ConsentContract.sol\":2108:2130  msg.sender == proposer */\n      0xffffffffffffffffffffffffffffffffffffffff\n      and\n        /* \"Documents/dev/e-community-platform/in-progress/consent-management/src/blockchain/smart_contracts/contracts/ConsentContract.sol\":2108:2118  msg.sender */\n      caller\n        /* \"Documents/dev/e-community-platform/in-progress/consent-management/src/blockchain/smart_contracts/contracts/ConsentContract.sol\":2108:2130  msg.sender == proposer */\n      0xffffffffffffffffffffffffffffffffffffffff\n      and\n      eq\n        /* \"Documents/dev/e-community-platform/in-progress/consent-management/src/blockchain/smart_contracts/contracts/ConsentContract.sol\":2108:2157  msg.sender == proposer || msg.sender == consenter */\n      dup1\n      tag_29\n      jumpi\n      pop\n        /* \"Documents/dev/e-community-platform/in-progress/consent-management/src/blockchain/smart_contracts/contracts/ConsentContract.sol\":2148:2157  consenter */\n      0x01\n      0x00\n      swap1\n      sload\n      swap1\n      0x0100\n      exp\n      swap1\n      div\n      0xffffffffffffffffffffffffffffffffffffffff\n      and\n        /* \"Documents/dev/e-community-platform/in-progress/consent-management/src/blockchain/smart_contracts/contracts/ConsentContract.sol\":2134:2157  msg.sender == consenter */\n      0xffffffffffffffffffffffffffffffffffffffff\n      and\n        /* \"Documents/dev/e-community-platform/in-progress/consent-management/src/blockchain/smart_contracts/contracts/ConsentContract.sol\":2134:2144  msg.sender */\n      caller\n        /* \"Documents/dev/e-community-platform/in-progress/consent-management/src/blockchain/smart_contracts/contracts/ConsentContract.sol\":2134:2157  msg.sender == consenter */\n      0xffffffffffffffffffffffffffffffffffffffff\n      and\n      eq\n        /* \"Documents/dev/e-community-platform/in-progress/consent-management/src/blockchain/smart_contracts/contracts/ConsentContract.sol\":2108:2157  msg.sender == proposer || msg.sender == consenter */\n    tag_29:\n        /* \"Documents/dev/e-community-platform/in-progress/consent-management/src/blockchain/smart_contracts/contracts/ConsentContract.sol\":2100:2158  require(msg.sender == proposer || msg.sender == consenter) */\n      tag_30\n      jumpi\n      0x00\n      dup1\n      revert\n    tag_30:\n        /* \"Documents/dev/e-community-platform/in-progress/consent-management/src/blockchain/smart_contracts/contracts/ConsentContract.sol\":1816:1829  STATE.REVOKED */\n      0x02\n        /* \"Documents/dev/e-community-platform/in-progress/consent-management/src/blockchain/smart_contracts/contracts/ConsentContract.sol\":1808:1813  state */\n      0x01\n      0x14\n        /* \"Documents/dev/e-community-platform/in-progress/consent-management/src/blockchain/smart_contracts/contracts/ConsentContract.sol\":1808:1829  state = STATE.REVOKED */\n      0x0100\n      exp\n      dup2\n      sload\n      dup2\n      0xff\n      mul\n      not\n      and\n      swap1\n      dup4\n      0x03\n      dup2\n      gt\n      iszero\n      tag_32\n      jumpi\n      tag_33\n      tag_27\n      jump\t// in\n    tag_33:\n    tag_32:\n      mul\n      or\n      swap1\n      sstore\n      pop\n        /* \"Documents/dev/e-community-platform/in-progress/consent-management/src/blockchain/smart_contracts/contracts/ConsentContract.sol\":1754:1836  function revokeConsent() public bothParties {... */\n      jump\t// out\n        /* \"#utility.yul\":7:146   */\n    tag_35:\n        /* \"#utility.yul\":53:58   */\n      0x00\n        /* \"#utility.yul\":91:97   */\n      dup2\n        /* \"#utility.yul\":78:98   */\n      calldataload\n        /* \"#utility.yul\":69:98   */\n      swap1\n      pop\n        /* \"#utility.yul\":107:140   */\n      tag_37\n        /* \"#utility.yul\":134:139   */\n      dup2\n        /* \"#utility.yul\":107:140   */\n      tag_38\n      jump\t// in\n    tag_37:\n        /* \"#utility.yul\":7:146   */\n      swap3\n      swap2\n      pop\n      pop\n      jump\t// out\n        /* \"#utility.yul\":152:481   */\n    tag_8:\n        /* \"#utility.yul\":211:217   */\n      0x00\n        /* \"#utility.yul\":260:262   */\n      0x20\n        /* \"#utility.yul\":248:257   */\n      dup3\n        /* \"#utility.yul\":239:246   */\n      dup5\n        /* \"#utility.yul\":235:258   */\n      sub\n        /* \"#utility.yul\":231:263   */\n      slt\n        /* \"#utility.yul\":228:347   */\n      iszero\n      tag_40\n      jumpi\n        /* \"#utility.yul\":266:345   */\n      tag_41\n      tag_42\n      jump\t// in\n    tag_41:\n        /* \"#utility.yul\":228:347   */\n    tag_40:\n        /* \"#utility.yul\":386:387   */\n      0x00\n        /* \"#utility.yul\":411:464   */\n      tag_43\n        /* \"#utility.yul\":456:463   */\n      dup5\n        /* \"#utility.yul\":447:453   */\n      dup3\n        /* \"#utility.yul\":436:445   */\n      dup6\n        /* \"#utility.yul\":432:454   */\n      add\n        /* \"#utility.yul\":411:464   */\n      tag_35\n      jump\t// in\n    tag_43:\n        /* \"#utility.yul\":401:464   */\n      swap2\n      pop\n        /* \"#utility.yul\":357:474   */\n      pop\n        /* \"#utility.yul\":152:481   */\n      swap3\n      swap2\n      pop\n      pop\n      jump\t// out\n        /* \"#utility.yul\":568:664   */\n    tag_46:\n        /* \"#utility.yul\":605:612   */\n      0x00\n        /* \"#utility.yul\":634:658   */\n      tag_48\n        /* \"#utility.yul\":652:657   */\n      dup3\n        /* \"#utility.yul\":634:658   */\n      tag_49\n      jump\t// in\n    tag_48:\n        /* \"#utility.yul\":623:658   */\n      swap1\n      pop\n        /* \"#utility.yul\":568:664   */\n      swap2\n      swap1\n      pop\n      jump\t// out\n        /* \"#utility.yul\":670:796   */\n    tag_49:\n        /* \"#utility.yul\":707:714   */\n      0x00\n        /* \"#utility.yul\":747:789   */\n      0xffffffffffffffffffffffffffffffffffffffff\n        /* \"#utility.yul\":740:745   */\n      dup3\n        /* \"#utility.yul\":736:790   */\n      and\n        /* \"#utility.yul\":725:790   */\n      swap1\n      pop\n        /* \"#utility.yul\":670:796   */\n      swap2\n      swap1\n      pop\n      jump\t// out\n        /* \"#utility.yul\":802:982   */\n    tag_27:\n        /* \"#utility.yul\":850:927   */\n      0x4e487b7100000000000000000000000000000000000000000000000000000000\n        /* \"#utility.yul\":847:848   */\n      0x00\n        /* \"#utility.yul\":840:928   */\n      mstore\n        /* \"#utility.yul\":947:951   */\n      0x21\n        /* \"#utility.yul\":944:945   */\n      0x04\n        /* \"#utility.yul\":937:952   */\n      mstore\n        /* \"#utility.yul\":971:975   */\n      0x24\n        /* \"#utility.yul\":968:969   */\n      0x00\n        /* \"#utility.yul\":961:976   */\n      revert\n        /* \"#utility.yul\":1111:1228   */\n    tag_42:\n        /* \"#utility.yul\":1220:1221   */\n      0x00\n        /* \"#utility.yul\":1217:1218   */\n      dup1\n        /* \"#utility.yul\":1210:1222   */\n      revert\n        /* \"#utility.yul\":1234:1356   */\n    tag_38:\n        /* \"#utility.yul\":1307:1331   */\n      tag_56\n        /* \"#utility.yul\":1325:1330   */\n      dup2\n        /* \"#utility.yul\":1307:1331   */\n      tag_46\n      jump\t// in\n    tag_56:\n        /* \"#utility.yul\":1300:1305   */\n      dup2\n        /* \"#utility.yul\":1297:1332   */\n      eq\n        /* \"#utility.yul\":1287:1350   */\n      tag_57\n      jumpi\n        /* \"#utility.yul\":1346:1347   */\n      0x00\n        /* \"#utility.yul\":1343:1344   */\n      dup1\n        /* \"#utility.yul\":1336:1348   */\n      revert\n        /* \"#utility.yul\":1287:1350   */\n    tag_57:\n        /* \"#utility.yul\":1234:1356   */\n      pop\n      jump\t// out\n\n    auxdata: 0xa2646970667358221220864692d52d09083f0ab6904f49cce1971d9a5a3fc8d9fd3bdd73bc1fa3198b5964736f6c63430008070033\n}\n",
				"bytecode": {
					"linkReferences": {},
					"object": "608060405234801561001057600080fd5b50336000806101000a81548173ffffffffffffffffffffffffffffffffffffffff021916908373ffffffffffffffffffffffffffffffffffffffff1602179055506000600160146101000a81548160ff0219169083600381111561007757610076610081565b5b02179055506100b0565b7f4e487b7100000000000000000000000000000000000000000000000000000000600052602160045260246000fd5b610508806100bf6000396000f3fe608060405234801561001057600080fd5b50600436106100415760003560e01c806377a424e714610046578063b8b4f1a014610062578063ff4c4d541461006c575b600080fd5b610060600480360381019061005b9190610428565b610076565b005b61006a610112565b005b610074610336565b005b60008054906101000a900473ffffffffffffffffffffffffffffffffffffffff1673ffffffffffffffffffffffffffffffffffffffff163373ffffffffffffffffffffffffffffffffffffffff16146100ce57600080fd5b80600160006101000a81548173ffffffffffffffffffffffffffffffffffffffff021916908373ffffffffffffffffffffffffffffffffffffffff16021790555050565b60008054906101000a900473ffffffffffffffffffffffffffffffffffffffff1673ffffffffffffffffffffffffffffffffffffffff163373ffffffffffffffffffffffffffffffffffffffff1614806101b95750600160009054906101000a900473ffffffffffffffffffffffffffffffffffffffff1673ffffffffffffffffffffffffffffffffffffffff163373ffffffffffffffffffffffffffffffffffffffff16145b6101c257600080fd5b60008054906101000a900473ffffffffffffffffffffffffffffffffffffffff1673ffffffffffffffffffffffffffffffffffffffff163373ffffffffffffffffffffffffffffffffffffffff161415610235576001600260000160006101000a81548160ff0219169083151502179055505b600160009054906101000a900473ffffffffffffffffffffffffffffffffffffffff1673ffffffffffffffffffffffffffffffffffffffff163373ffffffffffffffffffffffffffffffffffffffff1614156102aa576001600260000160016101000a81548160ff0219169083151502179055505b600260000160009054906101000a900460ff1680156102d85750600260000160019054906101000a900460ff165b156103345760018060146101000a81548160ff0219169083600381111561030257610301610487565b5b02179055507f1d0bcfc8e4ee578e5d42c0764c688a71df19942bebc0c262b0535deb145cc30260405160405180910390a15b565b60008054906101000a900473ffffffffffffffffffffffffffffffffffffffff1673ffffffffffffffffffffffffffffffffffffffff163373ffffffffffffffffffffffffffffffffffffffff1614806103dd5750600160009054906101000a900473ffffffffffffffffffffffffffffffffffffffff1673ffffffffffffffffffffffffffffffffffffffff163373ffffffffffffffffffffffffffffffffffffffff16145b6103e657600080fd5b6002600160146101000a81548160ff0219169083600381111561040c5761040b610487565b5b0217905550565b600081359050610422816104bb565b92915050565b60006020828403121561043e5761043d6104b6565b5b600061044c84828501610413565b91505092915050565b600061046082610467565b9050919050565b600073ffffffffffffffffffffffffffffffffffffffff82169050919050565b7f4e487b7100000000000000000000000000000000000000000000000000000000600052602160045260246000fd5b600080fd5b6104c481610455565b81146104cf57600080fd5b5056fea2646970667358221220864692d52d09083f0ab6904f49cce1971d9a5a3fc8d9fd3bdd73bc1fa3198b5964736f6c63430008070033",
					"opcodes": "PUSH1 0x80 PUSH1 0x40 MSTORE CALLVALUE DUP1 ISZERO PUSH2 0x10 JUMPI PUSH1 0x0 DUP1 REVERT JUMPDEST POP CALLER PUSH1 0x0 DUP1 PUSH2 0x100 EXP DUP2 SLOAD DUP2 PUSH20 0xFFFFFFFFFFFFFFFFFFFFFFFFFFFFFFFFFFFFFFFF MUL NOT AND SWAP1 DUP4 PUSH20 0xFFFFFFFFFFFFFFFFFFFFFFFFFFFFFFFFFFFFFFFF AND MUL OR SWAP1 SSTORE POP PUSH1 0x0 PUSH1 0x1 PUSH1 0x14 PUSH2 0x100 EXP DUP2 SLOAD DUP2 PUSH1 0xFF MUL NOT AND SWAP1 DUP4 PUSH1 0x3 DUP2 GT ISZERO PUSH2 0x77 JUMPI PUSH2 0x76 PUSH2 0x81 JUMP JUMPDEST JUMPDEST MUL OR SWAP1 SSTORE POP PUSH2 0xB0 JUMP JUMPDEST PUSH32 0x4E487B7100000000000000000000000000000000000000000000000000000000 PUSH1 0x0 MSTORE PUSH1 0x21 PUSH1 0x4 MSTORE PUSH1 0x24 PUSH1 0x0 REVERT JUMPDEST PUSH2 0x508 DUP1 PUSH2 0xBF PUSH1 0x0 CODECOPY PUSH1 0x0 RETURN INVALID PUSH1 0x80 PUSH1 0x40 MSTORE CALLVALUE DUP1 ISZERO PUSH2 0x10 JUMPI PUSH1 0x0 DUP1 REVERT JUMPDEST POP PUSH1 0x4 CALLDATASIZE LT PUSH2 0x41 JUMPI PUSH1 0x0 CALLDATALOAD PUSH1 0xE0 SHR DUP1 PUSH4 0x77A424E7 EQ PUSH2 0x46 JUMPI DUP1 PUSH4 0xB8B4F1A0 EQ PUSH2 0x62 JUMPI DUP1 PUSH4 0xFF4C4D54 EQ PUSH2 0x6C JUMPI JUMPDEST PUSH1 0x0 DUP1 REVERT JUMPDEST PUSH2 0x60 PUSH1 0x4 DUP1 CALLDATASIZE SUB DUP2 ADD SWAP1 PUSH2 0x5B SWAP2 SWAP1 PUSH2 0x428 JUMP JUMPDEST PUSH2 0x76 JUMP JUMPDEST STOP JUMPDEST PUSH2 0x6A PUSH2 0x112 JUMP JUMPDEST STOP JUMPDEST PUSH2 0x74 PUSH2 0x336 JUMP JUMPDEST STOP JUMPDEST PUSH1 0x0 DUP1 SLOAD SWAP1 PUSH2 0x100 EXP SWAP1 DIV PUSH20 0xFFFFFFFFFFFFFFFFFFFFFFFFFFFFFFFFFFFFFFFF AND PUSH20 0xFFFFFFFFFFFFFFFFFFFFFFFFFFFFFFFFFFFFFFFF AND CALLER PUSH20 0xFFFFFFFFFFFFFFFFFFFFFFFFFFFFFFFFFFFFFFFF AND EQ PUSH2 0xCE JUMPI PUSH1 0x0 DUP1 REVERT JUMPDEST DUP1 PUSH1 0x1 PUSH1 0x0 PUSH2 0x100 EXP DUP2 SLOAD DUP2 PUSH20 0xFFFFFFFFFFFFFFFFFFFFFFFFFFFFFFFFFFFFFFFF MUL NOT AND SWAP1 DUP4 PUSH20 0xFFFFFFFFFFFFFFFFFFFFFFFFFFFFFFFFFFFFFFFF AND MUL OR SWAP1 SSTORE POP POP JUMP JUMPDEST PUSH1 0x0 DUP1 SLOAD SWAP1 PUSH2 0x100 EXP SWAP1 DIV PUSH20 0xFFFFFFFFFFFFFFFFFFFFFFFFFFFFFFFFFFFFFFFF AND PUSH20 0xFFFFFFFFFFFFFFFFFFFFFFFFFFFFFFFFFFFFFFFF AND CALLER PUSH20 0xFFFFFFFFFFFFFFFFFFFFFFFFFFFFFFFFFFFFFFFF AND EQ DUP1 PUSH2 0x1B9 JUMPI POP PUSH1 0x1 PUSH1 0x0 SWAP1 SLOAD SWAP1 PUSH2 0x100 EXP SWAP1 DIV PUSH20 0xFFFFFFFFFFFFFFFFFFFFFFFFFFFFFFFFFFFFFFFF AND PUSH20 0xFFFFFFFFFFFFFFFFFFFFFFFFFFFFFFFFFFFFFFFF AND CALLER PUSH20 0xFFFFFFFFFFFFFFFFFFFFFFFFFFFFFFFFFFFFFFFF AND EQ JUMPDEST PUSH2 0x1C2 JUMPI PUSH1 0x0 DUP1 REVERT JUMPDEST PUSH1 0x0 DUP1 SLOAD SWAP1 PUSH2 0x100 EXP SWAP1 DIV PUSH20 0xFFFFFFFFFFFFFFFFFFFFFFFFFFFFFFFFFFFFFFFF AND PUSH20 0xFFFFFFFFFFFFFFFFFFFFFFFFFFFFFFFFFFFFFFFF AND CALLER PUSH20 0xFFFFFFFFFFFFFFFFFFFFFFFFFFFFFFFFFFFFFFFF AND EQ ISZERO PUSH2 0x235 JUMPI PUSH1 0x1 PUSH1 0x2 PUSH1 0x0 ADD PUSH1 0x0 PUSH2 0x100 EXP DUP2 SLOAD DUP2 PUSH1 0xFF MUL NOT AND SWAP1 DUP4 ISZERO ISZERO MUL OR SWAP1 SSTORE POP JUMPDEST PUSH1 0x1 PUSH1 0x0 SWAP1 SLOAD SWAP1 PUSH2 0x100 EXP SWAP1 DIV PUSH20 0xFFFFFFFFFFFFFFFFFFFFFFFFFFFFFFFFFFFFFFFF AND PUSH20 0xFFFFFFFFFFFFFFFFFFFFFFFFFFFFFFFFFFFFFFFF AND CALLER PUSH20 0xFFFFFFFFFFFFFFFFFFFFFFFFFFFFFFFFFFFFFFFF AND EQ ISZERO PUSH2 0x2AA JUMPI PUSH1 0x1 PUSH1 0x2 PUSH1 0x0 ADD PUSH1 0x1 PUSH2 0x100 EXP DUP2 SLOAD DUP2 PUSH1 0xFF MUL NOT AND SWAP1 DUP4 ISZERO ISZERO MUL OR SWAP1 SSTORE POP JUMPDEST PUSH1 0x2 PUSH1 0x0 ADD PUSH1 0x0 SWAP1 SLOAD SWAP1 PUSH2 0x100 EXP SWAP1 DIV PUSH1 0xFF AND DUP1 ISZERO PUSH2 0x2D8 JUMPI POP PUSH1 0x2 PUSH1 0x0 ADD PUSH1 0x1 SWAP1 SLOAD SWAP1 PUSH2 0x100 EXP SWAP1 DIV PUSH1 0xFF AND JUMPDEST ISZERO PUSH2 0x334 JUMPI PUSH1 0x1 DUP1 PUSH1 0x14 PUSH2 0x100 EXP DUP2 SLOAD DUP2 PUSH1 0xFF MUL NOT AND SWAP1 DUP4 PUSH1 0x3 DUP2 GT ISZERO PUSH2 0x302 JUMPI PUSH2 0x301 PUSH2 0x487 JUMP JUMPDEST JUMPDEST MUL OR SWAP1 SSTORE POP PUSH32 0x1D0BCFC8E4EE578E5D42C0764C688A71DF19942BEBC0C262B0535DEB145CC302 PUSH1 0x40 MLOAD PUSH1 0x40 MLOAD DUP1 SWAP2 SUB SWAP1 LOG1 JUMPDEST JUMP JUMPDEST PUSH1 0x0 DUP1 SLOAD SWAP1 PUSH2 0x100 EXP SWAP1 DIV PUSH20 0xFFFFFFFFFFFFFFFFFFFFFFFFFFFFFFFFFFFFFFFF AND PUSH20 0xFFFFFFFFFFFFFFFFFFFFFFFFFFFFFFFFFFFFFFFF AND CALLER PUSH20 0xFFFFFFFFFFFFFFFFFFFFFFFFFFFFFFFFFFFFFFFF AND EQ DUP1 PUSH2 0x3DD JUMPI POP PUSH1 0x1 PUSH1 0x0 SWAP1 SLOAD SWAP1 PUSH2 0x100 EXP SWAP1 DIV PUSH20 0xFFFFFFFFFFFFFFFFFFFFFFFFFFFFFFFFFFFFFFFF AND PUSH20 0xFFFFFFFFFFFFFFFFFFFFFFFFFFFFFFFFFFFFFFFF AND CALLER PUSH20 0xFFFFFFFFFFFFFFFFFFFFFFFFFFFFFFFFFFFFFFFF AND EQ JUMPDEST PUSH2 0x3E6 JUMPI PUSH1 0x0 DUP1 REVERT JUMPDEST PUSH1 0x2 PUSH1 0x1 PUSH1 0x14 PUSH2 0x100 EXP DUP2 SLOAD DUP2 PUSH1 0xFF MUL NOT AND SWAP1 DUP4 PUSH1 0x3 DUP2 GT ISZERO PUSH2 0x40C JUMPI PUSH2 0x40B PUSH2 0x487 JUMP JUMPDEST JUMPDEST MUL OR SWAP1 SSTORE POP JUMP JUMPDEST PUSH1 0x0 DUP2 CALLDATALOAD SWAP1 POP PUSH2 0x422 DUP2 PUSH2 0x4BB JUMP JUMPDEST SWAP3 SWAP2 POP POP JUMP JUMPDEST PUSH1 0x0 PUSH1 0x20 DUP3 DUP5 SUB SLT ISZERO PUSH2 0x43E JUMPI PUSH2 0x43D PUSH2 0x4B6 JUMP JUMPDEST JUMPDEST PUSH1 0x0 PUSH2 0x44C DUP5 DUP3 DUP6 ADD PUSH2 0x413 JUMP JUMPDEST SWAP2 POP POP SWAP3 SWAP2 POP POP JUMP JUMPDEST PUSH1 0x0 PUSH2 0x460 DUP3 PUSH2 0x467 JUMP JUMPDEST SWAP1 POP SWAP2 SWAP1 POP JUMP JUMPDEST PUSH1 0x0 PUSH20 0xFFFFFFFFFFFFFFFFFFFFFFFFFFFFFFFFFFFFFFFF DUP3 AND SWAP1 POP SWAP2 SWAP1 POP JUMP JUMPDEST PUSH32 0x4E487B7100000000000000000000000000000000000000000000000000000000 PUSH1 0x0 MSTORE PUSH1 0x21 PUSH1 0x4 MSTORE PUSH1 0x24 PUSH1 0x0 REVERT JUMPDEST PUSH1 0x0 DUP1 REVERT JUMPDEST PUSH2 0x4C4 DUP2 PUSH2 0x455 JUMP JUMPDEST DUP2 EQ PUSH2 0x4CF JUMPI PUSH1 0x0 DUP1 REVERT JUMPDEST POP JUMP INVALID LOG2 PUSH5 0x6970667358 0x22 SLT KECCAK256 DUP7 CHAINID SWAP3 0xD5 0x2D MULMOD ADDMOD EXTCODEHASH EXP 0xB6 SWAP1 0x4F 0x49 0xCC 0xE1 SWAP8 SAR SWAP11 GAS EXTCODEHASH 0xC8 0xD9 REVERT EXTCODESIZE 0xDD PUSH20 0xBC1FA3198B5964736F6C63430008070033000000 "
				},
				"gasEstimates": {
					"creation": {
						"codeDepositCost": "257600",
						"executionCost": "48915",
						"totalCost": "306515"
					},
					"external": {
						"revokeConsent()": "28845",
						"setConsenter(address)": "26867",
						"signContract()": "86918"
					}
				},
				"methodIdentifiers": {
					"revokeConsent()": "ff4c4d54",
					"setConsenter(address)": "77a424e7",
					"signContract()": "b8b4f1a0"
				}
			},
			"storageLayout": {
				"storage": [
					{
						"astId": 17,
						"contract": "Documents/dev/e-community-platform/in-progress/consent-management/src/blockchain/smart_contracts/contracts/ConsentContract.sol:ConsentContract",
						"label": "proposer",
						"offset": 0,
						"slot": "0",
						"type": "t_address"
					},
					{
						"astId": 19,
						"contract": "Documents/dev/e-community-platform/in-progress/consent-management/src/blockchain/smart_contracts/contracts/ConsentContract.sol:ConsentContract",
						"label": "consenter",
						"offset": 0,
						"slot": "1",
						"type": "t_address"
					},
					{
						"astId": 22,
						"contract": "Documents/dev/e-community-platform/in-progress/consent-management/src/blockchain/smart_contracts/contracts/ConsentContract.sol:ConsentContract",
						"label": "state",
						"offset": 20,
						"slot": "1",
						"type": "t_enum(STATE)6"
					},
					{
						"astId": 25,
						"contract": "Documents/dev/e-community-platform/in-progress/consent-management/src/blockchain/smart_contracts/contracts/ConsentContract.sol:ConsentContract",
						"label": "signature",
						"offset": 0,
						"slot": "2",
						"type": "t_struct(ContractSign)11_storage"
					}
				],
				"types": {
					"t_address": {
						"encoding": "inplace",
						"label": "address",
						"numberOfBytes": "20"
					},
					"t_bool": {
						"encoding": "inplace",
						"label": "bool",
						"numberOfBytes": "1"
					},
					"t_enum(STATE)6": {
						"encoding": "inplace",
						"label": "enum ConsentContract.STATE",
						"numberOfBytes": "1"
					},
					"t_struct(ContractSign)11_storage": {
						"encoding": "inplace",
						"label": "struct ConsentContract.ContractSign",
						"members": [
							{
								"astId": 8,
								"contract": "Documents/dev/e-community-platform/in-progress/consent-management/src/blockchain/smart_contracts/contracts/ConsentContract.sol:ConsentContract",
								"label": "signedByProposer",
								"offset": 0,
								"slot": "0",
								"type": "t_bool"
							},
							{
								"astId": 10,
								"contract": "Documents/dev/e-community-platform/in-progress/consent-management/src/blockchain/smart_contracts/contracts/ConsentContract.sol:ConsentContract",
								"label": "signedByConsenter",
								"offset": 1,
								"slot": "0",
								"type": "t_bool"
							}
						],
						"numberOfBytes": "32"
					}
				}
			},
			"userdoc": {
				"kind": "user",
				"methods": {},
				"version": 1
			}
		}
	}
}