{
	"Documents/dev/e-community-platform/in-progress/consent-management/src/blockchain/smart_contracts/contracts/ConsentContract.sol": {
		"ConsentContract": {
			"abi": [
				{
					"inputs": [
						{
							"internalType": "address",
							"name": "_consenter",
							"type": "address"
						}
					],
					"stateMutability": "nonpayable",
					"type": "constructor"
				},
				{
					"anonymous": false,
					"inputs": [],
					"name": "ApprovedContract",
					"type": "event"
				},
				{
					"anonymous": false,
					"inputs": [],
					"name": "ProposedContract",
					"type": "event"
				},
				{
					"inputs": [],
					"name": "getValue",
					"outputs": [
						{
							"internalType": "int256",
							"name": "",
							"type": "int256"
						}
					],
					"stateMutability": "pure",
					"type": "function"
				},
				{
					"inputs": [],
					"name": "revokeConsent",
					"outputs": [],
					"stateMutability": "nonpayable",
					"type": "function"
				},
				{
					"inputs": [],
					"name": "set",
					"outputs": [],
					"stateMutability": "nonpayable",
					"type": "function"
				},
				{
					"inputs": [],
					"name": "signContract",
					"outputs": [],
					"stateMutability": "nonpayable",
					"type": "function"
				}
			],
			"devdoc": {
				"kind": "dev",
				"methods": {},
				"version": 1
			},
			"evm": {
				"assembly": "    /* \"Documents/dev/e-community-platform/in-progress/consent-management/src/blockchain/smart_contracts/contracts/ConsentContract.sol\":71:2206  contract ConsentContract {... */\n  mstore(0x40, 0x80)\n    /* \"Documents/dev/e-community-platform/in-progress/consent-management/src/blockchain/smart_contracts/contracts/ConsentContract.sol\":878:1012  constructor(address _consenter) {... */\n  callvalue\n  dup1\n  iszero\n  tag_1\n  jumpi\n  0x00\n  dup1\n  revert\ntag_1:\n  pop\n  mload(0x40)\n  sub(codesize, bytecodeSize)\n  dup1\n  bytecodeSize\n  dup4\n  codecopy\n  dup2\n  dup2\n  add\n  0x40\n  mstore\n  dup2\n  add\n  swap1\n  tag_2\n  swap2\n  swap1\n  tag_3\n  jump\t// in\ntag_2:\n    /* \"Documents/dev/e-community-platform/in-progress/consent-management/src/blockchain/smart_contracts/contracts/ConsentContract.sol\":931:941  msg.sender */\n  caller\n    /* \"Documents/dev/e-community-platform/in-progress/consent-management/src/blockchain/smart_contracts/contracts/ConsentContract.sol\":920:928  proposer */\n  0x00\n  dup1\n    /* \"Documents/dev/e-community-platform/in-progress/consent-management/src/blockchain/smart_contracts/contracts/ConsentContract.sol\":920:941  proposer = msg.sender */\n  0x0100\n  exp\n  dup2\n  sload\n  dup2\n  0xffffffffffffffffffffffffffffffffffffffff\n  mul\n  not\n  and\n  swap1\n  dup4\n  0xffffffffffffffffffffffffffffffffffffffff\n  and\n  mul\n  or\n  swap1\n  sstore\n  pop\n    /* \"Documents/dev/e-community-platform/in-progress/consent-management/src/blockchain/smart_contracts/contracts/ConsentContract.sol\":959:973  STATE.INACTIVE */\n  0x00\n    /* \"Documents/dev/e-community-platform/in-progress/consent-management/src/blockchain/smart_contracts/contracts/ConsentContract.sol\":951:956  state */\n  0x01\n  0x14\n    /* \"Documents/dev/e-community-platform/in-progress/consent-management/src/blockchain/smart_contracts/contracts/ConsentContract.sol\":951:973  state = STATE.INACTIVE */\n  0x0100\n  exp\n  dup2\n  sload\n  dup2\n  0xff\n  mul\n  not\n  and\n  swap1\n  dup4\n  0x03\n  dup2\n  gt\n  iszero\n  tag_6\n  jumpi\n  tag_7\n  tag_8\n  jump\t// in\ntag_7:\ntag_6:\n  mul\n  or\n  swap1\n  sstore\n  pop\n    /* \"Documents/dev/e-community-platform/in-progress/consent-management/src/blockchain/smart_contracts/contracts/ConsentContract.sol\":995:1005  _consenter */\n  dup1\n    /* \"Documents/dev/e-community-platform/in-progress/consent-management/src/blockchain/smart_contracts/contracts/ConsentContract.sol\":983:992  consenter */\n  0x01\n  0x00\n    /* \"Documents/dev/e-community-platform/in-progress/consent-management/src/blockchain/smart_contracts/contracts/ConsentContract.sol\":983:1005  consenter = _consenter */\n  0x0100\n  exp\n  dup2\n  sload\n  dup2\n  0xffffffffffffffffffffffffffffffffffffffff\n  mul\n  not\n  and\n  swap1\n  dup4\n  0xffffffffffffffffffffffffffffffffffffffff\n  and\n  mul\n  or\n  swap1\n  sstore\n  pop\n    /* \"Documents/dev/e-community-platform/in-progress/consent-management/src/blockchain/smart_contracts/contracts/ConsentContract.sol\":878:1012  constructor(address _consenter) {... */\n  pop\n    /* \"Documents/dev/e-community-platform/in-progress/consent-management/src/blockchain/smart_contracts/contracts/ConsentContract.sol\":71:2206  contract ConsentContract {... */\n  jump(tag_9)\n    /* \"#utility.yul\":7:150   */\ntag_11:\n    /* \"#utility.yul\":64:69   */\n  0x00\n    /* \"#utility.yul\":95:101   */\n  dup2\n    /* \"#utility.yul\":89:102   */\n  mload\n    /* \"#utility.yul\":80:102   */\n  swap1\n  pop\n    /* \"#utility.yul\":111:144   */\n  tag_13\n    /* \"#utility.yul\":138:143   */\n  dup2\n    /* \"#utility.yul\":111:144   */\n  tag_14\n  jump\t// in\ntag_13:\n    /* \"#utility.yul\":7:150   */\n  swap3\n  swap2\n  pop\n  pop\n  jump\t// out\n    /* \"#utility.yul\":156:507   */\ntag_3:\n    /* \"#utility.yul\":226:232   */\n  0x00\n    /* \"#utility.yul\":275:277   */\n  0x20\n    /* \"#utility.yul\":263:272   */\n  dup3\n    /* \"#utility.yul\":254:261   */\n  dup5\n    /* \"#utility.yul\":250:273   */\n  sub\n    /* \"#utility.yul\":246:278   */\n  slt\n    /* \"#utility.yul\":243:362   */\n  iszero\n  tag_16\n  jumpi\n    /* \"#utility.yul\":281:360   */\n  tag_17\n  tag_18\n  jump\t// in\ntag_17:\n    /* \"#utility.yul\":243:362   */\ntag_16:\n    /* \"#utility.yul\":401:402   */\n  0x00\n    /* \"#utility.yul\":426:490   */\n  tag_19\n    /* \"#utility.yul\":482:489   */\n  dup5\n    /* \"#utility.yul\":473:479   */\n  dup3\n    /* \"#utility.yul\":462:471   */\n  dup6\n    /* \"#utility.yul\":458:480   */\n  add\n    /* \"#utility.yul\":426:490   */\n  tag_11\n  jump\t// in\ntag_19:\n    /* \"#utility.yul\":416:490   */\n  swap2\n  pop\n    /* \"#utility.yul\":372:500   */\n  pop\n    /* \"#utility.yul\":156:507   */\n  swap3\n  swap2\n  pop\n  pop\n  jump\t// out\n    /* \"#utility.yul\":594:690   */\ntag_22:\n    /* \"#utility.yul\":631:638   */\n  0x00\n    /* \"#utility.yul\":660:684   */\n  tag_24\n    /* \"#utility.yul\":678:683   */\n  dup3\n    /* \"#utility.yul\":660:684   */\n  tag_25\n  jump\t// in\ntag_24:\n    /* \"#utility.yul\":649:684   */\n  swap1\n  pop\n    /* \"#utility.yul\":594:690   */\n  swap2\n  swap1\n  pop\n  jump\t// out\n    /* \"#utility.yul\":696:822   */\ntag_25:\n    /* \"#utility.yul\":733:740   */\n  0x00\n    /* \"#utility.yul\":773:815   */\n  0xffffffffffffffffffffffffffffffffffffffff\n    /* \"#utility.yul\":766:771   */\n  dup3\n    /* \"#utility.yul\":762:816   */\n  and\n    /* \"#utility.yul\":751:816   */\n  swap1\n  pop\n    /* \"#utility.yul\":696:822   */\n  swap2\n  swap1\n  pop\n  jump\t// out\n    /* \"#utility.yul\":828:1008   */\ntag_8:\n    /* \"#utility.yul\":876:953   */\n  0x4e487b7100000000000000000000000000000000000000000000000000000000\n    /* \"#utility.yul\":873:874   */\n  0x00\n    /* \"#utility.yul\":866:954   */\n  mstore\n    /* \"#utility.yul\":973:977   */\n  0x21\n    /* \"#utility.yul\":970:971   */\n  0x04\n    /* \"#utility.yul\":963:978   */\n  mstore\n    /* \"#utility.yul\":997:1001   */\n  0x24\n    /* \"#utility.yul\":994:995   */\n  0x00\n    /* \"#utility.yul\":987:1002   */\n  revert\n    /* \"#utility.yul\":1137:1254   */\ntag_18:\n    /* \"#utility.yul\":1246:1247   */\n  0x00\n    /* \"#utility.yul\":1243:1244   */\n  dup1\n    /* \"#utility.yul\":1236:1248   */\n  revert\n    /* \"#utility.yul\":1260:1382   */\ntag_14:\n    /* \"#utility.yul\":1333:1357   */\n  tag_32\n    /* \"#utility.yul\":1351:1356   */\n  dup2\n    /* \"#utility.yul\":1333:1357   */\n  tag_22\n  jump\t// in\ntag_32:\n    /* \"#utility.yul\":1326:1331   */\n  dup2\n    /* \"#utility.yul\":1323:1358   */\n  eq\n    /* \"#utility.yul\":1313:1376   */\n  tag_33\n  jumpi\n    /* \"#utility.yul\":1372:1373   */\n  0x00\n    /* \"#utility.yul\":1369:1370   */\n  dup1\n    /* \"#utility.yul\":1362:1374   */\n  revert\n    /* \"#utility.yul\":1313:1376   */\ntag_33:\n    /* \"#utility.yul\":1260:1382   */\n  pop\n  jump\t// out\n    /* \"Documents/dev/e-community-platform/in-progress/consent-management/src/blockchain/smart_contracts/contracts/ConsentContract.sol\":71:2206  contract ConsentContract {... */\ntag_9:\n  dataSize(sub_0)\n  dup1\n  dataOffset(sub_0)\n  0x00\n  codecopy\n  0x00\n  return\nstop\n\nsub_0: assembly {\n        /* \"Documents/dev/e-community-platform/in-progress/consent-management/src/blockchain/smart_contracts/contracts/ConsentContract.sol\":71:2206  contract ConsentContract {... */\n      mstore(0x40, 0x80)\n      callvalue\n      dup1\n      iszero\n      tag_1\n      jumpi\n      0x00\n      dup1\n      revert\n    tag_1:\n      pop\n      jumpi(tag_2, lt(calldatasize, 0x04))\n      shr(0xe0, calldataload(0x00))\n      dup1\n      0x20965255\n      eq\n      tag_3\n      jumpi\n      dup1\n      0xb8b4f1a0\n      eq\n      tag_4\n      jumpi\n      dup1\n      0xb8e010de\n      eq\n      tag_5\n      jumpi\n      dup1\n      0xff4c4d54\n      eq\n      tag_6\n      jumpi\n    tag_2:\n      0x00\n      dup1\n      revert\n        /* \"Documents/dev/e-community-platform/in-progress/consent-management/src/blockchain/smart_contracts/contracts/ConsentContract.sol\":1018:1088  function getValue() public pure returns(int) {... */\n    tag_3:\n      tag_7\n      tag_8\n      jump\t// in\n    tag_7:\n      mload(0x40)\n      tag_9\n      swap2\n      swap1\n      tag_10\n      jump\t// in\n    tag_9:\n      mload(0x40)\n      dup1\n      swap2\n      sub\n      swap1\n      return\n        /* \"Documents/dev/e-community-platform/in-progress/consent-management/src/blockchain/smart_contracts/contracts/ConsentContract.sol\":1370:1727  function signContract() public bothParties {... */\n    tag_4:\n      tag_11\n      tag_12\n      jump\t// in\n    tag_11:\n      stop\n        /* \"Documents/dev/e-community-platform/in-progress/consent-management/src/blockchain/smart_contracts/contracts/ConsentContract.sol\":1094:1141  function set() public {... */\n    tag_5:\n      tag_13\n      tag_14\n      jump\t// in\n    tag_13:\n      stop\n        /* \"Documents/dev/e-community-platform/in-progress/consent-management/src/blockchain/smart_contracts/contracts/ConsentContract.sol\":1782:1864  function revokeConsent() public bothParties {... */\n    tag_6:\n      tag_15\n      tag_16\n      jump\t// in\n    tag_15:\n      stop\n        /* \"Documents/dev/e-community-platform/in-progress/consent-management/src/blockchain/smart_contracts/contracts/ConsentContract.sol\":1018:1088  function getValue() public pure returns(int) {... */\n    tag_8:\n        /* \"Documents/dev/e-community-platform/in-progress/consent-management/src/blockchain/smart_contracts/contracts/ConsentContract.sol\":1058:1061  int */\n      0x00\n        /* \"Documents/dev/e-community-platform/in-progress/consent-management/src/blockchain/smart_contracts/contracts/ConsentContract.sol\":1080:1081  5 */\n      0x05\n        /* \"Documents/dev/e-community-platform/in-progress/consent-management/src/blockchain/smart_contracts/contracts/ConsentContract.sol\":1073:1081  return 5 */\n      swap1\n      pop\n        /* \"Documents/dev/e-community-platform/in-progress/consent-management/src/blockchain/smart_contracts/contracts/ConsentContract.sol\":1018:1088  function getValue() public pure returns(int) {... */\n      swap1\n      jump\t// out\n        /* \"Documents/dev/e-community-platform/in-progress/consent-management/src/blockchain/smart_contracts/contracts/ConsentContract.sol\":1370:1727  function signContract() public bothParties {... */\n    tag_12:\n        /* \"Documents/dev/e-community-platform/in-progress/consent-management/src/blockchain/smart_contracts/contracts/ConsentContract.sol\":2150:2158  proposer */\n      0x00\n      dup1\n      sload\n      swap1\n      0x0100\n      exp\n      swap1\n      div\n      0xffffffffffffffffffffffffffffffffffffffff\n      and\n        /* \"Documents/dev/e-community-platform/in-progress/consent-management/src/blockchain/smart_contracts/contracts/ConsentContract.sol\":2136:2158  msg.sender == proposer */\n      0xffffffffffffffffffffffffffffffffffffffff\n      and\n        /* \"Documents/dev/e-community-platform/in-progress/consent-management/src/blockchain/smart_contracts/contracts/ConsentContract.sol\":2136:2146  msg.sender */\n      caller\n        /* \"Documents/dev/e-community-platform/in-progress/consent-management/src/blockchain/smart_contracts/contracts/ConsentContract.sol\":2136:2158  msg.sender == proposer */\n      0xffffffffffffffffffffffffffffffffffffffff\n      and\n      eq\n        /* \"Documents/dev/e-community-platform/in-progress/consent-management/src/blockchain/smart_contracts/contracts/ConsentContract.sol\":2136:2185  msg.sender == proposer || msg.sender == consenter */\n      dup1\n      tag_19\n      jumpi\n      pop\n        /* \"Documents/dev/e-community-platform/in-progress/consent-management/src/blockchain/smart_contracts/contracts/ConsentContract.sol\":2176:2185  consenter */\n      0x01\n      0x00\n      swap1\n      sload\n      swap1\n      0x0100\n      exp\n      swap1\n      div\n      0xffffffffffffffffffffffffffffffffffffffff\n      and\n        /* \"Documents/dev/e-community-platform/in-progress/consent-management/src/blockchain/smart_contracts/contracts/ConsentContract.sol\":2162:2185  msg.sender == consenter */\n      0xffffffffffffffffffffffffffffffffffffffff\n      and\n        /* \"Documents/dev/e-community-platform/in-progress/consent-management/src/blockchain/smart_contracts/contracts/ConsentContract.sol\":2162:2172  msg.sender */\n      caller\n        /* \"Documents/dev/e-community-platform/in-progress/consent-management/src/blockchain/smart_contracts/contracts/ConsentContract.sol\":2162:2185  msg.sender == consenter */\n      0xffffffffffffffffffffffffffffffffffffffff\n      and\n      eq\n        /* \"Documents/dev/e-community-platform/in-progress/consent-management/src/blockchain/smart_contracts/contracts/ConsentContract.sol\":2136:2185  msg.sender == proposer || msg.sender == consenter */\n    tag_19:\n        /* \"Documents/dev/e-community-platform/in-progress/consent-management/src/blockchain/smart_contracts/contracts/ConsentContract.sol\":2128:2186  require(msg.sender == proposer || msg.sender == consenter) */\n      tag_20\n      jumpi\n      0x00\n      dup1\n      revert\n    tag_20:\n        /* \"Documents/dev/e-community-platform/in-progress/consent-management/src/blockchain/smart_contracts/contracts/ConsentContract.sol\":1441:1449  proposer */\n      0x00\n      dup1\n      sload\n      swap1\n      0x0100\n      exp\n      swap1\n      div\n      0xffffffffffffffffffffffffffffffffffffffff\n      and\n        /* \"Documents/dev/e-community-platform/in-progress/consent-management/src/blockchain/smart_contracts/contracts/ConsentContract.sol\":1427:1449  msg.sender == proposer */\n      0xffffffffffffffffffffffffffffffffffffffff\n      and\n        /* \"Documents/dev/e-community-platform/in-progress/consent-management/src/blockchain/smart_contracts/contracts/ConsentContract.sol\":1427:1437  msg.sender */\n      caller\n        /* \"Documents/dev/e-community-platform/in-progress/consent-management/src/blockchain/smart_contracts/contracts/ConsentContract.sol\":1427:1449  msg.sender == proposer */\n      0xffffffffffffffffffffffffffffffffffffffff\n      and\n      eq\n        /* \"Documents/dev/e-community-platform/in-progress/consent-management/src/blockchain/smart_contracts/contracts/ConsentContract.sol\":1423:1489  if (msg.sender == proposer) { signature.signedByProposer = true; } */\n      iszero\n      tag_22\n      jumpi\n        /* \"Documents/dev/e-community-platform/in-progress/consent-management/src/blockchain/smart_contracts/contracts/ConsentContract.sol\":1482:1486  true */\n      0x01\n        /* \"Documents/dev/e-community-platform/in-progress/consent-management/src/blockchain/smart_contracts/contracts/ConsentContract.sol\":1453:1462  signature */\n      0x02\n        /* \"Documents/dev/e-community-platform/in-progress/consent-management/src/blockchain/smart_contracts/contracts/ConsentContract.sol\":1453:1479  signature.signedByProposer */\n      0x00\n      add\n      0x00\n        /* \"Documents/dev/e-community-platform/in-progress/consent-management/src/blockchain/smart_contracts/contracts/ConsentContract.sol\":1453:1486  signature.signedByProposer = true */\n      0x0100\n      exp\n      dup2\n      sload\n      dup2\n      0xff\n      mul\n      not\n      and\n      swap1\n      dup4\n      iszero\n      iszero\n      mul\n      or\n      swap1\n      sstore\n      pop\n        /* \"Documents/dev/e-community-platform/in-progress/consent-management/src/blockchain/smart_contracts/contracts/ConsentContract.sol\":1423:1489  if (msg.sender == proposer) { signature.signedByProposer = true; } */\n    tag_22:\n        /* \"Documents/dev/e-community-platform/in-progress/consent-management/src/blockchain/smart_contracts/contracts/ConsentContract.sol\":1516:1525  consenter */\n      0x01\n      0x00\n      swap1\n      sload\n      swap1\n      0x0100\n      exp\n      swap1\n      div\n      0xffffffffffffffffffffffffffffffffffffffff\n      and\n        /* \"Documents/dev/e-community-platform/in-progress/consent-management/src/blockchain/smart_contracts/contracts/ConsentContract.sol\":1502:1525  msg.sender == consenter */\n      0xffffffffffffffffffffffffffffffffffffffff\n      and\n        /* \"Documents/dev/e-community-platform/in-progress/consent-management/src/blockchain/smart_contracts/contracts/ConsentContract.sol\":1502:1512  msg.sender */\n      caller\n        /* \"Documents/dev/e-community-platform/in-progress/consent-management/src/blockchain/smart_contracts/contracts/ConsentContract.sol\":1502:1525  msg.sender == consenter */\n      0xffffffffffffffffffffffffffffffffffffffff\n      and\n      eq\n        /* \"Documents/dev/e-community-platform/in-progress/consent-management/src/blockchain/smart_contracts/contracts/ConsentContract.sol\":1498:1566  if (msg.sender == consenter) { signature.signedByConsenter = true; } */\n      iszero\n      tag_23\n      jumpi\n        /* \"Documents/dev/e-community-platform/in-progress/consent-management/src/blockchain/smart_contracts/contracts/ConsentContract.sol\":1559:1563  true */\n      0x01\n        /* \"Documents/dev/e-community-platform/in-progress/consent-management/src/blockchain/smart_contracts/contracts/ConsentContract.sol\":1529:1538  signature */\n      0x02\n        /* \"Documents/dev/e-community-platform/in-progress/consent-management/src/blockchain/smart_contracts/contracts/ConsentContract.sol\":1529:1556  signature.signedByConsenter */\n      0x00\n      add\n      0x01\n        /* \"Documents/dev/e-community-platform/in-progress/consent-management/src/blockchain/smart_contracts/contracts/ConsentContract.sol\":1529:1563  signature.signedByConsenter = true */\n      0x0100\n      exp\n      dup2\n      sload\n      dup2\n      0xff\n      mul\n      not\n      and\n      swap1\n      dup4\n      iszero\n      iszero\n      mul\n      or\n      swap1\n      sstore\n      pop\n        /* \"Documents/dev/e-community-platform/in-progress/consent-management/src/blockchain/smart_contracts/contracts/ConsentContract.sol\":1498:1566  if (msg.sender == consenter) { signature.signedByConsenter = true; } */\n    tag_23:\n        /* \"Documents/dev/e-community-platform/in-progress/consent-management/src/blockchain/smart_contracts/contracts/ConsentContract.sol\":1580:1589  signature */\n      0x02\n        /* \"Documents/dev/e-community-platform/in-progress/consent-management/src/blockchain/smart_contracts/contracts/ConsentContract.sol\":1580:1606  signature.signedByProposer */\n      0x00\n      add\n      0x00\n      swap1\n      sload\n      swap1\n      0x0100\n      exp\n      swap1\n      div\n      0xff\n      and\n        /* \"Documents/dev/e-community-platform/in-progress/consent-management/src/blockchain/smart_contracts/contracts/ConsentContract.sol\":1580:1637  signature.signedByProposer && signature.signedByConsenter */\n      dup1\n      iszero\n      tag_24\n      jumpi\n      pop\n        /* \"Documents/dev/e-community-platform/in-progress/consent-management/src/blockchain/smart_contracts/contracts/ConsentContract.sol\":1610:1619  signature */\n      0x02\n        /* \"Documents/dev/e-community-platform/in-progress/consent-management/src/blockchain/smart_contracts/contracts/ConsentContract.sol\":1610:1637  signature.signedByConsenter */\n      0x00\n      add\n      0x01\n      swap1\n      sload\n      swap1\n      0x0100\n      exp\n      swap1\n      div\n      0xff\n      and\n        /* \"Documents/dev/e-community-platform/in-progress/consent-management/src/blockchain/smart_contracts/contracts/ConsentContract.sol\":1580:1637  signature.signedByProposer && signature.signedByConsenter */\n    tag_24:\n        /* \"Documents/dev/e-community-platform/in-progress/consent-management/src/blockchain/smart_contracts/contracts/ConsentContract.sol\":1576:1721  if (signature.signedByProposer && signature.signedByConsenter) {... */\n      iszero\n      tag_25\n      jumpi\n        /* \"Documents/dev/e-community-platform/in-progress/consent-management/src/blockchain/smart_contracts/contracts/ConsentContract.sol\":1661:1673  STATE.ACTIVE */\n      0x01\n        /* \"Documents/dev/e-community-platform/in-progress/consent-management/src/blockchain/smart_contracts/contracts/ConsentContract.sol\":1653:1658  state */\n      dup1\n      0x14\n        /* \"Documents/dev/e-community-platform/in-progress/consent-management/src/blockchain/smart_contracts/contracts/ConsentContract.sol\":1653:1673  state = STATE.ACTIVE */\n      0x0100\n      exp\n      dup2\n      sload\n      dup2\n      0xff\n      mul\n      not\n      and\n      swap1\n      dup4\n      0x03\n      dup2\n      gt\n      iszero\n      tag_26\n      jumpi\n      tag_27\n      tag_28\n      jump\t// in\n    tag_27:\n    tag_26:\n      mul\n      or\n      swap1\n      sstore\n      pop\n        /* \"Documents/dev/e-community-platform/in-progress/consent-management/src/blockchain/smart_contracts/contracts/ConsentContract.sol\":1692:1710  ApprovedContract() */\n      0x1d0bcfc8e4ee578e5d42c0764c688a71df19942bebc0c262b0535deb145cc302\n      mload(0x40)\n      mload(0x40)\n      dup1\n      swap2\n      sub\n      swap1\n      log1\n        /* \"Documents/dev/e-community-platform/in-progress/consent-management/src/blockchain/smart_contracts/contracts/ConsentContract.sol\":1576:1721  if (signature.signedByProposer && signature.signedByConsenter) {... */\n    tag_25:\n        /* \"Documents/dev/e-community-platform/in-progress/consent-management/src/blockchain/smart_contracts/contracts/ConsentContract.sol\":1370:1727  function signContract() public bothParties {... */\n      jump\t// out\n        /* \"Documents/dev/e-community-platform/in-progress/consent-management/src/blockchain/smart_contracts/contracts/ConsentContract.sol\":1094:1141  function set() public {... */\n    tag_14:\n        /* \"Documents/dev/e-community-platform/in-progress/consent-management/src/blockchain/smart_contracts/contracts/ConsentContract.sol\":1133:1134  5 */\n      0x05\n        /* \"Documents/dev/e-community-platform/in-progress/consent-management/src/blockchain/smart_contracts/contracts/ConsentContract.sol\":1126:1130  test */\n      0x03\n        /* \"Documents/dev/e-community-platform/in-progress/consent-management/src/blockchain/smart_contracts/contracts/ConsentContract.sol\":1126:1134  test = 5 */\n      dup2\n      swap1\n      sstore\n      pop\n        /* \"Documents/dev/e-community-platform/in-progress/consent-management/src/blockchain/smart_contracts/contracts/ConsentContract.sol\":1094:1141  function set() public {... */\n      jump\t// out\n        /* \"Documents/dev/e-community-platform/in-progress/consent-management/src/blockchain/smart_contracts/contracts/ConsentContract.sol\":1782:1864  function revokeConsent() public bothParties {... */\n    tag_16:\n        /* \"Documents/dev/e-community-platform/in-progress/consent-management/src/blockchain/smart_contracts/contracts/ConsentContract.sol\":2150:2158  proposer */\n      0x00\n      dup1\n      sload\n      swap1\n      0x0100\n      exp\n      swap1\n      div\n      0xffffffffffffffffffffffffffffffffffffffff\n      and\n        /* \"Documents/dev/e-community-platform/in-progress/consent-management/src/blockchain/smart_contracts/contracts/ConsentContract.sol\":2136:2158  msg.sender == proposer */\n      0xffffffffffffffffffffffffffffffffffffffff\n      and\n        /* \"Documents/dev/e-community-platform/in-progress/consent-management/src/blockchain/smart_contracts/contracts/ConsentContract.sol\":2136:2146  msg.sender */\n      caller\n        /* \"Documents/dev/e-community-platform/in-progress/consent-management/src/blockchain/smart_contracts/contracts/ConsentContract.sol\":2136:2158  msg.sender == proposer */\n      0xffffffffffffffffffffffffffffffffffffffff\n      and\n      eq\n        /* \"Documents/dev/e-community-platform/in-progress/consent-management/src/blockchain/smart_contracts/contracts/ConsentContract.sol\":2136:2185  msg.sender == proposer || msg.sender == consenter */\n      dup1\n      tag_31\n      jumpi\n      pop\n        /* \"Documents/dev/e-community-platform/in-progress/consent-management/src/blockchain/smart_contracts/contracts/ConsentContract.sol\":2176:2185  consenter */\n      0x01\n      0x00\n      swap1\n      sload\n      swap1\n      0x0100\n      exp\n      swap1\n      div\n      0xffffffffffffffffffffffffffffffffffffffff\n      and\n        /* \"Documents/dev/e-community-platform/in-progress/consent-management/src/blockchain/smart_contracts/contracts/ConsentContract.sol\":2162:2185  msg.sender == consenter */\n      0xffffffffffffffffffffffffffffffffffffffff\n      and\n        /* \"Documents/dev/e-community-platform/in-progress/consent-management/src/blockchain/smart_contracts/contracts/ConsentContract.sol\":2162:2172  msg.sender */\n      caller\n        /* \"Documents/dev/e-community-platform/in-progress/consent-management/src/blockchain/smart_contracts/contracts/ConsentContract.sol\":2162:2185  msg.sender == consenter */\n      0xffffffffffffffffffffffffffffffffffffffff\n      and\n      eq\n        /* \"Documents/dev/e-community-platform/in-progress/consent-management/src/blockchain/smart_contracts/contracts/ConsentContract.sol\":2136:2185  msg.sender == proposer || msg.sender == consenter */\n    tag_31:\n        /* \"Documents/dev/e-community-platform/in-progress/consent-management/src/blockchain/smart_contracts/contracts/ConsentContract.sol\":2128:2186  require(msg.sender == proposer || msg.sender == consenter) */\n      tag_32\n      jumpi\n      0x00\n      dup1\n      revert\n    tag_32:\n        /* \"Documents/dev/e-community-platform/in-progress/consent-management/src/blockchain/smart_contracts/contracts/ConsentContract.sol\":1844:1857  STATE.REVOKED */\n      0x02\n        /* \"Documents/dev/e-community-platform/in-progress/consent-management/src/blockchain/smart_contracts/contracts/ConsentContract.sol\":1836:1841  state */\n      0x01\n      0x14\n        /* \"Documents/dev/e-community-platform/in-progress/consent-management/src/blockchain/smart_contracts/contracts/ConsentContract.sol\":1836:1857  state = STATE.REVOKED */\n      0x0100\n      exp\n      dup2\n      sload\n      dup2\n      0xff\n      mul\n      not\n      and\n      swap1\n      dup4\n      0x03\n      dup2\n      gt\n      iszero\n      tag_34\n      jumpi\n      tag_35\n      tag_28\n      jump\t// in\n    tag_35:\n    tag_34:\n      mul\n      or\n      swap1\n      sstore\n      pop\n        /* \"Documents/dev/e-community-platform/in-progress/consent-management/src/blockchain/smart_contracts/contracts/ConsentContract.sol\":1782:1864  function revokeConsent() public bothParties {... */\n      jump\t// out\n        /* \"#utility.yul\":7:122   */\n    tag_37:\n        /* \"#utility.yul\":92:115   */\n      tag_39\n        /* \"#utility.yul\":109:114   */\n      dup2\n        /* \"#utility.yul\":92:115   */\n      tag_40\n      jump\t// in\n    tag_39:\n        /* \"#utility.yul\":87:90   */\n      dup3\n        /* \"#utility.yul\":80:116   */\n      mstore\n        /* \"#utility.yul\":7:122   */\n      pop\n      pop\n      jump\t// out\n        /* \"#utility.yul\":128:346   */\n    tag_10:\n        /* \"#utility.yul\":219:223   */\n      0x00\n        /* \"#utility.yul\":257:259   */\n      0x20\n        /* \"#utility.yul\":246:255   */\n      dup3\n        /* \"#utility.yul\":242:260   */\n      add\n        /* \"#utility.yul\":234:260   */\n      swap1\n      pop\n        /* \"#utility.yul\":270:339   */\n      tag_42\n        /* \"#utility.yul\":336:337   */\n      0x00\n        /* \"#utility.yul\":325:334   */\n      dup4\n        /* \"#utility.yul\":321:338   */\n      add\n        /* \"#utility.yul\":312:318   */\n      dup5\n        /* \"#utility.yul\":270:339   */\n      tag_37\n      jump\t// in\n    tag_42:\n        /* \"#utility.yul\":128:346   */\n      swap3\n      swap2\n      pop\n      pop\n      jump\t// out\n        /* \"#utility.yul\":352:428   */\n    tag_40:\n        /* \"#utility.yul\":388:395   */\n      0x00\n        /* \"#utility.yul\":417:422   */\n      dup2\n        /* \"#utility.yul\":406:422   */\n      swap1\n      pop\n        /* \"#utility.yul\":352:428   */\n      swap2\n      swap1\n      pop\n      jump\t// out\n        /* \"#utility.yul\":434:614   */\n    tag_28:\n        /* \"#utility.yul\":482:559   */\n      0x4e487b7100000000000000000000000000000000000000000000000000000000\n        /* \"#utility.yul\":479:480   */\n      0x00\n        /* \"#utility.yul\":472:560   */\n      mstore\n        /* \"#utility.yul\":579:583   */\n      0x21\n        /* \"#utility.yul\":576:577   */\n      0x04\n        /* \"#utility.yul\":569:584   */\n      mstore\n        /* \"#utility.yul\":603:607   */\n      0x24\n        /* \"#utility.yul\":600:601   */\n      0x00\n        /* \"#utility.yul\":593:608   */\n      revert\n\n    auxdata: 0xa264697066735822122058e894892a18b75b8c2efe217b24916a341a41c389c3b48a68d963121e93ac8d64736f6c63430008070033\n}\n",
				"bytecode": {
					"linkReferences": {},
					"object": "608060405234801561001057600080fd5b506040516105ec3803806105ec833981810160405281019061003291906100f9565b336000806101000a81548173ffffffffffffffffffffffffffffffffffffffff021916908373ffffffffffffffffffffffffffffffffffffffff1602179055506000600160146101000a81548160ff0219169083600381111561009857610097610158565b5b021790555080600160006101000a81548173ffffffffffffffffffffffffffffffffffffffff021916908373ffffffffffffffffffffffffffffffffffffffff160217905550506101a3565b6000815190506100f38161018c565b92915050565b60006020828403121561010f5761010e610187565b5b600061011d848285016100e4565b91505092915050565b600061013182610138565b9050919050565b600073ffffffffffffffffffffffffffffffffffffffff82169050919050565b7f4e487b7100000000000000000000000000000000000000000000000000000000600052602160045260246000fd5b600080fd5b61019581610126565b81146101a057600080fd5b50565b61043a806101b26000396000f3fe608060405234801561001057600080fd5b506004361061004c5760003560e01c80632096525514610051578063b8b4f1a01461006f578063b8e010de14610079578063ff4c4d5414610083575b600080fd5b61005961008d565b60405161006691906103b0565b60405180910390f35b610077610096565b005b6100816102ba565b005b61008b6102c4565b005b60006005905090565b60008054906101000a900473ffffffffffffffffffffffffffffffffffffffff1673ffffffffffffffffffffffffffffffffffffffff163373ffffffffffffffffffffffffffffffffffffffff16148061013d5750600160009054906101000a900473ffffffffffffffffffffffffffffffffffffffff1673ffffffffffffffffffffffffffffffffffffffff163373ffffffffffffffffffffffffffffffffffffffff16145b61014657600080fd5b60008054906101000a900473ffffffffffffffffffffffffffffffffffffffff1673ffffffffffffffffffffffffffffffffffffffff163373ffffffffffffffffffffffffffffffffffffffff1614156101b9576001600260000160006101000a81548160ff0219169083151502179055505b600160009054906101000a900473ffffffffffffffffffffffffffffffffffffffff1673ffffffffffffffffffffffffffffffffffffffff163373ffffffffffffffffffffffffffffffffffffffff16141561022e576001600260000160016101000a81548160ff0219169083151502179055505b600260000160009054906101000a900460ff16801561025c5750600260000160019054906101000a900460ff165b156102b85760018060146101000a81548160ff02191690836003811115610286576102856103d5565b5b02179055507f1d0bcfc8e4ee578e5d42c0764c688a71df19942bebc0c262b0535deb145cc30260405160405180910390a15b565b6005600381905550565b60008054906101000a900473ffffffffffffffffffffffffffffffffffffffff1673ffffffffffffffffffffffffffffffffffffffff163373ffffffffffffffffffffffffffffffffffffffff16148061036b5750600160009054906101000a900473ffffffffffffffffffffffffffffffffffffffff1673ffffffffffffffffffffffffffffffffffffffff163373ffffffffffffffffffffffffffffffffffffffff16145b61037457600080fd5b6002600160146101000a81548160ff0219169083600381111561039a576103996103d5565b5b0217905550565b6103aa816103cb565b82525050565b60006020820190506103c560008301846103a1565b92915050565b6000819050919050565b7f4e487b7100000000000000000000000000000000000000000000000000000000600052602160045260246000fdfea264697066735822122058e894892a18b75b8c2efe217b24916a341a41c389c3b48a68d963121e93ac8d64736f6c63430008070033",
					"opcodes": "PUSH1 0x80 PUSH1 0x40 MSTORE CALLVALUE DUP1 ISZERO PUSH2 0x10 JUMPI PUSH1 0x0 DUP1 REVERT JUMPDEST POP PUSH1 0x40 MLOAD PUSH2 0x5EC CODESIZE SUB DUP1 PUSH2 0x5EC DUP4 CODECOPY DUP2 DUP2 ADD PUSH1 0x40 MSTORE DUP2 ADD SWAP1 PUSH2 0x32 SWAP2 SWAP1 PUSH2 0xF9 JUMP JUMPDEST CALLER PUSH1 0x0 DUP1 PUSH2 0x100 EXP DUP2 SLOAD DUP2 PUSH20 0xFFFFFFFFFFFFFFFFFFFFFFFFFFFFFFFFFFFFFFFF MUL NOT AND SWAP1 DUP4 PUSH20 0xFFFFFFFFFFFFFFFFFFFFFFFFFFFFFFFFFFFFFFFF AND MUL OR SWAP1 SSTORE POP PUSH1 0x0 PUSH1 0x1 PUSH1 0x14 PUSH2 0x100 EXP DUP2 SLOAD DUP2 PUSH1 0xFF MUL NOT AND SWAP1 DUP4 PUSH1 0x3 DUP2 GT ISZERO PUSH2 0x98 JUMPI PUSH2 0x97 PUSH2 0x158 JUMP JUMPDEST JUMPDEST MUL OR SWAP1 SSTORE POP DUP1 PUSH1 0x1 PUSH1 0x0 PUSH2 0x100 EXP DUP2 SLOAD DUP2 PUSH20 0xFFFFFFFFFFFFFFFFFFFFFFFFFFFFFFFFFFFFFFFF MUL NOT AND SWAP1 DUP4 PUSH20 0xFFFFFFFFFFFFFFFFFFFFFFFFFFFFFFFFFFFFFFFF AND MUL OR SWAP1 SSTORE POP POP PUSH2 0x1A3 JUMP JUMPDEST PUSH1 0x0 DUP2 MLOAD SWAP1 POP PUSH2 0xF3 DUP2 PUSH2 0x18C JUMP JUMPDEST SWAP3 SWAP2 POP POP JUMP JUMPDEST PUSH1 0x0 PUSH1 0x20 DUP3 DUP5 SUB SLT ISZERO PUSH2 0x10F JUMPI PUSH2 0x10E PUSH2 0x187 JUMP JUMPDEST JUMPDEST PUSH1 0x0 PUSH2 0x11D DUP5 DUP3 DUP6 ADD PUSH2 0xE4 JUMP JUMPDEST SWAP2 POP POP SWAP3 SWAP2 POP POP JUMP JUMPDEST PUSH1 0x0 PUSH2 0x131 DUP3 PUSH2 0x138 JUMP JUMPDEST SWAP1 POP SWAP2 SWAP1 POP JUMP JUMPDEST PUSH1 0x0 PUSH20 0xFFFFFFFFFFFFFFFFFFFFFFFFFFFFFFFFFFFFFFFF DUP3 AND SWAP1 POP SWAP2 SWAP1 POP JUMP JUMPDEST PUSH32 0x4E487B7100000000000000000000000000000000000000000000000000000000 PUSH1 0x0 MSTORE PUSH1 0x21 PUSH1 0x4 MSTORE PUSH1 0x24 PUSH1 0x0 REVERT JUMPDEST PUSH1 0x0 DUP1 REVERT JUMPDEST PUSH2 0x195 DUP2 PUSH2 0x126 JUMP JUMPDEST DUP2 EQ PUSH2 0x1A0 JUMPI PUSH1 0x0 DUP1 REVERT JUMPDEST POP JUMP JUMPDEST PUSH2 0x43A DUP1 PUSH2 0x1B2 PUSH1 0x0 CODECOPY PUSH1 0x0 RETURN INVALID PUSH1 0x80 PUSH1 0x40 MSTORE CALLVALUE DUP1 ISZERO PUSH2 0x10 JUMPI PUSH1 0x0 DUP1 REVERT JUMPDEST POP PUSH1 0x4 CALLDATASIZE LT PUSH2 0x4C JUMPI PUSH1 0x0 CALLDATALOAD PUSH1 0xE0 SHR DUP1 PUSH4 0x20965255 EQ PUSH2 0x51 JUMPI DUP1 PUSH4 0xB8B4F1A0 EQ PUSH2 0x6F JUMPI DUP1 PUSH4 0xB8E010DE EQ PUSH2 0x79 JUMPI DUP1 PUSH4 0xFF4C4D54 EQ PUSH2 0x83 JUMPI JUMPDEST PUSH1 0x0 DUP1 REVERT JUMPDEST PUSH2 0x59 PUSH2 0x8D JUMP JUMPDEST PUSH1 0x40 MLOAD PUSH2 0x66 SWAP2 SWAP1 PUSH2 0x3B0 JUMP JUMPDEST PUSH1 0x40 MLOAD DUP1 SWAP2 SUB SWAP1 RETURN JUMPDEST PUSH2 0x77 PUSH2 0x96 JUMP JUMPDEST STOP JUMPDEST PUSH2 0x81 PUSH2 0x2BA JUMP JUMPDEST STOP JUMPDEST PUSH2 0x8B PUSH2 0x2C4 JUMP JUMPDEST STOP JUMPDEST PUSH1 0x0 PUSH1 0x5 SWAP1 POP SWAP1 JUMP JUMPDEST PUSH1 0x0 DUP1 SLOAD SWAP1 PUSH2 0x100 EXP SWAP1 DIV PUSH20 0xFFFFFFFFFFFFFFFFFFFFFFFFFFFFFFFFFFFFFFFF AND PUSH20 0xFFFFFFFFFFFFFFFFFFFFFFFFFFFFFFFFFFFFFFFF AND CALLER PUSH20 0xFFFFFFFFFFFFFFFFFFFFFFFFFFFFFFFFFFFFFFFF AND EQ DUP1 PUSH2 0x13D JUMPI POP PUSH1 0x1 PUSH1 0x0 SWAP1 SLOAD SWAP1 PUSH2 0x100 EXP SWAP1 DIV PUSH20 0xFFFFFFFFFFFFFFFFFFFFFFFFFFFFFFFFFFFFFFFF AND PUSH20 0xFFFFFFFFFFFFFFFFFFFFFFFFFFFFFFFFFFFFFFFF AND CALLER PUSH20 0xFFFFFFFFFFFFFFFFFFFFFFFFFFFFFFFFFFFFFFFF AND EQ JUMPDEST PUSH2 0x146 JUMPI PUSH1 0x0 DUP1 REVERT JUMPDEST PUSH1 0x0 DUP1 SLOAD SWAP1 PUSH2 0x100 EXP SWAP1 DIV PUSH20 0xFFFFFFFFFFFFFFFFFFFFFFFFFFFFFFFFFFFFFFFF AND PUSH20 0xFFFFFFFFFFFFFFFFFFFFFFFFFFFFFFFFFFFFFFFF AND CALLER PUSH20 0xFFFFFFFFFFFFFFFFFFFFFFFFFFFFFFFFFFFFFFFF AND EQ ISZERO PUSH2 0x1B9 JUMPI PUSH1 0x1 PUSH1 0x2 PUSH1 0x0 ADD PUSH1 0x0 PUSH2 0x100 EXP DUP2 SLOAD DUP2 PUSH1 0xFF MUL NOT AND SWAP1 DUP4 ISZERO ISZERO MUL OR SWAP1 SSTORE POP JUMPDEST PUSH1 0x1 PUSH1 0x0 SWAP1 SLOAD SWAP1 PUSH2 0x100 EXP SWAP1 DIV PUSH20 0xFFFFFFFFFFFFFFFFFFFFFFFFFFFFFFFFFFFFFFFF AND PUSH20 0xFFFFFFFFFFFFFFFFFFFFFFFFFFFFFFFFFFFFFFFF AND CALLER PUSH20 0xFFFFFFFFFFFFFFFFFFFFFFFFFFFFFFFFFFFFFFFF AND EQ ISZERO PUSH2 0x22E JUMPI PUSH1 0x1 PUSH1 0x2 PUSH1 0x0 ADD PUSH1 0x1 PUSH2 0x100 EXP DUP2 SLOAD DUP2 PUSH1 0xFF MUL NOT AND SWAP1 DUP4 ISZERO ISZERO MUL OR SWAP1 SSTORE POP JUMPDEST PUSH1 0x2 PUSH1 0x0 ADD PUSH1 0x0 SWAP1 SLOAD SWAP1 PUSH2 0x100 EXP SWAP1 DIV PUSH1 0xFF AND DUP1 ISZERO PUSH2 0x25C JUMPI POP PUSH1 0x2 PUSH1 0x0 ADD PUSH1 0x1 SWAP1 SLOAD SWAP1 PUSH2 0x100 EXP SWAP1 DIV PUSH1 0xFF AND JUMPDEST ISZERO PUSH2 0x2B8 JUMPI PUSH1 0x1 DUP1 PUSH1 0x14 PUSH2 0x100 EXP DUP2 SLOAD DUP2 PUSH1 0xFF MUL NOT AND SWAP1 DUP4 PUSH1 0x3 DUP2 GT ISZERO PUSH2 0x286 JUMPI PUSH2 0x285 PUSH2 0x3D5 JUMP JUMPDEST JUMPDEST MUL OR SWAP1 SSTORE POP PUSH32 0x1D0BCFC8E4EE578E5D42C0764C688A71DF19942BEBC0C262B0535DEB145CC302 PUSH1 0x40 MLOAD PUSH1 0x40 MLOAD DUP1 SWAP2 SUB SWAP1 LOG1 JUMPDEST JUMP JUMPDEST PUSH1 0x5 PUSH1 0x3 DUP2 SWAP1 SSTORE POP JUMP JUMPDEST PUSH1 0x0 DUP1 SLOAD SWAP1 PUSH2 0x100 EXP SWAP1 DIV PUSH20 0xFFFFFFFFFFFFFFFFFFFFFFFFFFFFFFFFFFFFFFFF AND PUSH20 0xFFFFFFFFFFFFFFFFFFFFFFFFFFFFFFFFFFFFFFFF AND CALLER PUSH20 0xFFFFFFFFFFFFFFFFFFFFFFFFFFFFFFFFFFFFFFFF AND EQ DUP1 PUSH2 0x36B JUMPI POP PUSH1 0x1 PUSH1 0x0 SWAP1 SLOAD SWAP1 PUSH2 0x100 EXP SWAP1 DIV PUSH20 0xFFFFFFFFFFFFFFFFFFFFFFFFFFFFFFFFFFFFFFFF AND PUSH20 0xFFFFFFFFFFFFFFFFFFFFFFFFFFFFFFFFFFFFFFFF AND CALLER PUSH20 0xFFFFFFFFFFFFFFFFFFFFFFFFFFFFFFFFFFFFFFFF AND EQ JUMPDEST PUSH2 0x374 JUMPI PUSH1 0x0 DUP1 REVERT JUMPDEST PUSH1 0x2 PUSH1 0x1 PUSH1 0x14 PUSH2 0x100 EXP DUP2 SLOAD DUP2 PUSH1 0xFF MUL NOT AND SWAP1 DUP4 PUSH1 0x3 DUP2 GT ISZERO PUSH2 0x39A JUMPI PUSH2 0x399 PUSH2 0x3D5 JUMP JUMPDEST JUMPDEST MUL OR SWAP1 SSTORE POP JUMP JUMPDEST PUSH2 0x3AA DUP2 PUSH2 0x3CB JUMP JUMPDEST DUP3 MSTORE POP POP JUMP JUMPDEST PUSH1 0x0 PUSH1 0x20 DUP3 ADD SWAP1 POP PUSH2 0x3C5 PUSH1 0x0 DUP4 ADD DUP5 PUSH2 0x3A1 JUMP JUMPDEST SWAP3 SWAP2 POP POP JUMP JUMPDEST PUSH1 0x0 DUP2 SWAP1 POP SWAP2 SWAP1 POP JUMP JUMPDEST PUSH32 0x4E487B7100000000000000000000000000000000000000000000000000000000 PUSH1 0x0 MSTORE PUSH1 0x21 PUSH1 0x4 MSTORE PUSH1 0x24 PUSH1 0x0 REVERT INVALID LOG2 PUSH5 0x6970667358 0x22 SLT KECCAK256 PC 0xE8 SWAP5 DUP10 0x2A XOR 0xB7 JUMPDEST DUP13 0x2E INVALID 0x21 PUSH28 0x24916A341A41C389C3B48A68D963121E93AC8D64736F6C6343000807 STOP CALLER "
				},
				"gasEstimates": {
					"creation": {
						"codeDepositCost": "216400",
						"executionCost": "infinite",
						"totalCost": "infinite"
					},
					"external": {
						"getValue()": "315",
						"revokeConsent()": "28867",
						"set()": "22280",
						"signContract()": "86918"
					}
				},
				"methodIdentifiers": {
					"getValue()": "20965255",
					"revokeConsent()": "ff4c4d54",
					"set()": "b8e010de",
					"signContract()": "b8b4f1a0"
				}
			},
			"storageLayout": {
				"storage": [
					{
						"astId": 17,
						"contract": "Documents/dev/e-community-platform/in-progress/consent-management/src/blockchain/smart_contracts/contracts/ConsentContract.sol:ConsentContract",
						"label": "proposer",
						"offset": 0,
						"slot": "0",
						"type": "t_address"
					},
					{
						"astId": 19,
						"contract": "Documents/dev/e-community-platform/in-progress/consent-management/src/blockchain/smart_contracts/contracts/ConsentContract.sol:ConsentContract",
						"label": "consenter",
						"offset": 0,
						"slot": "1",
						"type": "t_address"
					},
					{
						"astId": 22,
						"contract": "Documents/dev/e-community-platform/in-progress/consent-management/src/blockchain/smart_contracts/contracts/ConsentContract.sol:ConsentContract",
						"label": "state",
						"offset": 20,
						"slot": "1",
						"type": "t_enum(STATE)6"
					},
					{
						"astId": 25,
						"contract": "Documents/dev/e-community-platform/in-progress/consent-management/src/blockchain/smart_contracts/contracts/ConsentContract.sol:ConsentContract",
						"label": "signature",
						"offset": 0,
						"slot": "2",
						"type": "t_struct(ContractSign)11_storage"
					},
					{
						"astId": 27,
						"contract": "Documents/dev/e-community-platform/in-progress/consent-management/src/blockchain/smart_contracts/contracts/ConsentContract.sol:ConsentContract",
						"label": "test",
						"offset": 0,
						"slot": "3",
						"type": "t_int256"
					}
				],
				"types": {
					"t_address": {
						"encoding": "inplace",
						"label": "address",
						"numberOfBytes": "20"
					},
					"t_bool": {
						"encoding": "inplace",
						"label": "bool",
						"numberOfBytes": "1"
					},
					"t_enum(STATE)6": {
						"encoding": "inplace",
						"label": "enum ConsentContract.STATE",
						"numberOfBytes": "1"
					},
					"t_int256": {
						"encoding": "inplace",
						"label": "int256",
						"numberOfBytes": "32"
					},
					"t_struct(ContractSign)11_storage": {
						"encoding": "inplace",
						"label": "struct ConsentContract.ContractSign",
						"members": [
							{
								"astId": 8,
								"contract": "Documents/dev/e-community-platform/in-progress/consent-management/src/blockchain/smart_contracts/contracts/ConsentContract.sol:ConsentContract",
								"label": "signedByProposer",
								"offset": 0,
								"slot": "0",
								"type": "t_bool"
							},
							{
								"astId": 10,
								"contract": "Documents/dev/e-community-platform/in-progress/consent-management/src/blockchain/smart_contracts/contracts/ConsentContract.sol:ConsentContract",
								"label": "signedByConsenter",
								"offset": 1,
								"slot": "0",
								"type": "t_bool"
							}
						],
						"numberOfBytes": "32"
					}
				}
			},
			"userdoc": {
				"kind": "user",
				"methods": {},
				"version": 1
			}
		}
	}
}