{
	"Documents/dev/e-community-platform/in-progress/consent-management/src/blockchain/smart_contracts/contracts/SimpleStorage.sol": {
		"SimpleStorage": {
			"abi": [
				{
					"anonymous": false,
					"inputs": [
						{
							"indexed": false,
							"internalType": "int256",
							"name": "value",
							"type": "int256"
						}
					],
					"name": "NumberChanged",
					"type": "event"
				},
				{
					"inputs": [
						{
							"internalType": "int256",
							"name": "_value",
							"type": "int256"
						}
					],
					"name": "newNumber",
					"outputs": [],
					"stateMutability": "nonpayable",
					"type": "function"
				}
			],
			"devdoc": {
				"kind": "dev",
				"methods": {},
				"version": 1
			},
			"evm": {
				"assembly": "    /* \"Documents/dev/e-community-platform/in-progress/consent-management/src/blockchain/smart_contracts/contracts/SimpleStorage.sol\":70:262  contract SimpleStorage {... */\n  mstore(0x40, 0x80)\n    /* \"Documents/dev/e-community-platform/in-progress/consent-management/src/blockchain/smart_contracts/contracts/SimpleStorage.sol\":111:112  0 */\n  0x00\n    /* \"Documents/dev/e-community-platform/in-progress/consent-management/src/blockchain/smart_contracts/contracts/SimpleStorage.sol\":99:112  int value = 0 */\n  dup1\n  sstore\n    /* \"Documents/dev/e-community-platform/in-progress/consent-management/src/blockchain/smart_contracts/contracts/SimpleStorage.sol\":70:262  contract SimpleStorage {... */\n  callvalue\n  dup1\n  iszero\n  tag_1\n  jumpi\n  0x00\n  dup1\n  revert\ntag_1:\n  pop\n  dataSize(sub_0)\n  dup1\n  dataOffset(sub_0)\n  0x00\n  codecopy\n  0x00\n  return\nstop\n\nsub_0: assembly {\n        /* \"Documents/dev/e-community-platform/in-progress/consent-management/src/blockchain/smart_contracts/contracts/SimpleStorage.sol\":70:262  contract SimpleStorage {... */\n      mstore(0x40, 0x80)\n      callvalue\n      dup1\n      iszero\n      tag_1\n      jumpi\n      0x00\n      dup1\n      revert\n    tag_1:\n      pop\n      jumpi(tag_2, lt(calldatasize, 0x04))\n      shr(0xe0, calldataload(0x00))\n      dup1\n      0x2ca83264\n      eq\n      tag_3\n      jumpi\n    tag_2:\n      0x00\n      dup1\n      revert\n        /* \"Documents/dev/e-community-platform/in-progress/consent-management/src/blockchain/smart_contracts/contracts/SimpleStorage.sol\":156:260  function newNumber(int _value) public {... */\n    tag_3:\n      tag_4\n      0x04\n      dup1\n      calldatasize\n      sub\n      dup2\n      add\n      swap1\n      tag_5\n      swap2\n      swap1\n      tag_6\n      jump\t// in\n    tag_5:\n      tag_7\n      jump\t// in\n    tag_4:\n      stop\n    tag_7:\n        /* \"Documents/dev/e-community-platform/in-progress/consent-management/src/blockchain/smart_contracts/contracts/SimpleStorage.sol\":212:218  _value */\n      dup1\n        /* \"Documents/dev/e-community-platform/in-progress/consent-management/src/blockchain/smart_contracts/contracts/SimpleStorage.sol\":204:209  value */\n      0x00\n        /* \"Documents/dev/e-community-platform/in-progress/consent-management/src/blockchain/smart_contracts/contracts/SimpleStorage.sol\":204:218  value = _value */\n      dup2\n      swap1\n      sstore\n      pop\n        /* \"Documents/dev/e-community-platform/in-progress/consent-management/src/blockchain/smart_contracts/contracts/SimpleStorage.sol\":233:253  NumberChanged(value) */\n      0x42e31d4b020595d608b8ccda14f41450c8dbc6f2d779409750b2920f894a2fb5\n        /* \"Documents/dev/e-community-platform/in-progress/consent-management/src/blockchain/smart_contracts/contracts/SimpleStorage.sol\":247:252  value */\n      sload(0x00)\n        /* \"Documents/dev/e-community-platform/in-progress/consent-management/src/blockchain/smart_contracts/contracts/SimpleStorage.sol\":233:253  NumberChanged(value) */\n      mload(0x40)\n      tag_9\n      swap2\n      swap1\n      tag_10\n      jump\t// in\n    tag_9:\n      mload(0x40)\n      dup1\n      swap2\n      sub\n      swap1\n      log1\n        /* \"Documents/dev/e-community-platform/in-progress/consent-management/src/blockchain/smart_contracts/contracts/SimpleStorage.sol\":156:260  function newNumber(int _value) public {... */\n      pop\n      jump\t// out\n        /* \"#utility.yul\":7:144   */\n    tag_12:\n        /* \"#utility.yul\":52:57   */\n      0x00\n        /* \"#utility.yul\":90:96   */\n      dup2\n        /* \"#utility.yul\":77:97   */\n      calldataload\n        /* \"#utility.yul\":68:97   */\n      swap1\n      pop\n        /* \"#utility.yul\":106:138   */\n      tag_14\n        /* \"#utility.yul\":132:137   */\n      dup2\n        /* \"#utility.yul\":106:138   */\n      tag_15\n      jump\t// in\n    tag_14:\n        /* \"#utility.yul\":7:144   */\n      swap3\n      swap2\n      pop\n      pop\n      jump\t// out\n        /* \"#utility.yul\":150:477   */\n    tag_6:\n        /* \"#utility.yul\":208:214   */\n      0x00\n        /* \"#utility.yul\":257:259   */\n      0x20\n        /* \"#utility.yul\":245:254   */\n      dup3\n        /* \"#utility.yul\":236:243   */\n      dup5\n        /* \"#utility.yul\":232:255   */\n      sub\n        /* \"#utility.yul\":228:260   */\n      slt\n        /* \"#utility.yul\":225:344   */\n      iszero\n      tag_17\n      jumpi\n        /* \"#utility.yul\":263:342   */\n      tag_18\n      tag_19\n      jump\t// in\n    tag_18:\n        /* \"#utility.yul\":225:344   */\n    tag_17:\n        /* \"#utility.yul\":383:384   */\n      0x00\n        /* \"#utility.yul\":408:460   */\n      tag_20\n        /* \"#utility.yul\":452:459   */\n      dup5\n        /* \"#utility.yul\":443:449   */\n      dup3\n        /* \"#utility.yul\":432:441   */\n      dup6\n        /* \"#utility.yul\":428:450   */\n      add\n        /* \"#utility.yul\":408:460   */\n      tag_12\n      jump\t// in\n    tag_20:\n        /* \"#utility.yul\":398:460   */\n      swap2\n      pop\n        /* \"#utility.yul\":354:470   */\n      pop\n        /* \"#utility.yul\":150:477   */\n      swap3\n      swap2\n      pop\n      pop\n      jump\t// out\n        /* \"#utility.yul\":483:598   */\n    tag_21:\n        /* \"#utility.yul\":568:591   */\n      tag_23\n        /* \"#utility.yul\":585:590   */\n      dup2\n        /* \"#utility.yul\":568:591   */\n      tag_24\n      jump\t// in\n    tag_23:\n        /* \"#utility.yul\":563:566   */\n      dup3\n        /* \"#utility.yul\":556:592   */\n      mstore\n        /* \"#utility.yul\":483:598   */\n      pop\n      pop\n      jump\t// out\n        /* \"#utility.yul\":604:822   */\n    tag_10:\n        /* \"#utility.yul\":695:699   */\n      0x00\n        /* \"#utility.yul\":733:735   */\n      0x20\n        /* \"#utility.yul\":722:731   */\n      dup3\n        /* \"#utility.yul\":718:736   */\n      add\n        /* \"#utility.yul\":710:736   */\n      swap1\n      pop\n        /* \"#utility.yul\":746:815   */\n      tag_26\n        /* \"#utility.yul\":812:813   */\n      0x00\n        /* \"#utility.yul\":801:810   */\n      dup4\n        /* \"#utility.yul\":797:814   */\n      add\n        /* \"#utility.yul\":788:794   */\n      dup5\n        /* \"#utility.yul\":746:815   */\n      tag_21\n      jump\t// in\n    tag_26:\n        /* \"#utility.yul\":604:822   */\n      swap3\n      swap2\n      pop\n      pop\n      jump\t// out\n        /* \"#utility.yul\":909:985   */\n    tag_24:\n        /* \"#utility.yul\":945:952   */\n      0x00\n        /* \"#utility.yul\":974:979   */\n      dup2\n        /* \"#utility.yul\":963:979   */\n      swap1\n      pop\n        /* \"#utility.yul\":909:985   */\n      swap2\n      swap1\n      pop\n      jump\t// out\n        /* \"#utility.yul\":1114:1231   */\n    tag_19:\n        /* \"#utility.yul\":1223:1224   */\n      0x00\n        /* \"#utility.yul\":1220:1221   */\n      dup1\n        /* \"#utility.yul\":1213:1225   */\n      revert\n        /* \"#utility.yul\":1237:1357   */\n    tag_15:\n        /* \"#utility.yul\":1309:1332   */\n      tag_34\n        /* \"#utility.yul\":1326:1331   */\n      dup2\n        /* \"#utility.yul\":1309:1332   */\n      tag_24\n      jump\t// in\n    tag_34:\n        /* \"#utility.yul\":1302:1307   */\n      dup2\n        /* \"#utility.yul\":1299:1333   */\n      eq\n        /* \"#utility.yul\":1289:1351   */\n      tag_35\n      jumpi\n        /* \"#utility.yul\":1347:1348   */\n      0x00\n        /* \"#utility.yul\":1344:1345   */\n      dup1\n        /* \"#utility.yul\":1337:1349   */\n      revert\n        /* \"#utility.yul\":1289:1351   */\n    tag_35:\n        /* \"#utility.yul\":1237:1357   */\n      pop\n      jump\t// out\n\n    auxdata: 0xa2646970667358221220cf7efd4bd7f05bd4b5cebaca4371871a4863e94510413465373a3f1936ad3ef864736f6c63430008070033\n}\n",
				"bytecode": {
					"linkReferences": {},
					"object": "60806040526000805534801561001457600080fd5b50610157806100246000396000f3fe608060405234801561001057600080fd5b506004361061002b5760003560e01c80632ca8326414610030575b600080fd5b61004a600480360381019061004591906100a4565b61004c565b005b806000819055507f42e31d4b020595d608b8ccda14f41450c8dbc6f2d779409750b2920f894a2fb560005460405161008491906100e0565b60405180910390a150565b60008135905061009e8161010a565b92915050565b6000602082840312156100ba576100b9610105565b5b60006100c88482850161008f565b91505092915050565b6100da816100fb565b82525050565b60006020820190506100f560008301846100d1565b92915050565b6000819050919050565b600080fd5b610113816100fb565b811461011e57600080fd5b5056fea2646970667358221220cf7efd4bd7f05bd4b5cebaca4371871a4863e94510413465373a3f1936ad3ef864736f6c63430008070033",
					"opcodes": "PUSH1 0x80 PUSH1 0x40 MSTORE PUSH1 0x0 DUP1 SSTORE CALLVALUE DUP1 ISZERO PUSH2 0x14 JUMPI PUSH1 0x0 DUP1 REVERT JUMPDEST POP PUSH2 0x157 DUP1 PUSH2 0x24 PUSH1 0x0 CODECOPY PUSH1 0x0 RETURN INVALID PUSH1 0x80 PUSH1 0x40 MSTORE CALLVALUE DUP1 ISZERO PUSH2 0x10 JUMPI PUSH1 0x0 DUP1 REVERT JUMPDEST POP PUSH1 0x4 CALLDATASIZE LT PUSH2 0x2B JUMPI PUSH1 0x0 CALLDATALOAD PUSH1 0xE0 SHR DUP1 PUSH4 0x2CA83264 EQ PUSH2 0x30 JUMPI JUMPDEST PUSH1 0x0 DUP1 REVERT JUMPDEST PUSH2 0x4A PUSH1 0x4 DUP1 CALLDATASIZE SUB DUP2 ADD SWAP1 PUSH2 0x45 SWAP2 SWAP1 PUSH2 0xA4 JUMP JUMPDEST PUSH2 0x4C JUMP JUMPDEST STOP JUMPDEST DUP1 PUSH1 0x0 DUP2 SWAP1 SSTORE POP PUSH32 0x42E31D4B020595D608B8CCDA14F41450C8DBC6F2D779409750B2920F894A2FB5 PUSH1 0x0 SLOAD PUSH1 0x40 MLOAD PUSH2 0x84 SWAP2 SWAP1 PUSH2 0xE0 JUMP JUMPDEST PUSH1 0x40 MLOAD DUP1 SWAP2 SUB SWAP1 LOG1 POP JUMP JUMPDEST PUSH1 0x0 DUP2 CALLDATALOAD SWAP1 POP PUSH2 0x9E DUP2 PUSH2 0x10A JUMP JUMPDEST SWAP3 SWAP2 POP POP JUMP JUMPDEST PUSH1 0x0 PUSH1 0x20 DUP3 DUP5 SUB SLT ISZERO PUSH2 0xBA JUMPI PUSH2 0xB9 PUSH2 0x105 JUMP JUMPDEST JUMPDEST PUSH1 0x0 PUSH2 0xC8 DUP5 DUP3 DUP6 ADD PUSH2 0x8F JUMP JUMPDEST SWAP2 POP POP SWAP3 SWAP2 POP POP JUMP JUMPDEST PUSH2 0xDA DUP2 PUSH2 0xFB JUMP JUMPDEST DUP3 MSTORE POP POP JUMP JUMPDEST PUSH1 0x0 PUSH1 0x20 DUP3 ADD SWAP1 POP PUSH2 0xF5 PUSH1 0x0 DUP4 ADD DUP5 PUSH2 0xD1 JUMP JUMPDEST SWAP3 SWAP2 POP POP JUMP JUMPDEST PUSH1 0x0 DUP2 SWAP1 POP SWAP2 SWAP1 POP JUMP JUMPDEST PUSH1 0x0 DUP1 REVERT JUMPDEST PUSH2 0x113 DUP2 PUSH2 0xFB JUMP JUMPDEST DUP2 EQ PUSH2 0x11E JUMPI PUSH1 0x0 DUP1 REVERT JUMPDEST POP JUMP INVALID LOG2 PUSH5 0x6970667358 0x22 SLT KECCAK256 0xCF PUSH31 0xFD4BD7F05BD4B5CEBACA4371871A4863E94510413465373A3F1936AD3EF864 PUSH20 0x6F6C634300080700330000000000000000000000 "
				},
				"gasEstimates": {
					"creation": {
						"codeDepositCost": "68600",
						"executionCost": "5123",
						"totalCost": "73723"
					},
					"external": {
						"newNumber(int256)": "infinite"
					}
				},
				"methodIdentifiers": {
					"newNumber(int256)": "2ca83264"
				}
			},
			"storageLayout": {
				"storage": [
					{
						"astId": 4,
						"contract": "Documents/dev/e-community-platform/in-progress/consent-management/src/blockchain/smart_contracts/contracts/SimpleStorage.sol:SimpleStorage",
						"label": "value",
						"offset": 0,
						"slot": "0",
						"type": "t_int256"
					}
				],
				"types": {
					"t_int256": {
						"encoding": "inplace",
						"label": "int256",
						"numberOfBytes": "32"
					}
				}
			},
			"userdoc": {
				"kind": "user",
				"methods": {},
				"version": 1
			}
		}
	}
}