{
	"Documents/dev/e-community-platform/in-progress/consent-management/src/blockchain/smart_contracts/contracts/ConsentContract.sol": {
		"ConsentContract": {
			"abi": [
				{
					"inputs": [
						{
							"internalType": "address",
							"name": "_consenter",
							"type": "address"
						}
					],
					"stateMutability": "nonpayable",
					"type": "constructor"
				},
				{
					"anonymous": false,
					"inputs": [],
					"name": "ApprovedContract",
					"type": "event"
				},
				{
					"anonymous": false,
					"inputs": [],
					"name": "ProposedContract",
					"type": "event"
				},
				{
					"inputs": [],
					"name": "revokeConsent",
					"outputs": [],
					"stateMutability": "nonpayable",
					"type": "function"
				},
				{
					"inputs": [],
					"name": "signContract",
					"outputs": [],
					"stateMutability": "nonpayable",
					"type": "function"
				}
			],
			"devdoc": {
				"kind": "dev",
				"methods": {},
				"version": 1
			},
			"evm": {
				"assembly": "    /* \"Documents/dev/e-community-platform/in-progress/consent-management/src/blockchain/smart_contracts/contracts/ConsentContract.sol\":71:2076  contract ConsentContract {... */\n  mstore(0x40, 0x80)\n    /* \"Documents/dev/e-community-platform/in-progress/consent-management/src/blockchain/smart_contracts/contracts/ConsentContract.sol\":855:1011  constructor(address _consenter) {... */\n  callvalue\n  dup1\n  iszero\n  tag_1\n  jumpi\n  0x00\n  dup1\n  revert\ntag_1:\n  pop\n  mload(0x40)\n  sub(codesize, bytecodeSize)\n  dup1\n  bytecodeSize\n  dup4\n  codecopy\n  dup2\n  dup2\n  add\n  0x40\n  mstore\n  dup2\n  add\n  swap1\n  tag_2\n  swap2\n  swap1\n  tag_3\n  jump\t// in\ntag_2:\n    /* \"Documents/dev/e-community-platform/in-progress/consent-management/src/blockchain/smart_contracts/contracts/ConsentContract.sol\":930:940  msg.sender */\n  caller\n    /* \"Documents/dev/e-community-platform/in-progress/consent-management/src/blockchain/smart_contracts/contracts/ConsentContract.sol\":919:927  proposer */\n  0x00\n  dup1\n    /* \"Documents/dev/e-community-platform/in-progress/consent-management/src/blockchain/smart_contracts/contracts/ConsentContract.sol\":919:940  proposer = msg.sender */\n  0x0100\n  exp\n  dup2\n  sload\n  dup2\n  0xffffffffffffffffffffffffffffffffffffffff\n  mul\n  not\n  and\n  swap1\n  dup4\n  0xffffffffffffffffffffffffffffffffffffffff\n  and\n  mul\n  or\n  swap1\n  sstore\n  pop\n    /* \"Documents/dev/e-community-platform/in-progress/consent-management/src/blockchain/smart_contracts/contracts/ConsentContract.sol\":958:972  STATE.INACTIVE */\n  0x00\n    /* \"Documents/dev/e-community-platform/in-progress/consent-management/src/blockchain/smart_contracts/contracts/ConsentContract.sol\":950:955  state */\n  0x01\n  0x14\n    /* \"Documents/dev/e-community-platform/in-progress/consent-management/src/blockchain/smart_contracts/contracts/ConsentContract.sol\":950:972  state = STATE.INACTIVE */\n  0x0100\n  exp\n  dup2\n  sload\n  dup2\n  0xff\n  mul\n  not\n  and\n  swap1\n  dup4\n  0x03\n  dup2\n  gt\n  iszero\n  tag_6\n  jumpi\n  tag_7\n  tag_8\n  jump\t// in\ntag_7:\ntag_6:\n  mul\n  or\n  swap1\n  sstore\n  pop\n    /* \"Documents/dev/e-community-platform/in-progress/consent-management/src/blockchain/smart_contracts/contracts/ConsentContract.sol\":994:1004  _consenter */\n  dup1\n    /* \"Documents/dev/e-community-platform/in-progress/consent-management/src/blockchain/smart_contracts/contracts/ConsentContract.sol\":982:991  consenter */\n  0x01\n  0x00\n    /* \"Documents/dev/e-community-platform/in-progress/consent-management/src/blockchain/smart_contracts/contracts/ConsentContract.sol\":982:1004  consenter = _consenter */\n  0x0100\n  exp\n  dup2\n  sload\n  dup2\n  0xffffffffffffffffffffffffffffffffffffffff\n  mul\n  not\n  and\n  swap1\n  dup4\n  0xffffffffffffffffffffffffffffffffffffffff\n  and\n  mul\n  or\n  swap1\n  sstore\n  pop\n    /* \"Documents/dev/e-community-platform/in-progress/consent-management/src/blockchain/smart_contracts/contracts/ConsentContract.sol\":855:1011  constructor(address _consenter) {... */\n  pop\n    /* \"Documents/dev/e-community-platform/in-progress/consent-management/src/blockchain/smart_contracts/contracts/ConsentContract.sol\":71:2076  contract ConsentContract {... */\n  jump(tag_9)\n    /* \"#utility.yul\":7:150   */\ntag_11:\n    /* \"#utility.yul\":64:69   */\n  0x00\n    /* \"#utility.yul\":95:101   */\n  dup2\n    /* \"#utility.yul\":89:102   */\n  mload\n    /* \"#utility.yul\":80:102   */\n  swap1\n  pop\n    /* \"#utility.yul\":111:144   */\n  tag_13\n    /* \"#utility.yul\":138:143   */\n  dup2\n    /* \"#utility.yul\":111:144   */\n  tag_14\n  jump\t// in\ntag_13:\n    /* \"#utility.yul\":7:150   */\n  swap3\n  swap2\n  pop\n  pop\n  jump\t// out\n    /* \"#utility.yul\":156:507   */\ntag_3:\n    /* \"#utility.yul\":226:232   */\n  0x00\n    /* \"#utility.yul\":275:277   */\n  0x20\n    /* \"#utility.yul\":263:272   */\n  dup3\n    /* \"#utility.yul\":254:261   */\n  dup5\n    /* \"#utility.yul\":250:273   */\n  sub\n    /* \"#utility.yul\":246:278   */\n  slt\n    /* \"#utility.yul\":243:362   */\n  iszero\n  tag_16\n  jumpi\n    /* \"#utility.yul\":281:360   */\n  tag_17\n  tag_18\n  jump\t// in\ntag_17:\n    /* \"#utility.yul\":243:362   */\ntag_16:\n    /* \"#utility.yul\":401:402   */\n  0x00\n    /* \"#utility.yul\":426:490   */\n  tag_19\n    /* \"#utility.yul\":482:489   */\n  dup5\n    /* \"#utility.yul\":473:479   */\n  dup3\n    /* \"#utility.yul\":462:471   */\n  dup6\n    /* \"#utility.yul\":458:480   */\n  add\n    /* \"#utility.yul\":426:490   */\n  tag_11\n  jump\t// in\ntag_19:\n    /* \"#utility.yul\":416:490   */\n  swap2\n  pop\n    /* \"#utility.yul\":372:500   */\n  pop\n    /* \"#utility.yul\":156:507   */\n  swap3\n  swap2\n  pop\n  pop\n  jump\t// out\n    /* \"#utility.yul\":594:690   */\ntag_22:\n    /* \"#utility.yul\":631:638   */\n  0x00\n    /* \"#utility.yul\":660:684   */\n  tag_24\n    /* \"#utility.yul\":678:683   */\n  dup3\n    /* \"#utility.yul\":660:684   */\n  tag_25\n  jump\t// in\ntag_24:\n    /* \"#utility.yul\":649:684   */\n  swap1\n  pop\n    /* \"#utility.yul\":594:690   */\n  swap2\n  swap1\n  pop\n  jump\t// out\n    /* \"#utility.yul\":696:822   */\ntag_25:\n    /* \"#utility.yul\":733:740   */\n  0x00\n    /* \"#utility.yul\":773:815   */\n  0xffffffffffffffffffffffffffffffffffffffff\n    /* \"#utility.yul\":766:771   */\n  dup3\n    /* \"#utility.yul\":762:816   */\n  and\n    /* \"#utility.yul\":751:816   */\n  swap1\n  pop\n    /* \"#utility.yul\":696:822   */\n  swap2\n  swap1\n  pop\n  jump\t// out\n    /* \"#utility.yul\":828:1008   */\ntag_8:\n    /* \"#utility.yul\":876:953   */\n  0x4e487b7100000000000000000000000000000000000000000000000000000000\n    /* \"#utility.yul\":873:874   */\n  0x00\n    /* \"#utility.yul\":866:954   */\n  mstore\n    /* \"#utility.yul\":973:977   */\n  0x21\n    /* \"#utility.yul\":970:971   */\n  0x04\n    /* \"#utility.yul\":963:978   */\n  mstore\n    /* \"#utility.yul\":997:1001   */\n  0x24\n    /* \"#utility.yul\":994:995   */\n  0x00\n    /* \"#utility.yul\":987:1002   */\n  revert\n    /* \"#utility.yul\":1137:1254   */\ntag_18:\n    /* \"#utility.yul\":1246:1247   */\n  0x00\n    /* \"#utility.yul\":1243:1244   */\n  dup1\n    /* \"#utility.yul\":1236:1248   */\n  revert\n    /* \"#utility.yul\":1260:1382   */\ntag_14:\n    /* \"#utility.yul\":1333:1357   */\n  tag_32\n    /* \"#utility.yul\":1351:1356   */\n  dup2\n    /* \"#utility.yul\":1333:1357   */\n  tag_22\n  jump\t// in\ntag_32:\n    /* \"#utility.yul\":1326:1331   */\n  dup2\n    /* \"#utility.yul\":1323:1358   */\n  eq\n    /* \"#utility.yul\":1313:1376   */\n  tag_33\n  jumpi\n    /* \"#utility.yul\":1372:1373   */\n  0x00\n    /* \"#utility.yul\":1369:1370   */\n  dup1\n    /* \"#utility.yul\":1362:1374   */\n  revert\n    /* \"#utility.yul\":1313:1376   */\ntag_33:\n    /* \"#utility.yul\":1260:1382   */\n  pop\n  jump\t// out\n    /* \"Documents/dev/e-community-platform/in-progress/consent-management/src/blockchain/smart_contracts/contracts/ConsentContract.sol\":71:2076  contract ConsentContract {... */\ntag_9:\n  dataSize(sub_0)\n  dup1\n  dataOffset(sub_0)\n  0x00\n  codecopy\n  0x00\n  return\nstop\n\nsub_0: assembly {\n        /* \"Documents/dev/e-community-platform/in-progress/consent-management/src/blockchain/smart_contracts/contracts/ConsentContract.sol\":71:2076  contract ConsentContract {... */\n      mstore(0x40, 0x80)\n      callvalue\n      dup1\n      iszero\n      tag_1\n      jumpi\n      0x00\n      dup1\n      revert\n    tag_1:\n      pop\n      jumpi(tag_2, lt(calldatasize, 0x04))\n      shr(0xe0, calldataload(0x00))\n      dup1\n      0xb8b4f1a0\n      eq\n      tag_3\n      jumpi\n      dup1\n      0xff4c4d54\n      eq\n      tag_4\n      jumpi\n    tag_2:\n      0x00\n      dup1\n      revert\n        /* \"Documents/dev/e-community-platform/in-progress/consent-management/src/blockchain/smart_contracts/contracts/ConsentContract.sol\":1240:1597  function signContract() public bothParties {... */\n    tag_3:\n      tag_5\n      tag_6\n      jump\t// in\n    tag_5:\n      stop\n        /* \"Documents/dev/e-community-platform/in-progress/consent-management/src/blockchain/smart_contracts/contracts/ConsentContract.sol\":1652:1734  function revokeConsent() public bothParties {... */\n    tag_4:\n      tag_7\n      tag_8\n      jump\t// in\n    tag_7:\n      stop\n        /* \"Documents/dev/e-community-platform/in-progress/consent-management/src/blockchain/smart_contracts/contracts/ConsentContract.sol\":1240:1597  function signContract() public bothParties {... */\n    tag_6:\n        /* \"Documents/dev/e-community-platform/in-progress/consent-management/src/blockchain/smart_contracts/contracts/ConsentContract.sol\":2020:2028  proposer */\n      0x00\n      dup1\n      sload\n      swap1\n      0x0100\n      exp\n      swap1\n      div\n      0xffffffffffffffffffffffffffffffffffffffff\n      and\n        /* \"Documents/dev/e-community-platform/in-progress/consent-management/src/blockchain/smart_contracts/contracts/ConsentContract.sol\":2006:2028  msg.sender == proposer */\n      0xffffffffffffffffffffffffffffffffffffffff\n      and\n        /* \"Documents/dev/e-community-platform/in-progress/consent-management/src/blockchain/smart_contracts/contracts/ConsentContract.sol\":2006:2016  msg.sender */\n      caller\n        /* \"Documents/dev/e-community-platform/in-progress/consent-management/src/blockchain/smart_contracts/contracts/ConsentContract.sol\":2006:2028  msg.sender == proposer */\n      0xffffffffffffffffffffffffffffffffffffffff\n      and\n      eq\n        /* \"Documents/dev/e-community-platform/in-progress/consent-management/src/blockchain/smart_contracts/contracts/ConsentContract.sol\":2006:2055  msg.sender == proposer || msg.sender == consenter */\n      dup1\n      tag_10\n      jumpi\n      pop\n        /* \"Documents/dev/e-community-platform/in-progress/consent-management/src/blockchain/smart_contracts/contracts/ConsentContract.sol\":2046:2055  consenter */\n      0x01\n      0x00\n      swap1\n      sload\n      swap1\n      0x0100\n      exp\n      swap1\n      div\n      0xffffffffffffffffffffffffffffffffffffffff\n      and\n        /* \"Documents/dev/e-community-platform/in-progress/consent-management/src/blockchain/smart_contracts/contracts/ConsentContract.sol\":2032:2055  msg.sender == consenter */\n      0xffffffffffffffffffffffffffffffffffffffff\n      and\n        /* \"Documents/dev/e-community-platform/in-progress/consent-management/src/blockchain/smart_contracts/contracts/ConsentContract.sol\":2032:2042  msg.sender */\n      caller\n        /* \"Documents/dev/e-community-platform/in-progress/consent-management/src/blockchain/smart_contracts/contracts/ConsentContract.sol\":2032:2055  msg.sender == consenter */\n      0xffffffffffffffffffffffffffffffffffffffff\n      and\n      eq\n        /* \"Documents/dev/e-community-platform/in-progress/consent-management/src/blockchain/smart_contracts/contracts/ConsentContract.sol\":2006:2055  msg.sender == proposer || msg.sender == consenter */\n    tag_10:\n        /* \"Documents/dev/e-community-platform/in-progress/consent-management/src/blockchain/smart_contracts/contracts/ConsentContract.sol\":1998:2056  require(msg.sender == proposer || msg.sender == consenter) */\n      tag_11\n      jumpi\n      0x00\n      dup1\n      revert\n    tag_11:\n        /* \"Documents/dev/e-community-platform/in-progress/consent-management/src/blockchain/smart_contracts/contracts/ConsentContract.sol\":1311:1319  proposer */\n      0x00\n      dup1\n      sload\n      swap1\n      0x0100\n      exp\n      swap1\n      div\n      0xffffffffffffffffffffffffffffffffffffffff\n      and\n        /* \"Documents/dev/e-community-platform/in-progress/consent-management/src/blockchain/smart_contracts/contracts/ConsentContract.sol\":1297:1319  msg.sender == proposer */\n      0xffffffffffffffffffffffffffffffffffffffff\n      and\n        /* \"Documents/dev/e-community-platform/in-progress/consent-management/src/blockchain/smart_contracts/contracts/ConsentContract.sol\":1297:1307  msg.sender */\n      caller\n        /* \"Documents/dev/e-community-platform/in-progress/consent-management/src/blockchain/smart_contracts/contracts/ConsentContract.sol\":1297:1319  msg.sender == proposer */\n      0xffffffffffffffffffffffffffffffffffffffff\n      and\n      eq\n        /* \"Documents/dev/e-community-platform/in-progress/consent-management/src/blockchain/smart_contracts/contracts/ConsentContract.sol\":1293:1359  if (msg.sender == proposer) { signature.signedByProposer = true; } */\n      iszero\n      tag_13\n      jumpi\n        /* \"Documents/dev/e-community-platform/in-progress/consent-management/src/blockchain/smart_contracts/contracts/ConsentContract.sol\":1352:1356  true */\n      0x01\n        /* \"Documents/dev/e-community-platform/in-progress/consent-management/src/blockchain/smart_contracts/contracts/ConsentContract.sol\":1323:1332  signature */\n      0x02\n        /* \"Documents/dev/e-community-platform/in-progress/consent-management/src/blockchain/smart_contracts/contracts/ConsentContract.sol\":1323:1349  signature.signedByProposer */\n      0x00\n      add\n      0x00\n        /* \"Documents/dev/e-community-platform/in-progress/consent-management/src/blockchain/smart_contracts/contracts/ConsentContract.sol\":1323:1356  signature.signedByProposer = true */\n      0x0100\n      exp\n      dup2\n      sload\n      dup2\n      0xff\n      mul\n      not\n      and\n      swap1\n      dup4\n      iszero\n      iszero\n      mul\n      or\n      swap1\n      sstore\n      pop\n        /* \"Documents/dev/e-community-platform/in-progress/consent-management/src/blockchain/smart_contracts/contracts/ConsentContract.sol\":1293:1359  if (msg.sender == proposer) { signature.signedByProposer = true; } */\n    tag_13:\n        /* \"Documents/dev/e-community-platform/in-progress/consent-management/src/blockchain/smart_contracts/contracts/ConsentContract.sol\":1386:1395  consenter */\n      0x01\n      0x00\n      swap1\n      sload\n      swap1\n      0x0100\n      exp\n      swap1\n      div\n      0xffffffffffffffffffffffffffffffffffffffff\n      and\n        /* \"Documents/dev/e-community-platform/in-progress/consent-management/src/blockchain/smart_contracts/contracts/ConsentContract.sol\":1372:1395  msg.sender == consenter */\n      0xffffffffffffffffffffffffffffffffffffffff\n      and\n        /* \"Documents/dev/e-community-platform/in-progress/consent-management/src/blockchain/smart_contracts/contracts/ConsentContract.sol\":1372:1382  msg.sender */\n      caller\n        /* \"Documents/dev/e-community-platform/in-progress/consent-management/src/blockchain/smart_contracts/contracts/ConsentContract.sol\":1372:1395  msg.sender == consenter */\n      0xffffffffffffffffffffffffffffffffffffffff\n      and\n      eq\n        /* \"Documents/dev/e-community-platform/in-progress/consent-management/src/blockchain/smart_contracts/contracts/ConsentContract.sol\":1368:1436  if (msg.sender == consenter) { signature.signedByConsenter = true; } */\n      iszero\n      tag_14\n      jumpi\n        /* \"Documents/dev/e-community-platform/in-progress/consent-management/src/blockchain/smart_contracts/contracts/ConsentContract.sol\":1429:1433  true */\n      0x01\n        /* \"Documents/dev/e-community-platform/in-progress/consent-management/src/blockchain/smart_contracts/contracts/ConsentContract.sol\":1399:1408  signature */\n      0x02\n        /* \"Documents/dev/e-community-platform/in-progress/consent-management/src/blockchain/smart_contracts/contracts/ConsentContract.sol\":1399:1426  signature.signedByConsenter */\n      0x00\n      add\n      0x01\n        /* \"Documents/dev/e-community-platform/in-progress/consent-management/src/blockchain/smart_contracts/contracts/ConsentContract.sol\":1399:1433  signature.signedByConsenter = true */\n      0x0100\n      exp\n      dup2\n      sload\n      dup2\n      0xff\n      mul\n      not\n      and\n      swap1\n      dup4\n      iszero\n      iszero\n      mul\n      or\n      swap1\n      sstore\n      pop\n        /* \"Documents/dev/e-community-platform/in-progress/consent-management/src/blockchain/smart_contracts/contracts/ConsentContract.sol\":1368:1436  if (msg.sender == consenter) { signature.signedByConsenter = true; } */\n    tag_14:\n        /* \"Documents/dev/e-community-platform/in-progress/consent-management/src/blockchain/smart_contracts/contracts/ConsentContract.sol\":1450:1459  signature */\n      0x02\n        /* \"Documents/dev/e-community-platform/in-progress/consent-management/src/blockchain/smart_contracts/contracts/ConsentContract.sol\":1450:1476  signature.signedByProposer */\n      0x00\n      add\n      0x00\n      swap1\n      sload\n      swap1\n      0x0100\n      exp\n      swap1\n      div\n      0xff\n      and\n        /* \"Documents/dev/e-community-platform/in-progress/consent-management/src/blockchain/smart_contracts/contracts/ConsentContract.sol\":1450:1507  signature.signedByProposer && signature.signedByConsenter */\n      dup1\n      iszero\n      tag_15\n      jumpi\n      pop\n        /* \"Documents/dev/e-community-platform/in-progress/consent-management/src/blockchain/smart_contracts/contracts/ConsentContract.sol\":1480:1489  signature */\n      0x02\n        /* \"Documents/dev/e-community-platform/in-progress/consent-management/src/blockchain/smart_contracts/contracts/ConsentContract.sol\":1480:1507  signature.signedByConsenter */\n      0x00\n      add\n      0x01\n      swap1\n      sload\n      swap1\n      0x0100\n      exp\n      swap1\n      div\n      0xff\n      and\n        /* \"Documents/dev/e-community-platform/in-progress/consent-management/src/blockchain/smart_contracts/contracts/ConsentContract.sol\":1450:1507  signature.signedByProposer && signature.signedByConsenter */\n    tag_15:\n        /* \"Documents/dev/e-community-platform/in-progress/consent-management/src/blockchain/smart_contracts/contracts/ConsentContract.sol\":1446:1591  if (signature.signedByProposer && signature.signedByConsenter) {... */\n      iszero\n      tag_16\n      jumpi\n        /* \"Documents/dev/e-community-platform/in-progress/consent-management/src/blockchain/smart_contracts/contracts/ConsentContract.sol\":1531:1543  STATE.ACTIVE */\n      0x01\n        /* \"Documents/dev/e-community-platform/in-progress/consent-management/src/blockchain/smart_contracts/contracts/ConsentContract.sol\":1523:1528  state */\n      dup1\n      0x14\n        /* \"Documents/dev/e-community-platform/in-progress/consent-management/src/blockchain/smart_contracts/contracts/ConsentContract.sol\":1523:1543  state = STATE.ACTIVE */\n      0x0100\n      exp\n      dup2\n      sload\n      dup2\n      0xff\n      mul\n      not\n      and\n      swap1\n      dup4\n      0x03\n      dup2\n      gt\n      iszero\n      tag_17\n      jumpi\n      tag_18\n      tag_19\n      jump\t// in\n    tag_18:\n    tag_17:\n      mul\n      or\n      swap1\n      sstore\n      pop\n        /* \"Documents/dev/e-community-platform/in-progress/consent-management/src/blockchain/smart_contracts/contracts/ConsentContract.sol\":1562:1580  ApprovedContract() */\n      0x1d0bcfc8e4ee578e5d42c0764c688a71df19942bebc0c262b0535deb145cc302\n      mload(0x40)\n      mload(0x40)\n      dup1\n      swap2\n      sub\n      swap1\n      log1\n        /* \"Documents/dev/e-community-platform/in-progress/consent-management/src/blockchain/smart_contracts/contracts/ConsentContract.sol\":1446:1591  if (signature.signedByProposer && signature.signedByConsenter) {... */\n    tag_16:\n        /* \"Documents/dev/e-community-platform/in-progress/consent-management/src/blockchain/smart_contracts/contracts/ConsentContract.sol\":1240:1597  function signContract() public bothParties {... */\n      jump\t// out\n        /* \"Documents/dev/e-community-platform/in-progress/consent-management/src/blockchain/smart_contracts/contracts/ConsentContract.sol\":1652:1734  function revokeConsent() public bothParties {... */\n    tag_8:\n        /* \"Documents/dev/e-community-platform/in-progress/consent-management/src/blockchain/smart_contracts/contracts/ConsentContract.sol\":2020:2028  proposer */\n      0x00\n      dup1\n      sload\n      swap1\n      0x0100\n      exp\n      swap1\n      div\n      0xffffffffffffffffffffffffffffffffffffffff\n      and\n        /* \"Documents/dev/e-community-platform/in-progress/consent-management/src/blockchain/smart_contracts/contracts/ConsentContract.sol\":2006:2028  msg.sender == proposer */\n      0xffffffffffffffffffffffffffffffffffffffff\n      and\n        /* \"Documents/dev/e-community-platform/in-progress/consent-management/src/blockchain/smart_contracts/contracts/ConsentContract.sol\":2006:2016  msg.sender */\n      caller\n        /* \"Documents/dev/e-community-platform/in-progress/consent-management/src/blockchain/smart_contracts/contracts/ConsentContract.sol\":2006:2028  msg.sender == proposer */\n      0xffffffffffffffffffffffffffffffffffffffff\n      and\n      eq\n        /* \"Documents/dev/e-community-platform/in-progress/consent-management/src/blockchain/smart_contracts/contracts/ConsentContract.sol\":2006:2055  msg.sender == proposer || msg.sender == consenter */\n      dup1\n      tag_21\n      jumpi\n      pop\n        /* \"Documents/dev/e-community-platform/in-progress/consent-management/src/blockchain/smart_contracts/contracts/ConsentContract.sol\":2046:2055  consenter */\n      0x01\n      0x00\n      swap1\n      sload\n      swap1\n      0x0100\n      exp\n      swap1\n      div\n      0xffffffffffffffffffffffffffffffffffffffff\n      and\n        /* \"Documents/dev/e-community-platform/in-progress/consent-management/src/blockchain/smart_contracts/contracts/ConsentContract.sol\":2032:2055  msg.sender == consenter */\n      0xffffffffffffffffffffffffffffffffffffffff\n      and\n        /* \"Documents/dev/e-community-platform/in-progress/consent-management/src/blockchain/smart_contracts/contracts/ConsentContract.sol\":2032:2042  msg.sender */\n      caller\n        /* \"Documents/dev/e-community-platform/in-progress/consent-management/src/blockchain/smart_contracts/contracts/ConsentContract.sol\":2032:2055  msg.sender == consenter */\n      0xffffffffffffffffffffffffffffffffffffffff\n      and\n      eq\n        /* \"Documents/dev/e-community-platform/in-progress/consent-management/src/blockchain/smart_contracts/contracts/ConsentContract.sol\":2006:2055  msg.sender == proposer || msg.sender == consenter */\n    tag_21:\n        /* \"Documents/dev/e-community-platform/in-progress/consent-management/src/blockchain/smart_contracts/contracts/ConsentContract.sol\":1998:2056  require(msg.sender == proposer || msg.sender == consenter) */\n      tag_22\n      jumpi\n      0x00\n      dup1\n      revert\n    tag_22:\n        /* \"Documents/dev/e-community-platform/in-progress/consent-management/src/blockchain/smart_contracts/contracts/ConsentContract.sol\":1714:1727  STATE.REVOKED */\n      0x02\n        /* \"Documents/dev/e-community-platform/in-progress/consent-management/src/blockchain/smart_contracts/contracts/ConsentContract.sol\":1706:1711  state */\n      0x01\n      0x14\n        /* \"Documents/dev/e-community-platform/in-progress/consent-management/src/blockchain/smart_contracts/contracts/ConsentContract.sol\":1706:1727  state = STATE.REVOKED */\n      0x0100\n      exp\n      dup2\n      sload\n      dup2\n      0xff\n      mul\n      not\n      and\n      swap1\n      dup4\n      0x03\n      dup2\n      gt\n      iszero\n      tag_24\n      jumpi\n      tag_25\n      tag_19\n      jump\t// in\n    tag_25:\n    tag_24:\n      mul\n      or\n      swap1\n      sstore\n      pop\n        /* \"Documents/dev/e-community-platform/in-progress/consent-management/src/blockchain/smart_contracts/contracts/ConsentContract.sol\":1652:1734  function revokeConsent() public bothParties {... */\n      jump\t// out\n        /* \"#utility.yul\":7:187   */\n    tag_19:\n        /* \"#utility.yul\":55:132   */\n      0x4e487b7100000000000000000000000000000000000000000000000000000000\n        /* \"#utility.yul\":52:53   */\n      0x00\n        /* \"#utility.yul\":45:133   */\n      mstore\n        /* \"#utility.yul\":152:156   */\n      0x21\n        /* \"#utility.yul\":149:150   */\n      0x04\n        /* \"#utility.yul\":142:157   */\n      mstore\n        /* \"#utility.yul\":176:180   */\n      0x24\n        /* \"#utility.yul\":173:174   */\n      0x00\n        /* \"#utility.yul\":166:181   */\n      revert\n\n    auxdata: 0xa2646970667358221220485bade261808512ed76c52b2775d072a3457d8b6ecc7652f56ee6636714ed9464736f6c63430008070033\n}\n",
				"bytecode": {
					"linkReferences": {},
					"object": "608060405234801561001057600080fd5b50604051610567380380610567833981810160405281019061003291906100f9565b336000806101000a81548173ffffffffffffffffffffffffffffffffffffffff021916908373ffffffffffffffffffffffffffffffffffffffff1602179055506000600160146101000a81548160ff0219169083600381111561009857610097610158565b5b021790555080600160006101000a81548173ffffffffffffffffffffffffffffffffffffffff021916908373ffffffffffffffffffffffffffffffffffffffff160217905550506101a3565b6000815190506100f38161018c565b92915050565b60006020828403121561010f5761010e610187565b5b600061011d848285016100e4565b91505092915050565b600061013182610138565b9050919050565b600073ffffffffffffffffffffffffffffffffffffffff82169050919050565b7f4e487b7100000000000000000000000000000000000000000000000000000000600052602160045260246000fd5b600080fd5b61019581610126565b81146101a057600080fd5b50565b6103b5806101b26000396000f3fe608060405234801561001057600080fd5b50600436106100365760003560e01c8063b8b4f1a01461003b578063ff4c4d5414610045575b600080fd5b61004361004f565b005b61004d610273565b005b60008054906101000a900473ffffffffffffffffffffffffffffffffffffffff1673ffffffffffffffffffffffffffffffffffffffff163373ffffffffffffffffffffffffffffffffffffffff1614806100f65750600160009054906101000a900473ffffffffffffffffffffffffffffffffffffffff1673ffffffffffffffffffffffffffffffffffffffff163373ffffffffffffffffffffffffffffffffffffffff16145b6100ff57600080fd5b60008054906101000a900473ffffffffffffffffffffffffffffffffffffffff1673ffffffffffffffffffffffffffffffffffffffff163373ffffffffffffffffffffffffffffffffffffffff161415610172576001600260000160006101000a81548160ff0219169083151502179055505b600160009054906101000a900473ffffffffffffffffffffffffffffffffffffffff1673ffffffffffffffffffffffffffffffffffffffff163373ffffffffffffffffffffffffffffffffffffffff1614156101e7576001600260000160016101000a81548160ff0219169083151502179055505b600260000160009054906101000a900460ff1680156102155750600260000160019054906101000a900460ff165b156102715760018060146101000a81548160ff0219169083600381111561023f5761023e610350565b5b02179055507f1d0bcfc8e4ee578e5d42c0764c688a71df19942bebc0c262b0535deb145cc30260405160405180910390a15b565b60008054906101000a900473ffffffffffffffffffffffffffffffffffffffff1673ffffffffffffffffffffffffffffffffffffffff163373ffffffffffffffffffffffffffffffffffffffff16148061031a5750600160009054906101000a900473ffffffffffffffffffffffffffffffffffffffff1673ffffffffffffffffffffffffffffffffffffffff163373ffffffffffffffffffffffffffffffffffffffff16145b61032357600080fd5b6002600160146101000a81548160ff0219169083600381111561034957610348610350565b5b0217905550565b7f4e487b7100000000000000000000000000000000000000000000000000000000600052602160045260246000fdfea2646970667358221220485bade261808512ed76c52b2775d072a3457d8b6ecc7652f56ee6636714ed9464736f6c63430008070033",
					"opcodes": "PUSH1 0x80 PUSH1 0x40 MSTORE CALLVALUE DUP1 ISZERO PUSH2 0x10 JUMPI PUSH1 0x0 DUP1 REVERT JUMPDEST POP PUSH1 0x40 MLOAD PUSH2 0x567 CODESIZE SUB DUP1 PUSH2 0x567 DUP4 CODECOPY DUP2 DUP2 ADD PUSH1 0x40 MSTORE DUP2 ADD SWAP1 PUSH2 0x32 SWAP2 SWAP1 PUSH2 0xF9 JUMP JUMPDEST CALLER PUSH1 0x0 DUP1 PUSH2 0x100 EXP DUP2 SLOAD DUP2 PUSH20 0xFFFFFFFFFFFFFFFFFFFFFFFFFFFFFFFFFFFFFFFF MUL NOT AND SWAP1 DUP4 PUSH20 0xFFFFFFFFFFFFFFFFFFFFFFFFFFFFFFFFFFFFFFFF AND MUL OR SWAP1 SSTORE POP PUSH1 0x0 PUSH1 0x1 PUSH1 0x14 PUSH2 0x100 EXP DUP2 SLOAD DUP2 PUSH1 0xFF MUL NOT AND SWAP1 DUP4 PUSH1 0x3 DUP2 GT ISZERO PUSH2 0x98 JUMPI PUSH2 0x97 PUSH2 0x158 JUMP JUMPDEST JUMPDEST MUL OR SWAP1 SSTORE POP DUP1 PUSH1 0x1 PUSH1 0x0 PUSH2 0x100 EXP DUP2 SLOAD DUP2 PUSH20 0xFFFFFFFFFFFFFFFFFFFFFFFFFFFFFFFFFFFFFFFF MUL NOT AND SWAP1 DUP4 PUSH20 0xFFFFFFFFFFFFFFFFFFFFFFFFFFFFFFFFFFFFFFFF AND MUL OR SWAP1 SSTORE POP POP PUSH2 0x1A3 JUMP JUMPDEST PUSH1 0x0 DUP2 MLOAD SWAP1 POP PUSH2 0xF3 DUP2 PUSH2 0x18C JUMP JUMPDEST SWAP3 SWAP2 POP POP JUMP JUMPDEST PUSH1 0x0 PUSH1 0x20 DUP3 DUP5 SUB SLT ISZERO PUSH2 0x10F JUMPI PUSH2 0x10E PUSH2 0x187 JUMP JUMPDEST JUMPDEST PUSH1 0x0 PUSH2 0x11D DUP5 DUP3 DUP6 ADD PUSH2 0xE4 JUMP JUMPDEST SWAP2 POP POP SWAP3 SWAP2 POP POP JUMP JUMPDEST PUSH1 0x0 PUSH2 0x131 DUP3 PUSH2 0x138 JUMP JUMPDEST SWAP1 POP SWAP2 SWAP1 POP JUMP JUMPDEST PUSH1 0x0 PUSH20 0xFFFFFFFFFFFFFFFFFFFFFFFFFFFFFFFFFFFFFFFF DUP3 AND SWAP1 POP SWAP2 SWAP1 POP JUMP JUMPDEST PUSH32 0x4E487B7100000000000000000000000000000000000000000000000000000000 PUSH1 0x0 MSTORE PUSH1 0x21 PUSH1 0x4 MSTORE PUSH1 0x24 PUSH1 0x0 REVERT JUMPDEST PUSH1 0x0 DUP1 REVERT JUMPDEST PUSH2 0x195 DUP2 PUSH2 0x126 JUMP JUMPDEST DUP2 EQ PUSH2 0x1A0 JUMPI PUSH1 0x0 DUP1 REVERT JUMPDEST POP JUMP JUMPDEST PUSH2 0x3B5 DUP1 PUSH2 0x1B2 PUSH1 0x0 CODECOPY PUSH1 0x0 RETURN INVALID PUSH1 0x80 PUSH1 0x40 MSTORE CALLVALUE DUP1 ISZERO PUSH2 0x10 JUMPI PUSH1 0x0 DUP1 REVERT JUMPDEST POP PUSH1 0x4 CALLDATASIZE LT PUSH2 0x36 JUMPI PUSH1 0x0 CALLDATALOAD PUSH1 0xE0 SHR DUP1 PUSH4 0xB8B4F1A0 EQ PUSH2 0x3B JUMPI DUP1 PUSH4 0xFF4C4D54 EQ PUSH2 0x45 JUMPI JUMPDEST PUSH1 0x0 DUP1 REVERT JUMPDEST PUSH2 0x43 PUSH2 0x4F JUMP JUMPDEST STOP JUMPDEST PUSH2 0x4D PUSH2 0x273 JUMP JUMPDEST STOP JUMPDEST PUSH1 0x0 DUP1 SLOAD SWAP1 PUSH2 0x100 EXP SWAP1 DIV PUSH20 0xFFFFFFFFFFFFFFFFFFFFFFFFFFFFFFFFFFFFFFFF AND PUSH20 0xFFFFFFFFFFFFFFFFFFFFFFFFFFFFFFFFFFFFFFFF AND CALLER PUSH20 0xFFFFFFFFFFFFFFFFFFFFFFFFFFFFFFFFFFFFFFFF AND EQ DUP1 PUSH2 0xF6 JUMPI POP PUSH1 0x1 PUSH1 0x0 SWAP1 SLOAD SWAP1 PUSH2 0x100 EXP SWAP1 DIV PUSH20 0xFFFFFFFFFFFFFFFFFFFFFFFFFFFFFFFFFFFFFFFF AND PUSH20 0xFFFFFFFFFFFFFFFFFFFFFFFFFFFFFFFFFFFFFFFF AND CALLER PUSH20 0xFFFFFFFFFFFFFFFFFFFFFFFFFFFFFFFFFFFFFFFF AND EQ JUMPDEST PUSH2 0xFF JUMPI PUSH1 0x0 DUP1 REVERT JUMPDEST PUSH1 0x0 DUP1 SLOAD SWAP1 PUSH2 0x100 EXP SWAP1 DIV PUSH20 0xFFFFFFFFFFFFFFFFFFFFFFFFFFFFFFFFFFFFFFFF AND PUSH20 0xFFFFFFFFFFFFFFFFFFFFFFFFFFFFFFFFFFFFFFFF AND CALLER PUSH20 0xFFFFFFFFFFFFFFFFFFFFFFFFFFFFFFFFFFFFFFFF AND EQ ISZERO PUSH2 0x172 JUMPI PUSH1 0x1 PUSH1 0x2 PUSH1 0x0 ADD PUSH1 0x0 PUSH2 0x100 EXP DUP2 SLOAD DUP2 PUSH1 0xFF MUL NOT AND SWAP1 DUP4 ISZERO ISZERO MUL OR SWAP1 SSTORE POP JUMPDEST PUSH1 0x1 PUSH1 0x0 SWAP1 SLOAD SWAP1 PUSH2 0x100 EXP SWAP1 DIV PUSH20 0xFFFFFFFFFFFFFFFFFFFFFFFFFFFFFFFFFFFFFFFF AND PUSH20 0xFFFFFFFFFFFFFFFFFFFFFFFFFFFFFFFFFFFFFFFF AND CALLER PUSH20 0xFFFFFFFFFFFFFFFFFFFFFFFFFFFFFFFFFFFFFFFF AND EQ ISZERO PUSH2 0x1E7 JUMPI PUSH1 0x1 PUSH1 0x2 PUSH1 0x0 ADD PUSH1 0x1 PUSH2 0x100 EXP DUP2 SLOAD DUP2 PUSH1 0xFF MUL NOT AND SWAP1 DUP4 ISZERO ISZERO MUL OR SWAP1 SSTORE POP JUMPDEST PUSH1 0x2 PUSH1 0x0 ADD PUSH1 0x0 SWAP1 SLOAD SWAP1 PUSH2 0x100 EXP SWAP1 DIV PUSH1 0xFF AND DUP1 ISZERO PUSH2 0x215 JUMPI POP PUSH1 0x2 PUSH1 0x0 ADD PUSH1 0x1 SWAP1 SLOAD SWAP1 PUSH2 0x100 EXP SWAP1 DIV PUSH1 0xFF AND JUMPDEST ISZERO PUSH2 0x271 JUMPI PUSH1 0x1 DUP1 PUSH1 0x14 PUSH2 0x100 EXP DUP2 SLOAD DUP2 PUSH1 0xFF MUL NOT AND SWAP1 DUP4 PUSH1 0x3 DUP2 GT ISZERO PUSH2 0x23F JUMPI PUSH2 0x23E PUSH2 0x350 JUMP JUMPDEST JUMPDEST MUL OR SWAP1 SSTORE POP PUSH32 0x1D0BCFC8E4EE578E5D42C0764C688A71DF19942BEBC0C262B0535DEB145CC302 PUSH1 0x40 MLOAD PUSH1 0x40 MLOAD DUP1 SWAP2 SUB SWAP1 LOG1 JUMPDEST JUMP JUMPDEST PUSH1 0x0 DUP1 SLOAD SWAP1 PUSH2 0x100 EXP SWAP1 DIV PUSH20 0xFFFFFFFFFFFFFFFFFFFFFFFFFFFFFFFFFFFFFFFF AND PUSH20 0xFFFFFFFFFFFFFFFFFFFFFFFFFFFFFFFFFFFFFFFF AND CALLER PUSH20 0xFFFFFFFFFFFFFFFFFFFFFFFFFFFFFFFFFFFFFFFF AND EQ DUP1 PUSH2 0x31A JUMPI POP PUSH1 0x1 PUSH1 0x0 SWAP1 SLOAD SWAP1 PUSH2 0x100 EXP SWAP1 DIV PUSH20 0xFFFFFFFFFFFFFFFFFFFFFFFFFFFFFFFFFFFFFFFF AND PUSH20 0xFFFFFFFFFFFFFFFFFFFFFFFFFFFFFFFFFFFFFFFF AND CALLER PUSH20 0xFFFFFFFFFFFFFFFFFFFFFFFFFFFFFFFFFFFFFFFF AND EQ JUMPDEST PUSH2 0x323 JUMPI PUSH1 0x0 DUP1 REVERT JUMPDEST PUSH1 0x2 PUSH1 0x1 PUSH1 0x14 PUSH2 0x100 EXP DUP2 SLOAD DUP2 PUSH1 0xFF MUL NOT AND SWAP1 DUP4 PUSH1 0x3 DUP2 GT ISZERO PUSH2 0x349 JUMPI PUSH2 0x348 PUSH2 0x350 JUMP JUMPDEST JUMPDEST MUL OR SWAP1 SSTORE POP JUMP JUMPDEST PUSH32 0x4E487B7100000000000000000000000000000000000000000000000000000000 PUSH1 0x0 MSTORE PUSH1 0x21 PUSH1 0x4 MSTORE PUSH1 0x24 PUSH1 0x0 REVERT INVALID LOG2 PUSH5 0x6970667358 0x22 SLT KECCAK256 BASEFEE JUMPDEST 0xAD 0xE2 PUSH2 0x8085 SLT 0xED PUSH23 0xC52B2775D072A3457D8B6ECC7652F56EE6636714ED9464 PUSH20 0x6F6C634300080700330000000000000000000000 "
				},
				"gasEstimates": {
					"creation": {
						"codeDepositCost": "189800",
						"executionCost": "infinite",
						"totalCost": "infinite"
					},
					"external": {
						"revokeConsent()": "28823",
						"signContract()": "86896"
					}
				},
				"methodIdentifiers": {
					"revokeConsent()": "ff4c4d54",
					"signContract()": "b8b4f1a0"
				}
			},
			"storageLayout": {
				"storage": [
					{
						"astId": 17,
						"contract": "Documents/dev/e-community-platform/in-progress/consent-management/src/blockchain/smart_contracts/contracts/ConsentContract.sol:ConsentContract",
						"label": "proposer",
						"offset": 0,
						"slot": "0",
						"type": "t_address"
					},
					{
						"astId": 19,
						"contract": "Documents/dev/e-community-platform/in-progress/consent-management/src/blockchain/smart_contracts/contracts/ConsentContract.sol:ConsentContract",
						"label": "consenter",
						"offset": 0,
						"slot": "1",
						"type": "t_address"
					},
					{
						"astId": 22,
						"contract": "Documents/dev/e-community-platform/in-progress/consent-management/src/blockchain/smart_contracts/contracts/ConsentContract.sol:ConsentContract",
						"label": "state",
						"offset": 20,
						"slot": "1",
						"type": "t_enum(STATE)6"
					},
					{
						"astId": 25,
						"contract": "Documents/dev/e-community-platform/in-progress/consent-management/src/blockchain/smart_contracts/contracts/ConsentContract.sol:ConsentContract",
						"label": "signature",
						"offset": 0,
						"slot": "2",
						"type": "t_struct(ContractSign)11_storage"
					}
				],
				"types": {
					"t_address": {
						"encoding": "inplace",
						"label": "address",
						"numberOfBytes": "20"
					},
					"t_bool": {
						"encoding": "inplace",
						"label": "bool",
						"numberOfBytes": "1"
					},
					"t_enum(STATE)6": {
						"encoding": "inplace",
						"label": "enum ConsentContract.STATE",
						"numberOfBytes": "1"
					},
					"t_struct(ContractSign)11_storage": {
						"encoding": "inplace",
						"label": "struct ConsentContract.ContractSign",
						"members": [
							{
								"astId": 8,
								"contract": "Documents/dev/e-community-platform/in-progress/consent-management/src/blockchain/smart_contracts/contracts/ConsentContract.sol:ConsentContract",
								"label": "signedByProposer",
								"offset": 0,
								"slot": "0",
								"type": "t_bool"
							},
							{
								"astId": 10,
								"contract": "Documents/dev/e-community-platform/in-progress/consent-management/src/blockchain/smart_contracts/contracts/ConsentContract.sol:ConsentContract",
								"label": "signedByConsenter",
								"offset": 1,
								"slot": "0",
								"type": "t_bool"
							}
						],
						"numberOfBytes": "32"
					}
				}
			},
			"userdoc": {
				"kind": "user",
				"methods": {},
				"version": 1
			}
		}
	}
}