{
  "contractName": "ConsentContract",
  "abi": [
    {
      "inputs": [
        {
          "internalType": "string",
          "name": "_contractID",
          "type": "string"
        }
      ],
      "stateMutability": "nonpayable",
      "type": "constructor"
    },
    {
      "anonymous": false,
      "inputs": [
        {
          "indexed": false,
          "internalType": "address",
          "name": "proposer",
          "type": "address"
        },
        {
          "indexed": false,
          "internalType": "address",
          "name": "consenter",
          "type": "address"
        },
        {
          "indexed": false,
          "internalType": "string",
          "name": "contractID",
          "type": "string"
        }
      ],
      "name": "ActiveContract",
      "type": "event"
    },
    {
      "anonymous": false,
      "inputs": [
        {
          "indexed": false,
          "internalType": "address",
          "name": "proposer",
          "type": "address"
        },
        {
          "indexed": false,
          "internalType": "address",
          "name": "consenter",
          "type": "address"
        },
        {
          "indexed": false,
          "internalType": "string",
          "name": "contractID",
          "type": "string"
        }
      ],
      "name": "ApprovedContract",
      "type": "event"
    },
    {
      "anonymous": false,
      "inputs": [
        {
          "indexed": false,
          "internalType": "address",
          "name": "proposer",
          "type": "address"
        },
        {
          "indexed": false,
          "internalType": "address",
          "name": "consenter",
          "type": "address"
        },
        {
          "indexed": false,
          "internalType": "string",
          "name": "contractID",
          "type": "string"
        }
      ],
      "name": "ClosedContract",
      "type": "event"
    },
    {
      "anonymous": false,
      "inputs": [
        {
          "indexed": false,
          "internalType": "address",
          "name": "proposer",
          "type": "address"
        },
        {
          "indexed": false,
          "internalType": "address",
          "name": "consenter",
          "type": "address"
        },
        {
          "indexed": false,
          "internalType": "string",
          "name": "contractID",
          "type": "string"
        }
      ],
      "name": "RevokedContract",
      "type": "event"
    },
    {
      "inputs": [],
      "name": "consenter",
      "outputs": [
        {
          "internalType": "address",
          "name": "",
          "type": "address"
        }
      ],
      "stateMutability": "view",
      "type": "function"
    },
    {
      "inputs": [],
      "name": "contractID",
      "outputs": [
        {
          "internalType": "string",
          "name": "",
          "type": "string"
        }
      ],
      "stateMutability": "view",
      "type": "function"
    },
    {
      "inputs": [],
      "name": "proposer",
      "outputs": [
        {
          "internalType": "address",
          "name": "",
          "type": "address"
        }
      ],
      "stateMutability": "view",
      "type": "function"
    },
    {
      "inputs": [],
      "name": "getContractDetails",
      "outputs": [
        {
          "internalType": "address",
          "name": "",
          "type": "address"
        },
        {
          "internalType": "address",
          "name": "",
          "type": "address"
        },
        {
          "internalType": "string",
          "name": "",
          "type": "string"
        },
        {
          "internalType": "uint256",
          "name": "",
          "type": "uint256"
        },
        {
          "internalType": "uint256",
          "name": "",
          "type": "uint256"
        },
        {
          "internalType": "uint256",
          "name": "",
          "type": "uint256"
        },
        {
          "internalType": "uint256",
          "name": "",
          "type": "uint256"
        },
        {
          "internalType": "uint256",
          "name": "",
          "type": "uint256"
        },
        {
          "internalType": "uint256",
          "name": "",
          "type": "uint256"
        }
      ],
      "stateMutability": "view",
      "type": "function"
    },
    {
      "inputs": [
        {
          "internalType": "address",
          "name": "_proposer",
          "type": "address"
        },
        {
          "internalType": "address",
          "name": "_consenter",
          "type": "address"
        },
        {
          "internalType": "uint256",
          "name": "_startEnergyData",
          "type": "uint256"
        },
        {
          "internalType": "uint256",
          "name": "_endEnergyData",
          "type": "uint256"
        },
        {
          "internalType": "uint256",
          "name": "_validityOfContract",
          "type": "uint256"
        },
        {
          "internalType": "uint256",
          "name": "_pricePerHour",
          "type": "uint256"
        },
        {
          "internalType": "uint256",
          "name": "_totalPrice",
          "type": "uint256"
        }
      ],
      "name": "setContractDetails",
      "outputs": [],
      "stateMutability": "nonpayable",
      "type": "function"
    },
    {
      "inputs": [],
      "name": "signContract",
      "outputs": [],
      "stateMutability": "nonpayable",
      "type": "function"
    },
    {
      "inputs": [],
      "name": "revokeConsent",
      "outputs": [],
      "stateMutability": "nonpayable",
      "type": "function"
    },
    {
      "inputs": [],
      "name": "deposit",
      "outputs": [],
      "stateMutability": "payable",
      "type": "function"
    },
    {
      "inputs": [],
      "name": "withdraw",
      "outputs": [],
      "stateMutability": "nonpayable",
      "type": "function"
    },
    {
      "inputs": [],
      "name": "getState",
      "outputs": [
        {
          "internalType": "enum ConsentContract.STATE",
          "name": "",
          "type": "uint8"
        }
      ],
      "stateMutability": "nonpayable",
      "type": "function"
    }
  ],
  "bytecode": "0x60806040523480156200001157600080fd5b50604051620016a9380380620016a98339818101604052810190620000379190620001e3565b80600090816200004891906200047f565b505062000566565b6000604051905090565b600080fd5b600080fd5b600080fd5b600080fd5b6000601f19601f8301169050919050565b7f4e487b7100000000000000000000000000000000000000000000000000000000600052604160045260246000fd5b620000b9826200006e565b810181811067ffffffffffffffff82111715620000db57620000da6200007f565b5b80604052505050565b6000620000f062000050565b9050620000fe8282620000ae565b919050565b600067ffffffffffffffff8211156200012157620001206200007f565b5b6200012c826200006e565b9050602081019050919050565b60005b83811015620001595780820151818401526020810190506200013c565b60008484015250505050565b60006200017c620001768462000103565b620000e4565b9050828152602081018484840111156200019b576200019a62000069565b5b620001a884828562000139565b509392505050565b600082601f830112620001c857620001c762000064565b5b8151620001da84826020860162000165565b91505092915050565b600060208284031215620001fc57620001fb6200005a565b5b600082015167ffffffffffffffff8111156200021d576200021c6200005f565b5b6200022b84828501620001b0565b91505092915050565b600081519050919050565b7f4e487b7100000000000000000000000000000000000000000000000000000000600052602260045260246000fd5b600060028204905060018216806200028757607f821691505b6020821081036200029d576200029c6200023f565b5b50919050565b60008190508160005260206000209050919050565b60006020601f8301049050919050565b600082821b905092915050565b600060088302620003077fffffffffffffffffffffffffffffffffffffffffffffffffffffffffffffffff82620002c8565b620003138683620002c8565b95508019841693508086168417925050509392505050565b6000819050919050565b6000819050919050565b6000620003606200035a62000354846200032b565b62000335565b6200032b565b9050919050565b6000819050919050565b6200037c836200033f565b620003946200038b8262000367565b848454620002d5565b825550505050565b600090565b620003ab6200039c565b620003b881848462000371565b505050565b5b81811015620003e057620003d4600082620003a1565b600181019050620003be565b5050565b601f8211156200042f57620003f981620002a3565b6200040484620002b8565b8101602085101562000414578190505b6200042c6200042385620002b8565b830182620003bd565b50505b505050565b600082821c905092915050565b6000620004546000198460080262000434565b1980831691505092915050565b60006200046f838362000441565b9150826002028217905092915050565b6200048a8262000234565b67ffffffffffffffff811115620004a657620004a56200007f565b5b620004b282546200026e565b620004bf828285620003e4565b600060209050601f831160018114620004f75760008415620004e2578287015190505b620004ee858262000461565b8655506200055e565b601f1984166200050786620002a3565b60005b8281101562000531578489015182556001820191506020850194506020810190506200050a565b868310156200055157848901516200054d601f89168262000441565b8355505b6001600288020188555050505b505050505050565b61113380620005766000396000f3fe6080604052600436106100915760003560e01c8063a8e4fb9011610059578063a8e4fb901461015f578063b8b4f1a01461018a578063d0e30db0146101a1578063e74071b4146101ab578063ff4c4d54146101d657610091565b80631865c57d1461009657806318f19283146100c15780633ccfd60b146100ea57806391f30bd4146101015780639dfc91171461012c575b600080fd5b3480156100a257600080fd5b506100ab6101ed565b6040516100b89190610b3b565b60405180910390f35b3480156100cd57600080fd5b506100e860048036038101906100e39190610bef565b6102f6565b005b3480156100f657600080fd5b506100ff6103a4565b005b34801561010d57600080fd5b50610116610532565b6040516101239190610d21565b60405180910390f35b34801561013857600080fd5b506101416105c0565b60405161015699989796959493929190610d61565b60405180910390f35b34801561016b57600080fd5b506101746106f0565b6040516101819190610df5565b60405180910390f35b34801561019657600080fd5b5061019f610716565b005b6101a961090a565b005b3480156101b757600080fd5b506101c06109f1565b6040516101cd9190610df5565b60405180910390f35b3480156101e257600080fd5b506101eb610a17565b005b60006001600681111561020357610202610ac4565b5b600960009054906101000a900460ff16600681111561022557610224610ac4565b5b036102e1576005544211156102e0577f039f84db2b73a2e16f49ce65a0682283effe20f445e9478169ab3aa0fb730b39600160009054906101000a900473ffffffffffffffffffffffffffffffffffffffff16600260009054906101000a900473ffffffffffffffffffffffffffffffffffffffff1660006040516102ac93929190610f09565b60405180910390a16006600960006101000a81548160ff021916908360068111156102da576102d9610ac4565b5b02179055505b5b600960009054906101000a900460ff16905090565b86600160006101000a81548173ffffffffffffffffffffffffffffffffffffffff021916908373ffffffffffffffffffffffffffffffffffffffff16021790555085600260006101000a81548173ffffffffffffffffffffffffffffffffffffffff021916908373ffffffffffffffffffffffffffffffffffffffff160217905550846003819055508360048190555082600581905550816006819055508060078190555050505050505050565b600260068111156103b8576103b7610ac4565b5b600960009054906101000a900460ff1660068111156103da576103d9610ac4565b5b1461041a576040517f08c379a000000000000000000000000000000000000000000000000000000000815260040161041190610fb9565b60405180910390fd5b600260009054906101000a900473ffffffffffffffffffffffffffffffffffffffff1673ffffffffffffffffffffffffffffffffffffffff166108fc6007549081150290604051600060405180830381858888f19350505050158015610484573d6000803e3d6000fd5b507fdfde2bc2d00cb2b6a054b7cc8987cd2a52e4ad1347eba33959b515a96e8ab931600260009054906101000a900473ffffffffffffffffffffffffffffffffffffffff16600160009054906101000a900473ffffffffffffffffffffffffffffffffffffffff1660006040516104fd93929190610f09565b60405180910390a16001600960006101000a81548160ff0219169083600681111561052b5761052a610ac4565b5b0217905550565b6000805461053f90610e3f565b80601f016020809104026020016040519081016040528092919081815260200182805461056b90610e3f565b80156105b85780601f1061058d576101008083540402835291602001916105b8565b820191906000526020600020905b81548152906001019060200180831161059b57829003601f168201915b505050505081565b6000806060600080600080600080600160009054906101000a900473ffffffffffffffffffffffffffffffffffffffff16600260009054906101000a900473ffffffffffffffffffffffffffffffffffffffff166000600354600454600554600654600754600960009054906101000a900460ff16600681111561064757610646610ac4565b5b86805461065390610e3f565b80601f016020809104026020016040519081016040528092919081815260200182805461067f90610e3f565b80156106cc5780601f106106a1576101008083540402835291602001916106cc565b820191906000526020600020905b8154815290600101906020018083116106af57829003601f168201915b50505050509650985098509850985098509850985098509850909192939495969798565b600160009054906101000a900473ffffffffffffffffffffffffffffffffffffffff1681565b600160009054906101000a900473ffffffffffffffffffffffffffffffffffffffff1673ffffffffffffffffffffffffffffffffffffffff163373ffffffffffffffffffffffffffffffffffffffff16036107b5576001600860000160006101000a81548160ff0219169083151502179055506000600960006101000a81548160ff021916908360068111156107af576107ae610ac4565b5b02179055505b600260009054906101000a900473ffffffffffffffffffffffffffffffffffffffff1673ffffffffffffffffffffffffffffffffffffffff163373ffffffffffffffffffffffffffffffffffffffff1603610829576001600860000160016101000a81548160ff0219169083151502179055505b600860000160009054906101000a900460ff1680156108575750600860000160019054906101000a900460ff165b15610908577f32f67f50e910168ca990077eeea1f27f4ff0c20c08adddf57c2258d39f7089d1600160009054906101000a900473ffffffffffffffffffffffffffffffffffffffff16600260009054906101000a900473ffffffffffffffffffffffffffffffffffffffff1660006040516108d493929190610f09565b60405180910390a16003600960006101000a81548160ff0219169083600681111561090257610901610ac4565b5b02179055505b565b6003600681111561091e5761091d610ac4565b5b600960009054906101000a900460ff1660068111156109405761093f610ac4565b5b14610980576040517f08c379a00000000000000000000000000000000000000000000000000000000081526004016109779061104b565b60405180910390fd5b60075434146109c4576040517f08c379a00000000000000000000000000000000000000000000000000000000081526004016109bb906110dd565b60405180910390fd5b6002600960006101000a81548160ff021916908360068111156109ea576109e9610ac4565b5b0217905550565b600260009054906101000a900473ffffffffffffffffffffffffffffffffffffffff1681565b6005600960006101000a81548160ff02191690836006811115610a3d57610a3c610ac4565b5b02179055507fb6665ce9328d680496da413a6263c2312bc384568ceffa52b0f27e04a64f3a04600160009054906101000a900473ffffffffffffffffffffffffffffffffffffffff16600260009054906101000a900473ffffffffffffffffffffffffffffffffffffffff166000604051610aba93929190610f09565b60405180910390a1565b7f4e487b7100000000000000000000000000000000000000000000000000000000600052602160045260246000fd5b60078110610b0457610b03610ac4565b5b50565b6000819050610b1582610af3565b919050565b6000610b2582610b07565b9050919050565b610b3581610b1a565b82525050565b6000602082019050610b506000830184610b2c565b92915050565b600080fd5b600073ffffffffffffffffffffffffffffffffffffffff82169050919050565b6000610b8682610b5b565b9050919050565b610b9681610b7b565b8114610ba157600080fd5b50565b600081359050610bb381610b8d565b92915050565b6000819050919050565b610bcc81610bb9565b8114610bd757600080fd5b50565b600081359050610be981610bc3565b92915050565b600080600080600080600060e0888a031215610c0e57610c0d610b56565b5b6000610c1c8a828b01610ba4565b9750506020610c2d8a828b01610ba4565b9650506040610c3e8a828b01610bda565b9550506060610c4f8a828b01610bda565b9450506080610c608a828b01610bda565b93505060a0610c718a828b01610bda565b92505060c0610c828a828b01610bda565b91505092959891949750929550565b600081519050919050565b600082825260208201905092915050565b60005b83811015610ccb578082015181840152602081019050610cb0565b60008484015250505050565b6000601f19601f8301169050919050565b6000610cf382610c91565b610cfd8185610c9c565b9350610d0d818560208601610cad565b610d1681610cd7565b840191505092915050565b60006020820190508181036000830152610d3b8184610ce8565b905092915050565b610d4c81610b7b565b82525050565b610d5b81610bb9565b82525050565b600061012082019050610d77600083018c610d43565b610d84602083018b610d43565b8181036040830152610d96818a610ce8565b9050610da56060830189610d52565b610db26080830188610d52565b610dbf60a0830187610d52565b610dcc60c0830186610d52565b610dd960e0830185610d52565b610de7610100830184610d52565b9a9950505050505050505050565b6000602082019050610e0a6000830184610d43565b92915050565b7f4e487b7100000000000000000000000000000000000000000000000000000000600052602260045260246000fd5b60006002820490506001821680610e5757607f821691505b602082108103610e6a57610e69610e10565b5b50919050565b60008190508160005260206000209050919050565b60008154610e9281610e3f565b610e9c8186610c9c565b94506001821660008114610eb75760018114610ecd57610f00565b60ff198316865281151560200286019350610f00565b610ed685610e70565b60005b83811015610ef857815481890152600182019150602081019050610ed9565b808801955050505b50505092915050565b6000606082019050610f1e6000830186610d43565b610f2b6020830185610d43565b8181036040830152610f3d8184610e85565b9050949350505050565b7f4e6f7468696e672077697468647261772c20636f6e73656e746572206e65656460008201527f7320746f2073656e642045544820666972737400000000000000000000000000602082015250565b6000610fa3603383610c9c565b9150610fae82610f47565b604082019050919050565b60006020820190508181036000830152610fd281610f96565b9050919050565b7f436f6e7472616374206e65656420746f206265207369676e65642066726f6d2060008201527f626f746820706172746965730000000000000000000000000000000000000000602082015250565b6000611035602c83610c9c565b915061104082610fd9565b604082019050919050565b6000602082019050818103600083015261106481611028565b9050919050565b7f596f75206e65656420746f206465706f7369742074686520616772656564207060008201527f7269636521000000000000000000000000000000000000000000000000000000602082015250565b60006110c7602583610c9c565b91506110d28261106b565b604082019050919050565b600060208201905081810360008301526110f6816110ba565b905091905056fea26469706673582212209efb21925b5b302515a0153d28bab5916d65f9fbca638db97c288ea8bf7caffb64736f6c63430008110033",
  "immutableReferences": {},
  "source": "// SPDX-License-Identifier: GPL-3.0\n\npragma solidity >=0.7.0 <0.9.0;\n\n/** \n * base contract for consent contracts\n * @title Consent Contract\n*/\ncontract ConsentContract {\n\n    // state of contract (mostly used for UI)\n    enum STATE {\n        CONTRACT_PENDING,\n        CONTRACT_ACTIVE,\n        CONTRACT_PAYMENT_DEPOSIT,\n        CONTRACT_PAYMENT_PENDING,\n        CONTRACT_REJECTED,\n        CONTRACT_REVOKED,\n        CONTRACT_CLOSED\n    }\n\n    // both parties need to sign the contract\n    struct ContractSign {\n        bool signedByProposer;\n        bool signedByConsenter;\n    }\n\n\n    // notify payment is received => contract is now valid\n    event ActiveContract(address proposer, address consenter, string contractID);\n\n    // notify proposer that the contract got signed by the consenter\n    event ApprovedContract(address proposer, address consenter, string contractID);\n\n    // notify both when contract gets closed\n    event ClosedContract(address proposer, address consenter, string contractID);\n\n    // notify proposer that the contract got revoked\n    event RevokedContract(address proposer, address consenter, string contractID);\n\n    // Contract Details\n    string public contractID;\n    address public proposer; // address of the owner of the contract (proposer)    \n    address public consenter; // address of the consenter\n    uint private startEnergyData; \n    uint private endEnergyData;\n    uint private validityOfContract;\n    uint private pricePerHour;\n    uint private totalPrice;\n    \n    // signature of both parties\n    ContractSign private signature;\n\n    // State of the contract\n    STATE private contractState;\n\n    /**\n     * create a new consent contract\n     * @param _contractID each contract has a unique contractID\n     */\n    constructor(string memory _contractID) {\n        contractID = _contractID;\n    }\n\n    /**\n     * get the contract represented in \"json\" string\n     * @return object as string\n     */\n    function getContractDetails() public view returns(address, address, \n                                                      string memory, uint, \n                                                      uint, uint, uint, uint, uint) {\n        return (proposer, \n                consenter, \n                contractID, \n                startEnergyData, \n                endEnergyData, \n                validityOfContract, \n                pricePerHour, \n                totalPrice,\n                uint(contractState));\n    }\n\n    /**\n     * set details about the contract\n     * @param _proposer creator of the contract (wants energy data from the consenter)\n     * @param _consenter give consent about the energy data to the proposer\n     * @param _startEnergyData start date of the energy date (epoche)\n     * @param _endEnergyData end date of the energy date (epoche)\n     * @param _validityOfContract validity date for the contract (epoche)\n     * @param _pricePerHour price for 1h of energy data (in Wei)\n     * @param _totalPrice total price for all energy data (in Wei)\n     */\n    function setContractDetails(\n        address _proposer,\n        address _consenter, \n        uint _startEnergyData, \n        uint _endEnergyData,\n        uint _validityOfContract,\n        uint _pricePerHour,\n        uint _totalPrice\n    ) public onlyOwner {\n        proposer = _proposer;\n        consenter = _consenter;\n        startEnergyData = _startEnergyData;\n        endEnergyData = _endEnergyData;\n        validityOfContract = _validityOfContract;\n        pricePerHour = _pricePerHour;\n        totalPrice = _totalPrice;\n    }\n\n    /** \n     * both parties need to sign the contract inorder to start the energy sharing\n     * proposer also needs to sign the contract because the consenter\n     * can modify the regulations before the contract is active\n     */\n    function signContract() public bothParties {\n        if (msg.sender == proposer) { \n            signature.signedByProposer = true; \n            contractState = STATE.CONTRACT_PENDING;\n        }\n        if (msg.sender == consenter) {\n            signature.signedByConsenter = true;\n        }\n\n        if (signature.signedByProposer && signature.signedByConsenter) {\n            emit ApprovedContract(proposer, consenter, contractID);\n            contractState = STATE.CONTRACT_PAYMENT_PENDING;\n        }\n    }\n\n    // contract can be revoked from both parties\n    // @NOT_IN_USE as of now\n    function revokeConsent() public bothParties {\n        contractState = STATE.CONTRACT_REVOKED;\n        emit RevokedContract(proposer, consenter, contractID);\n    }\n\n    // proposer needs to deposit the agreed ethers to the contract\n    /**\n     * proposer need to deposit the agreed price to the contract wallet\n     * {require} both parties need to sign the contract before\n     * {require} the msg.value needs to be the agreed price\n     */\n    function deposit() public payable onlyOwner {\n        require(contractState == STATE.CONTRACT_PAYMENT_PENDING, \"Contract need to be signed from both parties\");\n        require(msg.value == totalPrice, \"You need to deposit the agreed price!\");\n        \n        contractState = STATE.CONTRACT_PAYMENT_DEPOSIT;\n    }\n\n    /**\n     * withdraw the ethers balance from the contract to address of the consenter\n     * after withdraw the contract is active and running\n     * {require} ethers were deposited to the contract\n     */\n    function withdraw() public onlyConsenter {\n        require(contractState == STATE.CONTRACT_PAYMENT_DEPOSIT, \"Nothing withdraw, consenter needs to send ETH first\");\n\n        // transfer the ether to the consenter from the contract wallet\n        payable(consenter).transfer(totalPrice);\n\n        // fire event that the contract is now valid\n        emit ActiveContract(consenter, proposer, contractID);\n\n        contractState = STATE.CONTRACT_ACTIVE;\n    }\n\n    // returns the contract state, will be always called when the user interact with energy data\n    /**\n     * returns the current state of the contract\n     * used for displaying status in the UI\n     * @return STATE\n     */\n    function getState() public returns(STATE) {\n\n        // check if contract is still valid if not emit Closed() event\n        if (contractState == STATE.CONTRACT_ACTIVE) {\n            if (block.timestamp > validityOfContract) {\n                emit ClosedContract(proposer, consenter, contractID);\n                contractState = STATE.CONTRACT_CLOSED;\n            }\n        }\n        \n        return contractState;\n    }\n\n    // modifier for functions only the owner can execute\n    modifier onlyOwner() {\n        //require(msg.sender == proposer);\n        _;\n    }\n\n    // modifier for functions only the consenter can execute\n    modifier onlyConsenter() {\n        //require(msg.sender == consenter);\n        _;\n    }\n\n    // modifier for functions, both parties (proposer and consenter) can execute\n    modifier bothParties() {\n        //require(msg.sender == proposer || msg.sender == consenter);\n        _;\n    }\n}\n",
  "sourcePath": "/Users/michael/Documents/dev/e-community-platform/in-progress/consent-management/src/blockchain/smart_contracts/contracts/ConsentContract.sol",
  "compiler": {
    "name": "solc",
    "version": "0.8.17+commit.8df45f5f.Emscripten.clang"
  },
  "schemaVersion": "3.4.11",
  "updatedAt": "2023-01-17T11:40:54.627Z",
  "devdoc": {
    "kind": "dev",
    "methods": {
      "constructor": {
        "params": {
          "_contractID": "each contract has a unique contractID"
        }
      },
      "getContractDetails()": {
        "returns": {
          "_0": "object as string"
        }
      },
      "getState()": {
        "returns": {
          "_0": "STATE"
        }
      },
      "setContractDetails(address,address,uint256,uint256,uint256,uint256,uint256)": {
        "params": {
          "_consenter": "give consent about the energy data to the proposer",
          "_endEnergyData": "end date of the energy date (epoche)",
          "_pricePerHour": "price for 1h of energy data (in Wei)",
          "_proposer": "creator of the contract (wants energy data from the consenter)",
          "_startEnergyData": "start date of the energy date (epoche)",
          "_totalPrice": "total price for all energy data (in Wei)",
          "_validityOfContract": "validity date for the contract (epoche)"
        }
      }
    },
    "title": "Consent Contract",
    "version": 1
  },
  "userdoc": {
    "kind": "user",
    "methods": {
      "constructor": {
        "notice": "create a new consent contract"
      },
      "deposit()": {
        "notice": "proposer need to deposit the agreed price to the contract wallet {require} both parties need to sign the contract before {require} the msg.value needs to be the agreed price"
      },
      "getContractDetails()": {
        "notice": "get the contract represented in \"json\" string"
      },
      "getState()": {
        "notice": "returns the current state of the contract used for displaying status in the UI"
      },
      "setContractDetails(address,address,uint256,uint256,uint256,uint256,uint256)": {
        "notice": "set details about the contract"
      },
      "signContract()": {
        "notice": "both parties need to sign the contract inorder to start the energy sharing proposer also needs to sign the contract because the consenter can modify the regulations before the contract is active"
      },
      "withdraw()": {
        "notice": "withdraw the ethers balance from the contract to address of the consenter after withdraw the contract is active and running {require} ethers were deposited to the contract"
      }
    },
    "notice": "base contract for consent contracts",
    "version": 1
  }
}